:020000040800F2
:10000000385F00205D030008313E0008F736000825
:100010002D3E0008390A0008A14000080000000039
:100020000000000000000000000000009D02000829
:100030006D0A000800000000F9020008713E000887
:1000400077030008770300087703000877030008A8
:100050007703000877030008770300087703000898
:100060007703000877030008770300087703000888
:100070007703000877030008770300087703000878
:100080007703000877030008770300084D0A00088B
:100090003D0A00087703000877030008770300088B
:1000A0007703000877030008770300087703000848
:1000B0007703000877030008770300087703000838
:1000C0007703000877030008770300087703000828
:1000D000770300087D4000087703000877030008D5
:1000E0007703000877030008770300087703000808
:1000F00077030008770300087703000877030008F8
:1001000077030008770300087703000877030008E7
:10011000770300087703000877030008C13E000852
:1001200077030008770300085D0A000877030008DA
:1001300077030008770300087703000877030008B7
:1001400077030008770300087703000877030008A7
:100150007703000877030008770300089140000840
:100160007703000877030008770300087703000887
:1001700077030008770300087703000800000000F9
:1001800077030008770300085D4000086D40000811
:100190007703000877030008770300087703000857
:1001A00000000000000000007703000800F002F8E3
:1001B00000F065F80AA090E8000C82448344AAF19C
:1001C0000107DA4501D100F05AF8AFF2090EBAE89A
:1001D0000F0013F0010F18BFFB1A43F0010318477B
:1001E00050B4000070B400000A444FF0000C10F846
:1001F000013B13F0070408BF10F8014B1D1108BFA5
:1002000010F8015B641E05D010F8016B641E01F844
:10021000016BF9D113F0080F1EBF10F8014BAD1C94
:100220000C1B09D16D1E58BF01F801CBFAD505E0B2
:1002300014F8016B01F8016B6D1EF9D59142D6D30C
:10024000704700000023002400250026103A28BF34
:1002500078C1FBD8520728BF30C148BF0B60704738
:100260001FB50AF0BAFF9DE8030000F061FA00F044
:10027000C5F91FBD10B5002000F010FA10BD00F048
:10028000B6FA1146FFF7ECFF08F06CFA00F0EEFA50
:1002900003B4FFF7EFFF03BC00F066FB2C4B1968BB
:1002A0000868B0E8F04F80F30988BFF36F8F4FF014
:1002B000000080F3118870470000000008480068C3
:1002C000006880F308884FF0000080F3148862B65D
:1002D00061B6BFF34F8FBFF36F8F00DF00BF00BF6A
:1002E00008ED00E0DFF80C00016841F470010160E6
:1002F000704700BF88ED00E0EFF30980BFF36F8F18
:10030000134B1A681EF0100F08BF20ED108A20E969
:10031000F04F106009B44FF0500080F31188BFF324
:100320004F8FBFF36F8F09F00DF94FF0000080F38E
:10033000118809BC19680868B0E8F04F1EF0100F6A
:1003400008BFB0EC108A80F30988BFF36F8F704745
:1003500034000020EFF30580704700000948804713
:1003600009480047FEE7FEE7FEE7FEE7FEE7FEE797
:10037000FEE7FEE7FEE7FEE704480549054A064BAF
:1003800070470000A53E0008AD0100083859002064
:10039000385F0020385B0020385B002053EA020CF5
:1003A00000F069802DE9F04B4FF00006002B1FBFD5
:1003B000B3FA83F503FA05F424FA05F65E4012BF9A
:1003C0001643B2FA82F502FA05F4C5F120051EBF04
:1003D00022FA05FC44EA0C04203556EA044C4FEAA4
:1003E000144418BF641C4FF000084FF000099042FD
:1003F00071EB030C39D3002919BFB1FA81F701FA67
:1004000007F6B0FA80F700FA07F6C7F120071EBF1B
:1004100020FA07FC46EA0C062037B6FBF4FCA7EBF3
:100420000507103F07F01F0BCBF120060CFA0BFB62
:100430002CFA06F644BFB3460026202FA4BF5E4622
:100440004FF0000B5BEA060C08BF4FF0010B19EBF5
:100450000B09ABFB027C48EB0608C01B06FB02CC79
:100460000BFB03CC71EB0C01C1E70B460246414686
:100470004846BDE8F08B13B54FF000004FF0000187
:10048000AFF30080BDE81C4070472DE9F0410746FE
:1004900015460E46102000F0C7F804000AD0676029
:1004A000C4E9026500F0BCF8016821600460002026
:1004B000BDE8F0810120FBE7032A40F2308010F014
:1004C000030C00F0158011F8013BBCF1020F6244EF
:1004D00098BF11F801CB00F8013B38BF11F8013B80
:1004E000A2F1040298BF00F801CB38BF00F8013B2D
:1004F00011F0030300F02580083AC0F0088051F89D
:10050000043B083A51F804CBA0E80810F5E7121DA7
:100510005CBF51F8043B40F8043BAFF30080D207C6
:1005200024BF11F8013B11F801CB48BF11F8012B92
:1005300024BF00F8013B00F801CB48BF00F8012BB5
:10054000704710B5203AC0F00B80B1E81850203A3F
:10055000A0E81850B1E81850A0E81850BFF4F5AF63
:100560005FEA027C24BFB1E81850A0E8185044BFED
:1005700018C918C0BDE810405FEA827C24BF51F85A
:10058000043B40F8043B08BF7047D20728BF31F84E
:10059000023B48BF11F8012B28BF20F8023B48BF9F
:1005A00000F8012B70474FF0000200B51346944647
:1005B0009646203922BFA0E80C50A0E80C50B1F1BB
:1005C0002001BFF4F7AF090728BFA0E80C5048BFCF
:1005D0000CC05DF804EB890028BF40F8042B08BF6D
:1005E000704748BF20F8022B11F0804F18BF00F869
:1005F000012B7047704770477047000070B5064C7C
:100600007C44064D7D4403E0206820448047241D3F
:10061000AC42F9D170BD00004CB000005CB00000ED
:10062000004870470C59002070B5064600F05CF891
:10063000056806F10B0020F00704B4429CBF0020BF
:1006400070BD2B466A68BAB11068A04210D304F19D
:10065000080188423CBF5068586007D351681019A0
:1006600041601168091B016058601460101D70BD65
:1006700013465268002AE7D12146284600F044F884
:100680000028DED170BD10B500F036F8006810BD4E
:1006900010B5044600F030F8046010BD2DE9F041BB
:1006A0000646FFF7BDFF8046454613E016B1E068F9
:1006B000B0420ED120682860D4E90101D8F800705A
:1006C0008847204600F06AF8D8F80000B842EBD11D
:1006D00000E025462C68002CE8D1BDE8F081000040
:1006E00000487047D458002000487047DC5800206C
:1006F000004870470859002000487047D45800202F
:10070000704770477047704738B504460A46002066
:100710006946AFF30080002808BF38BD0246009943
:10072000204600F089F8012038BD012000F0A7B86C
:10073000F8B5AFF30080054600200C46102000BF3E
:100740000646A819A0420DD9324669460020AFF3EB
:100750000080070008BF00F092F80098A04218BF80
:100760000546C419FFF7C0FF05600746F01D20F0DD
:1007700007004619284600F00AF8B44208BFF8BD41
:10078000A21B31463868BDE8F84000F055B800219A
:100790000160C0E9011070471020704770B5044631
:1007A000051FFFF7A1FF0068002C14BF446870BD4F
:1007B000002C18BFAC423CBF20466468F8D30168E7
:1007C0000A18AA4218BF456003D12A680546114499
:1007D000016028684119A1421CBF6C6070BD61684E
:1007E000696021680844286070BD00F04FB8754604
:1007F000FFF776FFAE4605006946534620F0070036
:10080000854618B020B5FFF7B7FDBDE820404FF092
:1008100000064FF000074FF000084FF0000B21F0EA
:100820000701AC46ACE8C009ACE8C009ACE8C009B7
:10083000ACE8C0098D467047034640688C460028E6
:1008400018BF88423CBF03464068F8D31868184474
:10085000884207D00CF1030020F00700001D411A68
:10086000521A0146081D0A60FFF798BF10B50446EA
:10087000AFF300802046BDE81040FFF709BD10B57A
:1008800000F022F8BDE8104000F019B810B500F0F3
:1008900046F8016919B100220261884701E08068C9
:1008A000804700F001F8704710B5002000F07FF895
:1008B000FFF7E0FCBDE81040012000F055B800282B
:1008C00001D000F051B8704710B5012805D00021C3
:1008D00003A000F053F8012010BD09A1F8E70000C3
:1008E00053494752544D454D3A204F7574206F6619
:1008F0002068656170206D656D6F72790000000081
:100900003A2048656170206D656D6F727920636F64
:10091000727275707465640010B5FFF7C5FF70B52D
:1009200000F028F804680546A4B92020FFF77CFEF3
:10093000040011D0094900202C60C4E900010849D5
:10094000A1602073206160610649A06109B100F0D7
:1009500035F8E061204670BDFFF7A6FF00000000FB
:10096000190900080000000001491820ABBEFEE78D
:1009700026000200004870471059002070B5054657
:100980000C460A2000E06D1C00F036F835B12878DE
:100990000028F8D102E0641C00F02EF814B1207891
:1009A0000028F8D1BDE870400A2000F025B810B545
:1009B00000F02AF8BDE81040FFF781BF10B588208D
:1009C000FFF732FE002801D00021017010BD802900
:1009D00002D808B1017809B100207047012100F860
:1009E000081B704718B100F10802914201D00020A5
:1009F000704700210170704708B569468DF8000006
:100A00000320ABBE08BD000010B5002102A0FFF717
:100A1000B5FF012010BD0000534947414252543AEE
:100A20002041626E6F726D616C207465726D696ECB
:100A30006174696F6E00000000BFFEE710B50248E8
:100A400000F026FA10BD00001002002010B5024888
:100A500000F01EFA10BD00001002002010B5024880
:100A600000F0F8FC10BD00009004002070477047B3
:100A7000F0B504460D461E4694F820702068836841
:100A8000A86800B900E000BF012F01D0022F7CD17F
:100A900003F0806030B903F0006018B903F08050B3
:100AA000002873D0C3F30161022905D9606A40F4BC
:100AB000000060620120F0BD012088403060A8681D
:100AC00060B9B5F800C0E86840EA4C5C206800F501
:100AD000C07000EB0110C0F800C00FE0D5E901C004
:100AE00040EACC00D5F80CC040EA0C00D4F800C0B5
:100AF0000CF5C07C0CEB011CCCF80000D5F810C044
:100B0000206800F5C07000EB0110C0F804C0287D1B
:100B100001280ED1206800F5C07000EB011040687C
:100B200040F4807C206800F5C07000EB0110C0F834
:100B300004C0D079000692F806C040EA0C4092F852
:100B400005C040EA0C2C10794CEA000C206800F536
:100B5000C07000EB0110C0F80CC0D078000692F80D
:100B600002C040EA0C4092F801C040EA0C2092F822
:100B700000C040EA0C00D4F800C00CF5C07C0CEBBF
:100B8000011CCCF80800206801E016E00FE000F539
:100B9000C07000EB0110006840F0010C206800F507
:100BA000C07000EB0110C0F800C0002083E7606A4D
:100BB00040F40010606201207DE7606A40F480200C
:100BC0006062012077E70000F0B504460A4621681C
:100BD00094F82050012D01D0022D7ED1424901F51B
:100BE0000071086840F001000860086820F47C503B
:100BF00008600868566A40EA06200860107D00F028
:100C00001F06012000FA06F3C8699843C861A1F5E0
:100C10000071D069C8B9D1F80C029843C1F80C0230
:100C2000908880B2968940EA064601F510705769AF
:100C300040F83760108880B2168940EA064601F510
:100C40001070576900EBC7004660D069012819D1C0
:100C5000D1F80C021843C1F80C02908880B21688B3
:100C600040EA064601F51070576940F837609089F0
:100C700080B2168940EA064601F51070576900EB0C
:100C8000C7004660906928B9D1F804029843C1F8BA
:100C9000040204E0D1F804021843C1F80402106908
:100CA00028B9D1F814029843C1F8140204E0D1F82D
:100CB00014021843C1F81402106A012804D1D1F8B3
:100CC0001C021843C1F81C02D1F8000220F00100F8
:100CD000C1F800020020F0BDFFE7606A40F4802008
:100CE00060620120F7E7000000640040704710B523
:100CF0000246002092F82030012B01D0022B09D1AE
:100D000021B91468E46804F0030003E0146824695E
:100D100004F0030010BD70B5044694F82050012D76
:100D200001D0022D7DD151B92068C06800F00300C8
:100D300080B9606A40F400106062012070BD2068D4
:100D4000006900F0030028B9606A40F40010606296
:100D50000120F3E7206800F5D87000EB011000686F
:100D600000F004009060906840B9206800F5D870E9
:100D700000EB01100068400D106007E0206800F5EE
:100D8000D87000EB01100068C0085060206800F5C2
:100D9000D87000EB0110006800F00200D0602068FD
:100DA00000F5D87000EB0110406800F00F001061F2
:100DB000206800F5D87000EB0110406800F47F4017
:100DC000000A9061206800F5D87000EB01104068BF
:100DD000000C5061206800F5D87000EB01108068AD
:100DE0001870206800F5D87000EB0110806800F4DE
:100DF0007F40000A5870206800F5D87000EB0110A1
:100E0000806800F47F00000C9870206800F5D870AE
:100E100000EB01108068000ED870206800F5D870D3
:100E200000E02FE000EB0110C0681871206800F5A9
:100E3000D87000EB0110C06800F47F40000A5871C0
:100E4000206800F5D87000EB0110C06800F47F0046
:100E5000000C9871206800F5D87000EB0110C06894
:100E6000000ED87131B92068C06840F020002668B3
:100E7000F06005E02068006940F0200026683061DD
:100E800000205BE7606A40F480206062012055E743
:100E90002DE9F05F04460025206846692068D0F8F7
:100EA0000490206887682068D0F80CA02068D0F8EB
:100EB00010B02068D0F8188006F00100002855D046
:100EC00007F00100C0B101202168886007F002002E
:100ED00018B1204600F0A3FA0EE007F0040010B1AC
:100EE00045F4006508E007F0080010B145F48055AE
:100EF00002E0204600F092FA07F48070C8B14FF487
:100F000080702168886007F4007018B1204600F0F6
:100F100088FA0EE007F4806010B145F4005508E04F
:100F200007F4006010B145F4804502E0204600F06F
:100F300077FA07F48030C8B14FF4803021688860B8
:100F400007F4003018B1204600F06DFA0EE007F407
:100F5000802010B145F4004508E007F4002010B1EE
:100F600045F4803502E0204600F05CFA06F0080007
:100F700038B10AF0100020B145F400751020216846
:100F8000C86006F0040040B10AF0080028B108204B
:100F90002168C860204600F00DFA06F0020038B162
:100FA0002068C06800F0030010B1204600F003FA8A
:100FB00006F0400038B10BF0100020B145F4806518
:100FC00010202168086106F0200040B10BF00800F5
:100FD00028B1082021680861204600F0EDF906F0EC
:100FE000100038B12068006900F0030010B12046FD
:100FF00000F0E3F906F4003040B109F0100028B128
:10100000102021684860204600F0D8F906F48030AE
:1010100040B109F0080028B1082021684860204646
:1010200000F002FA06F4004088B309F0040078B337
:1010300006F4807020B108F0010008B145F0010508
:1010400006F4007020B108F0020008B145F0020576
:1010500006F4806020B108F0040008B145F00405F2
:1010600006F40060A0B108F0700088B108F07000CC
:10107000402817D006DC10280BD020280CD03028B0
:1010800019D10CE0502810D0602814D110E01DE0D8
:1010900019E045F008050FE045F010050CE045F0BB
:1010A000200509E045F0400506E045F0800503E035
:1010B00045F4807500E000BF00BF2068806920F023
:1010C0007000216888610420216848602DB1606A41
:1010D000284360622046FFF709FEBDE8F09F70B527
:1010E00004460CB9012070BD94F8200010B92046C8
:1010F00000F0B0F82068006820F002002168086065
:1011000000F0A4FC05460DE000F0A0FC401B0A28FE
:1011100008D9606A40F400306062052084F820003D
:101120000120E0E72068406800F002000028EBD1D1
:101130002068006840F001002168086000F086FC2B
:1011400005460DE000F082FC401B0A2808D9606AC1
:1011500040F400306062052084F820000120C2E7DE
:101160002068406800F001000028EBD0207E0128B4
:1011700006D12068006840F080002168086005E022
:101180002068006820F0800021680860607E0128E7
:1011900006D12068006840F040002168086005E042
:1011A0002068006820F0400021680860A07E0128C7
:1011B00006D12068006840F020002168086005E042
:1011C0002068006820F0200021680860E07E012887
:1011D00006D12068006820F010002168086005E052
:1011E0002068006840F0100021680860207F012816
:1011F00006D12068006840F008002168086005E01A
:101200002068006820F0080021680860607F0128DD
:1012100006D12068006840F004002168086005E0FD
:101220002068006820F0040021680860D4E9020109
:10123000084321690843616908436168491E0843FE
:101240002168C86100206062012084F8200000202D
:1012500049E7000010B586B00446142101A8FFF745
:10126000A2F94E492068884249D14D480068401C87
:101270004B4908600846006801280FD100BF0020D4
:1012800000904848006840F00070464908600846F1
:10129000006800F00070009000BF00BF00BF002099
:1012A000009040481038006840F008003D4910396F
:1012B00008600846006800F00800009000BF00BF0A
:1012C000032001900220029000200390032004904C
:1012D0000920059001A9344800F09AFA002205215E
:1012E000132000F063FC132000F050FC00220521C5
:1012F000142000F05BFC142000F048FC4CE02B496B
:101300002068884248D100BF00200090254800682E
:1013100040F08060234908600846006800F0806063
:10132000009000BF00BF1E480068401C1C490860B8
:101330000846006801280FD100BF0020009019481E
:10134000006840F00070174908600846006800F027
:101350000070009000BF00BF00BF00200090114847
:101360001038006840F002000E4910390860084645
:10137000006800F00200009000BF00BF60200190F4
:101380000220029000200390032004900920059081
:1013900001A9074800F03CFA06B010BD0064004007
:1013A0002000002040380240000C0240006800404D
:1013B000000402407047704770477047704770B52F
:1013C000044694F82000012822D1022084F820004D
:1013D0002068006820F001002168086000F036FBFA
:1013E00005460DE000F032FB401B0A2808D9606A70
:1013F00040F400306062052084F82000012070BDB8
:101400002068406800F001000028EBD16062F6E738
:10141000606A40F4002060620120F0E77047704786
:1014200070477047704770477047014691F8350024
:10143000022803D08020486501207047052081F8EC
:1014400035000868006820F001000A68106000207C
:10145000F3E70000F8B50446002000908C480068CF
:101460004FF41651B0FBF1F7A56D2E6894F85C109F
:1014700008208840304098B12068006800F00400DF
:1014800070B12068006820F004002168086094F8BA
:101490005C1008208840A860606D40F00100606525
:1014A00094F85C1001208840304068B120684069A1
:1014B00000F0800040B194F85C1001208840A860E2
:1014C000606D40F00200606594F85C100420884074
:1014D000304068B12068006800F0020040B194F824
:1014E0005C1004208840A860606D40F004006065D6
:1014F00094F85C1010208840304078B32068006871
:1015000000F0080050B394F85C1010208840A860E8
:101510002068006800F4802080B12068006800F432
:10152000002028B9206CC8B12046216C884715E0FE
:10153000A06C98B12046A16C88470FE02068006835
:1015400000F4807028B92068006820F00800216845
:101550000860206C10B12046216C884794F85C101C
:10156000202088403040002865D02068006800F0C6
:10157000100000285FD094F85C1020208840A860FC
:1015800094F83500052828D12068006820F016005E
:10159000216808602068406920F080002168486167
:1015A000206C08B9A06C28B12068006820F0080001
:1015B0002168086094F85C103F208840A86000BF54
:1015C000002084F8340000BF012084F83500206D2D
:1015D00010B12046216D8847F8BD2068006800F4EE
:1015E000802080B12068006800F4002028B9606C79
:1015F00010B12046616C88471DE0E06BD8B12046F1
:10160000E16B884717E02068006800F4807068B9D3
:101610002068006820F010002168086000BF0020EA
:1016200084F8340000BF012084F83500E06B10B16D
:101630002046E16B8847606D38B3606D00F00100B3
:10164000F0B1052084F835002068006820F0010022
:101650002168086000BF0098401C0090B84200D983
:1016600005E02068006800F001000028F3D100BF09
:1016700000BF002084F8340000BF012084F835004A
:10168000E06C10B12046E16C884700BFA4E7000081
:10169000300000202DE9F0410446002500F0D6F985
:1016A000074614B90120BDE8F081606A00B100BFAF
:1016B00000BF002084F8340000BF022084F8350009
:1016C0002068006820F00100216808600AE000F04E
:1016D000BDF9C01B052805D920206065032084F8CA
:1016E0003500E0E72068006800F001000028EED136
:1016F0002068056821480540D4E901010843E168F4
:1017000008432169084361690843A1690843E16905
:101710000843216A08430543606A042803D1D4E9D9
:101720000B0108430543206805602068456925F0E2
:101730000705606A0543606A04280DD1A06A054365
:10174000E06A48B1204603F067F828B140206065A0
:10175000012084F83500A6E720684561204603F0A3
:10176000B1F8064694F85C103F208840B060002035
:101770006065012084F83500002094E73F8010F078
:101780002DE9F04104460D4616461F464FF000086D
:1017900000BF94F83400012802D10220BDE8F08196
:1017A000012084F8340000BF94F83500012811D1DD
:1017B000022084F83500002060653B463246294609
:1017C000204603F013F82068006840F0010021680B
:1017D000086006E000BF002084F8340000BF4FF02E
:1017E00002084046DAE7000070B5044600F02EF922
:1017F00006462546681C10B104480078054400BF21
:1018000000F024F9801BA842FAD370BD2C00002000
:10181000F8B502460B460025002400200021E6E032
:10182000012606FA01F51E6806EA0504AC4273D1EA
:101830005E68012E08D05E68022E05D05E68112E0B
:1018400002D05E68122E13D190684F000326BE406E
:10185000B0434F00DE68BE403043906050680126C0
:101860008E40B0431E79C6F300168E403043506060
:10187000D0684F000326BE40B0434F009E68BE4074
:101880003043D0605E68022E02D05E68122E13D103
:10189000CF0802F1200656F827004E07F70E0F2654
:1018A000BE40B0434F07FF0E1E69BE403043CF0815
:1018B00002F1200646F8270010684F000326BE40BC
:1018C000B0431E7906F003064F00BE40304310605F
:1018D0005E6806F08056B6F1805FA8D100BF002692
:1018E0000096454E366846F48046434F3E603E467D
:1018F000366806F48046009600BF00BF3F4E8F0852
:1019000056F827008E07370F0F26BE40B0433C4ED7
:10191000B24202D100262EE068E03A4EB24201D136
:10192000012628E0384EB24201D1022623E0374E8C
:10193000B24201D103261EE0354EB24201D1042647
:1019400019E0344EB24201D1052614E0324EB242C3
:1019500001D106260FE0314EB24201D107260AE03E
:101960002F4EB24201D1082605E02E4EB24201D1DF
:10197000092600E00A268F073F0FBE4030431F4E66
:101980008F0846F82700284E3068A0435E6806F4AA
:101990008036B6F5803F00D12043234E3060361D9F
:1019A0003068A0435E6806F40036B6F5003F00D10B
:1019B00020431D4E361D3060361D3068A0435E68E2
:1019C00006F48016B6F5801F00D12043164E083667
:1019D0003060361D3068A0435E6806F40016B6F528
:1019E000001F00D12043104E0C363060491C1029D6
:1019F000FFF416AFF8BD000044380240083801403B
:101A0000000002400004024000080240000C0240B6
:101A1000001002400014024000180240001C024066
:101A20000020024000240240003C014042690A407C
:101A30008A4202D10A04826100E0816170470AB1E2
:101A4000816101E00B048361704700000148006878
:101A5000704700002400002003480068034909780B
:101A60000844014908607047240000202C00002031
:101A700010B50D48006840F400700B490860084636
:101A8000006840F4806008600846006840F4807098
:101A90000860032000F0C8F8002000F007F800F00C
:101AA0004BF8002010BD0000003C024070B588B02B
:101AB00004460025002600222146372000F076F853
:101AC000372000F063F800BF00200190164800683E
:101AD00040F02000144908600846006800F020002B
:101AE000019000BF00BF02A903A800F0F5FA00F0C2
:101AF0001BFB45000D48B5FBF0F0461E0C480D4998
:101B0000086040F2E7310B48C16046600021016186
:101B1000816000F025FF20B9064800F097FF08B06B
:101B200070BD0120FBE700004038024040420F003A
:101B300000140040F004002008B500BF0020009011
:101B40001148006840F480400F490860084600686A
:101B500000F48040009000BF00BF00BF0020009054
:101B6000081F006840F08050091F086008460068A0
:101B700000F08050009000BF00BF00220F21901E97
:101B800000F014F808BD0000443802400146084641
:101B9000002809DB00F01F0301229A4043099B0043
:101BA00003F1E023C3F8002100BF70472DE9F05F87
:101BB00080460D461646002703F05CFA0746394674
:101BC0002A46334601F00700C0F1070ABAF1040FB4
:101BD00002D94FF0040A01E0C0F1070AD14600F132
:101BE000040ABAF1070F02D24FF0000A01E0A0F197
:101BF000030AD4464FF0010A0AFA09FAAAF1010AC7
:101C00000AEA020A0AFA0CFA4FF0010B0BFA0CFB73
:101C1000ABF1010B0BEA030B4AEA0B0421464046E9
:101C200003F014FABDE8F09F00BF00F00702064B76
:101C300019684FF6FF031940044B0B4343EA022196
:101C4000014B196000BF70470CED00E00000FA0581
:101C5000F8B5044600250026207800F0010048B9B8
:101C6000207800F00200022804D0207800F0400024
:101C7000402862D10020B1498866FFF7E7FE05469B
:101C800006E0FFF7E3FE401B022801D90320F8BD60
:101C9000AB480068C0F3C0600028F2D1207800F0A3
:101CA000010038B160688101207A41EA0070A449DE
:101CB00084310860207800F00200022819D1A04881
:101CC00084300068C0F3027660688101207B41EABD
:101CD000006040EA06709A498431086098488C3068
:101CE000006820F01F00E169491E084394498C31C7
:101CF0000860207800F0400040280AD16068810127
:101D0000207B41EA0061207A41EA00708C498431ED
:101D10000860012089498866FFF798FE054606E0BD
:101D2000FFF794FE401B022801D90320AFE7844847
:101D30000068C0F3C0600028F2D0207800F00400F2
:101D4000042804D0207800F00800082863D100207F
:101D50007A490867FFF77AFE054606E0FFF776FE48
:101D6000401B022801D9032091E775480068C0F3A1
:101D700040700028F2D1207800F00400042819D126
:101D80006F4888300068C0F3027620698101207DA9
:101D900041EA006040EA0670694988310860081D20
:101DA000006820F4F851206A401E41EA002064498E
:101DB0008C310860207800F00800082817D16048AE
:101DC00088300068C0F303662069800140EA06613C
:101DD000207E41EA00705A4988310860081D006879
:101DE00020F44030616A084355498C310860012075
:101DF00052490867FFF72AFE054606E0FFF726FE70
:101E0000401B022801D9032041E74D480068C0F378
:101E100040700028F2D0207800F0200020287DD1EA
:101E200000BF0020009046484030006840F08050DD
:101E30004349403108600846006800F08050009037
:101E400000BF00BF3F48006840F480703D49086013
:101E5000FFF7FCFD054606E0FFF7F8FD401B0228F2
:101E600001D9032013E73748006800F48070002888
:101E7000F2D033487030006800F440764EB3208DC5
:101E800000F44070B04224D02D487030006820F437
:101E9000407601202C4908600020086028487030F6
:101EA0000660006800F0010098B1FFF7CFFD05461D
:101EB00008E0FFF7CBFD401B41F28831884201D991
:101EC0000320E4E61E4870300068C0F3400000289C
:101ED000EFD000BF208D00F44070B0F5407F0CD1F2
:101EE00017480830006820F4F810184AA16A114019
:101EF000084313490831086007E0114808300068BA
:101F000020F4F8100E49083108600D487030006860
:101F1000218DC1F30B010843094900E002E0703153
:101F2000086000BF207800F01000102803D194F85A
:101F30002C00074908600020A9E600000000474285
:101F40000038024000700040400E4742FFFCFF0F87
:101F5000E011474270B504460D460CB9012070BD32
:101F60005848006800F00F00A84209D255490D708A
:101F70000846006800F00F00A84201D00120EEE7FB
:101F8000207800F0020002281DD1207800F0040023
:101F9000042805D14C48006840F4E0504A490860E4
:101FA000207800F00800082805D14748006840F470
:101FB0006040454908604448006820F0F000A1688E
:101FC000084341490860207800F00100A8B3606828
:101FD000012807D13C4808380068C0F34040B8B930
:101FE0000120BCE76068022802D06068032807D19E
:101FF000354808380068C0F3406048B90120AEE7B2
:10200000314808380068C0F3400008B90120A6E74D
:102010002D48006820F00300616808432A490860E1
:10202000FFF714FD064609E0FFF710FD801B41F2A3
:102030008831884202D9032091E707E022480068EE
:1020400000F00C006168B0EB810FEDD11D48006815
:1020500000F00F00A84209D91A490D70084600681F
:1020600000F00F00A84201D0012078E7207800F0AE
:102070000400042807D11448006820F4E050E16807
:10208000084311490860207800F00800082808D1AA
:102090000D48006820F46040216940EAC1000A4907
:1020A000086000F061F808490968C1F30311074AA4
:1020B000515CC8400649086006480068FFF7F6FC16
:1020C00000204CE7003C024008380240BCB2000847
:1020D00030000020280000200F2202600D4A126804
:1020E00002F0030242600B4A126802F0F0028260C2
:1020F000084A126802F4E052C260064A126802F40A
:102100006042D2080261044A126802F00F020A60BB
:102110007047000008380240003C02400148006857
:10212000704700003000002000B5FFF7F7FF0449BA
:102130000968C1F38221034A515CC84000BD000018
:1021400008380240CCB2000800B5FFF7E7FF0449A9
:102150000968C1F34231034A515CC84000BD000028
:1021600008380240CCB200082DE9F04700240025D1
:102170000026A1462548006800F00C0020B1042884
:1021800005D008283AD105E0DFF8849039E0DFF87F
:10219000849036E01D48001F006800F03F041B4893
:1021A000001F006800F4800078B11A481749091F21
:1021B0000968C1F38811A0FB017001462246002383
:1021C0003846FEF7EBF805460EE011480F49091FA7
:1021D0000968C1F38811A0FB017001462246002363
:1021E0003846FEF7DBF805460848001F0068C0F3D4
:1021F0000140401C4600B5FBF6F902E0DFF8109004
:1022000000BF00BF4846BDE8F08700000838024024
:102210000024F400001BB700F8B504460CB90120F7
:10222000F8BD207800F00100002874D0F94800685B
:1022300000F00C0004280DD0F648006800F00C00F7
:10224000082813D1F348001F006800F48000B0F59F
:10225000800F0BD1EF4808380068C0F340400028D9
:1022600059D06068002856D10120D9E700BF6068C6
:10227000B0F5803F08D1E7480838006840F4803066
:10228000E449083908601EE06068B0F5A02F0DD160
:10229000E0480838006840F48020DE4908390860CA
:1022A0000846006840F4803008600CE0D9480838DF
:1022B000006820F48030D749083908600846006873
:1022C00020F48020086000BF606890B1FFF7BEFB7B
:1022D000054606E0FFF7BAFB401B642801D903203E
:1022E0009EE7CC4808380068C0F340400028F1D091
:1022F00011E0FFF7ABFB054606E0FFF7A7FB401B2D
:10230000642801D903208BE7C24808380068C0F36D
:1023100040400028F1D1207800F0020002285FD16F
:10232000BC48006800F00C0058B1BA48006800F0E2
:102330000C0008281CD1B748001F006800F480007A
:10234000B0B9B44808380068C0F3400020B1E06874
:10235000012801D0012063E7AE480838006820F06A
:10236000F800216940EAC100AA490839086037E04D
:10237000E06800B30120A8490860FFF767FB054645
:1023800006E0FFF763FB401B022801D9032047E763
:10239000A04808380068C0F340000028F1D09D48EC
:1023A0000838006820F0F800216940EAC100994926
:1023B0000839086014E0002097490860FFF746FBE1
:1023C000054606E0FFF742FB401B022801D9032027
:1023D00026E7904808380068C0F340000028F1D193
:1023E000207800F0080008282CD16069A8B10120ED
:1023F0008A490860FFF72AFB054606E0FFF726FB3F
:10240000401B022801D903200AE782486C3000688B
:10241000C0F340000028F1D014E000207F4908609C
:10242000FFF714FB054606E0FFF710FB401B0228F0
:1024300001D90320F4E677486C300068C0F340000F
:102440000028F1D1207800F00400042870D1002782
:1024500070483830006800F0805090B900BF00200C
:1024600000906C483830006840F08050694938313D
:1024700008600846006800F08050009000BF00BF70
:1024800001276748006800F48070B0B964480068AC
:1024900040F4807062490860FFF7D8FA054606E00C
:1024A000FFF7D4FA401B022801D90320B8E65C48A4
:1024B000006800F480700028F2D000BFA0680128F6
:1024C00008D154486830006840F001005149683133
:1024D00008601DE0A06805280DD14E4868300068EE
:1024E00040F004004B49683108600846006840F03D
:1024F000010008600CE047486830006820F00100E7
:102500004449683108600846006820F0040008600B
:1025100000BFA068A8B1FFF799FA054609E0FFF7E8
:1025200095FA401B41F28831884202D9032077E6B0
:1025300026E0384868300068C0F340000028EED03C
:1025400013E0FFF783FA054608E0FFF77FFA401B28
:1025500041F28831884201D9032061E62D48683074
:102560000068C0F340000028EFD1012F07D12948AF
:102570003830006820F0805026493831086000BFAC
:10258000A069002845D02348006800F00C00082806
:102590005DD0A069022845D100201F490866FFF7D9
:1025A00055FA054606E0FFF751FA401B022801D90B
:1025B000032035E6174808380068C0F3406000285B
:1025C000F1D1D4E907010843616A40EA811101228F
:1025D000A06AC2EB500041EA00412C20005D41EAB4
:1025E00000600C49091F086001200B490866FFF7CD
:1025F0002DFA054606E0FFF729FA401B022801D90B
:1026000003200DE6034808380068C0F34060002846
:10261000F1D03FE00838024000004742800E4742B8
:102620000070004000201C490866FFF70FFA0546BD
:1026300006E0FFF70BFA401B022801D90320EFE563
:1026400016480068C0F340600028F2D122E0A0697B
:10265000012800D1E4E51148001D066806F4800158
:10266000E069814214D106F03F01206A81420FD116
:1026700047F6C0703040616A884209D106F44031A3
:10268000A06A814204D106F07061E06A814201D003
:102690000120C5E50020C3E50000474200380240A4
:1026A00010B504460CB9012010BD607920B9002096
:1026B0002071204600F00EF802206071206800684A
:1026C00040F0040021680860012060710020A060D3
:1026D00000BFE9E708B50A4A016891420FD100BF7F
:1026E000002100910749096841F04001054A116045
:1026F0001146096801F04001009100BF00BF08BD0C
:10270000000806503438024010B504460CB90120C8
:1027100010BD607F20B900202077204600F060F8CF
:102720000220607700BFCA202168486253202168D8
:10273000486200BF204601F07CFB40B100BFFF2093
:102740002168486200BF042060770120E0E720682C
:1027500080682249084021688860216960680843D0
:102760006169084321688968084321688860216895
:10277000E068086120680169208941EA0040216819
:1027800008612068C06820F080002168C860206867
:10279000806800F0200060B9204600F02DF840B1BC
:1027A00000BFFF202168486200BF0420607701203D
:1027B000AEE72068006C20F480202168086420685F
:1027C000006CA16908432168086400BFFF202168EC
:1027D000486200BF01206077002099E7BFFF8FFFAC
:1027E000034A0168914202D10121024A11607047F7
:1027F000002800403C0E474270B504460025206882
:10280000C06820F0A0002168C860FFF71FF90546E6
:1028100007E0FFF71BF9401BB0F57A7F01D90320D1
:1028200070BD2068C06800F020000028F1D00020B2
:10283000F6E77047704710B50346002200BF93F8D3
:102840003C00012801D1022010BD012083F83C008A
:1028500000BF22F0FF00CC6840EA040222F440707E
:102860008C6840EA040222F480604C6840EA04026A
:1028700022F400600C6840EA040222F480500C69E3
:1028800040EA040222F400504C6940EA040222F4B7
:102890008040CC6940EA04021868426400BF00200E
:1028A00083F83C0000BF00BFCEE7000030B5024611
:1028B0000B4600BF92F83C00012801D1022030BD38
:1028C000012082F83C0000BF022082F83D00106821
:1028D00044681068816824F0700418680443106824
:1028E0004460184D1068A8421BD01068B0F1804FAA
:1028F00017D0154D1068A84213D0144D1068A84287
:102900000FD0134D1068A8420BD0124D1068A8428A
:1029100007D0114D1068A84203D0104D1068A8428E
:1029200005D121F0800158680143106881600120C1
:1029300082F83D0000BF002082F83C0000BF00BFCD
:10294000BDE7000000000140000400400008004016
:10295000000C00400004014000400140001800400D
:1029600010B504460CB9012010BD94F83D0028B9FB
:10297000002084F83C00204600F00CF8022084F887
:102980003D00211D206801F0A3FA012084F83D00DC
:102990000020E9E708B50168B1F1804F0FD100BF11
:1029A000002100912549096841F00101234A116085
:1029B0001146096801F00101009100BF3DE0204A85
:1029C000016891420FD100BF002100911B490968A5
:1029D00041F00401194A11601146096801F004012F
:1029E000009100BF29E0174A016891420FD100BF52
:1029F000002100911149096841F008010F4A116056
:102A00001146096801F00801009100BF15E00E4A67
:102A10000168914211D100BF002100910749091DB1
:102A2000096841F00201054A121D1160114609684A
:102A300001F00201009100BF00BF08BD4038024014
:102A400000080040000C00400004014001460868F6
:102A5000C06840F001000B68D8600868806800F02A
:102A60000702062A05D00868006840F001000B68DC
:102A70001860002070472DE9F04104460D4600BF64
:102A800094F83C00012802D10220BDE8F081012029
:102A900084F83C0000BF022084F83D00206886686E
:102AA00026F0770626F47F4620688660286850283E
:102AB00033D00CDC202850D004DC00284BD0102868
:102AC00051D149E0302849D040284CD139E0602824
:102AD0002DD0702807D0B0F5805F03D0B0F5005F2F
:102AE00041D10DE040E0D5E902136A68206801F0A9
:102AF0006CFA2068866846F077062068866033E0C6
:102B0000D5E902136A68206801F05FFA20688068DE
:102B100040F480402168886026E0EA68696820689F
:102B200001F091FF5021206801F084FF1CE0EA6869
:102B30006968206801F09AFF6021206801F07AFF3F
:102B400012E0EA686968206801F07DFF4021206892
:102B500001F070FF08E000BF00BF00BF29682068D7
:102B600001F068FF00E000BF00BF012084F83D00D5
:102B700000BF002084F83C0000BF00BF85E770471D
:102B800010B5044620680069C0F34000D8B1206841
:102B9000C068C0F34000B0B16FF002002168086166
:102BA000012020772068806900F0030018B12046DA
:102BB000FFF7E5FF05E0204600F06CF9204600F045
:102BC00009FA0020207720680069C0F38000D8B19E
:102BD0002068C068C0F38000B0B16FF004002168C5
:102BE0000861022020772068806900F4407018B1E5
:102BF0002046FFF7C4FF05E0204600F04BF92046D1
:102C000000F0E8F90020207720680069C0F3C000D8
:102C1000D8B12068C068C0F3C000B0B16FF0080040
:102C200021680861042020772068C06900F0030053
:102C300018B12046FFF7A3FF05E0204600F02AF96F
:102C4000204600F0C7F90020207720680069C0F313
:102C50000010D8B12068C068C0F30010B0B16FF0A8
:102C6000100021680861082020772068C06900F4FE
:102C7000407018B12046FFF782FF05E0204600F0C3
:102C800009F9204600F0A6F90020207720680069A5
:102C900000F0010058B12068C06800F0010030B1B8
:102CA0006FF0010021680861204600F0C1F920683A
:102CB0000069C0F3C01058B12068C068C0F3C010EC
:102CC00030B16FF08000216808612046FFF7B1FD48
:102CD00020680069C0F3801058B12068C068C0F354
:102CE000801030B16FF0400021680861204600F08C
:102CF000ABF920680069C0F3401058B12068C06883
:102D0000C0F3401030B16FF0200021680861204608
:102D1000FFF790FD10BD000010B586B004461421E9
:102D200001A8FDF740FC2068B0F1804F1DD100BF25
:102D3000002000904F48006840F001004D490860B5
:102D40000846006800F00100009000BF00BF0F209F
:102D50000190022002900020039004900120059031
:102D600001A94548FEF754FD82E0444920688842A5
:102D70001ED100BF002000903E48006840F00800CF
:102D80003C4908600846006800F00800009000BF59
:102D900000BF4FF470400190022002900020039089
:102DA00004900220059001A93548FEF731FD5FE04F
:102DB0003449206888423AD100BF002000902D4855
:102DC000006840F480702B4908600846006800F4F1
:102DD0008070009000BF00BF00BF00200090084638
:102DE000006840F0800008600846006800F080003D
:102DF000009000BF00BF012001900220029000203F
:102E0000039004900220059001A91F48FEF700FDE1
:102E10004FF4E050019002200290002003900490B3
:102E20000220059001A91948FEF7F2FC20E018499C
:102E3000206888421CD100BF002000900D48006827
:102E400040F480700B4908600846006800F4807008
:102E5000009000BF00BFE4200190022002900020FB
:102E6000039004900320059001A90748FEF7D0FCC9
:102E700006B010BD3038024000000240000800409B
:102E8000000C0240000C004000200240001C0240E8
:102E900000040140704770B504460D46164600BF59
:102EA00094F83C00012801D1022070BD012084F873
:102EB0003C0000BF022084F83D0036B1042E1BD038
:102EC000082E31D00C2E5ED145E02946206801F055
:102ED00013FD2068806940F008002168886120683F
:102EE000806920F004002168886120688069296970
:102EF00008432168886147E02946206801F070F89E
:102F00002068806940F400602168886120688069D9
:102F100020F480602168886120688069296940EA1E
:102F20000120216888612FE02946206801F01CFDFE
:102F30002068C06940F008002168C8612068C06945
:102F400020F004002168C8612068C069296908432D
:102F50002168C86118E02946206801F041FD206819
:102F6000C06940F400602168C8612068C06920F42D
:102F700080602168C8612068C069296940EA012031
:102F80002168C86100E000BF00BF012084F83D0057
:102F900000BF002084F83C0000BF00BF85E710B5EB
:102FA00004460CB9012010BD94F83D0028B900205A
:102FB00084F83C00204600F00CF8022084F83D0024
:102FC000211D206800F084FF012084F83D000020CE
:102FD000E9E770477047000070B504460E460122CD
:102FE0003146206800F0E0FF0F492068884203D096
:102FF0000E492068884201D1012000E0002028B15C
:103000002068406C40F40040216848642068806873
:1030100000F00705062D05D02068006840F001008B
:1030200021680860002070BD0000014000040140DC
:1030300010B5044603492068884201D1FEF70CFD13
:1030400010BD000000140040704770472DE9F047A4
:103050000446206805682068C668206847694FF004
:103060000008C14605F00F08B8F1000F0AD105F0BD
:10307000200038B106F0200020B1204601F0FEFE0D
:10308000BDE8F087B8F1000F72D007F0010018B961
:1030900006F4907000286BD005F0010030B106F402
:1030A000807018B1E06B40F00100E06305F00400AF
:1030B00030B107F0010018B1E06B40F00200E063AE
:1030C00005F0020030B107F0010018B1E06B40F0EC
:1030D0000400E06305F0080048B106F0200010B9D4
:1030E00007F0010018B1E06B40F00800E063E06B0E
:1030F00070B305F0200028B106F0200010B1204682
:1031000001F0BCFE20684069C0F38019E06B00F05C
:10311000080010B9B9F1000F23D0204601F035FFA7
:103120002068406900F04000402816D120684069BE
:1031300020F0400021684861606B50B11748616B16
:103140000865606BFEF771F910B1606B016D88471F
:103150000CE02046FFF779FF08E02046FFF775FFF7
:1031600004E02046FFF771FF0020E06388E7FFE7F7
:1031700005F0800030B106F0800018B1204601F063
:10318000D0FE7DE705F0400030B106F0400018B1F8
:10319000204601F00AFF73E700BF71E7CB4F00083C
:1031A00010B504460CB9012010BDA06900B100E0C3
:1031B00000BF94F8390028B9002084F83800204670
:1031C00000F028F8242084F839002068C06820F432
:1031D00000502168C860204601F05CFC206800694E
:1031E00020F49040216808612068406920F02A009E
:1031F000216848612068C06840F400502168C860B8
:103200000020E063202084F8390084F83A00002090
:10321000CAE7000010B586B00446142101A8FDF7E6
:10322000C2F99D492068884239D100BF0020009032
:103230009A48006840F08040984908600846006855
:1032400000F08040009000BF00BF00BF0020009051
:1032500092481038006840F010009049103908601A
:103260000846006800F01000009000BF00BF4FF457
:10327000C07001900220029001200390032004906E
:103280000820059001A98648FEF7C2FA0022052110
:103290005220FEF78BFC5220FEF778FCF9E08149C2
:1032A0002068884238D100BF002000907B48006829
:1032B00040F00040794908600846006800F000408E
:1032C000009000BF00BF00BF00200090734810387E
:1032D000006840F010007149103908600846006825
:1032E00000F01000009000BF00BF032001900220FA
:1032F000029001200390032004900820059001A96A
:103300006748FEF785FA002205215320FEF74EFCA0
:103310005320FEF73BFCBCE063492068884279D12A
:1033200000BF002000905D48001D006840F01000C4
:103330005A49091D08600846006800F01000009016
:1033400000BF00BF00BF0020009054481038006844
:1033500040F002005149103908600846006800F04A
:103360000200009000BF00BF00BF00200090084690
:10337000006840F0010008600846006800F00100A5
:10338000009000BF00BF802001900220029000202A
:103390000390032004900720059001A94348FEF7FD
:1033A00037FA4FF400700190022002900020039041
:1033B000032004900720059001A93D48FEF728FA54
:1033C0003C483D4908604FF00060486000213A48A1
:1033D0008160C1604FF480610161002141618161C0
:1033E0004FF48071C161002101624162FEF752F920
:1033F00008B1FDF73CFB00BF2F486063846300BF4A
:10340000002205212520FEF7D1FB2520FEF7BEFB7B
:103410003FE0FFE72949206888423AD100BF0020F9
:1034200000901E48001D006840F020001B49091D47
:1034300008600846006800F02000009000BF00BF50
:1034400000BF0020009015481038006840F0400090
:103450001249103908600846006800F040000090EA
:1034600000BF00BF4FF48440019002200290002072
:103470000390032004900820059001A91048FEF74E
:10348000C7F9002205214720FEF790FB4720FEF7F1
:103490007DFB06B010BD00000078004040380240BF
:1034A00000100240007C0040001001400004024077
:1034B00000000240406402409004002000140140DB
:1034C0000018024010B5034693F83A0020282FD187
:1034D00001B10AB9012010BD00BF93F838000128DE
:1034E00001D10220F7E7012083F8380000BF99627C
:1034F0009A85DA850020D863222083F83A0000BF3D
:10350000002083F8380000BF1868C06840F480705D
:103510001C68E0601868406940F001001C68606148
:103520001868C06840F020001C68E0600020D2E706
:103530000220D0E738B5044629480068401C2849D5
:103540000860284884422FD100224FF400612648A9
:10355000FEF775FA25480068401C244908600122DE
:1035600023492046FFF7AEFF21480178214807F0A4
:1035700020F8C8B11F4806F0BFFF1F4908600020AF
:10358000009069461D48006806F026FA0098012858
:1035900009D1009838B14FF0805019490860BFF345
:1035A0004F8FBFF36F8F00BF1648844209D1164872
:1035B0000068401C14490860062214492046FFF7A1
:1035C00081FF1348844209D112480068401C114908
:1035D0000860012210492046FFF774FF38BD000043
:1035E0009801002050040020001002408C010020AF
:1035F000780100208048002088010020C4010020BC
:1036000004ED00E0900300209001002079010020EB
:10361000D0030020940100207F0100202DE9F84311
:1036200004460D4616461F464FF0000994F839002F
:1036300020285DD105B116B90120BDE8F88300BF8F
:1036400094F83800012801D10220F6E7012084F81F
:10365000380000BF0020E063212084F83900FEF725
:10366000F5F98146A684E68400BF002084F838007E
:1036700000BF2BE0E08C401EE084A068B0F5805FC6
:1036800016D14B46002280212046009701F0A7FC6E
:1036900008B10320D1E7A846B8F80000C0F308003D
:1036A00021684860206908B9AD1C0FE06D1C0DE071
:1036B0004B46002280212046009701F090FC08B183
:1036C0000320BAE715F8010B21684860E08C002858
:1036D000D0D14B46002240212046009701F07FFCCC
:1036E00008B10320A9E7202084F839000020A4E7CE
:1036F0000220A2E7704700BFFEE7000010B50F48A8
:103700000F4908600320486000210D488160C160B6
:103710004FF4002101614FF4401141610021017615
:103720000121417600218176C17601774177FDF74D
:10373000D6FC08B1FDF79BF910BD00000064004005
:103740001002002010B50E480E49086003204860A2
:1037500000210C488160C1604FF4002101614FF4E9
:10376000401141610021017641768176C176017771
:103770004177FDF7B4FC08B1FDF779F910BD000001
:10378000006800403802002008B500BF002000900B
:103790000A48006840F4800008490860084600684C
:1037A00000F48000009000BF00BF002205213A20F5
:1037B000FEF7FCF93A20FEF7E9F908BD303802407F
:1037C00000B587B0142102A8FCF7EDFE00BF002071
:1037D00001905F48006840F010005D4908600846AD
:1037E000006800F01000019000BF00BF00BF002083
:1037F00001900846006840F0020008600846006832
:1038000000F00200019000BF00BF00BF0020019047
:103810000846006840F0400008600846006800F074
:103820004000019000BF00BF00BF0020019008468B
:10383000006840F0010008600846006800F00100E0
:10384000019000BF00BF00BF002001900846006843
:1038500040F0080008600846006800F00800019089
:1038600000BF00BF00BF002001900846006840F480
:10387000807008600846006800F48070019000BF06
:1038800000BF00BF002001900846006840F08000A3
:1038900008600846006800F08000019000BF00BF8B
:1038A00000BF002001900846006840F0200008603A
:1038B0000846006800F02000019000BF00BF002211
:1038C0003C212448FEF7BBF800224FF4FF71224848
:1038D000FEF7B5F800224FF400612048FEF7AFF87C
:1038E00000224FF480411E48FEF7A9F83C200290C8
:1038F0000120039000200490059002A91548FDF7CF
:1039000087FF4FF4FF700290012003900020049085
:10391000059002A91048FDF77BFF4FF4006002906C
:103920000120039000200490059002A90B48FDF7A8
:103930006FFF4FF48040029001200390002004901C
:10394000059002A90648FDF763FF07B000BD00001F
:1039500030380240001C02400018024000100240B3
:103960000014024010B50548054908600846FEF7F6
:1039700097FE08B1FDF77BF810BD00000008065067
:103980006002002010B50A480A490860002048601B
:103990007F2108488160FF21C160002101614161F0
:1039A0008161FEF7B1FE08B1FDF761F810BD0000BE
:1039B000002800407002002000B58DB00020099062
:1039C0000A900B900C90079008901C216846FCF719
:1039D000EAFD4FF080402C490860A7204860002194
:1039E0002948816042F20F71C1600021016181614B
:1039F000FEF7B6FF08B1FDF73AF84FF48050099092
:103A000009A92148FFF737F808B1FDF730F81E483B
:103A1000FFF7C5FA08B1FDF72AF8002007900890D3
:103A200007A91948FEF742FF08B1FDF720F860200A
:103A3000009041F288300190002002900490002212
:103A400069461148FFF727FA08B1FDF710F804227C
:103A500069460D48FFF71FFA08B1FDF708F808227C
:103A600069460948FFF717FA08B1FDF700F80C227C
:103A700069460548FFF70FFA08B1FCF7F8FF02485E
:103A8000FFF74AF90DB000BD9002002000B58DB0DF
:103A9000002009900A900B900C90079008901C2130
:103AA0006846FCF780FD2D482D490860A720486036
:103AB00000212B48816042F20F71C1600021016139
:103AC0008161FEF74DFF08B1FCF7D1FF4FF4805044
:103AD000099009A92248FEF7CEFF08B1FCF7C7FFFD
:103AE0001F48FFF75CFA08B1FCF7C1FF0020079000
:103AF000089007A91A48FEF7D9FE08B1FCF7B7FFEE
:103B00006020009041F288300190002002900490E3
:103B1000002269461248FFF7BEF908B1FCF7A7FF7B
:103B2000042269460E48FFF7B6F908B1FCF79FFF7B
:103B3000082269460A48FFF7AEF908B1FCF797FF7B
:103B40000C2269460648FFF7A6F908B1FCF78FFF7B
:103B50000348FFF7E1F80DB000BD00000008004089
:103B6000D002002000B58DB0002009900A900B9083
:103B70000C90079008901C216846FCF714FD2D4816
:103B80002D490860A720486000212B48816042F23F
:103B90000F71C160002101618161FEF7E1FE08B192
:103BA000FCF765FF4FF48050099009A92248FEF701
:103BB00062FF08B1FCF75BFF1F48FFF7F0F908B19F
:103BC000FCF755FF00200790089007A91A48FEF758
:103BD0006DFE08B1FCF74BFF6020009041F2883089
:103BE0000190002002900490002269461248FFF7DD
:103BF00052F908B1FCF73BFF042269460E48FFF773
:103C00004AF908B1FCF733FF082269460A48FFF772
:103C100042F908B1FCF72BFF0C2269460648FFF772
:103C20003AF908B1FCF723FF0348FFF775F80DB028
:103C300000BD0000000C00401003002000B595B04E
:103C4000002011901290139014900F9010901C214E
:103C500008A8FCF7A8FC20216846FCF7A4FC38481B
:103C600038490860A720486000213648816042F248
:103C70000F71C1600021016141618161FEF770FE39
:103C800008B1FCF7F4FE4FF48050119011A92D48B3
:103C9000FEF7F1FE08B1FCF7EAFE2A48FFF77FF9CC
:103CA00008B1FCF7E4FE00200F9010900FA9254802
:103CB000FEF7FCFD08B1FCF7DAFE6020089041F247
:103CC0008830099000200A900B900C900D900E9077
:103CD000002208A91B48FFF7DEF808B1FCF7C7FE71
:103CE000042208A91748FFF7D6F808B1FCF7BFFE71
:103CF000082208A91348FFF7CEF808B1FCF7B7FE71
:103D00000C2208A90F48FFF7C6F808B1FCF7AFFE70
:103D10000020009001900290039004904FF4005016
:103D200005900020079069460648FEF784FD08B11B
:103D3000FCF79DFE0348FEF7EFFF15B000BD000045
:103D4000000401405003002010B50B480B490860E7
:103D50004FF4E1304860002108488160C160016192
:103D60000C21416100218161C161FFF719FA08B19D
:103D7000FCF77DFE10BD000000780040900300209D
:103D800010B50B480B4908604FF4E1304860002142
:103D900008488160C16001610C214161002181619D
:103DA000C161FFF7FDF908B1FCF761FE10BD00002D
:103DB000007C0040D003002010B50B480B49086080
:103DC0000B484860002109488160C1604FF4806160
:103DD00001610C21416100218161C161FFF7E0F9BE
:103DE00008B1FCF744FE10BD001001401004002093
:103DF000A086010010B50B480B4908604FF4E13074
:103E00004860002108488160C16001610C21416166
:103E100000218161C161FFF7C3F908B1FCF727FEFA
:103E200010BD0000001401405004002000BFFEE758
:103E3000704770B5044600252068C06800F0400057
:103E4000A0B9681E2168C860FDF700FE054607E0BE
:103E5000FDF7FCFD401BB0F57A7F01D9032070BD52
:103E60002068C06800F040000028F1D00020F6E78C
:103E700010B500BF502080F31188BFF34F8FBFF300
:103E80006F8F00BF06F08EF818B14FF080500449D4
:103E9000086000BF002080F3118800BF10BD000043
:103EA00004ED00E00548006840F470000349086034
:103EB0004FF00060014980390860704788ED00E0EC
:103EC00010B50248FEF75CFE10BD0000F0040020B3
:103ED00010B50268294B98420ED0B0F1804F0BD03C
:103EE000274B984208D0274B984205D0264B984242
:103EF00002D0264B984203D122F070024B681A433D
:103F00001E4B984220D0B0F1804F1DD01C4B9842E0
:103F10001AD01C4B984217D01B4B984214D01B4B05
:103F2000984211D01A4B98420ED01A4B98420BD09F
:103F3000194B984208D0194B984205D0184B98421B
:103F400002D0184B984203D122F44072CB681A4336
:103F500022F080034C6943EA040202608B68C3626A
:103F60000B688362054B984202D0084B984201D1FE
:103F70000B6903630123436110BD00000000014091
:103F80000004004000080040000C00400004014014
:103F9000004001400044014000480140001800403A
:103FA000001C00400020004030B501F01F05012436
:103FB00004FA05F3046A9C430462046A01F01F05D5
:103FC00002FA05F52C43046230BD30B50C46816819
:103FD00021F47F4142EA032525432943816030BD16
:103FE00030B5056A25F010050562026A43688469E8
:103FF00024F4E04424F440740D6844EA052422F0DB
:1040000020028D6842EA0512124DA84200D103E059
:10401000114DA84207D100BF22F08002CD6842EACC
:10402000051222F040020B4DA84202D00A4DA842D0
:1040300009D123F4806323F400634D6943EA8503C7
:104040008D6943EA8503436084614D68856302623C
:1040500030BD0000000001400004014010B50248DE
:10406000FEF7F4FF10BD00009003002010B50248D9
:10407000FEF7ECFF10BD0000D003002010B5034890
:1040800000F05EFA0148FEF7E1FF10BD10040020C9
:1040900010B50248FEF7DAFF10BD00005004002002
:1040A00000BFFEE710B5044602F04AFA10BD00005A
:1040B000064901EB4001B1F9001000EE101AF8EECC
:1040C000C00A9FED031A80EE810A7047A6580020AF
:1040D0000000254410B5044602F062FC10BD10B586
:1040E000044601F081F810BD10B5044601F090FBC4
:1040F00010BD000010B5162248494948FCF7DCF90C
:10410000484800784749497840EA0120C0F30A004E
:104110004249088043484078C0104249897840EAC3
:104120004110C0F30A003D4948803E488078801124
:104130003C49C97840EA81003A49097940EA81203E
:10414000C0F30A0035498880364800794010354967
:10415000497940EAC110C0F30A003049C8803148AB
:104160004079C0F3011088722E484079001181080F
:104170002A48C1722B4880792A49C97940EA01202E
:1041800000B2264988812748007A2649497A40EAC0
:10419000012001B22148C1812248807A2149C97A8F
:1041A00040EA012001B21D4801821E48017B1B48E4
:1041B00081741C48417B1948C1741A48807B194995
:1041C000C97B40EA0120154988821648007C1549C0
:1041D000497C40EA012000B2104908810846008865
:1041E000A0F5806000B2088008464088A0F5806095
:1041F00000B2488008468088A0F5806000B28880C0
:104200000846C088A0F5806000B2C88008460089D2
:10421000A0F5806000B2088110BD0000A658002003
:10422000BC5800209458002010B5044600F09EF9B8
:1042300001F0A4FC10BD000000B5B1B01C222A4959
:104240002AA8FCF77EF900212AA804F00BFB2749D5
:1042500008601C2224491C3123A8FCF772F90021B4
:1042600023A804F0FFFA224908601C221E493831B5
:104270001CA8FCF766F900211CA804F0F3FA1D49FC
:1042800008601C221849543115A8FCF75AF900217E
:1042900015A804F0E7FA184908601C221249703189
:1042A0000EA8FCF74EF900210EA804F0DBFA134922
:1042B00008601C220C498C3107A8FCF742F9002148
:1042C00007A804F0CFFA0E4908601C220649A8315D
:1042D0006846FCF736F90021684604F0C3FA09493C
:1042E000086031B000BD0000F0B1000800000020FF
:1042F00004000020080000200C0000201000002016
:10430000140000201800002010B5044602F038FA0E
:1043100010BD00004FF480715248FDF787FB00BFCD
:104320004FF480714F48FDF781FB80214D48FDF728
:104330007DFB7D2004F085FA80214A48FDF776FB5D
:1043400040214848FDF772FB7D2004F07AFA4021B5
:104350004448FDF76BFB20214248FDF767FB7D20B9
:1043600004F06FFA20213F48FDF760FB10213D4823
:10437000FDF75CFB7D2004F064FA10213948FDF75D
:1043800055FB08213748FDF751FB7D2004F059FA11
:1043900008213448FDF74AFB04213248FDF746FB6B
:1043A0007D2004F04EFA04212E48FDF73FFB022148
:1043B0002C48FDF73BFB7D2004F043FA02212948FD
:1043C000FDF734FB04212748FDF730FB7D2004F086
:1043D00038FA04212348FDF729FB08212148FDF77D
:1043E00025FB7D2004F02DFA08211E48FDF71EFB59
:1043F00010211C48FDF71AFB7D2004F022FA102141
:104400001848FDF713FB20211648FDF70FFB7D2010
:1044100004F017FA20211348FDF708FB402111484A
:10442000FDF704FB7D2004F00CFA40210D48FDF758
:10443000FDFA80210B48FDF7F9FA7D2004F001FA1E
:1044400080210848FDF7F2FA4FF480710548FDF726
:10445000EDFA7D2004F0F5F903480068401C02499C
:1044600008605DE7001802401C00002000B59FB006
:10447000302113A8FCF797F814210EA8FCF793F845
:10448000302102A8FCF78FF800BF002001902A48D5
:10449000006840F08050284908600846006800F035
:1044A0008050019000BF00BF00BF00200190234852
:1044B000006840F44040214908600846006800F464
:1044C0004040019000BF00BF092013904FF480309E
:1044D0001490012018900220199041051A9106218C
:1044E0001B91A8211C9102211D9107211E9113A847
:1044F000FDF792FE08B1FCF7BAFA0F200E900220E9
:104500000F90002010904FF4A05011904FF4805065
:10451000129005210EA8FDF71DFD08B1FCF7A7FAC2
:104520002020029000010C9002A8FDF791FB08B139
:10453000FCF79DFA1FB000BD4038024000700040FB
:1045400010B504462068006800F01000102807D15C
:104550002068C06800F0100010B1204600F0DCF8C0
:1045600010BD0146486880B27047000008B500BF22
:10457000002000900B48006800680090094800681F
:104580004068009000BF00BF06480068C06840F067
:10459000100004490968C86032220349014800F04C
:1045A000EDF808BD10040020945800200146014891
:1045B000405C7047B058002010B52DED088B84B0DA
:1045C0000446B0EE408A84ED088AFDF73FFA00EE1B
:1045D000100AB8EE400AB0EE40AA94ED070A30EE99
:1045E000480AF0EE408A94ED040AB5EEC00AF1EEF6
:1045F00010FA02D19FED350A03E094ED040A3AEE79
:10460000400AB0EE409AB5EEC09AF1EE10FA02D12F
:104610009FED2E0A05E094ED090A78EE400A80EE3F
:10462000890A84ED0C0A94ED060A68EE890A94ED75
:10463000021A00EE810A84ED060A94ED060AF0EEF5
:10464000C00A94ED0B0AF4EEC00AF1EE10FA21DD77
:1046500094ED0B0A10EE101A084606F04DFDCDE958
:10466000000194ED060A10EE101A084606F044FD0B
:10467000CDE902010199039861F31E0001909DEDBF
:10468000000BB0EE40BAF0EE60BA51EC1B0B05F037
:10469000F9FFA06194ED060AD4ED010A00EEA80A24
:1046A000D4ED030A94ED0C1AF0EE409A40EE819A94
:1046B00084ED04AAC4ED058A84ED098AC4ED0A9A42
:1046C000B0EE690A04B0BDEC088B10BD000000001C
:1046D00010B52DED028B0446B0EE408AF0EE608AF4
:1046E00051EC180B05F0CEFFE061BDEC028B10BD64
:1046F000017080ED010AC0ED020A80ED031ADFEDC2
:10470000041AC0ED041ADFED031AC0ED0B1A70474E
:10471000000000000000C84238B5044600BF002079
:10472000009020680068009020684068009000BFFA
:1047300000BF114884421DD1606B0068006820F002
:104740000100616B09680860616B0868FFF709FF89
:10475000C0F13200122801D1FFF7CCFC3220616B8E
:1047600009684860606B0068006840F00100616B98
:104770000968086038BD0000100400202DE9F041F0
:1047800004460D461646002794F83A70202F17D19C
:1047900005B116B90120BDE8F081A562A68500200B
:1047A000E0632268111D33462A46606BFCF7E8FF80
:1047B0002068406940F04000216848610020EAE735
:1047C0000220E8E74A780B7842EA03220280CA789E
:1047D0008B7842EA032212B242804A790B7942EA8C
:1047E000032212B282808A798271704730B50468E0
:1047F000246824F4802405682C600468636084685D
:10480000402C04D10468A2600468E16003E00468FD
:10481000A1600468E26030BD014600208A6A8B69AD
:10482000CBB932B1012A0DD0022A03D0032A10D10C
:104830000EE000BFCB6A03F08073B3F1807F00D13C
:10484000012007E0CB6AB3F1C07F00D1012001E075
:1048500000E000BF34E08B69B3F5005F1AD132B1DC
:10486000012A07D0022A03D0032A11D10AE000BF8F
:1048700001200EE0CB6A03F08073B3F1807F00D19A
:10488000012006E0CB6AB3F1C07F00D1012000E037
:1048900000BF15E032B1012A05D0022A04D0032A54
:1048A0000CD103E000BF00BF012008E0CB6A03F099
:1048B0008073B3F1807F00D1012000E000BF00BF12
:1048C000704700000146087810381823B0FBF3F257
:1048D0000848805CC865032A05D908686FF3090099
:1048E000001D886503E008686FF309008865886D1E
:1048F00070470000B4B2000830B5056A25F0010524
:104900000562026A4368846924F0700424F0030499
:104910000D682C4322F002028D682A43104DA842F4
:1049200000D103E00F4DA84206D100BF22F00802DB
:10493000CD682A4322F00402094DA84202D0094D55
:10494000A84207D123F4807323F400734D692B43ED
:104950008D692B43436084614D684563026230BDBD
:10496000000001400004014030B5056A25F480755F
:104970000562026A4368C46924F0700424F00304E9
:104980000D682C4322F400728D6842EA0522124D14
:10499000A84200D103E0114DA84207D100BF22F484
:1049A0000062CD6842EA052222F480620A4DA842E4
:1049B00002D00A4DA84209D123F4805323F40053B6
:1049C0004D6943EA05138D6943EA05134360C461E9
:1049D0004D68C563026230BD000001400004014023
:1049E00030B5056A25F480550562036A4468C269DA
:1049F00022F4E04222F440720D6842EA052223F4D8
:104A000000538D6843EA0533084DA84202D0084D93
:104A1000A84204D124F480444D6944EA85144460DA
:104A2000C2614D680564036230BD000000000140B2
:104A3000000401400A46816821F0700142F007033A
:104A400019438160704730B50B461446026A056A07
:104A500025F001050562816921F0F00141EA0411A8
:104A600022F00A021A438161026230BD30B50B4662
:104A70001446056A25F0100505628169026A21F471
:104A8000704141EA043122F0A00242EA031281613E
:104A9000026230BD2DE9F84F04462068006920F419
:104AA0004050E1680843216808612169A068084313
:104AB00061690843E169084300902068C06849F2D1
:104AC0000C618843009908432168C86020684069E8
:104AD00020F44070A169084321684861E069B0F59D
:104AE000004F75D1E3492068884203D0E24920682D
:104AF00088426FD1FDF728FB814602206168A0FB48
:104B000001510B461920A9FB00712A463846FBF7D4
:104B100045FC6421B0FBF1F04FEA001A0220616805
:104B2000A0FB01510B461920A9FB00712A4638460B
:104B3000FBF734FC074602206168A0FB01510B46DD
:104B40001920A9FB00B12A465846FBF727FC64212F
:104B5000B0FBF1F000EBC00101EB0010A7EB80000F
:104B6000322101EBC0006421B0FBF1F000F0F8004D
:104B70000AEB400A02206168A0FB01510B46192094
:104B8000A9FB00712A463846FBF708FC07460220BD
:104B90006168A0FB01510B461920A9FB00B12A4610
:104BA0005846FBF7FBFB6421B0FBF1F000EBC001C2
:104BB00001EB0010A7EB8000322101EBC000642163
:104BC000B0FBF1F000F007005044216888604FE12D
:104BD0006EE0FFE7FDF7A8FA814602206168A0FBBE
:104BE00001510B461920A9FB00712A463846FBF7F4
:104BF000D5FB6421B0FBF1F04FEA001A0220616896
:104C0000A0FB01510B461920A9FB00712A4638462A
:104C1000FBF7C4FB074602206168A0FB01510B466D
:104C20001920A9FB00B12A465846FBF7B7FB6421BF
:104C3000B0FBF1F000EBC00101EB0010A7EB80002E
:104C4000322101EBC0006421B0FBF1F000F0F8006C
:104C50000AEB400A02206168A0FB01510B461920B3
:104C6000A9FB00712A463846FBF798FB074602204D
:104C70006168A0FB015003461920A9FB00B12A4638
:104C80005846FBF78BFB6421B0FBF1F000EBC00151
:104C900001EB0010A7EB8000322101EBC000642182
:104CA000B0FBF1F000F00700504421688860DFE0BD
:104CB00070492068884203D06F49206888426BD1D0
:104CC000FDF742FA814604206168A0FB01510B46C2
:104CD0001920A9FB00712A463846FBF75FFB824684
:104CE00004206168A0FB01510B461920A9FB00714B
:104CF0002A463846FBF752FB6421B0FBF1F000EB8B
:104D0000C00101EB0010AAEB8000322101EB001082
:104D10006421B0FBF1F000F0F00A04206168A0FB10
:104D2000015003461920A9FB00712A463846FBF7BB
:104D300035FB6421B0FBF1F00AEB001A0420616836
:104D4000A0FB01510B461920A9FB00712A463846E9
:104D5000FBF724FB074604206168A0FB01500346D3
:104D60001920A9FB00B12A465846FBF717FB64211E
:104D7000B0FBF1F000EBC00101EB0010A7EB8000ED
:104D8000322101EB00106421B0FBF1F000F00F00C4
:104D90005044216888606BE0FDF7C6F98146042025
:104DA0006168A0FB015003461920A9FB00712A4647
:104DB0003846FBF7F3FA824604206168A0FB0150F5
:104DC00003461920A9FB00712A463846FBF7E6FA8C
:104DD0006421B0FBF1F000EBC00101EB0010AAEB85
:104DE0008000322101EB00106421B0FBF1F000F0F3
:104DF000F00A04206168A0FB015003461920A9FBBA
:104E000000712A463846FBF7C9FA6421B0FBF1F07D
:104E10000AEB001A04206168A0FB01700346192008
:104E2000A9FB005001463A462846FBF7B7FA074669
:104E300004206168A0FB015003461920A9FB00B1C2
:104E40002A465846FBF7AAFA6421B0FBF1F000EBC2
:104E5000C00101EB0010A7EB8000322101EB001034
:104E60006421B0FBF1F000F00F005044216888602D
:104E7000BDE8F88F001001400014014070B50446F1
:104E800094F83A0022284AD1A068B0F5805F13D187
:104E9000A56A206940B920684068C0F308002880EE
:104EA000A06A801CA06219E020684068C0B2288017
:104EB000A06A401CA06211E0206938B920684068EF
:104EC000C1B2A26A501CA062117007E0206840685D
:104ED00000F07F01A26A501CA0621170E08D401E9C
:104EE00080B2E085C8B92068C06820F02000216841
:104EF000C8602068C06820F480702168C86020689D
:104F0000406920F0010021684861202084F83A00BF
:104F10002046FEF70FFB002070BD0020FCE70220BA
:104F2000FAE7014691F8390021282CD18868B0F5BC
:104F3000805F0FD10A6A1088C0F308000B685860C0
:104F4000086918B9086A801C086209E0086A401CF0
:104F5000086205E00B6A581C086218780B685860F4
:104F6000C88C401E80B2C88458B90868C06820F058
:104F700080000B68D8600868C06840F040000B688B
:104F8000D860002070470220FCE70168C96821F45E
:104F900090710268D1600168496921F001010268DD
:104FA0005161202180F83A10704710B504462068FE
:104FB000C06820F040002168C860202084F83900D3
:104FC0002046FEF797FB002010BD70B50546AC6B80
:104FD0000020E085E0842046FEF737F870BD2DE91B
:104FE000F04104460D4617469846069E21E0701C87
:104FF000F8B12EB1FCF72AFDA0EB0800B04218D999
:105000002068C06820F4D0702168C86020684069BA
:1050100020F0010021684861202084F8390084F8DC
:105020003A0000BF002084F8380000BF0320BDE82C
:10503000F081206800682840A84201D1012000E0EA
:105040000020B842D3D00020F1E7000010B50028BE
:1050500004DB0A07130E054A135406E00A07140E70
:10506000034A00F00F031B1FD45410BD00E400E0FE
:1050700018ED00E002480068C0F30220704700000D
:105080000CED00E090ED000A704710B52DED068B99
:105090000446B0EE409AF0EE609AB0EE498AF0EE27
:1050A000698A94ED010A10EE101A084606F024F8F9
:1050B00041EC1A0B53EC182B05F0F2FE01D260689C
:1050C00013E094ED020A10EE101A084606F014F8E8
:1050D00041EC1A0B53EC182B05F0A8FD01D2A06887
:1050E00003E051EC180B05F0CDFA2060BDEC068B07
:1050F00010BD000070B588B004460E46154620224B
:105100000EA96846FBF71DFADFED091A9FED091A93
:10511000DFED090A9FED090A31462046DDE90C233F
:1051200001F098FA0446A564204608B070BD00005E
:105130000000104200F8FF450000C8420000C8C24D
:1051400010B52DED048B2148007810B1012838D11D
:105150000AE09FED1F0B2048FFF797FF9FED1C0B08
:105160001E48FFF792FF2CE01B4801F045FAB0EE15
:10517000408A1B48FFF720FA10EE104A204605F03F
:10518000BBFF41EC190BB0EE490AF0EE690A124878
:10519000FFF77BFF114801F02FFAB0EE408A11486B
:1051A000FFF70AFA10EE104A204605F0A5FF41EC81
:1051B000190BB0EE490AF0EE690A0848FFF765FFDF
:1051C00000BF00BFBDEC048B10BD0000E800002054
:1051D0000000000000000000F04500209046002084
:1051E00050450020B8450020012208210848FCF75E
:1051F00026FC012220210648FCF721FC00BF00F01C
:1052000009F8FFF79DFF0A2003F01BFBF7E70000FA
:10521000001C024010B52DED048B00201A490870C7
:10522000FFF7C4F9012825D1174908709FED170A27
:10523000B0EE408A9FED160A28EE000A10EE101A12
:10524000084605F059FF41EC190BB0EE490AF0EEA3
:10525000690A1048FFF73CFA18EE100A05F04CFFF7
:1052600041EC190BB0EE490AF0EE690A0A48FFF763
:105270002FFA00BF094801F0BFF9094880ED000A84
:10528000BDEC048B10BD0000E800002000001643B8
:105290002549123F50450020B8450020F045002028
:1052A000E400002010B52DED068B0446B0EE408AD8
:1052B000F0EE608A94ED002BB0EE420AF0EE620A46
:1052C00094ED042BB0EE421AF0EE621A53EC102B60
:1052D00051EC110B05F008FAC4E9040194ED022B1E
:1052E000B0EE420AF0EE620A94ED042BB0EE421AE0
:1052F000F0EE621A53EC102B51EC110B05F0F4F99F
:1053000041EC190B94ED041BB0EE410AF0EE610A7A
:1053100053EC192B51EC100B05F09AFAC4E9080173
:1053200094ED061BB0EE410AF0EE610A53EC102B2F
:1053300051EC180B05F0F6FD41EC1A0B94ED081B2F
:10534000B0EE410AF0EE610A53EC102B05F0AAFC16
:1053500041EC190B94ED061BB0EE410AF0EE610A28
:1053600053EC102B05F0C0F9C4E9060194ED081BBD
:10537000B0EE410AF0EE610A53EC102B9FED0C1BCE
:1053800051EC110B05F0CEFD41EC190B94ED041B13
:10539000B0EE410AF0EE610A53EC102B05F082FCEE
:1053A000C4E9040194ED060BBDEC068B10BD0000B2
:1053B000000000000000F03F70B588B004460E46C3
:1053C000154620220EA96846FBF7BBF8F7EE001A37
:1053D0009FED081ADFED080A9FED080A31462046C6
:1053E000DDE90C2301F036F90446A564204608B037
:1053F00070BD000000F8FF450000C8420000C8C2B0
:1054000010B52DED0A8BB0EE408AF0EE608AB0EE5A
:10541000419AF0EE619A53EC192B51EC180B05F000
:1054200075FD41EC1C0BB0EE4C0AF0EE6C0A01F07D
:105430007FFFB0EE40AAF0EE60AA53EC192B51ECBE
:10544000180B05F063FD41EC1C0BB0EE4C0AF0EEBE
:105450006C0A02F00DFBB0EE40BAF0EE60BAB0EEAE
:105460004A1AF0EE6A1A01F043FDBDEC0A8B10BD3A
:1054700010B52DED028B0B4801F0B4F8B0EE408A68
:105480009FED090B04F0C8FF38EE400AB1EE400A68
:1054900010EE104A204605F02FFE41EC100BBDEC3B
:1054A000028B10BD004800200000000000C05C40DE
:1054B00010B52DED108BC948007820B101280DD012
:1054C00002280AD1D7E09FEDC60BC748FFF7DDFDE4
:1054D0009FEDC30BC548FFF7D8FD7BE19FEDC00BE7
:1054E000C348FFF7F5F89FEDBE0BC248FFF7F0F891
:1054F000BD4801F077F8C04880ED000ABB4801F0D4
:1055000071F8BE4880ED000ABD48007801287DD1C1
:10551000B54801F067F8BB48D0ED000A30EE200A2C
:1055200010EE104A204605F0E7FD41EC1B0BAE489B
:1055300001F058F810EE104A204605F0DDFD41EC70
:105540001C0BB0EE4B1AF0EE6B1AB0EE4C0AF0EEFC
:105550006C0AFFF755FFB0EE408AF0EE608A51EC1E
:10556000180B05F083F841EC190BA04801F03AF84C
:10557000A548D0ED000A30EE600A10EE104A204631
:1055800005F0BAFD41EC1B0B984801F02BF810EE2A
:10559000104A204605F0B0FD41EC1C0BB0EE4B1A52
:1055A000F0EE6B1AB0EE4C0AF0EE6C0AFFF728FF33
:1055B000B0EE408AF0EE608A51EC180B05F056F818
:1055C00041EC1A0B51EC190B05F05CF808EE100ACF
:1055D000B0EE480A8648FEF7EFFF10EE104A20466C
:1055E00005F08AFD41EC1B0BB0EE4B0AF0EE6B0AA6
:1055F0007D48FFF74AFDFFF73BFFB0EE40FAF0EEC3
:1056000060FA01F095FEB0EE408A00E032E0F0EE84
:10561000608A7E4890ED000AB1EE400A10EE100A52
:1056200005F06AFD41EC1E0B53EC182B05F03AFB1C
:1056300041EC1C0B51EC1A0B05F024F808EE100A93
:10564000B0EE480A6B48FEF7B7FF10EE104A20464E
:1056500005F052FD41EC1D0B53EC1C2B05F044F8FA
:1056600041EC1B0BB0EE4B0AF0EE6B0A5F48FFF704
:105670000CFD00BFAEE09FED5A0B5D48FFF728F828
:105680009FED570B5B48FFF723F85D480078012832
:105690007ED15948006805F02FFD41EC1B0B5248A4
:1056A00000F0A0FF10EE104A204605F025FD41EC69
:1056B0001C0BB0EE4B1AF0EE6B1AB0EE4C0AF0EE8B
:1056C0006C0AFFF79DFEB0EE408AF0EE608A51EC66
:1056D000180B04F0CBFF41EC190B4848006805F0AB
:1056E0000BFD41EC1B0B414800F07CFF10EE104A13
:1056F000204605F001FD41EC1C0BB0EE4B1AF0EE1C
:105700006B1AB0EE4C0AF0EE6C0AFFF779FEB0EEC1
:10571000408AF0EE608A51EC180B04F0A7FF41ECD0
:105720001A0B51EC190B04F0ADFF08EE100AB0EEA5
:10573000480A2F48FEF740FF10EE104A204605F0B9
:10574000DBFC41EC1B0BB0EE4B0AF0EE6B0A26487B
:10575000FFF79BFCFFF78CFEB0EE40FAF0EE60FA2C
:1057600001F0E6FDB0EE408AF0EE608A274890ED49
:10577000000AB1EE400A10EE100A05F0BDFC41EC43
:105780001E0B53EC182B05F08DFA41EC1C0B00E0BE
:105790001FE051EC1A0B04F075FF08EE100AB0EE92
:1057A000480A1448FEF708FF10EE104A204605F09C
:1057B000A3FC41EC1D0B53EC1C2B04F095FF41ECBA
:1057C0001B0BB0EE4B0AF0EE6B0A0848FFF75DFCCE
:1057D00000BF00BF00BFBDEC108B10BD3C0100201E
:1057E0000000000000000000A84700200048002042
:1057F0004047002074470020340100203801002079
:105800003D0100202C01002030010020400100203B
:1058100000BF00F04BF8FFF74BFE1B4890ED000A6D
:105820001A4880ED000AFCF711F900EE100AB8EEF4
:10583000400A154880ED000A90ED000A1348D0EDAB
:10584000000A30EE600A124880ED000A00BF1148DD
:1058500090ED0A0A104880ED000A00BF0F4890ED55
:105860000A0A0F4880ED000A00BF0A4890ED0C0AB2
:10587000DFED0C0A20EE200A0B4880ED000A0A201A
:1058800002F0DFFFC5E70000200100202401002016
:1058900028010020404700200C0100207447002010
:1058A0001C01002000401C461001002010B52DED09
:1058B0000C8B82B00220644908706448006800289C
:1058C0007DD0002201A96148006804F0F5F80128A4
:1058D00075D101980078612871D1019890ED010A85
:1058E0005B4880ED000A019890ED020A594880ED6E
:1058F000000A9FED590B04F08FFD10EE104A204670
:1059000005F0FAFB41EC190B554800F06BFE5048CE
:10591000D0ED000A30EE200A10EE104A204605F0C5
:10592000EBFB41EC1C0B4E4800F05CFE10EE104A05
:10593000204605F0E1FB41EC1D0BB0EE4C1AF0EEF9
:105940006C1AB0EE4D0AF0EE6D0AFFF759FDB0EE9D
:1059500040BAF0EE60BA01F0F1F8B0EE40AAF0EE15
:1059600060AA53EC192B51EC1A0B05F099FA43D2AB
:105970009FED3C0B04F050FD10EE104A204605F060
:10598000BBFB41EC190B394800F02CFE3148D0ED3F
:10599000000A30EE600A10EE104A204605F0ACFB1B
:1059A00041EC1C0B314800F01DFE10EE104A204661
:1059B00005F0A2FB41EC1D0BB0EE4C1A00E01BE021
:1059C000F0EE6C1AB0EE4D0AF0EE6D0AFFF718FD1E
:1059D000B0EE40BAF0EE60BA01F0B0F8B0EE40AA16
:1059E000F0EE60AA53EC192B51EC1A0B05F058FAA3
:1059F00002D2012014490870194800F0F3FDB0EEFE
:105A0000408A1A4800F0EEFDF0EE408AB0EE480AF7
:105A100004F05EFD164880ED000AB0EE680A04F05E
:105A200057FD144880ED000AFFF722FDB0EE409AC2
:105A3000F0EE609A04F01EFD0F4880ED000A02B0FF
:105A4000BDEC0C8B10BD00003C010020C801002003
:105A50002C01002030010020000000000000144054
:105A6000A84700200000000000000040004800207F
:105A700004010020140100201801002010B52DEDB4
:105A8000068B3248007820B1012808D0022859D16D
:105A90000BE09FED2F0B3048FFF7F7FA52E09FED38
:105AA0002F0B2D48FFF7F1FA4CE00020FEF700FB2A
:105AB00010EE104A204605F01FFB41EC180B294858
:105AC000006805F019FB41EC190B2748006805F048
:105AD00013FB41EC1A0BB0EE482AF0EE682AB0EE48
