:020000040800F2
:10000000605F00205D030008C13C000887350008E0
:10001000BD3C000829090008313F0008000000002D
:100020000000000000000000000000009D02000829
:100030005D09000800000000F9020008013D000809
:1000400077030008770300087703000877030008A8
:100050007703000877030008770300087703000898
:100060007703000877030008770300087703000888
:100070007703000877030008770300087703000878
:100080007703000877030008770300083D0900089C
:100090002D0900087703000877030008770300089C
:1000A0007703000877030008770300087703000848
:1000B0007703000877030008770300087703000838
:1000C0007703000877030008770300087703000828
:1000D000770300080D3F0008770300087703000846
:1000E0007703000877030008770300087703000808
:1000F00077030008770300087703000877030008F8
:1001000077030008770300087703000877030008E7
:10011000770300087703000877030008513D0008C3
:1001200077030008770300084D09000877030008EB
:1001300077030008770300087703000877030008B7
:1001400077030008770300087703000877030008A7
:10015000770300087703000877030008213F0008B1
:100160007703000877030008770300087703000887
:1001700077030008770300087703000800000000F9
:100180007703000877030008ED3E0008FD3E0008F5
:100190007703000877030008770300087703000857
:1001A00000000000000000007703000800F002F8E3
:1001B00000F065F80AA090E8000C82448344AAF19C
:1001C0000107DA4501D100F05AF8AFF2090EBAE89A
:1001D0000F0013F0010F18BFFB1A43F0010318477B
:1001E0001CA100003CA100000A444FF0000C10F8D4
:1001F000013B13F0070408BF10F8014B1D1108BFA5
:1002000010F8015B641E05D010F8016B641E01F844
:10021000016BF9D113F0080F1EBF10F8014BAD1C94
:100220000C1B09D16D1E58BF01F801CBFAD505E0B2
:1002300014F8016B01F8016B6D1EF9D59142D6D30C
:10024000704700000023002400250026103A28BF34
:1002500078C1FBD8520728BF30C148BF0B60704738
:100260001FB509F0FCFD9DE8030000F05DFA00F009
:10027000C5F91FBD10B5002000F010FA10BD00F048
:10028000B0FA1146FFF7ECFF08F008F800F0E8FAC2
:1002900003B4FFF7EFFF03BC00F020FB2C4B196801
:1002A0000868B0E8F04F80F30988BFF36F8F4FF014
:1002B000000080F3118870470000000008480068C3
:1002C000006880F308884FF0000080F3148862B65D
:1002D00061B6BFF34F8FBFF36F8F00DF00BF00BF6A
:1002E00008ED00E0DFF80C00016841F470010160E6
:1002F000704700BF88ED00E0EFF30980BFF36F8F18
:10030000134B1A681EF0100F08BF20ED108A20E969
:10031000F04F106009B44FF0500080F31188BFF324
:100320004F8FBFF36F8F08F0E7FC4FF0000080F3B2
:10033000118809BC19680868B0E8F04F1EF0100F6A
:1003400008BFB0EC108A80F30988BFF36F8F704745
:100350003C000020EFF3058070470000094880470B
:1003600009480047FEE7FEE7FEE7FEE7FEE7FEE797
:10037000FEE7FEE7FEE7FEE704480549054A064BAF
:1003800070470000353D0008AD01000860590020AD
:10039000605F0020605B0020605B002053EA020C7D
:1003A00000F069802DE9F04B4FF00006002B1FBFD5
:1003B000B3FA83F503FA05F424FA05F65E4012BF9A
:1003C0001643B2FA82F502FA05F4C5F120051EBF04
:1003D00022FA05FC44EA0C04203556EA044C4FEAA4
:1003E000144418BF641C4FF000084FF000099042FD
:1003F00071EB030C39D3002919BFB1FA81F701FA67
:1004000007F6B0FA80F700FA07F6C7F120071EBF1B
:1004100020FA07FC46EA0C062037B6FBF4FCA7EBF3
:100420000507103F07F01F0BCBF120060CFA0BFB62
:100430002CFA06F644BFB3460026202FA4BF5E4622
:100440004FF0000B5BEA060C08BF4FF0010B19EBF5
:100450000B09ABFB027C48EB0608C01B06FB02CC79
:100460000BFB03CC71EB0C01C1E70B460246414686
:100470004846BDE8F08B13B54FF000004FF0000187
:10048000AFF30080BDE81C4070472DE9F0410746FE
:1004900015460E46102000F0C7F804000AD0676029
:1004A000C4E9026500F0BCF8016821600460002026
:1004B000BDE8F0810120FBE7032A40F2308010F014
:1004C000030C00F0158011F8013BBCF1020F6244EF
:1004D00098BF11F801CB00F8013B38BF11F8013B80
:1004E000A2F1040298BF00F801CB38BF00F8013B2D
:1004F00011F0030300F02580083AC0F0088051F89D
:10050000043B083A51F804CBA0E80810F5E7121DA7
:100510005CBF51F8043B40F8043BAFF30080D207C6
:1005200024BF11F8013B11F801CB48BF11F8012B92
:1005300024BF00F8013B00F801CB48BF00F8012BB5
:10054000704710B5203AC0F00B80B1E81850203A3F
:10055000A0E81850B1E81850A0E81850BFF4F5AF63
:100560005FEA027C24BFB1E81850A0E8185044BFED
:1005700018C918C0BDE810405FEA827C24BF51F85A
:10058000043B40F8043B08BF7047D20728BF31F84E
:10059000023B48BF11F8012B28BF20F8023B48BF9F
:1005A00000F8012B70474FF0000200B51346944647
:1005B0009646203922BFA0E80C50A0E80C50B1F1BB
:1005C0002001BFF4F7AF090728BFA0E80C5048BFCF
:1005D0000CC05DF804EB890028BF40F8042B08BF6D
:1005E000704748BF20F8022B11F0804F18BF00F869
:1005F000012B7047704770477047000070B5064C7C
:100600007C44064D7D4403E0206820448047241D3F
:10061000AC42F9D170BD0000189D0000289D00007B
:10062000004870473859002070B5064600F05CF865
:10063000056806F10B0020F00704B4429CBF0020BF
:1006400070BD2B466A68BAB11068A04210D304F19D
:10065000080188423CBF5068586007D351681019A0
:1006600041601168091B016058601460101D70BD65
:1006700013465268002AE7D12146284600F040F888
:100680000028DED170BD10B500F032F8006810BD52
:1006900010B5044600F02CF8046010BD2DE9F041BF
:1006A0000646FFF7BDFF8046454613E016B1E068F9
:1006B000B0420ED120682860D4E90101D8F800705A
:1006C0008847204600F066F8D8F80000B842EBD121
:1006D00000E025462C68002CE8D1BDE8F081000040
:1006E0000048704700590020004870470859002012
:1006F00000487047005900207047704770477047A6
:1007000038B504460A4600206946AFF30080002849
:1007100008BF38BD02460099204600F087F8012046
:1007200038BD012000F0A5B8F8B5AFF3008005464C
:1007300000200C46102000BF0646A819A0420DD983
:10074000324669460020AFF30080070008BF00F082
:1007500090F80098A04218BF0546C419FFF7C4FFDF
:1007600005600746F01D20F007004619284600F0F6
:100770000AF8B44208BFF8BDA21B31463868BDE88C
:10078000F84000F053B800210160C0E90110704743
:100790001020704770B50446051FFFF7A5FF0068DD
:1007A000002C14BF446870BD002C18BFAC423CBF85
:1007B00020466468F8D301680A18AA4218BF456049
:1007C00003D12A6805461144016028684119A142F5
:1007D0001CBF6C6070BD6168696021680844286056
:1007E00070BD7546FFF77CFFAE460500694653466F
:1007F00020F00700854618B020B5FFF7BDFDBDE825
:1008000020404FF000064FF000074FF000084FF077
:10081000000B21F00701AC46ACE8C009ACE8C00908
:10082000ACE8C009ACE8C0098D4670470346406893
:100830008C46002818BF88423CBF03464068F8D366
:1008400018681844884207D00CF1030020F0070014
:10085000001D411A521A0146081D0A60FFF79ABF8F
:1008600010B50446AFF300802046BDE81040FFF706
:100870000FBD10B500F00AF8BDE8104000F001B857
:100880007047002801D000F029B8704710B5012842
:1008900005D0002103A000F027F8012010BD09A118
:1008A000F8E7000053494752544D454D3A204F75E3
:1008B00074206F662068656170206D656D6F727958
:1008C000000000003A2048656170206D656D6F7210
:1008D0007920636F72727570746564000149182025
:1008E000ABBEFEE72600020070B505460C460A20A6
:1008F00000E06D1C00F011F835B128780028F8D11F
:1009000002E0641C00F009F814B120780028F8D146
:10091000BDE870400A20AFF3008008B569468DF845
:1009200000000320ABBE08BD00BFFEE710B50248C3
:1009300000F026FA10BD0000B801002010B50248F2
:1009400000F01EFA10BD0000B801002010B50248EA
:1009500000F0F8FC10BD000038040020704770471C
:10096000F0B504460D461E4694F820702068836852
:10097000A86800B900E000BF012F01D0022F7CD190
:1009800003F0806030B903F0006018B903F08050C4
:10099000002873D0C3F30161022905D9606A40F4CD
:1009A000000060620120F0BD012088403060A8682E
:1009B00060B9B5F800C0E86840EA4C5C206800F512
:1009C000C07000EB0110C0F800C00FE0D5E901C015
:1009D00040EACC00D5F80CC040EA0C00D4F800C0C6
:1009E0000CF5C07C0CEB011CCCF80000D5F810C055
:1009F000206800F5C07000EB0110C0F804C0287D2D
:100A000001280ED1206800F5C07000EB011040688D
:100A100040F4807C206800F5C07000EB0110C0F845
:100A200004C0D079000692F806C040EA0C4092F863
:100A300005C040EA0C2C10794CEA000C206800F547
:100A4000C07000EB0110C0F80CC0D078000692F81E
:100A500002C040EA0C4092F801C040EA0C2092F833
:100A600000C040EA0C00D4F800C00CF5C07C0CEBD0
:100A7000011CCCF80800206801E016E00FE000F54A
:100A8000C07000EB0110006840F0010C206800F518
:100A9000C07000EB0110C0F800C0002083E7606A5E
:100AA00040F40010606201207DE7606A40F480201D
:100AB0006062012077E70000F0B504460A4621682D
:100AC00094F82050012D01D0022D7ED1424901F52C
:100AD0000071086840F001000860086820F47C504C
:100AE00008600868566A40EA06200860107D00F039
:100AF0001F06012000FA06F3C8699843C861A1F5F2
:100B00000071D069C8B9D1F80C029843C1F80C0241
:100B1000908880B2968940EA064601F510705769C0
:100B200040F83760108880B2168940EA064601F521
:100B30001070576900EBC7004660D069012819D1D1
:100B4000D1F80C021843C1F80C02908880B21688C4
:100B500040EA064601F51070576940F83760908901
:100B600080B2168940EA064601F51070576900EB1D
:100B7000C7004660906928B9D1F804029843C1F8CB
:100B8000040204E0D1F804021843C1F80402106919
:100B900028B9D1F814029843C1F8140204E0D1F83E
:100BA00014021843C1F81402106A012804D1D1F8C4
:100BB0001C021843C1F81C02D1F8000220F0010009
:100BC000C1F800020020F0BDFFE7606A40F4802019
:100BD00060620120F7E7000000640040704710B534
:100BE0000246002092F82030012B01D0022B09D1BF
:100BF00021B91468E46804F0030003E01468246970
:100C000004F0030010BD70B5044694F82050012D87
:100C100001D0022D7DD151B92068C06800F00300D9
:100C200080B9606A40F400106062012070BD2068E5
:100C3000006900F0030028B9606A40F400106062A7
:100C40000120F3E7206800F5D87000EB0110006880
:100C500000F004009060906840B9206800F5D870FA
:100C600000EB01100068400D106007E0206800F5FF
:100C7000D87000EB01100068C0085060206800F5D3
:100C8000D87000EB0110006800F00200D06020680E
:100C900000F5D87000EB0110406800F00F00106103
:100CA000206800F5D87000EB0110406800F47F4028
:100CB000000A9061206800F5D87000EB01104068D0
:100CC000000C5061206800F5D87000EB01108068BE
:100CD0001870206800F5D87000EB0110806800F4EF
:100CE0007F40000A5870206800F5D87000EB0110B2
:100CF000806800F47F00000C9870206800F5D870C0
:100D000000EB01108068000ED870206800F5D870E4
:100D100000E02FE000EB0110C0681871206800F5BA
:100D2000D87000EB0110C06800F47F40000A5871D1
:100D3000206800F5D87000EB0110C06800F47F0057
:100D4000000C9871206800F5D87000EB0110C068A5
:100D5000000ED87131B92068C06840F020002668C4
:100D6000F06005E02068006940F0200026683061EE
:100D700000205BE7606A40F480206062012055E754
:100D80002DE9F05F04460025206846692068D0F808
:100D90000490206887682068D0F80CA02068D0F8FC
:100DA00010B02068D0F8188006F00100002855D057
:100DB00007F00100C0B101202168886007F002003F
:100DC00018B1204600F0A3FA0EE007F0040010B1BD
:100DD00045F4006508E007F0080010B145F48055BF
:100DE00002E0204600F092FA07F48070C8B14FF498
:100DF00080702168886007F4007018B1204600F008
:100E000088FA0EE007F4806010B145F4005508E060
:100E100007F4006010B145F4804502E0204600F080
:100E200077FA07F48030C8B14FF4803021688860C9
:100E300007F4003018B1204600F06DFA0EE007F418
:100E4000802010B145F4004508E007F4002010B1FF
:100E500045F4803502E0204600F05CFA06F0080018
:100E600038B10AF0100020B145F400751020216857
:100E7000C86006F0040040B10AF0080028B108205C
:100E80002168C860204600F00DFA06F0020038B173
:100E90002068C06800F0030010B1204600F003FA9B
:100EA00006F0400038B10BF0100020B145F4806529
:100EB00010202168086106F0200040B10BF0080006
:100EC00028B1082021680861204600F0EDF906F0FD
:100ED000100038B12068006900F0030010B120460E
:100EE00000F0E3F906F4003040B109F0100028B139
:100EF000102021684860204600F0D8F906F48030C0
:100F000040B109F0080028B1082021684860204657
:100F100000F002FA06F4004088B309F0040078B348
:100F200006F4807020B108F0010008B145F0010519
:100F300006F4007020B108F0020008B145F0020587
:100F400006F4806020B108F0040008B145F0040503
:100F500006F40060A0B108F0700088B108F07000DD
:100F6000402817D006DC10280BD020280CD03028C1
:100F700019D10CE0502810D0602814D110E01DE0E9
:100F800019E045F008050FE045F010050CE045F0CC
:100F9000200509E045F0400506E045F0800503E046
:100FA00045F4807500E000BF00BF2068806920F034
:100FB0007000216888610420216848602DB1606A52
:100FC000284360622046FFF709FEBDE8F09F70B538
:100FD00004460CB9012070BD94F8200010B92046D9
:100FE00000F0B0F82068006820F002002168086076
:100FF00000F0A4FC05460DE000F0A0FC401B0A2810
:1010000008D9606A40F400306062052084F820004E
:101010000120E0E72068406800F002000028EBD1E2
:101020002068006840F001002168086000F086FC3C
:1010300005460DE000F082FC401B0A2808D9606AD2
:1010400040F400306062052084F820000120C2E7EF
:101050002068406800F001000028EBD0207E0128C5
:1010600006D12068006840F080002168086005E033
:101070002068006820F0800021680860607E0128F8
:1010800006D12068006840F040002168086005E053
:101090002068006820F0400021680860A07E0128D8
:1010A00006D12068006840F020002168086005E053
:1010B0002068006820F0200021680860E07E012898
:1010C00006D12068006820F010002168086005E063
:1010D0002068006840F0100021680860207F012827
:1010E00006D12068006840F008002168086005E02B
:1010F0002068006820F0080021680860607F0128EF
:1011000006D12068006840F004002168086005E00E
:101110002068006820F0040021680860D4E902011A
:10112000084321690843616908436168491E08430F
:101130002168C86100206062012084F8200000203E
:1011400049E7000010B586B00446142101A8FFF756
:101150002AFA4E492068884249D14D480068401C0F
:101160004B4908600846006801280FD100BF0020E5
:1011700000904848006840F0007046490860084602
:10118000006800F00070009000BF00BF00BF0020AA
:10119000009040481038006840F008003D49103980
:1011A00008600846006800F00800009000BF00BF1B
:1011B000032001900220029000200390032004905D
:1011C0000920059001A9344800F09AFA002205216F
:1011D000132000F063FC132000F050FC00220521D6
:1011E000142000F05BFC142000F048FC4CE02B497C
:1011F0002068884248D100BF002000902548006840
:1012000040F08060234908600846006800F0806074
:10121000009000BF00BF1E480068401C1C490860C9
:101220000846006801280FD100BF0020009019482F
:10123000006840F00070174908600846006800F038
:101240000070009000BF00BF00BF00200090114858
:101250001038006840F002000E4910390860084656
:10126000006800F00200009000BF00BF6020019005
:101270000220029000200390032004900920059092
:1012800001A9074800F03CFA06B010BD0064004018
:101290002800002040380240000C02400068004056
:1012A000000402407047704770477047704770B540
:1012B000044694F82000012822D1022084F820005E
:1012C0002068006820F001002168086000F036FB0B
:1012D00005460DE000F032FB401B0A2808D9606A81
:1012E00040F400306062052084F82000012070BDC9
:1012F0002068406800F001000028EBD16062F6E74A
:10130000606A40F4002060620120F0E77047704797
:1013100070477047704770477047014691F8350035
:10132000022803D08020486501207047052081F8FD
:1013300035000868006820F001000A68106000208D
:10134000F3E70000F8B50446002000908C480068E0
:101350004FF41651B0FBF1F7A56D2E6894F85C10B0
:1013600008208840304098B12068006800F00400F0
:1013700070B12068006820F004002168086094F8CB
:101380005C1008208840A860606D40F00100606536
:1013900094F85C1001208840304068B120684069B2
:1013A00000F0800040B194F85C1001208840A860F3
:1013B000606D40F00200606594F85C100420884085
:1013C000304068B12068006800F0020040B194F835
:1013D0005C1004208840A860606D40F004006065E7
:1013E00094F85C1010208840304078B32068006882
:1013F00000F0080050B394F85C1010208840A860FA
:101400002068006800F4802080B12068006800F443
:10141000002028B9206CC8B12046216C884715E00F
:10142000A06C98B12046A16C88470FE02068006846
:1014300000F4807028B92068006820F00800216856
:101440000860206C10B12046216C884794F85C102D
:10145000202088403040002865D02068006800F0D7
:10146000100000285FD094F85C1020208840A8600D
:1014700094F83500052828D12068006820F016006F
:10148000216808602068406920F080002168486178
:10149000206C08B9A06C28B12068006820F0080012
:1014A0002168086094F85C103F208840A86000BF65
:1014B000002084F8340000BF012084F83500206D3E
:1014C00010B12046216D8847F8BD2068006800F4FF
:1014D000802080B12068006800F4002028B9606C8A
:1014E00010B12046616C88471DE0E06BD8B1204602
:1014F000E16B884717E02068006800F4807068B9E5
:101500002068006820F010002168086000BF0020FB
:1015100084F8340000BF012084F83500E06B10B17E
:101520002046E16B8847606D38B3606D00F00100C4
:10153000F0B1052084F835002068006820F0010033
:101540002168086000BF0098401C0090B84200D994
:1015500005E02068006800F001000028F3D100BF1A
:1015600000BF002084F8340000BF012084F835005B
:10157000E06C10B12046E16C884700BFA4E7000092
:10158000380000202DE9F0410446002500F0D6F98E
:10159000074614B90120BDE8F081606A00B100BFC0
:1015A00000BF002084F8340000BF022084F835001A
:1015B0002068006820F00100216808600AE000F05F
:1015C000BDF9C01B052805D920206065032084F8DB
:1015D0003500E0E72068006800F001000028EED147
:1015E0002068056821480540D4E901010843E16805
:1015F00008432169084361690843A1690843E16917
:101600000843216A08430543606A042803D1D4E9EA
:101610000B0108430543206805602068456925F0F3
:101620000705606A0543606A04280DD1A06A054376
:10163000E06A48B1204603F06DF828B140206065AB
:10164000012084F83500A6E720684561204603F0B4
:10165000B7F8064694F85C103F208840B060002040
:101660006065012084F83500002094E73F8010F089
:101670002DE9F04104460D4616461F464FF000087E
:1016800000BF94F83400012802D10220BDE8F081A7
:10169000012084F8340000BF94F83500012811D1EE
:1016A000022084F83500002060653B46324629461A
:1016B000204603F019F82068006840F00100216816
:1016C000086006E000BF002084F8340000BF4FF03F
:1016D00002084046DAE7000070B5044600F02EF933
:1016E00006462546681C10B104480078054400BF32
:1016F00000F024F9801BA842FAD370BD340000200A
:10170000F8B502460B460025002400200021E6E043
:10171000012606FA01F51E6806EA0504AC4273D1FB
:101720005E68012E08D05E68022E05D05E68112E1C
:1017300002D05E68122E13D190684F000326BE407F
:10174000B0434F00DE68BE403043906050680126D1
:101750008E40B0431E79C6F300168E403043506071
:10176000D0684F000326BE40B0434F009E68BE4085
:101770003043D0605E68022E02D05E68122E13D114
:10178000CF0802F1200656F827004E07F70E0F2665
:10179000BE40B0434F07FF0E1E69BE403043CF0826
:1017A00002F1200646F8270010684F000326BE40CD
:1017B000B0431E7906F003064F00BE403043106070
:1017C0005E6806F08056B6F1805FA8D100BF0026A3
:1017D0000096454E366846F48046434F3E603E468E
:1017E000366806F48046009600BF00BF3F4E8F0863
:1017F00056F827008E07370F0F26BE40B0433C4EE9
:10180000B24202D100262EE068E03A4EB24201D147
:10181000012628E0384EB24201D1022623E0374E9D
:10182000B24201D103261EE0354EB24201D1042658
:1018300019E0344EB24201D1052614E0324EB242D4
:1018400001D106260FE0314EB24201D107260AE04F
:101850002F4EB24201D1082605E02E4EB24201D1F0
:10186000092600E00A268F073F0FBE4030431F4E77
:101870008F0846F82700284E3068A0435E6806F4BB
:101880008036B6F5803F00D12043234E3060361DB0
:101890003068A0435E6806F40036B6F5003F00D11C
:1018A00020431D4E361D3060361D3068A0435E68F3
:1018B00006F48016B6F5801F00D12043164E083678
:1018C0003060361D3068A0435E6806F40016B6F539
:1018D000001F00D12043104E0C363060491C1029E7
:1018E000FFF416AFF8BD000044380240083801404C
:1018F000000002400004024000080240000C0240C8
:10190000001002400014024000180240001C024077
:101910000020024000240240003C014042690A408D
:101920008A4202D10A04826100E0816170470AB1F3
:10193000816101E00B048361704700000148006889
:10194000704700002C000020034800680349097814
:1019500008440149086070472C0000203400002032
:1019600010B50D48006840F400700B490860084647
:10197000006840F4806008600846006840F48070A9
:101980000860032000F0C8F8002000F007F800F01D
:101990004BF8002010BD0000003C024070B588B03C
:1019A00004460025002600222146372000F076F864
:1019B000372000F063F800BF00200190164800684F
:1019C00040F02000144908600846006800F020003C
:1019D000019000BF00BF02A903A800F0F5FA00F0D3
:1019E0001BFB45000D48B5FBF0F0461E0C480D49A9
:1019F000086040F2E7310B48C16046600021016198
:101A0000816000F025FF20B9064800F097FF08B07C
:101A100070BD0120FBE700004038024040420F004B
:101A2000001400409804002008B500BF002000907A
:101A30001148006840F480400F490860084600687B
:101A400000F48040009000BF00BF00BF0020009065
:101A5000081F006840F08050091F086008460068B1
:101A600000F08050009000BF00BF00220F21901EA8
:101A700000F014F808BD0000443802400146084652
:101A8000002809DB00F01F0301229A4043099B0054
:101A900003F1E023C3F8002100BF70472DE9F05F98
:101AA00080460D461646002703F062FA074639467F
:101AB0002A46334601F00700C0F1070ABAF1040FC5
:101AC00002D94FF0040A01E0C0F1070AD14600F143
:101AD000040ABAF1070F02D24FF0000A01E0A0F1A8
:101AE000030AD4464FF0010A0AFA09FAAAF1010AD8
:101AF0000AEA020A0AFA0CFA4FF0010B0BFA0CFB85
:101B0000ABF1010B0BEA030B4AEA0B0421464046FA
:101B100003F01AFABDE8F09F00BF00F00702064B81
:101B200019684FF6FF031940044B0B4343EA0221A7
:101B3000014B196000BF70470CED00E00000FA0592
:101B4000F8B5044600250026207800F0010048B9C9
:101B5000207800F00200022804D0207800F0400035
:101B6000402862D10020B1498866FFF7E7FE0546AC
:101B700006E0FFF7E3FE401B022801D90320F8BD71
:101B8000AB480068C0F3C0600028F2D1207800F0B4
:101B9000010038B160688101207A41EA0070A449EF
:101BA00084310860207800F00200022819D1A04892
:101BB00084300068C0F3027660688101207B41EACE
:101BC000006040EA06709A498431086098488C3079
:101BD000006820F01F00E169491E084394498C31D8
:101BE0000860207800F0400040280AD16068810138
:101BF000207B41EA0061207A41EA00708C498431FF
:101C00000860012089498866FFF798FE054606E0CE
:101C1000FFF794FE401B022801D90320AFE7844858
:101C20000068C0F3C0600028F2D0207800F0040003
:101C3000042804D0207800F00800082863D1002090
:101C40007A490867FFF77AFE054606E0FFF776FE59
:101C5000401B022801D9032091E775480068C0F3B2
:101C600040700028F2D1207800F00400042819D137
:101C70006F4888300068C0F3027620698101207DBA
:101C800041EA006040EA0670694988310860081D31
:101C9000006820F4F851206A401E41EA002064499F
:101CA0008C310860207800F00800082817D16048BF
:101CB00088300068C0F303662069800140EA06614D
:101CC000207E41EA00705A4988310860081D00688A
:101CD00020F44030616A084355498C310860012086
:101CE00052490867FFF72AFE054606E0FFF726FE81
:101CF000401B022801D9032041E74D480068C0F38A
:101D000040700028F2D0207800F0200020287DD1FB
:101D100000BF0020009046484030006840F08050EE
:101D20004349403108600846006800F08050009048
:101D300000BF00BF3F48006840F480703D49086024
:101D4000FFF7FCFD054606E0FFF7F8FD401B022803
:101D500001D9032013E73748006800F48070002899
:101D6000F2D033487030006800F440764EB3208DD6
:101D700000F44070B04224D02D487030006820F448
:101D8000407601202C490860002008602848703007
:101D90000660006800F0010098B1FFF7CFFD05462E
:101DA00008E0FFF7CBFD401B41F28831884201D9A2
:101DB0000320E4E61E4870300068C0F340000028AD
:101DC000EFD000BF208D00F44070B0F5407F0CD103
:101DD00017480830006820F4F810184AA16A11402A
:101DE000084313490831086007E0114808300068CB
:101DF00020F4F8100E49083108600D487030006872
:101E0000218DC1F30B010843094900E002E0703164
:101E1000086000BF207800F01000102803D194F86B
:101E20002C00074908600020A9E600000000474296
:101E30000038024000700040400E4742FFFCFF0F98
:101E4000E011474270B504460D460CB9012070BD43
:101E50005848006800F00F00A84209D255490D709B
:101E60000846006800F00F00A84201D00120EEE70C
:101E7000207800F0020002281DD1207800F0040034
:101E8000042805D14C48006840F4E0504A490860F5
:101E9000207800F00800082805D14748006840F481
:101EA0006040454908604448006820F0F000A1689F
:101EB000084341490860207800F00100A8B3606839
:101EC000012807D13C4808380068C0F34040B8B941
:101ED0000120BCE76068022802D06068032807D1AF
:101EE000354808380068C0F3406048B90120AEE7C3
:101EF000314808380068C0F3400008B90120A6E75F
:101F00002D48006820F00300616808432A490860F2
:101F1000FFF714FD064609E0FFF710FD801B41F2B4
:101F20008831884202D9032091E707E022480068FF
:101F300000F00C006168B0EB810FEDD11D48006826
:101F400000F00F00A84209D91A490D700846006830
:101F500000F00F00A84201D0012078E7207800F0BF
:101F60000400042807D11448006820F4E050E16818
:101F7000084311490860207800F00800082808D1BB
:101F80000D48006820F46040216940EAC1000A4918
:101F9000086000F061F808490968C1F30311074AB5
:101FA000515CC8400649086006480068FFF7F6FC27
:101FB00000204CE7003C024008380240789F0008AF
:101FC00038000020300000200F2202600D4A126805
:101FD00002F0030242600B4A126802F0F0028260D3
:101FE000084A126802F4E052C260064A126802F41B
:101FF0006042D2080261044A126802F00F020A60CD
:102000007047000008380240003C02400148006868
:10201000704700003800002000B5FFF7F7FF0449C3
:102020000968C1F38221034A515CC84000BD000029
:1020300008380240889F000800B5FFF7E7FF044911
:102040000968C1F34231034A515CC84000BD000039
:1020500008380240889F00082DE9F0470024002539
:102060000026A1462548006800F00C0020B1042895
:1020700005D008283AD105E0DFF8849039E0DFF890
:10208000849036E01D48001F006800F03F041B48A4
:10209000001F006800F4800078B11A481749091F32
:1020A0000968C1F38811A0FB017001462246002394
:1020B0003846FEF773F905460EE011480F49091F2F
:1020C0000968C1F38811A0FB017001462246002374
:1020D0003846FEF763F905460848001F0068C0F35C
:1020E0000140401C4600B5FBF6F902E0DFF8109015
:1020F00000BF00BF4846BDE8F08700000838024036
:102100000024F400001BB700F8B504460CB9012008
:10211000F8BD207800F00100002874D0F94800686C
:1021200000F00C0004280DD0F648006800F00C0008
:10213000082813D1F348001F006800F48000B0F5B0
:10214000800F0BD1EF4808380068C0F340400028EA
:1021500059D06068002856D10120D9E700BF6068D7
:10216000B0F5803F08D1E7480838006840F4803077
:10217000E449083908601EE06068B0F5A02F0DD171
:10218000E0480838006840F48020DE4908390860DB
:102190000846006840F4803008600CE0D9480838F0
:1021A000006820F48030D749083908600846006884
:1021B00020F48020086000BF606890B1FFF7BEFB8C
:1021C000054606E0FFF7BAFB401B642801D903204F
:1021D0009EE7CC4808380068C0F340400028F1D0A2
:1021E00011E0FFF7ABFB054606E0FFF7A7FB401B3E
:1021F000642801D903208BE7C24808380068C0F37F
:1022000040400028F1D1207800F0020002285FD180
:10221000BC48006800F00C0058B1BA48006800F0F3
:102220000C0008281CD1B748001F006800F480008B
:10223000B0B9B44808380068C0F3400020B1E06885
:10224000012801D0012063E7AE480838006820F07B
:10225000F800216940EAC100AA490839086037E05E
:10226000E06800B30120A8490860FFF767FB054656
:1022700006E0FFF763FB401B022801D9032047E774
:10228000A04808380068C0F340000028F1D09D48FD
:102290000838006820F0F800216940EAC100994937
:1022A0000839086014E0002097490860FFF746FBF2
:1022B000054606E0FFF742FB401B022801D9032038
:1022C00026E7904808380068C0F340000028F1D1A4
:1022D000207800F0080008282CD16069A8B10120FE
:1022E0008A490860FFF72AFB054606E0FFF726FB50
:1022F000401B022801D903200AE782486C3000689D
:10230000C0F340000028F1D014E000207F490860AD
:10231000FFF714FB054606E0FFF710FB401B022801
:1023200001D90320F4E677486C300068C0F3400020
:102330000028F1D1207800F00400042870D1002793
:1023400070483830006800F0805090B900BF00201D
:1023500000906C483830006840F08050694938314E
:1023600008600846006800F08050009000BF00BF81
:1023700001276748006800F48070B0B964480068BD
:1023800040F4807062490860FFF7D8FA054606E01D
:10239000FFF7D4FA401B022801D90320B8E65C48B5
:1023A000006800F480700028F2D000BFA068012807
:1023B00008D154486830006840F001005149683144
:1023C00008601DE0A06805280DD14E4868300068FF
:1023D00040F004004B49683108600846006840F04E
:1023E000010008600CE047486830006820F00100F8
:1023F0004449683108600846006820F0040008601D
:1024000000BFA068A8B1FFF799FA054609E0FFF7F9
:1024100095FA401B41F28831884202D9032077E6C1
:1024200026E0384868300068C0F340000028EED04D
:1024300013E0FFF783FA054608E0FFF77FFA401B39
:1024400041F28831884201D9032061E62D48683085
:102450000068C0F340000028EFD1012F07D12948C0
:102460003830006820F0805026493831086000BFBD
:10247000A069002845D02348006800F00C00082817
:102480005DD0A069022845D100201F490866FFF7EA
:1024900055FA054606E0FFF751FA401B022801D91C
:1024A000032035E6174808380068C0F3406000286C
:1024B000F1D1D4E907010843616A40EA81110122A0
:1024C000A06AC2EB500041EA00412C20005D41EAC5
:1024D00000600C49091F086001200B490866FFF7DE
:1024E0002DFA054606E0FFF729FA401B022801D91C
:1024F00003200DE6034808380068C0F34060002858
:10250000F1D03FE00838024000004742800E4742C9
:102510000070004000201C490866FFF70FFA0546CE
:1025200006E0FFF70BFA401B022801D90320EFE574
:1025300016480068C0F340600028F2D122E0A0698C
:10254000012800D1E4E51148001D066806F4800169
:10255000E069814214D106F03F01206A81420FD127
:1025600047F6C0703040616A884209D106F44031B4
:10257000A06A814204D106F07061E06A814201D014
:102580000120C5E50020C3E50000474200380240B5
:1025900010B504460CB9012010BD607920B90020A7
:1025A0002071204600F00EF802206071206800685B
:1025B00040F0040021680860012060710020A060E4
:1025C00000BFE9E708B50A4A016891420FD100BF90
:1025D000002100910749096841F04001054A116056
:1025E0001146096801F04001009100BF00BF08BD1D
:1025F000000806503438024010B504460CB90120DA
:1026000010BD607F20B900202077204600F060F8E0
:102610000220607700BFCA202168486253202168E9
:10262000486200BF204601F04CFB40B100BFFF20D4
:102630002168486200BF042060770120E0E720683D
:1026400080682249084021688860216960680843E1
:1026500061690843216889680843216888602168A6
:10266000E068086120680169208941EA004021682A
:1026700008612068C06820F080002168C860206878
:10268000806800F0200060B9204600F02DF840B1CD
:1026900000BFFF202168486200BF0420607701204E
:1026A000AEE72068006C20F4802021680864206870
:1026B000006CA16908432168086400BFFF202168FD
:1026C000486200BF01206077002099E7BFFF8FFFBD
:1026D000034A0168914202D10121024A1160704708
:1026E000002800403C0E474270B504460025206893
:1026F000C06820F0A0002168C860FFF71FF90546F8
:1027000007E0FFF71BF9401BB0F57A7F01D90320E2
:1027100070BD2068C06800F020000028F1D00020C3
:10272000F6E77047704710B50346002200BF93F8E4
:102730003C00012801D1022010BD012083F83C009B
:1027400000BF22F0FF00CC6840EA040222F440708F
:102750008C6840EA040222F480604C6840EA04027B
:1027600022F400600C6840EA040222F480500C69F4
:1027700040EA040222F400504C6940EA040222F4C8
:102780008040CC6940EA04021868426400BF00201F
:1027900083F83C0000BF00BFCEE7000030B5024622
:1027A0000B4600BF92F83C00012801D1022030BD49
:1027B000012082F83C0000BF022082F83D00106832
:1027C00044681068816824F0700418680443106835
:1027D0004460184D1068A8421BD01068B0F1804FBB
:1027E00017D0154D1068A84213D0144D1068A84298
:1027F0000FD0134D1068A8420BD0124D1068A8429C
:1028000007D0114D1068A84203D0104D1068A8429F
:1028100005D121F0800158680143106881600120D2
:1028200082F83D0000BF002082F83C0000BF00BFDE
:10283000BDE7000000000140000400400008004027
:10284000000C00400004014000400140001800401E
:1028500010B504460CB9012010BD94F83D0028B90C
:10286000002084F83C00204600F00CF8022084F898
:102870003D00211D206801F073FA012084F83D001D
:102880000020E9E708B50168B1F1804F0FD100BF22
:10289000002100912549096841F00101234A116096
:1028A0001146096801F00101009100BF3DE0204A96
:1028B000016891420FD100BF002100911B490968B6
:1028C00041F00401194A11601146096801F0040140
:1028D000009100BF29E0174A016891420FD100BF63
:1028E000002100911149096841F008010F4A116067
:1028F0001146096801F00801009100BF15E00E4A79
:102900000168914211D100BF002100910749091DC2
:10291000096841F00201054A121D1160114609685B
:1029200001F00201009100BF00BF08BD4038024025
:1029300000080040000C0040000401400146086807
:10294000C06840F001000B68D8600868806800F03B
:102950000702062A05D00868006840F001000B68ED
:102960001860002070472DE9F04104460D4600BF75
:1029700094F83C00012802D10220BDE8F08101203A
:1029800084F83C0000BF022084F83D00206886687F
:1029900026F0770626F47F4620688660286850284F
:1029A00033D00CDC202850D004DC00284BD0102879
:1029B00051D149E0302849D040284CD139E0602835
:1029C0002DD0702807D0B0F5805F03D0B0F5005F40
:1029D00041D10DE040E0D5E902136A68206801F0BA
:1029E0003CFA2068866846F077062068866033E007
:1029F000D5E902136A68206801F02FFA2068806820
:102A000040F480402168886026E0EA6869682068B0
:102A100001F097FF5021206801F08AFF1CE0EA686E
:102A20006968206801F0A0FF6021206801F080FF44
:102A300012E0EA686968206801F083FF402120689D
:102A400001F076FF08E000BF00BF00BF29682068E2
:102A500001F06EFF00E000BF00BF012084F83D00E0
:102A600000BF002084F83C0000BF00BF85E770472E
:102A700010B5044620680069C0F34000D8B1206852
:102A8000C068C0F34000B0B16FF002002168086177
:102A9000012020772068806900F0030018B12046EB
:102AA000FFF7E5FF05E0204600F06CF9204600F056
:102AB00009FA0020207720680069C0F38000D8B1AF
:102AC0002068C068C0F38000B0B16FF004002168D6
:102AD0000861022020772068806900F4407018B1F6
:102AE0002046FFF7C4FF05E0204600F04BF92046E2
:102AF00000F0E8F90020207720680069C0F3C000EA
:102B0000D8B12068C068C0F3C000B0B16FF0080051
:102B100021680861042020772068C06900F0030064
:102B200018B12046FFF7A3FF05E0204600F02AF980
:102B3000204600F0C7F90020207720680069C0F324
:102B40000010D8B12068C068C0F30010B0B16FF0B9
:102B5000100021680861082020772068C06900F40F
:102B6000407018B12046FFF782FF05E0204600F0D4
:102B700009F9204600F0A6F90020207720680069B6
:102B800000F0010058B12068C06800F0010030B1C9
:102B90006FF0010021680861204600F0C1F920684B
:102BA0000069C0F3C01058B12068C068C0F3C010FD
:102BB00030B16FF08000216808612046FFF7B1FD59
:102BC00020680069C0F3801058B12068C068C0F365
:102BD000801030B16FF0400021680861204600F09D
:102BE000ABF920680069C0F3401058B12068C06894
:102BF000C0F3401030B16FF020002168086120461A
:102C0000FFF790FD10BD000010B586B004461421FA
:102C100001A8FDF7C8FC2068B0F1804F1DD100BFAE
:102C2000002000904F48006840F001004D490860C6
:102C30000846006800F00100009000BF00BF0F20B0
:102C40000190022002900020039004900120059042
:102C500001A94548FEF754FD82E0444920688842B6
:102C60001ED100BF002000903E48006840F00800E0
:102C70003C4908600846006800F00800009000BF6A
:102C800000BF4FF47040019002200290002003909A
:102C900004900220059001A93548FEF731FD5FE060
:102CA0003449206888423AD100BF002000902D4866
:102CB000006840F480702B4908600846006800F402
:102CC0008070009000BF00BF00BF00200090084649
:102CD000006840F0800008600846006800F080004E
:102CE000009000BF00BF0120019002200290002050
:102CF000039004900220059001A91F48FEF700FDF3
:102D00004FF4E050019002200290002003900490C4
:102D10000220059001A91948FEF7F2FC20E01849AD
:102D2000206888421CD100BF002000900D48006838
:102D300040F480700B4908600846006800F4807019
:102D4000009000BF00BFE42001900220029000200C
:102D5000039004900320059001A90748FEF7D0FCDA
:102D600006B010BD303802400000024000080040AC
:102D7000000C0240000C004000200240001C0240F9
:102D800000040140704770B504460D46164600BF6A
:102D900094F83C00012801D1022070BD012084F884
:102DA0003C0000BF022084F83D0036B1042E1BD049
:102DB000082E31D00C2E5ED145E02946206801F066
:102DC00019FD2068806940F008002168886120684A
:102DD000806920F004002168886120688069296981
:102DE00008432168886147E02946206801F040F8DF
:102DF0002068806940F400602168886120688069EB
:102E000020F480602168886120688069296940EA2F
:102E10000120216888612FE02946206801F022FD09
:102E20002068C06940F008002168C8612068C06956
:102E300020F004002168C8612068C069296908433E
:102E40002168C86118E02946206801F047FD206824
:102E5000C06940F400602168C8612068C06920F43E
:102E600080602168C8612068C069296940EA012042
:102E70002168C86100E000BF00BF012084F83D0068
:102E800000BF002084F83C0000BF00BF85E710B5FC
:102E900004460CB9012010BD94F83D0028B900206B
:102EA00084F83C00204600F00CF8022084F83D0035
:102EB000211D206800F054FF012084F83D0000200F
:102EC000E9E770477047000070B504460E460122DE
:102ED0003146206800F0B0FF0F492068884203D0D7
:102EE0000E492068884201D1012000E0002028B16D
:102EF0002068406C40F40040216848642068806885
:102F000000F00705062D05D02068006840F001009C
:102F100021680860002070BD0000014000040140ED
:102F200010B5044603492068884201D1FEF70CFD24
:102F300010BD000000140040704770472DE9F047B5
:102F40000446206805682068C668206847694FF015
:102F50000008C14605F00F08B8F1000F0AD105F0CE
:102F6000200038B106F0200020B1204601F004FF17
:102F7000BDE8F087B8F1000F72D007F0010018B972
:102F800006F4907000286BD005F0010030B106F413
:102F9000807018B1E06B40F00100E06305F00400C0
:102FA00030B107F0010018B1E06B40F00200E063BF
:102FB00005F0020030B107F0010018B1E06B40F0FD
:102FC0000400E06305F0080048B106F0200010B9E5
:102FD00007F0010018B1E06B40F00800E063E06B1F
:102FE00070B305F0200028B106F0200010B1204693
:102FF00001F0C2FE20684069C0F38019E06B00F068
:10300000080010B9B9F1000F23D0204601F03BFFB2
:103010002068406900F04000402816D120684069CF
:1030200020F0400021684861606B50B11748616B27
:103030000865606BFEF771F910B1606B016D884730
:103040000CE02046FFF779FF08E02046FFF775FF08
:1030500004E02046FFF771FF0020E06388E7FFE708
:1030600005F0800030B106F0800018B1204601F074
:10307000D6FE7DE705F0400030B106F0400018B103
:10308000204601F010FF73E700BF71E7C74E00084C
:1030900010B504460CB9012010BDA06900B100E0D4
:1030A00000BF94F8390028B9002084F83800204681
:1030B00000F028F8242084F839002068C06820F443
:1030C00000502168C860204601F062FC2068006959
:1030D00020F49040216808612068406920F02A00AF
:1030E000216848612068C06840F400502168C860C9
:1030F0000020E063202084F8390084F83A000020A2
:10310000CAE7000010B586B00446142101A8FDF7F7
:103110004AFA9D492068884239D100BF00200090BA
:103120009A48006840F08040984908600846006866
:1031300000F08040009000BF00BF00BF0020009062
:1031400092481038006840F010009049103908602B
:103150000846006800F01000009000BF00BF4FF468
:10316000C07001900220029001200390032004907F
:103170000820059001A98648FEF7C2FA0022052121
:103180005220FEF78BFC5220FEF778FCF9E08149D3
:103190002068884238D100BF002000907B4800683A
:1031A00040F00040794908600846006800F000409F
:1031B000009000BF00BF00BF00200090734810388F
:1031C000006840F010007149103908600846006836
:1031D00000F01000009000BF00BF0320019002200B
:1031E000029001200390032004900820059001A97B
:1031F0006748FEF785FA002205215320FEF74EFCB2
:103200005320FEF73BFCBCE063492068884279D13B
:1032100000BF002000905D48001D006840F01000D5
:103220005A49091D08600846006800F01000009027
:1032300000BF00BF00BF0020009054481038006855
:1032400040F002005149103908600846006800F05B
:103250000200009000BF00BF00BF002000900846A1
:10326000006840F0010008600846006800F00100B6
:10327000009000BF00BF802001900220029000203B
:103280000390032004900720059001A94348FEF70E
:1032900037FA4FF400700190022002900020039052
:1032A000032004900720059001A93D48FEF728FA65
:1032B0003C483D4908604FF00060486000213A48B2
:1032C0008160C1604FF480610161002141618161D1
:1032D0004FF48071C161002101624162FEF752F931
:1032E00008B1FDF73CFB00BF2F486063846300BF5B
:1032F000002205212520FEF7D1FB2520FEF7BEFB8D
:103300003FE0FFE72949206888423AD100BF00200A
:1033100000901E48001D006840F020001B49091D58
:1033200008600846006800F02000009000BF00BF61
:1033300000BF0020009015481038006840F04000A1
:103340001249103908600846006800F040000090FB
:1033500000BF00BF4FF48440019002200290002083
:103360000390032004900820059001A91048FEF75F
:10337000C7F9002205214720FEF790FB4720FEF702
:103380007DFB06B010BD00000078004040380240D0
:1033900000100240007C0040001001400004024088
:1033A0000000024040640240380400200014014044
:1033B0000018024010B5034693F83A0020282FD198
:1033C00001B10AB9012010BD00BF93F838000128EF
:1033D00001D10220F7E7012083F8380000BF99628D
:1033E0009A85DA850020D863222083F83A0000BF4E
:1033F000002083F8380000BF1868C06840F480706F
:103400001C68E0601868406940F001001C68606159
:103410001868C06840F020001C68E0600020D2E717
:103420000220D0E710B5044616480068401C154934
:1034300008601548844209D114480068401C1349AB
:103440000860102212492046FFF7B4FF1148844259
:1034500009D111480068401C0F49086006220F4935
:103460002046FFF7A7FF0E48844209D10D480068A7
:10347000401C0C49086001220B492046FFF79AFFC7
:1034800010BD000064010020F80300205801002056
:103490009C480020380300205C01002044010020EB
:1034A00078030020600100204A0100202DE9F84344
:1034B00004460D4616461F464FF0000994F83900A1
:1034C00020285DD105B116B90120BDE8F88300BF01
:1034D00094F83800012801D10220F6E7012084F891
:1034E000380000BF0020E063212084F83900FEF797
:1034F00025FA8146A684E68400BF002084F83800BF
:1035000000BF2BE0E08C401EE084A068B0F5805F37
:1035100016D14B46002280212046009701F0DDFCA9
:1035200008B10320D1E7A846B8F80000C0F30800AE
:1035300021684860206908B9AD1C0FE06D1C0DE0E2
:103540004B46002280212046009701F0C6FC08B1BE
:103550000320BAE715F8010B21684860E08C0028C9
:10356000D0D14B46002240212046009701F0B5FC07
:1035700008B10320A9E7202084F839000020A4E73F
:103580000220A2E7704700BFFEE7000010B50F4819
:103590000F4908600320486000210D488160C16028
:1035A0004FF4002101614FF4401141610021017687
:1035B0000121417600218176C17601774177FDF7BF
:1035C00006FD08B1FDF7CBF910BD00000064004016
:1035D000B801002010B50E480E490860032048606D
:1035E00000210C488160C1604FF4002101614FF45B
:1035F000401141610021017641768176C1760177E3
:103600004177FDF7E4FC08B1FDF7A9F910BD000012
:1036100000680040E001002008B500BF00200090D5
:103620000A48006840F480000849086008460068BD
:1036300000F48000009000BF00BF002205213A2066
:10364000FEF72CFA3A20FEF719FA08BD303802408E
:1036500000B587B0142102A8FCF7A5FF00BF002029
:1036600001905F48006840F010005D49086008461E
:10367000006800F01000019000BF00BF00BF0020F4
:1036800001900846006840F00200086008460068A3
:1036900000F00200019000BF00BF00BF00200190B9
:1036A0000846006840F0400008600846006800F0E6
:1036B0004000019000BF00BF00BF002001900846FD
:1036C000006840F0010008600846006800F0010052
:1036D000019000BF00BF00BF0020019008460068B5
:1036E00040F0080008600846006800F008000190FB
:1036F00000BF00BF00BF002001900846006840F4F2
:10370000807008600846006800F48070019000BF77
:1037100000BF00BF002001900846006840F0800014
:1037200008600846006800F08000019000BF00BFFC
:1037300000BF002001900846006840F020000860AB
:103740000846006800F02000019000BF00BF002282
:103750003C212448FEF7EBF800224FF4FF71224889
:10376000FEF7E5F800224FF400612048FEF7DFF88D
:1037700000224FF480411E48FEF7D9F83C20029009
:103780000120039000200490059002A91548FDF740
:10379000B7FF4FF4FF7002900120039000200490C7
:1037A000059002A91048FDF7ABFF4FF400600290AE
:1037B0000120039000200490059002A90B48FDF71A
:1037C0009FFF4FF48040029001200390002004905E
:1037D000059002A90648FDF793FF07B000BD000061
:1037E00030380240001C0240001802400010024025
:1037F0000014024010B50548054908600846FEF768
:10380000C7FE08B1FDF7ABF810BD00000008065078
:103810000802002010B50A480A49086000204860E4
:103820007F2108488160FF21C16000210161416161
:103830008161FEF7E1FE08B1FDF791F810BD0000CF
:10384000002800401802002000B58DB0002009902B
:103850000A900B900C90079008901C216846FCF78A
:10386000A2FE4FF080402C490860A720486000214C
:103870002948816042F20F71C160002101618161BC
:10388000FEF7E6FF08B1FDF76AF84FF480500990A3
:1038900009A92148FFF767F808B1FDF760F81E484D
:1038A000FFF7F5FA08B1FDF75AF8002007900890E5
:1038B00007A91948FEF772FF08B1FDF750F860201C
:1038C000009041F288300190002002900490002284
:1038D00069461148FFF757FA08B1FDF740F804228E
:1038E00069460D48FFF74FFA08B1FDF738F808228E
:1038F00069460948FFF747FA08B1FDF730F80C228E
:1039000069460548FFF73FFA08B1FDF728F8024875
:10391000FFF77AF90DB000BD3802002000B58DB078
:10392000002009900A900B900C90079008901C21A1
:103930006846FCF738FE2D482D490860A7204860EE
:1039400000212B48816042F20F71C16000210161AA
:103950008161FEF77DFF08B1FDF701F84FF480505B
:10396000099009A92248FEF7FEFF08B1FCF7F7FF0E
:103970001F48FFF78CFA08B1FCF7F1FF0020079011
:10398000089007A91A48FEF709FF08B1FCF7E7FFFE
:103990006020009041F28830019000200290049055
:1039A000002269461248FFF7EEF908B1FCF7D7FF8D
:1039B000042269460E48FFF7E6F908B1FCF7CFFF8D
:1039C000082269460A48FFF7DEF908B1FCF7C7FF8D
:1039D0000C2269460648FFF7D6F908B1FCF7BFFF8D
:1039E0000348FFF711F90DB000BD000000080040CA
:1039F0007802002000B58DB0002009900A900B904D
:103A00000C90079008901C216846FCF7CCFD2D48CF
:103A10002D490860A720486000212B48816042F2B0
:103A20000F71C160002101618161FEF711FF08B1D2
:103A3000FCF795FF4FF48050099009A92248FEF742
:103A400092FF08B1FCF78BFF1F48FFF720FA08B17F
:103A5000FCF785FF00200790089007A91A48FEF799
:103A60009DFE08B1FCF77BFF6020009041F288309A
:103A70000190002002900490002269461248FFF74E
:103A800082F908B1FCF76BFF042269460E48FFF784
:103A90007AF908B1FCF763FF082269460A48FFF784
:103AA00072F908B1FCF75BFF0C2269460648FFF784
:103AB0006AF908B1FCF753FF0348FFF7A5F80DB00A
:103AC00000BD0000000C0040B802002000B595B019
:103AD000002011901290139014900F9010901C21C0
:103AE00008A8FCF760FD20216846FCF75CFD38481B
:103AF00038490860A720486000213648816042F2BA
:103B00000F71C1600021016141618161FEF7A0FE7A
:103B100008B1FCF724FF4FF48050119011A92D48F3
:103B2000FEF721FF08B1FCF71AFF2A48FFF7AFF9AB
:103B300008B1FCF714FF00200F9010900FA9254842
:103B4000FEF72CFE08B1FCF70AFF6020089041F256
:103B50008830099000200A900B900C900D900E90E8
:103B6000002208A91B48FFF70EF908B1FCF7F7FE81
:103B7000042208A91748FFF706F908B1FCF7EFFE81
:103B8000082208A91348FFF7FEF808B1FCF7E7FE82
:103B90000C2208A90F48FFF7F6F808B1FCF7DFFE82
:103BA0000020009001900290039004904FF4005088
:103BB00005900020079069460648FEF7B4FD08B15D
:103BC000FCF7CDFE0348FFF71FF815B000BD00005D
:103BD00000040140F802002010B50B480B490860B2
:103BE0004FF4E1304860002108488160C160016104
:103BF0000C21416100218161C161FFF749FA08B1DF
:103C0000FCF7ADFE10BD0000007800403803002036
:103C100010B50B480B4908604FF4E13048600021B3
:103C200008488160C16001610C214161002181610E
:103C3000C161FFF72DFA08B1FCF791FE10BD00003D
:103C4000007C00407803002010B50B480B49086049
:103C50000B484860002109488160C1604FF48061D1
:103C600001610C21416100218161C161FFF710FAFE
:103C700008B1FCF774FE10BD00100140B80300202D
:103C8000A086010010B50B480B4908604FF4E130E5
:103C90004860002108488160C16001610C214161D8
:103CA00000218161C161FFF7F3F908B1FCF757FE0C
:103CB00010BD000000140140F803002000BFFEE723
:103CC000704770B5044600252068C06800F04000C9
:103CD000A0B9681E2168C860FDF730FE054607E000
:103CE000FDF72CFE401BB0F57A7F01D9032070BD93
:103CF0002068C06800F040000028F1D00020F6E7FE
:103D000010B500BF502080F31188BFF34F8FBFF371
:103D10006F8F00BF05F07AF918B14FF08050044959
:103D2000086000BF002080F3118800BF10BD0000B4
:103D300004ED00E00548006840F4700003490860A5
:103D40004FF00060014980390860704788ED00E05D
:103D500010B50248FEF78CFE10BD0000980400204C
:103D600010B50268294B98420ED0B0F1804F0BD0AD
:103D7000274B984208D0274B984205D0264B9842B3
:103D800002D0264B984203D122F070024B681A43AE
:103D90001E4B984220D0B0F1804F1DD01C4B984252
:103DA0001AD01C4B984217D01B4B984214D01B4B77
:103DB000984211D01A4B98420ED01A4B98420BD011
:103DC000194B984208D0194B984205D0184B98428D
:103DD00002D0184B984203D122F44072CB681A43A8
:103DE00022F080034C6943EA040202608B68C362DC
:103DF0000B688362054B984202D0084B984201D170
:103E00000B6903630123436110BD00000000014002
:103E10000004004000080040000C00400004014085
:103E200000400140004401400048014000180040AB
:103E3000001C00400020004030B501F01F050124A7
:103E400004FA05F3046A9C430462046A01F01F0546
:103E500002FA05F52C43046230BD30B50C4681688A
:103E600021F47F4142EA032525432943816030BD87
:103E700030B5056A25F010050562026A4368846959
:103E800024F4E04424F440740D6844EA052422F04C
:103E900020028D6842EA0512124DA84200D103E0CB
:103EA000114DA84207D100BF22F08002CD6842EA3E
:103EB000051222F040020B4DA84202D00A4DA84242
:103EC00009D123F4806323F400634D6943EA850339
:103ED0008D6943EA8503436084614D6885630262AE
:103EE00030BD0000000001400004014010B5024850
:103EF000FFF724F810BD00003803002010B5024879
:103F0000FFF71CF810BD00007803002010B503482F
:103F100000F094FA0148FFF711F810BDB803002033
:103F200010B50248FFF70AF810BD0000F8030020A2
:103F300000BFFEE700F098FA00BF4FF47A7004F07B
:103F40001CFAFAE710B5044602F088F910BD00002B
:103F500010B52DED048B04460B4901EB4401B1F97A
:103F6000000005F07AFC41EC190B9FED080B53ECB7
:103F7000102B05F0AFFA41EC180B05F0C5F900EE77
:103F8000100ABDEC048B10BDD258002000000000C8
:103F900000A0844010B5044602F056FB10BD10B5D9
:103FA000044601F059F810BD10B5044601F06EFA50
:103FB00010BD000010B5162248494948FCF77CFAAC
:103FC000484800784749497840EA0120C0F30A0090
:103FD0004249088043484078C0104249897840EA05
:103FE0004110C0F30A003D4948803E488078801166
:103FF0003C49C97840EA81003A49097940EA812080
:10400000C0F30A00354988803648007940103549A8
:10401000497940EAC110C0F30A003049C8803148EC
:104020004079C0F3011088722E4840790011810850
:104030002A48C1722B4880792A49C97940EA01206F
:1040400000B2264988812748007A2649497A40EA01
:10405000012001B22148C1812248807A2149C97AD0
:1040600040EA012001B21D4801821E48017B1B4825
:1040700081741C48417B1948C1741A48807B1949D6
:10408000C97B40EA0120154988821648007C154901
:10409000497C40EA012000B21049088108460088A6
:1040A000A0F5806000B2088008464088A0F58060D6
:1040B00000B2488008468088A0F5806000B2888001
:1040C0000846C088A0F5806000B2C8800846008914
:1040D000A0F5806000B2088110BD0000D258002019
:1040E000E8580020C058002000BF012004F045F926
:1040F000FBE710B5044601F097FB10BD00B5BFB05B
:104100001C22364938A8FCF71CFA002138A804F014
:1041100045F9334908601C2230491C3131A8FCF7AD
:1041200010FA002131A804F039F92E4908601C2248
:104130002A4938312AA8FCF704FA00212AA804F0F9
:104140002DF9294908601C222449543123A8FCF781
:10415000F8F9002123A804F021F9244908601C2261
:104160001E4970311CA8FCF7ECF900211CA804F0D2
:1041700015F91F4908601C2218498C3115A8FCF755
:10418000E0F9002115A804F009F91A4908601C2279
:104190001249A8310EA8FCF7D4F900210EA804F0AA
:1041A000FDF8154908601C220C49C43107A8FCF72A
:1041B000C8F9002107A804F0F1F8104908601C2292
:1041C0000649E0316846FCF7BCF90021684604F076
:1041D000E5F80B4908603FB000BD0000749E000880
:1041E0000000002004000020080000200C00002037
:1041F0001000002014000020180000201C000020E7
:104200002000002010B5044602F012F910BD000095
:104210004FF480715248FDF781FB00BF4FF480716D
:104220004F48FDF77BFB80214D48FDF777FB7D2054
:1042300004F0A3F880214A48FDF770FB402148486C
:10424000FDF76CFB7D2004F098F840214448FDF711
:1042500065FB20214248FDF761FB7D2004F08DF8CD
:1042600020213F48FDF75AFB10213D48FDF756FB42
:104270007D2004F082F810213948FDF74FFB08211A
:104280003748FDF74BFB7D2004F077F808213448D0
:10429000FDF744FB04213248FDF740FB7D2004F08C
:1042A0006CF804212E48FDF739FB02212C48FDF75C
:1042B00035FB7D2004F061F802212948FDF72EFB33
:1042C00004212748FDF72AFB7D2004F056F804213D
:1042D0002348FDF723FB08212148FDF71FFB7D2024
:1042E00004F04BF808211E48FDF718FB10211C486C
:1042F000FDF714FB7D2004F040F810211848FDF76D
:104300000DFB20211648FDF709FB7D2004F035F850
:1043100020211348FDF702FB40211148FDF7FEFA6A
:104320007D2004F02AF840210D48FDF7F7FA80219E
:104330000B48FDF7F3FA7D2004F01FF880210848B0
:10434000FDF7ECFA4FF480710548FDF7E7FA7D20A0
:1043500004F013F803480068401C024908605DE758
:10436000001802402400002000B59FB0302113A89F
:10437000FCF719F914210EA8FCF715F9302102A851
:10438000FCF711F900BF002001902A48006840F0B6
:104390008050284908600846006800F0805001906D
:1043A00000BF00BF00BF002001902348006840F418
:1043B0004040214908600846006800F440400190F0
:1043C00000BF00BF092013904FF4803014900120EB
:1043D00018900220199041051A9106211B91A821DD
:1043E0001C9102211D9107211E9113A8FDF78CFE3F
:1043F00008B1FCF7B4FA0F200E9002200F900020B5
:1044000010904FF4A05011904FF48050129005215D
:104410000EA8FDF717FD08B1FCF7A1FA20200290C5
:1044200000010C9002A8FDF78BFB08B1FCF797FA8E
:104430001FB000BD403802400070004010B5044677
:104440002068006800F01000102807D12068C068BC
:1044500000F0100010B1204600F0DCF810BD01465D
:10446000486880B27047000008B500BF0020009087
:104470000B48006800680090094800684068009098
:1044800000BF00BF06480068C06840F01000044943
:104490000968C86032220349014800F0EDF808BD00
:1044A000B8030020C058002001460148405C704716
:1044B000DC58002010B52DED088B84B00446B0EE1A
:1044C000408A84ED088AFDF739FA00EE100AB8EE4A
:1044D000400AB0EE40AA94ED070A30EE480AF0EE2A
:1044E000408A94ED040AB5EEC00AF1EE10FA02D14A
:1044F0009FED350A03E094ED040A3AEE400AB0EE6F
:10450000409AB5EEC09AF1EE10FA02D19FED2E0A54
:1045100005E094ED090A78EE400A80EE890A84ED00
:104520000C0A94ED060A68EE890A94ED021A00EE70
:10453000810A84ED060A94ED060AF0EEC00A94EDB5
:104540000B0AF4EEC00AF1EE10FA21DD94ED0B0A2D
:1045500010EE101A084605F011FCCDE9000194EDAB
:10456000060A10EE101A084605F008FCCDE9020113
:104570000199039861F31E0001909DED000BB0EED0
:1045800040BAF0EE60BA51EC1B0B04F0BDFEA06126
:1045900094ED060AD4ED010A00EEA80AD4ED030A50
:1045A00094ED0C1AF0EE409A40EE819A84ED04AA44
:1045B000C4ED058A84ED098AC4ED0A9AB0EE690A51
:1045C00004B0BDEC088B10BD0000000010B52DED4F
:1045D000028B0446B0EE408AF0EE608A51EC180B74
:1045E00004F092FEE061BDEC028B10BD017080ED25
:1045F000010AC0ED020A80ED031ADFED041AC0EDD6
:10460000041ADFED031AC0ED0B1A7047000000001A
:104610000000C84238B5044600BF00200090206862
:104620000068009020684068009000BF00BF1148FB
:1046300084421DD1606B0068006820F00100616B4E
:1046400009680860616B0868FFF709FFC0F1320074
:10465000122801D1FFF7AEFC3220616B0968486077
:10466000606B0068006840F00100616B09680860D9
:1046700038BD0000B80300202DE9F04104460D4686
:104680001646002794F83A70202F17D105B116B9B5
:104690000120BDE8F081A562A6850020E0632268C4
:1046A000111D33462A46606BFCF7E2FF2068406923
:1046B00040F04000216848610020EAE70220E8E776
:1046C0004A780B7842EA03220280CA788B7842EA61
:1046D000032212B242804A790B7942EA032212B2D3
:1046E00082808A798271704730B50468246824F426
:1046F000802405682C60046863608468402C04D1C1
:104700000468A2600468E16003E00468A1600468D2
:10471000E26030BD014600208A6A8B69CBB932B1B4
:10472000012A0DD0022A03D0032A10D10EE000BFC7
:10473000CB6A03F08073B3F1807F00D1012007E0E2
:10474000CB6AB3F1C07F00D1012001E000E000BFDF
:1047500034E08B69B3F5005F1AD132B1012A07D07A
:10476000022A03D0032A11D10AE000BF01200EE083
:10477000CB6A03F08073B3F1807F00D1012006E0A3
:10478000CB6AB3F1C07F00D1012000E000BF15E08B
:1047900032B1012A05D0022A04D0032A0CD103E049
:1047A00000BF00BF012008E0CB6A03F08073B3F1C3
:1047B000807F00D1012000E000BF00BF70470000F3
:1047C0000146087810381823B0FBF3F20848805CE3
:1047D000C865032A05D908686FF30900001D8865BC
:1047E00003E008686FF309008865886D7047000072
:1047F000709F000830B5056A25F001050562026A60
:104800004368846924F0700424F003040D682C4389
:1048100022F002028D682A43104DA84200D103E025
:104820000F4DA84206D100BF22F00802CD682A43EE
:1048300022F00402094DA84202D0094DA84207D136
:1048400023F4807323F400734D692B438D692B434C
:10485000436084614D684563026230BD00000140E1
:104860000004014030B5056A25F480750562026ACE
:104870004368C46924F0700424F003040D682C43D9
:1048800022F400728D6842EA0522124DA84200D13E
:1048900003E0114DA84207D100BF22F40062CD68A9
:1048A00042EA052222F480620A4DA84202D00A4D53
:1048B000A84209D123F4805323F400534D6943EAFD
:1048C00005138D6943EA05134360C4614D68C563F0
:1048D000026230BD000001400004014030B5056AAD
:1048E00025F480550562036A4468C26922F4E042F7
:1048F00022F440720D6842EA052223F400538D68C9
:1049000043EA0533084DA84202D0084DA84204D11D
:1049100024F480444D6944EA85144460C2614D68C2
:104920000564036230BD0000000001400004014046
:104930000A46816821F0700142F007031943816043
:10494000704730B50B461446026A056A25F001052A
:104950000562816921F0F00141EA041122F00A02A6
:104960001A438161026230BD30B50B461446056AB8
:1049700025F0100505628169026A21F4704141EA5F
:10498000043122F0A00242EA03128161026230BDCA
:104990002DE9F84F04462068006920F44050E16892
:1049A0000843216808612169A068084361690843D8
:1049B000E169084300902068C06849F20C618843AF
:1049C000009908432168C8602068406920F440705D
:1049D000A169084321684861E069B0F5004F75D1CD
:1049E000E3492068884203D0E249206888426FD1B9
:1049F000FDF722FB814602206168A0FB01510B46B6
:104A00001920A9FB00712A463846FBF7C7FC642130
:104A1000B0FBF1F04FEA001A02206168A0FB0151DF
:104A20000B461920A9FB00712A463846FBF7B6FC55
:104A3000074602206168A0FB01510B461920A9FB23
:104A400000B12A465846FBF7A9FC6421B0FBF1F0FF
:104A500000EBC00101EB0010A7EB8000322101EB5D
:104A6000C0006421B0FBF1F000F0F8000AEB400A4E
:104A700002206168A0FB01510B461920A9FB0071BF
:104A80002A463846FBF78AFC074602206168A0FBED
:104A900001510B461920A9FB00B12A465846FBF7E5
:104AA0007DFC6421B0FBF1F000EBC00101EB0010D4
:104AB000A7EB8000322101EBC0006421B0FBF1F0D4
:104AC00000F007005044216888604FE16EE0FFE786
:104AD000FDF7A2FA814602206168A0FB01510B4656
:104AE0001920A9FB00712A463846FBF757FC6421C0
:104AF000B0FBF1F04FEA001A02206168A0FB0151FF
:104B00000B461920A9FB00712A463846FBF746FCE4
:104B1000074602206168A0FB01510B461920A9FB42
:104B200000B12A465846FBF739FC6421B0FBF1F08E
:104B300000EBC00101EB0010A7EB8000322101EB7C
:104B4000C0006421B0FBF1F000F0F8000AEB400A6D
:104B500002206168A0FB01510B461920A9FB0071DE
:104B60002A463846FBF71AFC074602206168A0FB7C
:104B7000015003461920A9FB00B12A465846FBF70D
:104B80000DFC6421B0FBF1F000EBC00101EB001063
:104B9000A7EB8000322101EBC0006421B0FBF1F0F3
:104BA00000F00700504421688860DFE07049206809
:104BB000884203D06F49206888426BD1FDF73CFAE8
:104BC000814604206168A0FB01510B461920A9FB16
:104BD00000712A463846FBF7E1FB824604206168F3
:104BE000A0FB01510B461920A9FB00712A4638464B
:104BF000FBF7D4FB6421B0FBF1F000EBC00101EB4B
:104C00000010AAEB8000322101EB00106421B0FB00
:104C1000F1F000F0F00A04206168A0FB01500346A7
:104C20001920A9FB00712A463846FBF7B7FB64211F
:104C3000B0FBF1F00AEB001A04206168A0FB0151FF
:104C40000B461920A9FB00712A463846FBF7A6FB44
:104C5000074604206168A0FB015003461920A9FB08
:104C600000B12A465846FBF799FB6421B0FBF1F0EE
:104C700000EBC00101EB0010A7EB8000322101EB3B
:104C800000106421B0FBF1F000F00F0050442168E7
:104C900088606BE0FDF7C0F9814604206168A0FBE5
:104CA000015003461920A9FB00712A463846FBF73C
:104CB00075FB824604206168A0FB01500346192061
:104CC000A9FB00712A463846FBF768FB6421B0FB5C
:104CD000F1F000EBC00101EB0010AAEB80003221E3
:104CE00001EB00106421B0FBF1F000F0F00A0420A9
:104CF0006168A0FB015003461920A9FB00712A46F8
:104D00003846FBF74BFB6421B0FBF1F00AEB001ACD
:104D100004206168A0FB017003461920A9FB005024
:104D200001463A462846FBF739FB074604206168EE
:104D3000A0FB015003461920A9FB00B12A465846A2
:104D4000FBF72CFB6421B0FBF1F000EBC00101EBA1
:104D50000010A7EB8000322101EB00106421B0FBB2
:104D6000F1F000F00F00504421688860BDE8F88F32
:104D7000001001400014014070B5044694F83A0058
:104D800022284AD1A068B0F5805F13D1A56A2069B6
:104D900040B920684068C0F308002880A06A801CE1
:104DA000A06219E020684068C0B22880A06A401C58
:104DB000A06211E0206938B920684068C1B2A26AD7
:104DC000501CA062117007E02068406800F07F016D
:104DD000A26A501CA0621170E08D401E80B2E08576
:104DE000C8B92068C06820F020002168C860206829
:104DF000C06820F480702168C8602068406920F095
:104E0000010021684861202084F83A002046FEF71E
:104E100009FB002070BD0020FCE70220FAE70146F4
:104E200091F8390021282CD18868B0F5805F0FD126
:104E30000A6A1088C0F308000B685860086918B93E
:104E4000086A801C086209E0086A401C086205E0E4
:104E50000B6A581C086218780B685860C88C401E92
:104E600080B2C88458B90868C06820F080000B6818
:104E7000D8600868C06840F040000B68D860002027
:104E800070470220FCE70168C96821F4907102684C
:104E9000D1600168496921F0010102685161202156
:104EA00080F83A10704710B504462068C06820F0BA
:104EB00040002168C860202084F839002046FEF7B1
:104EC00061FB002010BD70B50546AC6B0020E0858D
:104ED000E0842046FEF731F870BD2DE9F04104462C
:104EE0000D4617469846069E21E0701CF8B12EB17B
:104EF000FCF724FDA0EB0800B04218D92068C06878
:104F000020F4D0702168C8602068406920F001005A
:104F100021684861202084F8390084F83A0000BFF5
:104F2000002084F8380000BF0320BDE8F08120682D
:104F300000682840A84201D1012000E00020B842CA
:104F4000D3D00020F1E7000010B5002804DB0A07E9
:104F5000130E054A135406E00A07140E034A00F024
:104F60000F031B1FD45410BD00E400E018ED00E057
:104F700002480068C0F30220704700000CED00E01A
:104F800090ED000A704710B52DED068B0446B0EE8B
:104F9000409AF0EE609AB0EE498AF0EE698A94ED9C
:104FA000010A10EE101A084604F0E8FE41EC1A0B54
:104FB00053EC182B04F0B6FD01D2606813E094EDB9
:104FC000020A10EE101A084604F0D8FE41EC1A0B43
:104FD00053EC182B04F06CFC01D2A06803E051ECF8
:104FE000180B04F091F92060BDEC068B10BD000099
:104FF00010B52DED048B1348007810B101281DD198
:1050000005E09FED110B1248FFF7BDFF16E01048B9
:1050100001F04AF9B0EE408A0E48FFF74BFA10EE65
:10502000104A204604F0AAFE41EC190BB0EE490AE2
:10503000F0EE690A0648FFF7A6FF00BF00BFBDEC0F
:10504000048B10BDF00000200000000000000000F4
:10505000B84600208046002000BF00F007F8FFF7A8
:10506000C7FF012003F089F9F7E7000010B52DED27
:10507000028B00200C490870FFF716FA012801D1B5
:10508000094908709FED098B51EC180B04F03CF9AD
:105090000849C86100BF084801F006F9074880EDDB
:1050A000000ABDEC028B10BDF000002000000000E3
:1050B000000044C080460020B8460020EC000020DC
:1050C00010B52DED068B0446B0EE408AF0EE608AF6
:1050D00094ED002BB0EE420AF0EE620A94ED042B40
:1050E000B0EE421AF0EE621A53EC102B51EC110B99
:1050F00004F03CF9C4E9040194ED022BB0EE420A3D
:10510000F0EE620A94ED042BB0EE421AF0EE621A51
:1051100053EC102B51EC110B04F028F941EC190B56
:1051200094ED041BB0EE410AF0EE610A53EC192B2A
:1051300051EC100B04F0CEF9C4E9080194ED061B04
:10514000B0EE410AF0EE610A53EC102B51EC180B53
:1051500004F02AFD41EC1A0B94ED081BB0EE410A55
:10516000F0EE610A53EC102B04F0DEFB41EC190B5E
:1051700094ED061BB0EE410AF0EE610A53EC102BE1
:1051800004F0F4F8C4E9060194ED081BB0EE410AFE
:10519000F0EE610A53EC102B9FED0C1B51EC110B40
:1051A00004F002FD41EC190B94ED041BB0EE410A32
:1051B000F0EE610A53EC102B04F0B6FBC4E90401D5
:1051C00094ED060BBDEC068B10BD00000000000046
:1051D0000000F03F70B588B004460E461546202208
:1051E0000EA96846FBF7ADF9F7EE001A9FED081A15
:1051F000DFED080A9FED080A31462046DDE90C2361
:1052000001F080F80446A564204608B070BD000097
:1052100000F8FF450000C8420000C8C210B52DEDDF
:105220000A8BB0EE408AF0EE608AB0EE419AF0EE62
:10523000619A53EC192B51EC180B04F0A9FC41ECCA
:105240001C0BB0EE4C0AF0EE6C0A01F011FEB0EE51
:1052500040AAF0EE60AA53EC192B51EC180B04F0A5
:1052600097FC41EC1C0BB0EE4C0AF0EE6C0A02F01D
:105270009FF9B0EE40BAF0EE60BAB0EE4A1AF0EE26
:105280006A1A01F0D5FBBDEC0A8B10BD10B52DEDEF
:10529000028B0B4800F0FEFFB0EE408A9FED090B39
:1052A00003F0DAFF38EE400AB1EE400A10EE104A81
:1052B000204604F063FD41EC100BBDEC028B10BDE9
:1052C00028480020000000000060734010B52DED5C
:1052D000108B5F48007810B101280AD10AE09FEDD9
:1052E0005D0B5E48FFF74FFE9FED5A0B5C48FFF7E2
:1052F0004AFEA8E09FED570B5A48FFF767F99FED6C
:10530000550B5948FFF762F95848007801287CD1BD
:1053100000BF544890ED0A0A554880ED000A00BFCE
:10532000514890ED0A0A534880ED000A9FED520B58
:1053300003F092FF10EE104A204604F01FFD41ECEE
:105340001A0B464800F0A6FF10EE104A204604F063
:1053500015FD41EC1B0BB0EE4A1AF0EE6A1AB0EEE6
:105360004B0AF0EE6B0AFFF759FFB0EE408AF0EE01
:10537000608A51EC180B03F0BAFF41EC1E0B9FED55
:10538000400B03F069FF10EE104A204604F0F6FCD3
:1053900041EC1A0B324800F07DFF10EE104A204617
:1053A00004F0ECFC41EC1B0BB0EE4A1AF0EE6A1A6A
:1053B000B0EE4B0AF0EE6B0AFFF730FFB0EE408A1A
:1053C000F0EE608A51EC180B03F091FF41EC190BE1
:1053D000FFF75CFFB0EE40FAF0EE60FA01F048FD36
:1053E000B0EE408AF0EE608A2748006804F0C6FC00
:1053F00041EC1D0B53EC182B04F096FA41EC1B0BFF
:1054000051EC190B03F080FF00E01BE008EE100ADE
:10541000B0EE480A1448FFF74DF810EE104A204647
:1054200004F0ACFC41EC1C0B53EC1B2B03F09EFF77
:1054300041EC1A0BB0EE4A0AF0EE6A0A0848FFF790
:10544000A2FD00BF00BF00BFBDEC108B10BD00006F
:10545000240100200000000000000000D0470020D0
:1054600028480020684700209C4700202501002094
:1054700014010020200100200000000000805640A0
:1054800000000000003073402801002000BF00F041
:1054900007F8FFF71BFF0A2002F06FFFF7E7000095
:1054A00070B52DED0A8B01203F4908703F4800F090
:1054B000F1FEB0EE408A3E4800F0ECFEF0EE408A8D
:1054C000B0EE480A03F0F6FE3A4880ED000AB0EE6E
:1054D000680A03F0EFFE384880ED000A9FED370BB5
:1054E00003F0BAFE10EE104A9FED360B03F0B4FE47
:1054F00010EE105A204604F041FC41EC1B0B18EE54
:10550000100A04F03BFC41EC1C0BB0EE4B1AF0EE21
:105510006B1AB0EE4C0AF0EE6C0AFFF77FFEB0EEAD
:1055200040AAF0EE60AA51EC1A0B03F0EDFE09EE72
:10553000100A284604F022FC41EC1B0B18EE900ADE
:1055400004F01CFC41EC1C0BB0EE4B1AF0EE6B1A95
:10555000B0EE4C0AF0EE6C0AFFF760FEB0EE40AA27
:10556000F0EE60AA51EC1A0B03F0CEFE09EE900AA1
:10557000B0EE490A03F09EFE144880ED000AFFF7E2
:1055800085FEB0EE40BAF0EE60BA01F071FCB0EE0C
:1055900040AAF0EE60AA51EC1A0B03F0B5FE0C49DC
:1055A0000860BDEC0A8B70BD24010020D0470020AC
:1055B000284800200C0100201801002000000000F5
:1055C00000805640000000000030734010010020B1
:1055D0001C01002070B588B004460E4615462022F6
:1055E0000EA96846FAF7ADFFF3EE031A9FED081A0D
:1055F000DFED080A9FED080A31462046DDE90C235D
:1056000000F080FE0446A564204608B070BD00008E
:1056100000F8FF450000C8420000C8C210B52DEDDB
:10562000068B6C48007820B1012817D0022814D1CD
:1056300029E09FED690B6A48FFF7A5FC9FED660B1B
:105640006848FFF7A0FC9FED640B6748FFF79BFCE1
:105650009FED610B6548FFF796FCB7E09FED640B8B
:105660005F48FFF790FC9FED5C0B5E48FFF78BFCFB
:105670009FED590B5C48FFF786FC9FED570B5B488D
:10568000FFF781FCA2E00020FEF762FC10EE104A5A
:10569000204604F073FB41EC180B5748006804F0F7
:1056A0006DFB41EC190B5548006804F067FB41ECB9
:1056B0001A0BB0EE482AF0EE682AB0EE491AF0EE66
:1056C000691AB0EE4A0AF0EE6A0A00F02BF9444873
:1056D00000F0EAFDB0EE408A4948FEF7EBFE10EE1E
:1056E000104A204604F04AFB41EC190BB0EE490A7F
:1056F000F0EE690A3A48FFF746FC00BF384890EDE3
:10570000000A10EE104A204604F038FB41EC1A0B58
:105710009FED3C0B53EC102B04F006F941EC190BF8
:105720009FED3A0B53EC102B03F0D4FE41EC180B19
:1057300003F0EAFD3749086000BF314890ED0C0ADC
:10574000354880ED000A274800F0AEFDB0EE408AF3
:105750003248FEF7AFFE10EE104A204604F00EFB72
:1057600041EC190BB0EE490AF0EE690A1D48FFF74B
:105770000AFC1D4800F098FDB0EE408A2848FEF76C
:1057800099FE10EE104A204604F0F8FA41EC190B8D
:10579000B0EE490AF0EE690A1348FFF7F4FB13482C
:1057A00000F082FDB0EE408A1E48FEF783FE10EE48
:1057B000104A204604F0E2FA41EC190BB0EE490A17
:1057C000F0EE690A0948FFF7DEFB00BF00BFBDEC41
:1057D000068B10BDE8000020000000000000000063
:1057E0001845002068450020B845002008460020E4
:1057F0000000000000000840BC000020B4000020B1
:1058000048440020000000000000D04000000000DC
:1058100000005940E0000020E40000207C4400200B
:10582000B0440020E444002000BF00F007F8FFF778
:10583000F5FE0A2002F0A1FDF7E7000010B52DEDFE
:10584000048B02202D4908702D48807A00EE100A42
:10585000B8EE400A2B4880ED000A2948C07A00EED5
:10586000100AB8EE400A284880ED000A0320FEF72F
:105870006FFBB0EE408A0220FEF76AFBF0EE408A32
:10588000F0EE680AB0EE480A01F0CAF91F4880ED50
:10589000000A90ED000A03F00DFD1D4880ED000A9E
:1058A0000320FEF755FBF0EE408A022000F00DFFCA
:1058B000B0EE409A0220FEF74BFBF0EE408A022049
:1058C00000F003FF39EE008AB0EE480A01F0D4FE82
:1058D000104880ED000AFCF731F800EE100AB8EE2F
:1058E000400A0D4880ED000A0C4800F0DDFC0C4831
:1058F00080ED000ABDEC048B10BD0000E800002024
:10590000D2580020AC000020B0000020B4000020DD
:10591000B8000020BC000020DC000020184500205A
:10592000C000002010B52DED060B2DED108B8AB0B8
:10593000B0EE418AF0EE618AB0EE429AF0EE629AE1
:105940009FEDFE0A10EE104AB0EE490AF0EE690A29
:1059500000F0ABFE8DED060BB0EE480AF0EE680AE3
:1059600000F0A3FEB0EE40FAF0EE60FA9DED060BFB
:1059700053EC102B51EC1F0B03F0F8FC41EC1D0B0A
:105980009FEDEF0B53EC102B03F0FCFE02D19FEDCB
:10599000EC0B40E0B0EE490AF0EE690A00F085FE3B
:1059A000B0EE40FAF0EE60FA204604F0E7F953EC6E
:1059B0001F2BCDE900019DED000B51EC100B03F006
:1059C000B3FFB0EE480AF0EE680ACDE9020100F03C
:1059D0006CFEB0EE40DAF0EE60DA9DED020B53ECB7
:1059E000102B51EC1D0B03F0C1FCB0EE480AF0EE99
:1059F000680ACDE9060100F058FE8DED040B9DED1F
:105A0000060B53EC102B9DED040B51EC100B03F027
:105A100061FD41EC100B8DED080B9DED080B51EC79
:105A2000100B03F071FCC8490860B0EE490AF0EEB3
:105A3000690A00F03AFEB0EE40FAF0EE60FAB0EE1D
:105A4000480AF0EE680A00F030FE8DED060B53ECCC
:105A50001F2B9DED060B51EC100B03F087FC41EC66
:105A60001D0B9FEDB70B53EC102B03F08BFE02D1F7
:105A70009FEDB30B47E0B0EE490AF0EE690A00F083
:105A800014FE8DED000B204604F078F941EC1F0B5D
:105A90009DED000B53EC102B03F046FF41EC1D0B6A
:105AA000B0EE480AF0EE680A00F0FFFD8DED020B43
:105AB00053EC1D2B9DED020B51EC100B03F056FC2B
:105AC000B0EE490AF0EE690ACDE9060100F0EDFDFD
:105AD000B0EE40DAF0EE60DA204604F04FF941EC27
