:020000040800F2
:10000000C0EC00205D030008514B00088743000846
:100010004D4B0008F50A0008495200080000000096
:100020000000000000000000000000009D02000829
:10003000490B000800000000F902000819500008F0
:1000400077030008770300087703000877030008A8
:100050007703000877030008770300087703000898
:100060007703000877030008770300087703000888
:100070007703000877030008770300087703000878
:10008000770300087703000877030008090B0008CE
:10009000F90A0008770300087703000877030008CF
:1000A0007703000877030008770300087703000848
:1000B0007703000877030008770300087703000838
:1000C0007703000877030008770300087703000828
:1000D000770300082552000877030008770300081B
:1000E0007703000877030008770300087703000808
:1000F00077030008770300087703000877030008F8
:1001000077030008DD4B0008770300087703000839
:100110007703000877030008770300086950000898
:100120007703000877030008190B0008290B000863
:1001300077030008770300087703000877030008B7
:1001400077030008770300087703000877030008A7
:1001500077030008390B00087703000839520008BC
:100160007703000877030008770300087703000887
:1001700077030008770300087703000800000000F9
:10018000770300087703000805520008155200089D
:100190007703000877030008770300087703000857
:1001A00000000000000000007703000800F002F8E3
:1001B00000F065F80AA090E8000C82448344AAF19C
:1001C0000107DA4501D100F05AF8AFF2090EBAE89A
:1001D0000F0013F0010F18BFFB1A43F0010318477B
:1001E00004140100241401000A444FF0000C10F81C
:1001F000013B13F0070408BF10F8014B1D1108BFA5
:1002000010F8015B641E05D010F8016B641E01F844
:10021000016BF9D113F0080F1EBF10F8014BAD1C94
:100220000C1B09D16D1E58BF01F801CBFAD505E0B2
:1002300014F8016B01F8016B6D1EF9D59142D6D30C
:10024000704700000023002400250026103A28BF34
:1002500078C1FBD8520728BF30C148BF0B60704738
:100260001FB510F050FD9DE8030000F061FA00F0AA
:10027000C5F91FBD10B5002000F010FA10BD00F048
:10028000B6FA1146FFF7ECFF0DF0D4F800F0EEFAE5
:1002900003B4FFF7EFFF03BC00F066FB2C4B1968BB
:1002A0000868B0E8F04F80F30988BFF36F8F4FF014
:1002B000000080F3118870470000000008480068C3
:1002C000006880F308884FF0000080F3148862B65D
:1002D00061B6BFF34F8FBFF36F8F00DF00BF00BF6A
:1002E00008ED00E0DFF80C00016841F470010160E6
:1002F000704700BF88ED00E0EFF30980BFF36F8F18
:10030000134B1A681EF0100F08BF20ED108A20E969
:10031000F04F106009B44FF0500080F31188BFF324
:100320004F8FBFF36F8F0EF00BFD4FF0000080F387
:10033000118809BC19680868B0E8F04F1EF0100F6A
:1003400008BFB0EC108A80F30988BFF36F8F704745
:100350003C000020EFF3058070470000094880470B
:1003600009480047FEE7FEE7FEE7FEE7FEE7FEE797
:10037000FEE7FEE7FEE7FEE704480549054A064BAF
:10038000704700004D500008AD010008C08C0020EF
:10039000C0EC0020C0AC0020C0AC002053EA020C2E
:1003A00000F069802DE9F04B4FF00006002B1FBFD5
:1003B000B3FA83F503FA05F424FA05F65E4012BF9A
:1003C0001643B2FA82F502FA05F4C5F120051EBF04
:1003D00022FA05FC44EA0C04203556EA044C4FEAA4
:1003E000144418BF641C4FF000084FF000099042FD
:1003F00071EB030C39D3002919BFB1FA81F701FA67
:1004000007F6B0FA80F700FA07F6C7F120071EBF1B
:1004100020FA07FC46EA0C062037B6FBF4FCA7EBF3
:100420000507103F07F01F0BCBF120060CFA0BFB62
:100430002CFA06F644BFB3460026202FA4BF5E4622
:100440004FF0000B5BEA060C08BF4FF0010B19EBF5
:100450000B09ABFB027C48EB0608C01B06FB02CC79
:100460000BFB03CC71EB0C01C1E70B460246414686
:100470004846BDE8F08B13B54FF000004FF0000187
:10048000AFF30080BDE81C4070472DE9F0410746FE
:1004900015460E46102000F0C7F804000AD0676029
:1004A000C4E9026500F0BCF8016821600460002026
:1004B000BDE8F0810120FBE7032A40F2308010F014
:1004C000030C00F0158011F8013BBCF1020F6244EF
:1004D00098BF11F801CB00F8013B38BF11F8013B80
:1004E000A2F1040298BF00F801CB38BF00F8013B2D
:1004F00011F0030300F02580083AC0F0088051F89D
:10050000043B083A51F804CBA0E80810F5E7121DA7
:100510005CBF51F8043B40F8043BAFF30080D207C6
:1005200024BF11F8013B11F801CB48BF11F8012B92
:1005300024BF00F8013B00F801CB48BF00F8012BB5
:10054000704710B5203AC0F00B80B1E81850203A3F
:10055000A0E81850B1E81850A0E81850BFF4F5AF63
:100560005FEA027C24BFB1E81850A0E8185044BFED
:1005700018C918C0BDE810405FEA827C24BF51F85A
:10058000043B40F8043B08BF7047D20728BF31F84E
:10059000023B48BF11F8012B28BF20F8023B48BF9F
:1005A00000F8012B70474FF0000200B51346944647
:1005B0009646203922BFA0E80C50A0E80C50B1F1BB
:1005C0002001BFF4F7AF090728BFA0E80C5048BFCF
:1005D0000CC05DF804EB890028BF40F8042B08BF6D
:1005E000704748BF20F8022B11F0804F18BF00F869
:1005F000012B7047704770477047000070B5064C7C
:100600007C44064D7D4403E0206820448047241D3F
:10061000AC42F9D170BD00000010010010100100C3
:1006200000487047948C002070B5064600F05CF8D6
:10063000056806F10B0020F00704B4429CBF0020BF
:1006400070BD2B466A68BAB11068A04210D304F19D
:10065000080188423CBF5068586007D351681019A0
:1006600041601168091B016058601460101D70BD65
:1006700013465268002AE7D12146284600F044F884
:100680000028DED170BD10B500F036F8006810BD4E
:1006900010B5044600F030F8046010BD2DE9F041BB
:1006A0000646FFF7BDFF8046454613E016B1E068F9
:1006B000B0420ED120682860D4E90101D8F800705A
:1006C0008847204600F06AF8D8F80000B842EBD11D
:1006D00000E025462C68002CE8D1BDE8F081000040
:1006E000004870475C8C002000487047648C0020F4
:1006F00000487047908C0020004870475C8C0020B8
:10070000704770477047704738B504460A46002066
:100710006946AFF30080002808BF38BD0246009943
:10072000204600F089F8012038BD012000F0A7B86C
:10073000F8B5AFF30080054600200C46102000BF3E
:100740000646A819A0420DD9324669460020AFF3EB
:100750000080070008BF00F092F80098A04218BF80
:100760000546C419FFF7C0FF05600746F01D20F0DD
:1007700007004619284600F00AF8B44208BFF8BD41
:10078000A21B31463868BDE8F84000F055B800219A
:100790000160C0E9011070471020704770B5044631
:1007A000051FFFF7A1FF0068002C14BF446870BD4F
:1007B000002C18BFAC423CBF20466468F8D30168E7
:1007C0000A18AA4218BF456003D12A680546114499
:1007D000016028684119A1421CBF6C6070BD61684E
:1007E000696021680844286070BD00F04FB8754604
:1007F000FFF776FFAE4605006946534620F0070036
:10080000854618B020B5FFF7B7FDBDE820404FF092
:1008100000064FF000074FF000084FF0000B21F0EA
:100820000701AC46ACE8C009ACE8C009ACE8C009B7
:10083000ACE8C0098D467047034640688C460028E6
:1008400018BF88423CBF03464068F8D31868184474
:10085000884207D00CF1030020F00700001D411A68
:10086000521A0146081D0A60FFF798BF10B50446EA
:10087000AFF300802046BDE81040FFF709BD10B57A
:1008800000F022F8BDE8104000F019B810B500F0F3
:1008900046F8016919B100220261884701E08068C9
:1008A000804700F001F8704710B5002000F07FF895
:1008B000FFF7E0FCBDE81040012000F055B800282B
:1008C00001D000F051B8704710B5012805D00021C3
:1008D00003A000F053F8012010BD09A1F8E70000C3
:1008E00053494752544D454D3A204F7574206F6619
:1008F0002068656170206D656D6F72790000000081
:100900003A2048656170206D656D6F727920636F64
:10091000727275707465640010B5FFF7C5FF70B52D
:1009200000F028F804680546A4B92020FFF77CFEF3
:10093000040011D0094900202C60C4E900010849D5
:10094000A1602073206160610649A06109B100F0D7
:1009500035F8E061204670BDFFF7A6FF00000000FB
:10096000190900080000000001491820ABBEFEE78D
:100970002600020000487047988C002070B505469C
:100980000C460A2000E06D1C00F036F835B12878DE
:100990000028F8D102E0641C00F02EF814B1207891
:1009A0000028F8D1BDE870400A2000F025B810B545
:1009B00000F02AF8BDE81040FFF781BF10B588208D
:1009C000FFF732FE002801D00021017010BD802900
:1009D00002D808B1017809B100207047012100F860
:1009E000081B704718B100F10802914201D00020A5
:1009F000704700210170704708B569468DF8000006
:100A00000320ABBE08BD000010B5002102A0FFF717
:100A1000B5FF012010BD0000534947414252543AEE
:100A20002041626E6F726D616C207465726D696ECB
:100A30006174696F6E0000007047000010B50446D5
:100A40002146024802F04AF910BD0000F8020020D9
:100A500010B5044802F055F9042801D0012010BD5A
:100A60000020FCE7F802002010B5002400F014F884
:100A7000012801D0012010BD064802F063FA0446A7
:100A800034B94FF40061034801F0EEFF00B10124D6
:100A90002046F0E7F802002008B5012000909DF8FC
:100AA000000008BD2DE9F04104460D46164600271A
:100AB00033462A462146044802F078FB00B101275C
:100AC0003846BDE8F0810000F80200202DE9F04131
:100AD00004460D461646002733462A46214604485A
:100AE00002F026FC00B101273846BDE8F081000085
:100AF000F802002000BFFEE710B5024800F094FAAB
:100B000010BD00007802002010B5024800F08CFAF9
:100B100010BD00007802002010B5024800F068FD0A
:100B200010BD00003C06002010B5024800F060FD3A
:100B300010BD00007C03002010B5024800F058FDF5
:100B400010BD0000DC0300207047704730B504463C
:100B50000D4600222946204600F002F830BD000074
:100B6000F0B50346012500241148407A01281CDA1B
:100B700000200F4E767A0E4FB8553846467A001D43
:100B800040F82630001F467A083082553E46707A7B
:100B9000461C7E72044604F1300008703A2048700A
:100BA0002F2088700020C87000252846F0BD000066
:100BB000508C002010B504460021204600F002F8B9
:100BC00010BD000030B502460B46002101200D4C3F
:100BD000647A012C14DB1478303CE1B2094C241DFA
:100BE00054F8214064B10025064C241D44F82150DE
:100BF000241D6554083C647A641E024D6C7200200A
:100C000030BD0000508C0020F0B504460D461E4655
:100C100094F8207020688368A86800B900E000BFDD
:100C2000012F01D0022F7CD103F0806030B903F096
:100C3000006018B903F08050002873D0C3F301613D
:100C4000022905D9606A40F4000060620120F0BD0D
:100C5000012088403060A86860B9B5F800C0E86835
:100C600040EA4C5C206800F5C07000EB0110C0F851
:100C700000C00FE0D5E901C040EACC00D5F80CC0B7
:100C800040EA0C00D4F800C00CF5C07C0CEB011C51
:100C9000CCF80000D5F810C0206800F5C07000EB5B
:100CA0000110C0F804C0287D01280ED1206800F58D
:100CB000C07000EB0110406840F4807C206800F5B3
:100CC000C07000EB0110C0F804C0D079000692F8A3
:100CD00006C040EA0C4092F805C040EA0C2C10799E
:100CE0004CEA000C206800F5C07000EB0110C0F861
:100CF0000CC0D078000692F802C040EA0C4092F88E
:100D000001C040EA0C2092F800C040EA0C00D4F880
:100D100000C00CF5C07C0CEB011CCCF8080020686E
:100D200001E016E00FE000F5C07000EB0110006874
:100D300040F0010C206800F5C07000EB0110C0F815
:100D400000C0002083E7606A40F400106062012068
:100D50007DE7606A40F480206062012077E7000050
:100D6000F0B504460A46216894F82050012D01D0C0
:100D7000022D7ED1424901F50071086840F0010062
:100D80000860086820F47C5008600868566A40EAE9
:100D900006200860107D00F01F06012000FA06F30F
:100DA000C8699843C861A1F50071D069C8B9D1F884
:100DB0000C029843C1F80C02908880B2968940EAF0
:100DC000064601F51070576940F83760108880B208
:100DD000168940EA064601F51070576900EBC70016
:100DE0004660D069012819D1D1F80C021843C1F826
:100DF0000C02908880B2168840EA064601F5107011
:100E0000576940F83760908980B2168940EA0646F3
:100E100001F51070576900EBC7004660906928B96A
:100E2000D1F804029843C1F8040204E0D1F80402A6
:100E30001843C1F80402106928B9D1F81402984384
:100E4000C1F8140204E0D1F814021843C1F81402E6
:100E5000106A012804D1D1F81C021843C1F81C0201
:100E6000D1F8000220F00100C1F800020020F0BD1E
:100E7000FFE7606A40F4802060620120F7E700002D
:100E800000640040704710B50246002092F8203000
:100E9000012B01D0022B09D121B91468E46804F0B8
:100EA000030003E01468246904F0030010BD70B56A
:100EB000044694F82050012D01D0022D7DD151B966
:100EC0002068C06800F0030080B9606A40F4001038
:100ED0006062012070BD2068006900F0030028B93D
:100EE000606A40F4001060620120F3E7206800F5BA
:100EF000D87000EB0110006800F00400906090686A
:100F000040B9206800F5D87000EB01100068400D72
:100F1000106007E0206800F5D87000EB0110006851
:100F2000C0085060206800F5D87000EB0110006820
:100F300000F00200D060206800F5D87000EB0110CE
:100F4000406800F00F001061206800F5D87000EBD9
:100F50000110406800F47F40000A9061206800F5AD
:100F6000D87000EB01104068000C5061206800F55B
:100F7000D87000EB011080681870206800F5D870F8
:100F800000EB0110806800F47F40000A5870206870
:100F900000F5D87000EB0110806800F47F00000CB1
:100FA0009870206800F5D87000EB01108068000E82
:100FB000D870206800F5D87000E02FE000EB011039
:100FC000C0681871206800F5D87000EB0110C06887
:100FD00000F47F40000A5871206800F5D87000EBDB
:100FE0000110C06800F47F00000C9871206800F5C3
:100FF000D87000EB0110C068000ED87131B92068BC
:10100000C06840F020002668F06005E020680069B4
:1010100040F020002668306100205BE7606A40F401
:1010200080206062012055E72DE9F05F044600252D
:10103000206846692068D0F8049020688768206896
:10104000D0F80CA02068D0F810B02068D0F8188034
:1010500006F00100002855D007F00100C0B10120C2
:101060002168886007F0020018B1204600F0A3FA5A
:101070000EE007F0040010B145F4006508E007F049
:10108000080010B145F4805502E0204600F092FAC5
:1010900007F48070C8B14FF480702168886007F44D
:1010A000007018B1204600F088FA0EE007F4806066
:1010B00010B145F4005508E007F4006010B145F4A4
:1010C000804502E0204600F077FA07F48030C8B18E
:1010D0004FF480302168886007F4003018B1204652
:1010E00000F06DFA0EE007F4802010B145F40045E1
:1010F00008E007F4002010B145F4803502E02046F6
:1011000000F05CFA06F0080038B10AF0100020B1D7
:1011100045F4007510202168C86006F0040040B155
:101120000AF0080028B108202168C860204600F0B5
:101130000DFA06F0020038B12068C06800F0030024
:1011400010B1204600F003FA06F0400038B10BF071
:10115000100020B145F4806510202168086106F078
:10116000200040B10BF0080028B108202168086178
:10117000204600F0EDF906F0100038B12068006953
:1011800000F0030010B1204600F0E3F906F400304F
:1011900040B109F0100028B11020216848602046B5
:1011A00000F0D8F906F4803040B109F0080028B109
:1011B000082021684860204600F002FA06F400404A
:1011C00088B309F0040078B306F4807020B108F009
:1011D000010008B145F0010506F4007020B108F0E7
:1011E000020008B145F0020506F4806020B108F065
:1011F000040008B145F0040506F40060A0B108F051
:10120000700088B108F07000402817D006DC102864
:101210000BD020280CD0302819D10CE0502810D049
:10122000602814D110E01DE019E045F008050FE03A
:1012300045F010050CE045F0200509E045F04005BB
:1012400006E045F0800503E045F4807500E000BF4E
:1012500000BF2068806920F0700021688861042048
:10126000216848602DB1606A284360622046FFF71C
:1012700009FEBDE8F09F70B504460CB9012070BDB1
:1012800094F8200010B9204600F0B0F820680068FB
:1012900020F002002168086000F0EEFC05460DE039
:1012A00000F0EAFC401B0A2808D9606A40F40030CC
:1012B0006062052084F820000120E0E72068406893
:1012C00000F002000028EBD12068006840F0010027
:1012D0002168086000F0D0FC05460DE000F0CCFC71
:1012E000401B0A2808D9606A40F40030606205207B
:1012F00084F820000120C2E72068406800F0010067
:101300000028EBD0207E012806D12068006840F03C
:1013100080002168086005E02068006820F08000F7
:1013200021680860607E012806D12068006840F0CE
:1013300040002168086005E02068006820F0400057
:1013400021680860A07E012806D12068006840F06E
:1013500020002168086005E02068006820F0200077
:1013600021680860E07E012806D12068006820F02E
:1013700010002168086005E02068006840F0100057
:1013800021680860207F012806D12068006840F0AD
:1013900008002168086005E02068006820F0080067
:1013A00021680860607F012806D12068006840F04D
:1013B00004002168086005E02068006820F004004F
:1013C00021680860D4E90201084321690843616982
:1013D00008436168491E08432168C86100206062B3
:1013E000012084F82000002049E7000010B586B0F5
:1013F0000446142101A8FFF7D6F84E492068884218
:1014000049D14D480068401C4B49086008460068B7
:1014100001280FD100BF002000904848006840F02C
:101420000070464908600846006800F000700090AF
:1014300000BF00BF00BF0020009040481038006887
:1014400040F008003D49103908600846006800F087
:101450000800009000BF00BF03200190022002900E
:1014600000200390032004900920059001A934482E
:1014700000F0E4FA00220521132000F0ADFC132057
:1014800000F09AFC00220521142000F0A5FC142095
:1014900000F092FC4CE02B492068884248D100BF04
:1014A000002000902548006840F0806023490860D3
:1014B0000846006800F08060009000BF00BF1E4832
:1014C0000068401C1C4908600846006801280FD1CC
:1014D00000BF002000901948006840F000701749D4
:1014E00008600846006800F00070009000BF00BF70
:1014F00000BF0020009011481038006840F0020042
:101500000E49103908600846006800F0020000909B
:1015100000BF00BF602001900220029000200390D5
:10152000032004900920059001A9074800F086FADD
:1015300006B010BD00640040280000204038024082
:10154000000C0240006800400004024070477047F1
:1015500070477047704770B5044694F82000012822
:1015600022D1022084F820002068006820F00100C9
:101570002168086000F080FB05460DE000F07CFB70
:10158000401B0A2808D9606A40F4003060620520D8
:1015900084F82000012070BD2068406800F0010040
:1015A0000028EBD16062F6E7606A40F400206062D8
:1015B0000120F0E7704770477047704770477047E9
:1015C0007047014691F83500022803D08020486515
:1015D00001207047052081F835000868006820F078
:1015E00001000A6810600020F3E70146486D70476B
:1015F000F8B50446002000908C4800684FF416515E
:10160000B0FBF1F7A56D2E6894F85C1008208840B7
:10161000304098B12068006800F0040070B1206884
:10162000006820F004002168086094F85C1008202D
:101630008840A860606D40F00100606594F85C101F
:1016400001208840304068B12068406900F0800087
:1016500040B194F85C1001208840A860606D40F0B3
:101660000200606594F85C1004208840304068B146
:101670002068006800F0020040B194F85C1004207B
:101680008840A860606D40F00400606594F85C10CC
:1016900010208840304078B32068006800F00800CF
:1016A00050B394F85C1010208840A860206800684F
:1016B00000F4802080B12068006800F4002028B980
:1016C000206CC8B12046216C884715E0A06C98B109
:1016D0002046A16C88470FE02068006800F4807005
:1016E00028B92068006820F0080021680860206C94
:1016F00010B12046216C884794F85C102020884067
:101700003040002865D02068006800F010000028F4
:101710005FD094F85C1020208840A86094F83500D1
:10172000052828D12068006820F01600216808608C
:101730002068406920F0800021684861206C08B969
:10174000A06C28B12068006820F0080021680860BB
:1017500094F85C103F208840A86000BF002084F807
:10176000340000BF012084F83500206D10B1204600
:10177000216D8847F8BD2068006800F4802080B1A2
:101780002068006800F4002028B9606C10B1204681
:10179000616C88471DE0E06BD8B12046E16B88475B
:1017A00017E02068006800F4807068B9206800685D
:1017B00020F010002168086000BF002084F8340089
:1017C00000BF012084F83500E06B10B12046E16BCA
:1017D0008847606D38B3606D00F00100F0B10520FE
:1017E00084F835002068006820F001002168086056
:1017F00000BF0098401C0090B84200D905E0206866
:10180000006800F001000028F3D100BF00BF0020F5
:1018100084F8340000BF012084F83500E06C10B17A
:101820002046E16C884700BFA4E700003800002094
:101830002DE9F0410446002500F01EFA074614B9D0
:101840000120BDE8F081606A00B100BF00BF002048
:1018500084F8340000BF022084F835002068006856
:1018600020F00100216808600AE000F005FAC01BC2
:10187000052805D920206065032084F83500E0E7BD
:101880002068006800F001000028EED1206805689B
:1018900021480540D4E901010843E1680843216972
:1018A000084361690843A1690843E1690843216A63
:1018B00008430543606A042803D1D4E90B010843B7
:1018C0000543206805602068456925F00705606AC2
:1018D0000543606A04280DD1A06A0543E06A48B157
:1018E000204604F0D9FD28B140206065012084F82D
:1018F0003500A6E720684561204604F023FE064631
:1019000094F85C103F208840B060002060650120A2
:1019100084F83500002094E73F8010F02DE9F04175
:1019200004460D4616461F464FF0000800BF94F8C7
:101930003400012802D10220BDE8F081012084F8A2
:10194000340000BF94F83500012811D1022084F83A
:101950003500002060653B4632462946204604F0AB
:1019600085FD2068006840F001002168086006E0FD
:1019700000BF002084F8340000BF4FF0020840464A
:10198000DAE72DE9F04704460D4616461F464FF0AC
:101990000008D4F8589000BF94F83400012802D110
:1019A0000220BDE8F087012084F8340000BF94F8DD
:1019B0003500012825D1022084F83500002060651B
:1019C0003B4632462946204604F050FD94F85C1010
:1019D0003F208840C9F808002068006840F01600E1
:1019E00021680860206C28B12068006840F0080079
:1019F000216808602068006840F0010021680860E4
:101A000006E000BF002084F8340000BF4FF0020859
:101A10004046C6E770B5044600F02EF90646254656
:101A2000681C10B104480078054400BF00F024F998
:101A3000801BA842FAD370BD34000020F8B50246DE
:101A40000B460025002400200021E6E0012606FACE
:101A500001F51E6806EA0504AC4273D15E68012EEA
:101A600008D05E68022E05D05E68112E02D05E6836
:101A7000122E13D190684F000326BE40B0434F0092
:101A8000DE68BE4030439060506801268E40B0430F
:101A90001E79C6F300168E4030435060D0684F0068
:101AA0000326BE40B0434F009E68BE403043D06026
:101AB0005E68022E02D05E68122E13D1CF0802F1AA
:101AC000200656F827004E07F70E0F26BE40B043FB
:101AD0004F07FF0E1E69BE403043CF0802F12006BB
:101AE00046F8270010684F000326BE40B0431E7919
:101AF00006F003064F00BE40304310605E6806F0FB
:101B00008056B6F1805FA8D100BF00260096454EF2
:101B1000366846F48046434F3E603E46366806F4DB
:101B20008046009600BF00BF3F4E8F0856F8270042
:101B30008E07370F0F26BE40B0433C4EB24202D153
:101B400000262EE068E03A4EB24201D1012628E09C
:101B5000384EB24201D1022623E0374EB24201D1C3
:101B600003261EE0354EB24201D1042619E0344E60
:101B7000B24201D1052614E0324EB24201D106260E
:101B80000FE0314EB24201D107260AE02F4EB24299
:101B900001D1082605E02E4EB24201D1092600E00F
:101BA0000A268F073F0FBE4030431F4E8F0846F86E
:101BB0002700284E3068A0435E6806F48036B6F5EC
:101BC000803F00D12043234E3060361D3068A04353
:101BD0005E6806F40036B6F5003F00D120431D4E86
:101BE000361D3060361D3068A0435E6806F48016EE
:101BF000B6F5801F00D12043164E08363060361DE2
:101C00003068A0435E6806F40016B6F5001F00D1E8
:101C10002043104E0C363060491C1029FFF416AFDB
:101C2000F8BD00004438024008380140000002407E
:101C30000004024000080240000C02400010024074
:101C40000014024000180240001C02400020024024
:101C500000240240003C014042690A408A4202D10D
:101C60000A04826100E0816170470AB1816101E08C
:101C70000B04836170470000014800687047000052
:101C80002C000020034800680349097808440149F2
:101C9000086070472C0000203400002010B50D486B
:101CA000006840F400700B4908600846006840F482
:101CB000806008600846006840F480700860032077
:101CC00000F0C8F8002000F007F800F04BF8002002
:101CD00010BD0000003C024070B588B004460025ED
:101CE000002600222146372000F076F8372000F049
:101CF00063F800BF002001901648006840F0200003
:101D0000144908600846006800F02000019000BFF8
:101D100000BF02A903A800F0F5FA00F01BFB450084
:101D20000D48B5FBF0F0461E0C480D49086040F226
:101D3000E7310B48C160466000210161816001F01C
:101D400039FC20B9064801F0ABFC08B070BD012099
:101D5000FBE700004038024040420F000014004002
:101D60009C06002008B500BF0020009011480068C4
:101D700040F480400F4908600846006800F4804045
:101D8000009000BF00BF00BF00200090081F006847
:101D900040F08050091F08600846006800F080503D
:101DA000009000BF00BF00220F21901E00F014F829
:101DB00008BD00004438024001460846002809DBFF
:101DC00000F01F0301229A4043099B0003F1E02326
:101DD000C3F8002100BF70472DE9F05F80460D4633
:101DE0001646002705F06CF9074639462A46334661
:101DF00001F00700C0F1070ABAF1040F02D94FF051
:101E0000040A01E0C0F1070AD14600F1040ABAF160
:101E1000070F02D24FF0000A01E0A0F1030AD446F6
:101E20004FF0010A0AFA09FAAAF1010A0AEA020ABB
:101E30000AFA0CFA4FF0010B0BFA0CFBABF1010B99
:101E40000BEA030B4AEA0B042146404605F024F94D
:101E5000BDE8F09F00BF00F00702064B19684FF67F
:101E6000FF031940044B0B4343EA0221014B196065
:101E700000BF70470CED00E00000FA05F8B504461D
:101E800000250026207800F0010048B9207800F0F5
:101E90000200022804D0207800F04000402862D1DF
:101EA0000020B1498866FFF7E7FE054606E0FFF728
:101EB000E3FE401B022801D90320F8BDAB480068AF
:101EC000C0F3C0600028F2D1207800F0010038B1E2
:101ED00060688101207A41EA0070A4498431086079
:101EE000207800F00200022819D1A0488430006850
:101EF000C0F3027660688101207B41EA006040EA1D
:101F000006709A498431086098488C30006820F047
:101F10001F00E169491E084394498C31086020780C
:101F200000F0400040280AD160688101207B41EA2E
:101F30000061207A41EA00708C49843108600120F8
:101F400089498866FFF798FE054606E0FFF794FE8C
:101F5000401B022801D90320AFE784480068C0F382
:101F6000C0600028F2D0207800F00400042804D0DB
:101F7000207800F00800082863D100207A4908671B
:101F8000FFF77AFE054606E0FFF776FE401B0228C3
:101F900001D9032091E775480068C0F3407000281C
:101FA000F2D1207800F00400042819D16F4888305D
:101FB0000068C0F3027620698101207D41EA00605B
:101FC00040EA0670694988310860081D006820F4FD
:101FD000F851206A401E41EA002064498C310860B3
:101FE000207800F00800082817D160488830006881
:101FF000C0F303662069800140EA0661207E41EA61
:1020000000705A4988310860081D006820F440308B
:10201000616A084355498C310860012052490867BC
:10202000FFF72AFE054606E0FFF726FE401B0228C2
:1020300001D9032041E74D480068C0F340700028F3
:10204000F2D0207800F0200020287DD100BF0020B1
:10205000009046484030006840F08050434940318D
:1020600008600846006800F08050009000BF00BF84
:102070003F48006840F480703D490860FFF7FCFD70
:10208000054606E0FFF7F8FD401B022801D90320B2
:1020900013E73748006800F480700028F2D0334816
:1020A0007030006800F440764EB3208D00F440702C
:1020B000B04224D02D487030006820F440760120D2
:1020C0002C490860002008602848703006600068CD
:1020D00000F0010098B1FFF7CFFD054608E0FFF7DB
:1020E000CBFD401B41F28831884201D90320E4E650
:1020F0001E4870300068C0F340000028EFD000BFD9
:10210000208D00F44070B0F5407F0CD117480830A6
:10211000006820F4F810184AA16A114008431349D6
:102120000831086007E011480830006820F4F81012
:102130000E49083108600D4870300068218DC1F3E8
:102140000B010843094900E002E07031086000BF5C
:10215000207800F01000102803D194F82C000749D3
:1021600008600020A9E60000000047420038024055
:1021700000700040400E4742FFFCFF0FE011474255
:1021800070B504460D460CB9012070BD5848006872
:1021900000F00F00A84209D255490D7008460068AA
:1021A00000F00F00A84201D00120EEE7207800F0F7
:1021B000020002281DD1207800F00400042805D177
:1021C0004C48006840F4E0504A490860207800F02C
:1021D0000800082805D14748006840F46040454998
:1021E00008604448006820F0F000A16808434149B5
:1021F0000860207800F00100A8B36068012807D1CA
:102200003C4808380068C0F34040B8B90120BCE73A
:102210006068022802D06068032807D13548083872
:102220000068C0F3406048B90120AEE73148083883
:102230000068C0F3400008B90120A6E72D480068F7
:1022400020F00300616808432A490860FFF714FD85
:10225000064609E0FFF710FD801B41F288318842F5
:1022600002D9032091E707E02248006800F00C0043
:102270006168B0EB810FEDD11D48006800F00F00E0
:10228000A84209D91A490D700846006800F00F00ED
:10229000A84201D0012078E7207800F0040004284B
:1022A00007D11448006820F4E050E1680843114960
:1022B0000860207800F00800082808D10D48006860
:1022C00020F46040216940EAC1000A49086000F03A
:1022D00061F808490968C1F30311074A515CC84015
:1022E0000649086006480068FFF7F6FC00204CE746
:1022F000003C024008380240E80D01083800002088
:10230000300000200F2202600D4A126802F0030222
:1023100042600B4A126802F0F0028260084A1268BA
:1023200002F4E052C260064A126802F46042D20827
:102330000261044A126802F00F020A60704700004E
:1023400008380240003C0240014800687047000025
:102350003800002000B5FFF7F7FF04490968C1F312
:102360008221034A515CC84000BD00000838024089
:10237000F80D010800B5FFF7E7FF04490968C1F34C
:102380004231034A515CC84000BD00000838024099
:10239000F80D01082DE9F047002400250026A1468C
:1023A0002548006800F00C0020B1042805D008285A
:1023B0003AD105E0DFF8849039E0DFF8849036E028
:1023C0001D48001F006800F03F041B48001F006804
:1023D00000F4800078B11A481749091F0968C1F351
:1023E0008811A0FB01700146224600233846FDF704
:1023F000D5FF05460EE011480F49091F0968C1F3D2
:102400008811A0FB01700146224600233846FDF7E3
:10241000C5FF05460848001F0068C0F30140401C86
:102420004600B5FBF6F902E0DFF8109000BF00BFF0
:102430004846BDE8F0870000083802400024F40058
:10244000001BB700F8B504460CB90120F8BD207890
:1024500000F00100002874D0F948006800F00C007A
:1024600004280DD0F648006800F00C00082813D1AD
:10247000F348001F006800F48000B0F5800F0BD116
:10248000EF4808380068C0F34040002859D0606821
:10249000002856D10120D9E700BF6068B0F5803F21
:1024A00008D1E7480838006840F48030E44908392A
:1024B00008601EE06068B0F5A02F0DD1E048083834
:1024C000006840F48020DE4908390860084600684A
:1024D00040F4803008600CE0D9480838006820F4E7
:1024E0008030D749083908600846006820F4802009
:1024F000086000BF606890B1FFF7BEFB054606E0CC
:10250000FFF7BAFB401B642801D903209EE7CC48A3
:1025100008380068C0F340400028F1D011E0FFF710
:10252000ABFB054606E0FFF7A7FB401B642801D97B
:1025300003208BE7C24808380068C0F340400028F9
:10254000F1D1207800F0020002285FD1BC48006879
:1025500000F00C0058B1BA48006800F00C000828E0
:102560001CD1B748001F006800F48000B0B9B4481F
:1025700008380068C0F3400020B1E068012801D0AD
:10258000012063E7AE480838006820F0F8002169B0
:1025900040EAC100AA490839086037E0E06800B3A2
:1025A0000120A8490860FFF767FB054606E0FFF732
:1025B00063FB401B022801D9032047E7A0480838E5
:1025C0000068C0F340000028F1D09D48083800683A
:1025D00020F0F800216940EAC100994908390860F3
:1025E00014E0002097490860FFF746FB054606E027
:1025F000FFF742FB401B022801D9032026E7904841
:1026000008380068C0F340000028F1D1207800F0BD
:10261000080008282CD16069A8B101208A49086007
:10262000FFF72AFB054606E0FFF726FB401B0228C2
:1026300001D903200AE782486C300068C0F34000EB
:102640000028F1D014E000207F490860FFF714FB58
:10265000054606E0FFF710FB401B022801D90320C6
:10266000F4E677486C300068C0F340000028F1D1F0
:10267000207800F00400042870D10027704838301A
:10268000006800F0805090B900BF002000906C48B6
:102690003830006840F08050694938310860084699
:1026A000006800F08050009000BF00BF012767481D
:1026B000006800F48070B0B96448006840F480702D
:1026C00062490860FFF7D8FA054606E0FFF7D4FA3A
:1026D000401B022801D90320B8E65C48006800F4DA
:1026E00080700028F2D000BFA068012808D15448AB
:1026F0006830006840F001005149683108601DE011
:10270000A06805280DD14E486830006840F00400EC
:102710004B49683108600846006840F001000860D5
:102720000CE047486830006820F0010044496831F7
:1027300008600846006820F00400086000BFA06838
:10274000A8B1FFF799FA054609E0FFF795FA401B93
:1027500041F28831884202D9032077E626E03848E2
:1027600068300068C0F340000028EED013E0FFF7A7
:1027700083FA054608E0FFF77FFA401B41F28831F3
:10278000884201D9032061E62D4868300068C0F313
:1027900040000028EFD1012F07D1294838300068C8
:1027A00020F0805026493831086000BFA069002819
:1027B00045D02348006800F00C0008285DD0A069CF
:1027C000022845D100201F490866FFF755FA054643
:1027D00006E0FFF751FA401B022801D9032035E635
:1027E000174808380068C0F340600028F1D1D4E9E8
:1027F00007010843616A40EA81110122A06AC2EB25
:10280000500041EA00412C20005D41EA00600C4983
:10281000091F086001200B490866FFF72DFA0546DD
:1028200006E0FFF729FA401B022801D903200DE634
:10283000034808380068C0F340600028F1D03FE04A
:102840000838024000004742800E474200700040B6
:1028500000201C490866FFF70FFA054606E0FFF75F
:102860000BFA401B022801D90320EFE51648006847
:10287000C0F340600028F2D122E0A069012800D115
:10288000E4E51148001D066806F48001E069814214
:1028900014D106F03F01206A81420FD147F6C07083
:1028A0003040616A884209D106F44031A06A814211
:1028B00004D106F07061E06A814201D00120C5E5D3
:1028C0000020C3E5000047420038024010B504462E
:1028D0000CB9012010BD607920B90020207120467C
:1028E00000F00EF8022060712068006840F00400DB
:1028F00021680860012060710020A06000BFE9E746
:1029000008B50A4A016891420FD100BF0021009129
:102910000749096841F04001054A116011460968FC
:1029200001F04001009100BF00BF08BD0008065043
:102930003438024010B504460CB9012010BD607F48
:1029400020B900202077204600F060F80220607750
:1029500000BFCA202168486253202168486200BF36
:10296000204602F0F6F840B100BFFF20216848621F
:1029700000BF042060770120E0E7206880682249DA
:1029800008402168886021696068084361690843DC
:10299000216889680843216888602168E0680861C7
:1029A00020680169208941EA0040216808612068A7
:1029B000C06820F080002168C8602068806800F04E
:1029C000200060B9204600F02DF840B100BFFF2084
:1029D0002168486200BF042060770120AEE72068CC
:1029E000006C20F48020216808642068006CA169D4
:1029F00008432168086400BFFF202168486200BFC7
:102A000001206077002099E7BFFF8FFF034A01682C
:102A1000914202D10121024A116070470028004012
:102A20003C0E474270B5044600252068C06820F07F
:102A3000A0002168C860FFF71FF9054607E0FFF70F
:102A40001BF9401BB0F57A7F01D9032070BD2068C7
:102A5000C06800F020000028F1D00020F6E710B593
:102A60000446FDF7E9FF10BD70B58AB004460D4677
:102A7000032084F83400606C032820D0B5F5805F13
:102A800004D1A06B40F08050A0631CE0B5F5006F4E
:102A900007D1204603F079FC0646A06B3043A063C3
:102AA00011E03DB9204603F0ADFC0646A06B304373
:102AB000A06308E0A06B40F00060A06303E0A06B9F
:102AC00040F08050A063A06B38B110482168886343
:102AD000012084F834000AB070BD60680490A068DA
:102AE0000590E0680690079560690890A0690990D4
:102AF00007A807C88DE80700206804A90EC902F0DE
:102B000075F8012084F834000020E4E7FF05400058
:102B10007047000010B50246506E800F0870506E6E
:102B2000C0F383604870506EC0F301608870506ECF
:102B3000000CC870B2F86400000A087192F86400D2
:102B40004871906E000DC880906EC0F3034008720B
:102B50006820805AC0F3C03048726820805AC0F3A1
:102B6000803088726820805AC0F34030C872682074
:102B7000805AC0F30030087300204873506C00285E
:102B800036D16820805A8005030DD06E43EA9070DC
:102B90000861D06EC0F3C2600875D06EC0F30260E9
:102BA0004875D06EC0F342508875D06EC0F3824035
:102BB000C875D06EC0F3C23008760869401C5065F5
:102BC0000B7E506D03F007039B1C01249C40604367
:102BD0005065087A00F00F03012098409065D2E913
:102BE00015035B0A5843D0654FF40073136621E068
:102BF000506C012813D16820805C8006830AD06E57
:102C000043EA104008610869401C83025365536D14
:102C1000D3654FF400739365936D13660AE02E48F5
:102C200013689863906B40F080509063012082F8A5
:102C3000340010BD6C20805AC0F3803001F8190FA9
:102C40006C20805AC0F3C61048706C20805C00F085
:102C50007F008870106FC00FC870106FC0F3417094
:102C60000871106FC0F382604871106FC0F3835019
:102C70008871106FC0F34050C87100200872106F47
:102C8000C0F3004048727020805AC0F3C030887290
:102C90007020805AC0F38030C8727020805AC0F310
:102CA000403008737020805AC0F3003048737020A1
:102CB000805AC0F3812088737020805AC0F30120AD
:102CC000C8737020805CC0F346000874012048740B
:102CD00019390020ADE70000FF0540000246506CA6
:102CE0000860906C4860D06C8860106DC860506D52
:102CF0000861906D4861D06D8861106EC8610020D8
:102D00007047F8B50446002000906946204603F05D
:102D100000FB054615B1A06B2843A0630098C0F3E3
:102D200043263046F8BD000070B50446256B206888
:102D3000406BC0F3C03030B105F0080018B1204638
:102D400003F094F9F8E02068406BC0F300200028FD
:102D500062D04FF48070216888632068C06B4CF2A9
:102D60003A3188432168C8632068C06A20F00100B6
:102D70002168C86205F0080038B305F0020010B9F8
:102D800005F0200050B1206802F0F0F806462EB1A0
:102D9000A06B3043A0632046FFF7BAFE40F23A50E2
:102DA00021688863012084F834000020206305F046
:102DB000010010B905F0020018B1204600F0A0FA99
:102DC000BAE0204600F0A8FAB6E005F0800000283E
:102DD000B8D005F0200050B1206802F0C7F80646D0
:102DE0002EB1A06B3043A0632046FFF791FE05F0A3
:102DF00001000028A6D105F002000028A2D1206819
:102E0000C06A20F008002168C862012084F83400FC
:102E1000204600F081FA8FE02068406BC0F38030DC
:102E200030B105F0080018B1204603F000FA83E045
:102E30002068406B40F23A21084008B1012000E0D0
:102E40000020002878D02068406BC0F3400018B103
:102E5000A06B40F00200A0632068406BC0F3C0008C
:102E600018B1A06B40F00800A0632068406BC0F36D
:102E7000401018B1A06B40F02000A0632068406BA8
:102E8000C0F3001018B1A06B40F01000A0632068E0
:102E9000406BC0F3402018B1A06B40F00800A06365
:102EA00040F23A70216888632068C06B40F23A3182
:102EB00088432168C863206802F058F8A16B084372
:102EC000A06305F0080040B1012084F83400002020
:102ED00020632046FFF71CFE2EE005F0800000B3C3
:102EE00005F0100010B905F0200050B11348E16B57
:102EF0000865E06BFEF765FB98B1E06B03F0E5F960
:102F00001AE005F0010010B905F0020050B10C48BC
:102F1000216C0865206CFEF754FB10B1206C03F0A7
:102F2000B0F909E00020A063012084F834000020FB
:102F300020632046FFF793FD70BD0000CB620008C0
:102F40008362000810B504460CB9012010BD94F846
:102F5000340020B900202077204600F053F80320E9
:102F600084F83400204600F00BF808B10120EDE7AA
:102F70000020A0632063012084F834000020E5E7EE
:102F800070B58AB004460020049005900690079022
:102F900008907620099007A807C88DE807002068E8
:102FA00004A90EC901F022FE064616B101200AB09E
:102FB00070BD002012490860206801F031FE012038
:102FC0000F49A039C1F8A000204602F0E9FF0546EC
:102FD0003DB1012084F83400A06B2843A063012098
:102FE000E5E7204603F0A2F805463DB1012084F84C
:102FF0003400A06B2843A0630120D8E70020D6E767
:10300000A080254210B586B00446142101A8FDF722
:10301000CAFA5F49206888427DD100BF0020009035
:103020005C48006840F400605A490860084600683F
:1030300000F40060009000BF00BF00BF00200090BF
:1030400054481438006840F00400524914390860AC
:103050000846006800F00400009000BF00BF00BFF9
:10306000002000900846006840F00800086008460C
:10307000006800F00800009000BF00BF88140190B5
:103080000220029000200390032004900C20059061
:1030900001A94148FEF7D2FC4FF470600190022074
:1030A000029001200390032004900C20059001A9B8
:1030B0003948FEF7C3FC0420019002200290012051
:1030C0000390032004900C20059001A93348FEF7DB
:1030D000B5FC3348334908604FF000604860002178
:1030E00030488160C1604FF48061016189004161B5
:1030F000890081612021C1610021016204214162B6
:10310000032181624FF40001C16289100163FEF75F
:103110008FFB18B100E038E0FDF717FD00BF214834
:103120002064846300BF1E4848301F4908604FF088
:103130000060486040211C4881600021C1604FF45C
:103140008061016189004161890081612021C16143
:103150000021016204214162032181624FF40001D8
:10316000C16289100163FEF763FB08B1FDF7EDFC56
:1031700000BF0D48E063846300BF002205213120B9
:10318000FEF72AFE3120FEF717FE06B010BD000044
:10319000002C01404438024000080240000C02406C
:1031A000586402407C030020DC0300202DE9F0433A
:1031B00087B004460F4691461E46C8463FB9A06BED
:1031C00040F00060A063012007B0BDE8F08394F8F0
:1031D0003400012871D10020A06308EB0601E06DE6
:1031E000814205D9A06B40F00070A0630120EBE79D
:1031F000032084F8340000202168C8622068C06B76
:1032000040F22A3108432168C8633948216CC863F9
:103210003848216CC8640020216C0865720293084C
:10322000226802F180013A46206CFEF7AAFB80B1C9
:103230002068C06B20F495702168C8632E4821680F
:103240008863A06B40F08040A063012084F83400C4
:10325000BAE7012029490860606C012801D04FEAD3
:1032600048284FF40071206801F03CFD05464DB13F
:10327000214821688863A06B2843A063012084F85B
:103280003400A1E74FF0FF300190700202909020CF
:10329000039002200490002005900120069001A9CF
:1032A000206801F075FC012E08D982202063414678
:1032B000206801F07FFD054607E016E081202063CD
:1032C0004146206801F092FD054665B10A48216833
:1032D0008863A06B2843A063012084F83400002099
:1032E0002063012070E700206EE702206CE70000F9
:1032F00043630008B9600008FF0540008C85254243
:1033000010B504464FF0FF320121024800680AF070
:10331000D5F910BD2C02002010B504464FF0FF3245
:103320000221024800680AF0C9F910BD2C020020F1
:103330002DE9F04387B00446884691461E464F4625
:10334000B8F1000F07D1A06B40F00060A06301202E
:1033500007B0BDE8F08394F83400012877D100204D
:10336000A063B919E06D814205D9A06B40F00070EF
:10337000A0630120ECE7032084F8340000202168DA
:10338000C8622068C06B40F21A2108432168C863F4
:103390003948E16BC8633948E16BC8640020E16BD0
:1033A0000865606C012800D07F024FF4007120682E
:1033B00001F098FC05464DB1314821688863A06B47
:1033C0002843A063012084F83400C1E7012E07D907
:1033D000A02020633946206801F0E6FD054606E09E
:1033E000902020633946206801F0FAFD054665B15A
:1033F000234821688863A06B2843A063012084F8D8
:103400003400002020630120A2E701201D4908604C
:1034100071028B08216801F180024146E06BFEF7E2
:10342000B0FAA8B12068C06B40F21A218843216825
:10343000C863134821688863A06B40F08040A06394
:10344000012084F8340000202063012080E711E08F
:103450004FF0FF3001907002029090200390002006
:10346000049005900120069001A9206801F090FBCE
:1034700000206DE702206BE7F3630008B9600008E5
:10348000FF0540008C8525427047704710B5034604
:10349000002200BF93F83C00012801D1022010BD9A
:1034A000012083F83C0000BF22F0FF00CC6840EA16
:1034B000040222F440708C6840EA040222F4806026
:1034C0004C6840EA040222F400600C6840EA0402FE
:1034D00022F480500C6940EA040222F400504C6946
:1034E00040EA040222F48040CC6940EA04021868F1
:1034F000426400BF002083F83C0000BF00BFCEE75D
:1035000030B502460B4600BF92F83C00012801D1BD
:10351000022030BD012082F83C0000BF022082F86A
:103520003D00106844681068816824F070041868D1
:10353000044310684460184D1068A8421BD01068FE
:10354000B0F1804F17D0154D1068A84213D0144D1C
:103550001068A8420FD0134D1068A8420BD0124D2E
:103560001068A84207D0114D1068A84203D0104D32
:103570001068A84205D121F0800158680143106805
:103580008160012082F83D0000BF002082F83C00ED
:1035900000BF00BFBDE70000000001400004004084
:1035A00000080040000C00400004014000400140C1
:1035B0000018004010B504460CB9012010BD94F865
:1035C0003D0028B9002084F83C00204600F00CF8AB
:1035D000022084F83D00211D206801F04DFD0120EE
:1035E00084F83D000020E9E708B50168B1F1804F9B
:1035F0000FD100BF002100912549096841F0010168
:10360000234A11601146096801F00101009100BFD1
:103610003DE0204A016891420FD100BF0021009196
:103620001B49096841F00401194A116011460968F3
:1036300001F00401009100BF29E0174A016891429E
:103640000FD100BF002100911149096841F0080124
:103650000F4A11601146096801F00801009100BF8E
:1036600015E00E4A0168914211D100BF002100917E
:103670000749091D096841F00201054A121D116040
:103680001146096801F00201009100BF00BF08BDAA
:103690004038024000080040000C00400004014097
:1036A00001460868C06840F001000B68D8600868EF
:1036B000806800F00702062A05D00868006840F01C
:1036C00001000B681860002070472DE9F0410446A6
:1036D0000D4600BF94F83C00012802D10220BDE84D
:1036E000F081012084F83C0000BF022084F83D00F6
:1036F0002068866826F0770626F47F462068866074
:103700002868502833D00CDC202850D004DC002856
:103710004BD0102851D149E0302849D040284CD115
:1037200039E060282DD0702807D0B0F5805F03D035
:10373000B0F5005F41D10DE040E0D5E902136A68C1
:10374000206801F016FD2068866846F0770620683C
:10375000866033E0D5E902136A68206801F009FD4C
:103760002068806840F480402168886026E0EA682C
:103770006968206802F0A7FF5021206802F09AFFD4
:103780001CE0EA686968206802F0B0FF60212068E8
:1037900002F090FF12E0EA686968206802F093FF87
:1037A0004021206802F086FF08E000BF00BF00BF94
:1037B0002968206802F07EFF00E000BF00BF012002
:1037C00084F83D0000BF002084F83C0000BF00BF2B
:1037D00085E7704710B5044620680069C0F34000D3
:1037E000D8B12068C068C0F34000B0B16FF00200EB
:1037F00021680861012020772068806900F00300BB
:1038000018B12046FFF7E5FF05E0204600F06CF90F
:10381000204600F009FA0020207720680069C0F3F4
:103820008000D8B12068C068C0F38000B0B16FF0EC
:10383000040021680861022020772068806900F474
:10384000407018B12046FFF7C4FF05E0204600F0A5
:103850004BF9204600F0E8F9002020772068006945
:10386000C0F3C000D8B12068C068C0F3C000B0B1D8
:103870006FF0080021680861042020772068C06983
:1038800000F0030018B12046FFF7A3FF05E0204633
:1038900000F02AF9204600F0C7F9002020772068C0
:1038A0000069C0F30010D8B12068C068C0F30010F0
:1038B000B0B16FF0100021680861082020772068FF
:1038C000C06900F4407018B12046FFF782FF05E0A0
:1038D000204600F009F9204600F0A6F900202077E4
:1038E0002068006900F0010058B12068C06800F04D
:1038F000010030B16FF0010021680861204600F03E
:10390000C1F920680069C0F3C01058B12068C068D0
:10391000C0F3C01030B16FF080002168086120460C
:10392000FFF7B2FD20680069C0F3801058B120682D
:10393000C068C0F3801030B16FF0400021680861AA
:10394000204600F0ABF920680069C0F3401058B180
:103950002068C068C0F3401030B16FF020002168CB
:1039600008612046FFF791FD10BD000010B586B03C
:103970000446142101A8FCF716FE2068B0F1804F20
:103980001DD100BF002000904F48006840F00100AA
:103990004D4908600846006800F00100009000BF33
:1039A00000BF0F200190022002900020039004909D
:1039B0000120059001A94548FEF740F882E04449FE
:1039C000206888421ED100BF002000903E48006859
:1039D00040F008003C4908600846006800F0080014
:1039E000009000BF00BF4FF4704001900220029091
:1039F0000020039004900220059001A93548FEF7AD
:103A00001DF85FE03449206888423AD100BF0020A9
:103A100000902D48006840F480702B4908600846EB
:103A2000006800F48070009000BF00BF00BF00205D
:103A300000900846006840F0800008600846006872
:103A400000F08000009000BF00BF01200190022024
:103A500002900020039004900220059001A91F48C5
:103A6000FDF7ECFF4FF4E05001900220029000209F
:103A7000039004900220059001A91948FDF7DEFF8C
:103A800020E01849206888421CD100BF0020009027
:103A90000D48006840F480700B49086008460068D3
:103AA00000F48070009000BF00BFE420019002206D
:103AB00002900020039004900320059001A907487C
:103AC000FDF7BCFF06B010BD3038024000000240D8
:103AD00000080040000C0240000C004000200240A2
:103AE000001C024000040140704770B504460D46BA
:103AF000164600BF94F83C00012801D1022070BD99
:103B0000012084F83C0000BF022084F83D0036B15B
:103B1000042E1BD0082E31D00C2E5ED145E0294654
:103B2000206802F029FD2068806940F008002168C3
:103B300088612068806920F004002168886120681D
:103B40008069296908432168886147E0294620681F
:103B500001F01AFB2068806940F4006021688861E8
:103B60002068806920F4806021688861206880690D
:103B7000296940EA0120216888612FE029462068F0
:103B800002F032FD2068C06940F008002168C86179
:103B90002068C06920F004002168C8612068C069FD
:103BA000296908432168C86118E02946206802F0A5
:103BB00057FD2068C06940F400602168C861206832
:103BC000C06920F480602168C8612068C0692969E3
:103BD00040EA01202168C86100E000BF00BF012069
:103BE00084F83D0000BF002084F83C0000BF00BF07
:103BF00085E710B504460CB9012010BD94F83D00CE
:103C000028B9002084F83C00204600F00CF802207F
:103C100084F83D00211D206801F02EFA012084F86F
:103C20003D000020E9E770477047000070B504468A
:103C30000E4601223146206801F08AFA0F492068B9
:103C4000884203D00E492068884201D1012000E05B
:103C5000002028B12068406C40F40040216848648E
:103C60002068806800F00705062D05D020680068F0
:103C700040F0010021680860002070BD0000014094
:103C80000004014010B5044603492068884201D170
:103C9000FDF7F8FF10BD00000014004070477047AA
:103CA0002DE9F0470446206805682068C66820684A
:103CB00047694FF00008C14605F00F08B8F1000F42
:103CC0000AD105F0200038B106F0200020B12046CE
:103CD00002F014FFBDE8F087B8F1000F72D007F0D2
:103CE000010018B906F4907000286BD005F00100AF
:103CF00030B106F4807018B1E06B40F00100E06371
:103D000005F0040030B107F0010018B1E06B40F09D
:103D10000200E06305F0020030B107F0010018B1C5
:103D2000E06B40F00400E06305F0080048B106F0E5
:103D3000200010B907F0010018B1E06B40F0080056
:103D4000E063E06B70B305F0200028B106F02000BE
:103D500010B1204602F0D2FE20684069C0F38019FD
:103D6000E06B00F0080010B9B9F1000F23D0204635
:103D700002F04BFF2068406900F04000402816D157
:103D80002068406920F0400021684861606B50B1B4
:103D90001748616B0865606BFDF713FC10B1606B31
:103DA000016D88470CE02046FFF779FF08E02046C8
:103DB000FFF775FF04E02046FFF771FF0020E06386
:103DC00088E7FFE705F0800030B106F0800018B109
:103DD000204602F0E6FE7DE705F0400030B106F037
:103DE000400018B1204602F020FF73E700BF71E7E2
:103DF0004B6C000810B504460CB9012010BDA06939
:103E000000B100E000BF94F8390028B9002084F820
:103E10003800204600F028F8242084F83900206873
:103E2000C06820F400502168C860204602F072FC8F
:103E30002068006920F4904021680861206840698A
:103E400020F02A00216848612068C06840F40050D2
:103E50002168C8600020E063202084F8390084F8DD
:103E60003A000020CAE7000010B586B004461421CD
:103E700001A8FCF798FB9D492068884239D100BF12
:103E8000002000909A48006840F0804098490860FF
:103E90000846006800F08040009000BF00BF00BFEF
:103EA0000020009092481038006840F010009049BF
:103EB000103908600846006800F01000009000BF4C
:103EC00000BF4FF4C07001900220029001200390C7
:103ED000032004900820059001A98648FDF7AEFD57
:103EE000002205215220FDF777FF5220FDF764FFE5
:103EF000F9E081492068884238D100BF0020009055
:103F00007B48006840F00040794908600846006836
:103F100000F00040009000BF00BF00BF00200090F4
:103F200073481038006840F010007149103908607B
:103F30000846006800F01000009000BF00BF03209A
:103F40000190022002900120039003200490082099
:103F5000059001A96748FDF771FD00220521532056
:103F6000FDF73AFF5320FDF727FFBCE063492068C7
:103F7000884279D100BF002000905D48001D006894
:103F800040F010005A49091D08600846006800F01A
:103F90001000009000BF00BF00BF002000905448F8
:103FA0001038006840F00200514910390860084696
:103FB000006800F00200009000BF00BF00BF0020BA
:103FC00000900846006840F001000860084600685C
:103FD00000F00100009000BF00BF8020019002208F
:103FE000029000200390032004900720059001A96F
:103FF0004348FDF723FD4FF400700190022002902A
:1040000000200390032004900720059001A93D485B
:10401000FDF714FD3C483D4908604FF000604860E2
:1040200000213A488160C1604FF480610161002144
:10403000416181614FF48071C1610021016241627F
:10404000FDF7F6FB08B1FCF780FD00BF2F48606369
:10405000846300BF002205212520FDF7BDFE252039
:10406000FDF7AAFE3FE0FFE72949206888423AD1E0
:1040700000BF002000901E48001D006840F0200096
:104080001B49091D08600846006800F020000090E8
:1040900000BF00BF00BF0020009015481038006826
:1040A00040F040001249103908600846006800F0EE
:1040B0004000009000BF00BF4FF4844001900220F8
:1040C000029000200390032004900820059001A98D
:1040D0001048FDF7B3FC002205214720FDF77CFEC8
:1040E0004720FDF769FE06B010BD000000780040D3
:1040F0004038024000100240007C004000100140A7
:104100000004024000000240406402403C060020DF
:10411000001401400018024010B5034693F83A001D
:1041200020282FD101B10AB9012010BD00BF93F89A
:104130003800012801D10220F7E7012083F8380078
:1041400000BF99629A85DA850020D863222083F81F
:104150003A0000BF002083F8380000BF1868C0682C
:1041600040F480701C68E0601868406940F001000D
:104170001C6860611868C06840F020001C68E0603E
:104180000020D2E70220D0E738B504463648006860
:10419000401C354908603548844229D134480068BC
:1041A000401C33490860012232492046FFF7B4FF22
:1041B0003048017830480BF091FFC8B12E480BF021
:1041C0003BFF2E4908600020009069462C4800689B
:1041D0000BF016F90098012809D1009838B14FF07A
:1041E000805028490860BFF34F8FBFF36F8F00BF27
:1041F0002548844209D125480068401C23490860AD
:10420000012223492046FFF787FF2248844229D113
:1042100021480068401C2049086001221F492046AF
:10422000FFF77AFF1D4801781D480BF057FFC8B112
:104230001B480BF001FF1B490860002000906946F5
:10424000194800680BF0DCF80098012809D10098A3
:1042500038B14FF080500B490860BFF34F8FBFF368
:104260006F8F00BF38BD0000A4010020FC050020B6
:104270009801002084010020684A0020900100205D
:10428000E001002004ED00E03C0500209C0100203E
:10429000850100207C050020A0010020860100206F
:1042A0008052002094010020E40100202DE9F84311
:1042B00004460D4616461F464FF0000994F8390093
:1042C00020285DD105B116B90120BDE8F88300BFF3
:1042D00094F83800012801D10220F6E7012084F883
:1042E000380000BF0020E063212084F83900FDF78A
:1042F000C3FC8146A684E68400BF002084F8380011
:1043000000BF2BE0E08C401EE084A068B0F5805F29
:1043100016D14B46002280212046009702F09FFCD8
:1043200008B10320D1E7A846B8F80000C0F30800A0
:1043300021684860206908B9AD1C0FE06D1C0DE0D4
:104340004B46002280212046009702F088FC08B1ED
:104350000320BAE715F8010B21684860E08C0028BB
:10436000D0D14B46002240212046009702F077FC36
:1043700008B10320A9E7202084F839000020A4E731
:104380000220A2E7704700BFFEE7000010B50F480B
:104390000F4908600320486000210D488160C1601A
:1043A0004FF4002101614FF4401141610021017679
:1043B0000121417600218176C17601774177FCF7B2
:1043C0005AFF08B1FCF7C1FB10BD000000640040BB
:1043D0007802002010B50E480E490860032048609E
:1043E00000210C488160C1604FF4002101614FF44D
:1043F000401141610021017641768176C1760177D5
:104400004177FCF738FF08B1FCF79FFB10BD0000B7
:1044100000680040A002002008B500BF0020009006
:104420001248006840F4800010490860084600689F
:1044300000F48000009000BF00BF002205213A2058
:10444000FDF7CAFC3A20FDF7B7FC002205213B200E
:10445000FDF7C2FC3B20FDF7AFFC00220521452003
:10446000FDF7BAFC4520FDF7A7FC08BD3038024037
:1044700010B503490348FCF769FB0349087010BDF8
:1044800024020020000E01082302002000B587B09E
:10449000142102A8FCF787F800BF002001906B48A8
:1044A000006840F01000694908600846006800F0A4
:1044B0001000019000BF00BF00BF0020019008461F
:1044C000006840F0020008600846006800F0020042
:1044D000019000BF00BF00BF0020019008460068A7
:1044E00040F0400008600846006800F0400001907D
:1044F00000BF00BF00BF002001900846006840F0E8
:10450000040008600846006800F00400019000BF45
:1045100000BF00BF002001900846006840F0010085
:1045200008600846006800F00100019000BF00BF6D
:1045300000BF002001900846006840F008000860B5
:104540000846006800F00800019000BF00BF00BFEF
:10455000002001900846006840F48070086008461A
:10456000006800F48070019000BF00BF00BF002011
:1045700001900846006840F0800008600846006826
:1045800000F08000019000BF00BF00BF002001903C
:104590000846006840F0200008600846006800F007
:1045A0002000019000BF00BF002242F2FE11284807
:1045B000FDF75BFB00223C212648FDF756FB00225D
:1045C0004FF400612448FDF750FB00224FF4804176
:1045D0002248FDF74AFB42F2FE10029001200390B0
:1045E00000200490059002A91948FDF727FA3C2005
:1045F00002900120039000200490059002A9154824
:10460000FDF71CFA4FF40060029001200390002097
:104610000490059002A91048FDF710FA4FF480406D
:1046200002900120039000200490059002A90B48FD
:10463000FDF704FA4FF4004002900020039004902C
:1046400002A90548FDF7FAF907B000BD303802406D
:1046500000180240001C02400010024000140240FA
:1046600010B50548054908600846FEF72FF908B15E
:10467000FCF76BFA10BD000000080650C8020020CD
:1046800010B50A480A490860002048607F210848A0
:104690008160FF21C1600021016141618161FEF7FC
:1046A00049F908B1FCF751FA10BD0000002800409C
:1046B000D802002006480749086000204860002111
:1046C00004488160C16001614161816170470000FF
:1046D000002C0140F802002000B58DB000200990A8
:1046E0000A900B900C90079008901C216846FBF7ED
:1046F0005AFF4FF080402C490860A72048600021F5
:104700002948816042F20F71C1600021016181611D
:10471000FEF750FF08B1FCF718FA4FF480500990EB
:1047200009A92148FEF7D1FF08B1FCF70EFA1E488F
:10473000FFF75FFA08B1FCF708FA0020079008902D
:1047400007A91948FEF7DCFE08B1FCF7FEF9602066
:10475000009041F2883001900020029004900022E5
:1047600069461148FFF7C1F908B1FCF7EEF90422D8
:1047700069460D48FFF7B9F908B1FCF7E6F90822D8
:1047800069460948FFF7B1F908B1FCF7DEF90C22D8
:1047900069460548FFF7A9F908B1FCF7D6F90248C0
:1047A000FFF7E4F80DB000BD3C04002000B58DB06B
:1047B000002009900A900B900C90079008901C2103
:1047C0006846FBF7F0FE2D482D490860A720486099
:1047D00000212B48816042F20F71C160002101610C
:1047E0008161FEF7E7FE08B1FCF7AFF94FF48050A6
:1047F000099009A92248FEF768FF08B1FCF7A5F95E
:104800001F48FFF7F6F908B1FCF79FF90020079061
:10481000089007A91A48FEF773FE08B1FCF795F94E
:104820006020009041F288300190002002900490B6
:10483000002269461248FFF758F908B1FCF785F9DC
:10484000042269460E48FFF750F908B1FCF77DF9DC
:10485000082269460A48FFF748F908B1FCF775F9DC
:104860000C2269460648FFF740F908B1FCF76DF9DC
:104870000348FFF77BF80DB000BD000000080040C2
:104880007C04002000B58DB0002009900A900B90A8
:104890000C90079008901C216846FBF784FE2D4879
:1048A0002D490860A720486000212B48816042F212
:1048B0000F71C160002101618161FEF77BFE08B1CB
:1048C000FCF743F94FF48050099009A92248FEF7FC
:1048D000FCFE08B1FCF739F91F48FFF78AF908B167
:1048E000FCF733F900200790089007A91A48FEF753
:1048F00007FE08B1FCF729F96020009041F28830EA
:104900000190002002900490002269461248FFF7AF
:10491000ECF808B1FCF719F9042269460E48FFF7D4
:10492000E4F808B1FCF711F9082269460A48FFF7D4
:10493000DCF808B1FCF709F90C2269460648FFF7D4
:10494000D4F808B1FCF701F90348FFF70FF80DB0F0
:1049500000BD0000000C0040BC04002000B595B074
:10496000002011901290139014900F9010901C2121
:1049700008A8FBF718FE20216846FBF714FE38480C
:1049800038490860A720486000213648816042F21B
:104990000F71C1600021016141618161FEF70AFE72
:1049A00008B1FCF7D2F84FF48050119011A92D48AE
:1049B000FEF78BFE08B1FCF7C8F82A48FFF719F993
:1049C00008B1FCF7C2F800200F9010900FA92548FD
:1049D000FEF796FD08B1FCF7B8F86020089041F2A8
:1049E0008830099000200A900B900C900D900E904A
:1049F000002208A91B48FFF778F808B1FCF7A5F8D2
:104A0000042208A91748FFF770F808B1FCF79DF8D1
:104A1000082208A91348FFF768F808B1FCF795F8D1
:104A20000C2208A90F48FFF760F808B1FCF78DF8D1
:104A30000020009001900290039004904FF40050E9
:104A400005900020079069460648FEF71FFD08B153
:104A5000FCF77BF80348FEF789FF15B000BD0000A6
:104A600000040140FC04002010B50B480B4908600D
:104A70004FF4E1304860002108488160C160016165
:104A80000C21416100218161C161FFF7B3F908B1D7
:104A9000FCF75BF810BD0000007800403C050020EA
:104AA00010B50B480B4908604FF4E1304860002115
:104AB00008488160C16001610C2141610021816170
:104AC000C161FFF797F908B1FCF73FF810BD00008E
:104AD000007C00407C05002010B50B480B490860A5
:104AE0000B484860002109488160C1604FF4806133
:104AF00001610C21416100218161C161FFF77AF9F7
:104B000008B1FCF722F810BD00100140BC050020E0
:104B1000A086010010B50B480B4908604FF4E13046
:104B20004860002108488160C16001610C21416139
:104B300000218161C161FFF75DF908B1FCF705F85B
:104B400010BD000000140140FC05002000BFFEE77E
:104B5000704770B5044600252068C06800F040002A
:104B6000A0B9681E2168C860FDF786F8054607E011
:104B7000FDF782F8401BB0F57A7F01D9032070BDA4
:104B80002068C06800F040000028F1D00020F6E75F
:104B900010B5024600230868506248689062D1E967
:104BA000020420430C6920434C6920430343D06A2C
:104BB00020F0F7001843D062002010BD01460869BC
:104BC000C0B270470146086800F003007047024613
:104BD00002F11400431818687047000010B502482D
:104BE000FEF7A2F810BD0000F80200200FB410B5C7
:104BF00004460021DDE903021043059A1043069A9A
:104C00001043079A1043089A10430143606847F61F
:104C1000FF62904308436060002010BC5DF814FB05
:104C200010B50446032020600220FCF7F3FE0020AC
:104C300010BD0146D1F88000704710B50246002330
:104C400008689060D1E901042043CC6820430C69D6
:104C500020430343D0686FF30B001843D06000205B
:104C600010BD02460868C2F880000020704770B589
:104C700086B005460C4601943720029040200390F0
:104C8000002004904FF48060059001A92846FFF7AA
:104C9000D4FF41F288323721284602F037F8064621
:104CA000304606B070BD000070B586B005460C46B3
:104CB0000B482043019029200290402003900020BF
:104CC00004904FF48060059001A92846FFF7B5FFD6
:104CD000284602F023F90646304606B070BD0000B3
:104CE0000000108070B586B005460C460194102077
:104CF000029040200390002004904FF480600590C3
:104D000001A92846FFF799FF41F288321021284671
:104D100001F0FCFF0646304606B070BD70B586B0A7
:104D200005460C4601940620029040200390002086
:104D300004904FF48060059001A92846FFF77DFF9D
:104D400041F288320621284601F0E0FF064630464F
:104D500006B070BD30B585B00446002000900190CB
:104D6000029003904FF48060049069462046FFF75C
:104D700064FF204601F0AAFF0546284605B030BD75
:104D800030B585B004464FF4D570009008200190EE
:104D900040200290002003904FF480600490694608
:104DA0002046FFF74AFF204602F040F90546284614
:104DB00005B030BD70B586B005460C460194122092
:104DC000029040200390002004904FF480600590F2
:104DD00001A92846FFF731FF41F288321221284607
:104DE00001F094FF0646304606B070BD70B586B03F
:104DF00005460C46019411200290402003900020AB
:104E000004904FF48060059001A92846FFF715FF34
:104E100041F288321121284601F078FF06463046DB
:104E200006B070BDF0B585B0064614461D46009428
:104E30000720019040200290002003904FF48060F2
:104E4000049069463046FFF7F8FE41F288320721A8
:104E5000304601F05BFF0746384605B0F0BD30B57F
:104E600085B004460020009002200190C0200290EE
:104E7000002003904FF48060049069462046FFF7BD
:104E8000DCFE204602F018F80546284605B030BD85
:104E900070B586B005460C46019409200290C020EA
:104EA0000390002004904FF48060059001A92846EB
:104EB000FFF7C3FE284601F0FFFF0646304606B066
:104EC00070BD30B585B004460020009033200190BD
:104ED00040200290002003904FF4806004906946C7
:104EE0002046FFF7AAFE41F288323321204601F026
:104EF0000DFF0546284605B030BD70B586B00546A5
:104F00000C4601940D200290402003900020049054
:104F10004FF48060059001A92846FFF78EFE41F20C
:104F200088320D21284601F0F1FE0646304606B0D3
:104F300070BD70B586B005460C4600200190032078
:104F4000029040200390002004904FF48060059070
:104F500001A92846FFF771FE22460321284602F0E8
:104F600009F80646304606B070BD000030B585B081
:104F70000446002000900C20019040200290002068
:104F800003904FF48060049069462046FFF755FE79
:104F9000044A0C21204601F0B9FE0546284605B01A
:104FA00030BD000000E1F50570B586B005460C4641
:104FB00001941920029040200390002004904FF4A7
:104FC0008060059001A92846FFF737FE41F288323C
:104FD0001921284601F09AFE0646304606B070BDFB
:104FE00070B586B005460C4601941820029040200A
:104FF0000390002004904FF48060059001A928469A
:10500000FFF71BFE41F288321821284601F07EFE90
:105010000646304606B070BD10B500BF502080F384
:105020001188BFF34F8FBFF36F8F00BF0AF044FDAD
:1050300018B14FF080500449086000BF002080F391
:10504000118800BF10BD000004ED00E005480068B5
:1050500040F47000034908604FF000600149803956
:105060000860704788ED00E010B50248FEF7B2FB1B
:1050700010BD00009C06002010B50268294B984224
:105080000ED0B0F1804F0BD0274B984208D0274B61
:10509000984205D0264B984202D0264B984203D125
:1050A00022F070024B681A431E4B984220D0B0F198
:1050B000804F1DD01C4B98421AD01C4B984217D0E1
:1050C0001B4B984214D01B4B984211D01A4B98425C
:1050D0000ED01A4B98420BD0194B984208D0194B5E
:1050E000984205D0184B984202D0184B984203D1F1
:1050F00022F44072CB681A4322F080034C6943EAE1
:10510000040202608B68C3620B688362054B98429D
:1051100002D0084B984201D10B690363012343611C
:1051200010BD0000000001400004004000080040E5
:10513000000C0040000401400040014000440140D8
:105140000048014000180040001C004000200040C2
:1051500030B501F01F05012404FA05F3046A9C43ED
:105160000462046A01F01F0502FA05F52C4304628B
:1051700030BD30B50C46816821F47F4142EA0325F9
:1051800025432943816030BD30B5056A25F01005FF
:105190000562026A4368846924F4E04424F440749C
:1051A0000D6844EA052422F020028D6842EA0512C7
:1051B000124DA84200D103E0114DA84207D100BF13
:1051C00022F08002CD6842EA051222F040020B4D27
:1051D000A84202D00A4DA84209D123F4806323F4E7
:1051E00000634D6943EA85038D6943EA85034360A3
:1051F00084614D688563026230BD0000000001409B
:105200000004014010B50248FEF74AFD10BD000041
:105210003C05002010B50248FEF742FD10BD00001D
:105220007C05002010B5034800F052FB0148FEF752
:1052300037FD10BDBC05002010B50248FEF730FD5B
:1052400010BD0000FC05002000BFFEE710B50446BD
:1052500003F016FA10BD0000064901EB4001B1F958
:10526000001000EE101AF8EEC00A9FED031A80EE4F
:10527000810A7047AA5A00200000254410B5044650
:1052800003F00CFC10BD00001FB5044601201449BA
:10529000087008F098F9F8B1204600F055FD104963
:1052A000087008460078012816D00E48006850B9EA
:1052B0000D4B0FCB8DE80F000021684608F09BF9DD
:1052C0000849086000BF0748006828B9044800780A
:1052D00040F00100024908700148007804B010BD98
:1052E000280200202C020020140E010810B50446EC
:1052F00001F0A0FF10BD10B5044602F0A7FA10BDE2
:1053000010B5162248494948FBF7D6F848480078B6
:105310004749497840EA0120C0F30A004249088021
:1053200043484078C0104249897840EA4110C0F3B0
:105330000A003D4948803E48807880113C49C97840
:1053400040EA81003A49097940EA8120C0F30A0025
:10535000354988803648007940103549497940EA16
:10536000C110C0F30A003049C88031484079C0F309
:10537000011088722E484079001181082A48C172B4
:105380002B4880792A49C97940EA012000B2264990
:1053900088812748007A2649497A40EA012001B2EB
:1053A0002148C1812248807A2149C97A40EA0120F6
:1053B00001B21D4801821E48017B1B4881741C48B4
:1053C000417B1948C1741A48807B1949C97B40EA5E
:1053D0000120154988821648007C1549497C40EA1D
:1053E000012000B21049088108460088A0F58060BD
:1053F00000B2088008464088A0F5806000B248806E
:1054000008468088A0F5806000B288800846C08881
:10541000A0F5806000B2C88008460089A0F58060D1
:1054200000B2088110BD0000AA5A0020C05A002016
:10543000985A002010B5044600F060FA02F0F8FB1C
:1054400010BD000000B5B1B01C2236492AA8FBF7F8
:1054500078F800212AA808F0EFF9334908601C22E7
:1054600030491C3123A8FBF76CF8002123A808F071
:10547000E3F92E4908601C222A4938311CA8FBF7A1
:1054800060F800211CA808F0D7F9294908601C22FF
:105490002449543115A8FBF754F8002115A808F049
:1054A000CBF9244908601C221E4970310EA8FBF775
:1054B00048F800210EA808F0BFF91F4908601C2217
:1054C00018498C3107A8FBF73CF8002107A808F021
:1054D000B3F91A4908601C221249A8316846FBF743
:1054E00030F80021684608F0A7F9154908600F4810
:1054F000006809F0A3FB0E48006809F09FFB0D4807
:10550000006809F09BFB0C48006809F097FB0B480A
:10551000006809F093FB0A48006809F08FFB31B07E
:1055200000BD00001C0D0108000000200400002048
:10553000080000200C000020100000201C000020AB
:105540002000002010B5044603F098F910BD0000BB
:1055500000F03AF95F48006809F0D0FA5E48006848
:1055600009F0CCFA5D48006809F0C8FA5C480068A8
:1055700009F0C4FA5B48006809F0C0FA5A480068AC
:1055800009F0BCFA4FF480715848FCF765FB00BF86
:105590004FF480715548FCF75FFB80215348FCF7BE
:1055A0005BFB7D2008F003F880215048FCF754FB9A
:1055B00040214E48FCF750FB7D2007F0F8FF4021CA
:1055C0004A48FCF749FB20214848FCF745FB7D2071
:1055D00007F0EDFF20214548FCF73EFB1021434832
:1055E000FCF73AFB7D2007F0E2FF10213F48FCF773
:1055F00033FB08213D48FCF72FFB7D2007F0D7FF48
:1056000008213A48FCF728FB04213848FCF724FB22
:105610007D2007F0CCFF04213448FCF71DFB02215C
:105620003248FCF719FB7D2007F0C1FF02212F480B
:10563000FCF712FB04212D48FCF70EFB7D2007F040
:10564000B6FF04212948FCF707FB08212748FCF78F
:1056500003FB7D2007F0ABFF08212448FCF7FCFA90
:1056600010212248FCF7F8FA7D2007F0A0FF102156
:105670001E48FCF7F1FA20211C48FCF7EDFA7D20CA
:1056800007F095FF20211948FCF7E6FA402117485A
:10569000FCF7E2FA7D2007F08AFF40211348FCF76F
:1056A000DBFA80211148FCF7D7FA7D2007F07FFF55
:1056B00080210E48FCF7D0FA4FF480710B48FCF7BC
:1056C000CBFA7D2007F073FF09480068401C0849A9
:1056D00008605DE704000020080000200C000020A6
:1056E000100000201C0000202000002000180240B4
:1056F0002400002000B59FB0302113A8FAF753FF13
:1057000014210EA8FAF74FFF302102A8FAF74BFF39
:1057100000BF002001902A48006840F080502849CE
:1057200008600846006800F08050019000BF00BF8C
:1057300000BF002001902348006840F44040214908
:1057400008600846006800F44040019000BF00BFB8
:10575000092013904FF480301490012018900220FB
:10576000199041051A9106211B91A8211C91022133
:105770001D9107211E9113A8FCF764FE08B1FBF7E9
:10578000E4F90F200E9002200F90002010904FF4AB
:10579000A05011904FF48050129005210EA8FCF7F4
:1057A000EFFC08B1FBF7D1F92020029000010C902A
:1057B00002A8FCF763FB08B1FBF7C7F91FB000BDF7
:1057C000403802400070004010B501223049314895
:1057D00006F006F90A2230480168304806F042F91E
:1057E00028B100224FF400612D48FCF73EFA2D4B02
:1057F0000D222D49294806F095FD28B100224FF4CD
:1058000000612748FCF731FA244806F0CFF801225E
:1058100026A1224806F026F928B100224FF40061A3
:105820001F48FCF722FA002025490870254B642206
:1058300025491A4806F040FB30BB23480078702801
:1058400012D12148807979280ED100201C49087096
:1058500000224FF400611248FCF707FA00224FF4CF
:1058600080411A48FCF701FA1748007873280BD1D9
:105870001548007A792807D10120114908700022C3
:1058800081031248FCF7F1F90148FBF793F910BDC9
:1058900024020020986B002010020020D87B0020FA
:1058A0000010024008020020140200206F70657290
:1058B0006174696E674D6F64652E747874000000C2
:1058C000220200200C020020D85A002000140240BE
:1058D00010B504462068006800F01000102807D1B9
:1058E0002068C06800F0100010B1204600F054FAA3
:1058F00010BD0146486880B27047000008B500BF7F
:10590000002000900B48006800680090094800687B
:105910004068009000BF00BF06480068C06840F0C3
:10592000100004490968C86032220349014800F0A8
:1059300065FA08BDBC050020985A00202DE9F04703
:1059400086B082460E46174698464FF0010947F248
:10595000305000F00DFA002803DA484606B0BDE8E2
:10596000F087424639463046FBF79CF8054615BBA2
:1059700047F2305211480168684607F051FE9DE831
:10598000070003AB07C30398102814D1049801281B
:1059900011D107F026FE044605E0FBF759F810B9CF
:1059A0004FF0000906E007F01CFE001B47F23051E3
:1059B0008842F2D300BF4846D0E700002C02002006
:1059C000F0B589B007460D46144601261648007802
:1059D00000F0010010B1032009B0F0BD35B1012D78
:1059E00006D0022D0BD0032D18D10FE0002617E0B2
:1059F00001A8FBF723F807982060002610E001A813
:105A0000FBF71CF808982080002609E001A8FBF7A6
:105A100015F80898400A2060002601E0042600BF1F
:105A200000BF3046D8E70000280200202DE9F043EF
:105A300087B081460D4616461F464FF0010847F2D3
:105A4000305000F095F9002803DA404607B0BDE871
:105A5000F0833A4631462846FBF738F810BB47F248
:105A600030521148016801A807F0DAFD01A807C803
:105A700004AB07C30498102814D10598022811D14B
:105A800007F0AFFD044605E0FAF7E2FF10B94FF06A
:105A9000000806E007F0A5FD001B47F230518842E0
:105AA000F2D300BF4046D1E72C02002010B50446D7
:105AB000204600F049F910BD01460148405C70479E
:105AC000B45A002010B52DED088B84B00446B0EE1A
:105AD000408A84ED088AFCF7CFF800EE100AB8EE91
