:020000040800F2
:10000000305F002011040008C57700088B700008DD
:10001000C1770008D1440008357A000800000000CC
:100020000000000000000000000000005103000874
:100030000545000800000000AD0300080578000831
:100040002B0400082B0400082B0400082B040008D4
:100050002B0400082B0400082B0400082B040008C4
:100060002B0400082B0400082B0400082B040008B4
:100070002B0400082B0400082B0400082B040008A4
:100080002B0400082B0400082B040008E54400089A
:10009000D54400082B0400082B0400082B0400089A
:1000A0002B0400082B0400082B0400082B04000874
:1000B0002B0400082B0400082B0400082B04000864
:1000C0002B0400082B0400082B0400082B04000854
:1000D0002B040008117A00082B0400082B040008E8
:1000E0002B0400082B0400082B0400082B04000834
:1000F0002B0400082B0400082B0400082B04000824
:100100002B0400082B0400082B0400082B04000813
:100110002B0400082B0400082B0400085578000865
:100120002B0400082B040008F54400082B040008E9
:100130002B0400082B0400082B0400082B040008E3
:100140002B0400082B0400082B0400082B040008D3
:100150002B0400082B0400082B040008257A000853
:100160002B0400082B0400082B0400082B040008B3
:100170002B0400082B0400082B04000800000000DA
:100180002B0400082B040008F1790008017A00080C
:100190002B0400082B0400082B0400082B04000883
:1001A00000000000000000002B04000800F002F82E
:1001B00000F0BFF80AA090E8000C82448344AAF142
:1001C0000107DA4501D100F0B4F8AFF2090EBAE840
:1001D0000F0013F0010F18BFFB1A43F0010318477B
:1001E000BCF70000DCF700000A444FF0000C10F8E8
:1001F000013B13F0070408BF10F8014B1D1108BFA5
:1002000010F8015B641E05D010F8016B641E01F844
:10021000016BF9D113F0080F1EBF10F8014BAD1C94
:100220000C1B09D16D1E58BF01F801CBFAD505E0B2
:1002300014F8016B01F8016B6D1EF9D59142D6D30C
:10024000704700000023002400250026103A28BF34
:1002500078C1FBD8520728BF30C148BF0B60704738
:100260006E2900F07985702900F0D58666290EF098
:100270007B8565290EF0788567290EF075856129E3
:100280000EF0748503681B0A28BF41F080016929BC
:1002900000F02685642900F02385752900F020856B
:1002A0006F2900F06286782900F0A186E92900F024
:1002B000FD85E42900F0FA85F52900F0F785EF299E
:1002C00000F05F86F82900F0A0860368DB0928BFEC
:1002D00041F08001632902F0A580732902F0AA8011
:1002E000E32902F0B580F32902F0BA8000207047BC
:1002F0001FB50EF02CFD9DE8030000F029FC01F075
:1003000039FC0400002000210DF090FA401C6060D0
:10031000002000210DF074FAE06001F0A9FA00F06D
:100320002FFA1FBD10B5002000F019FB01F009FBEA
:1003300010BD01F0F9FB1146FFF7DAFF0CF082FA6D
:1003400002F0C2FE03B4FFF7EDFF03BC00F0CAFBEE
:100350002C4B19680868B0E8F04F80F30988BFF3A8
:100360006F8F4FF0000080F311887047000000008D
:1003700008480068006880F308884FF0000080F3A8
:10038000148862B661B6BFF34F8FBFF36F8F00DF83
:1003900000BF00BF08ED00E0DFF80C00016841F489
:1003A00070010160704700BF88ED00E0EFF3098045
:1003B000BFF36F8F134B1A681EF0100F08BF20EDAC
:1003C000108A20E9F04F106009B44FF0500080F31C
:1003D0001188BFF34F8FBFF36F8F0CF061FF4FF0A9
:1003E000000080F3118809BC19680868B0E8F04F74
:1003F0001EF0100F08BFB0EC108A80F30988BFF31D
:100400006F8F70473C000020EFF3058070470000BD
:100410000948804709480047FEE7FEE7FEE7FEE798
:10042000FEE7FEE7FEE7FEE7FEE7FEE704480549D4
:10043000054A064B7047000039780008AD010008F6
:1004400030590020305F0020305B0020305B0020FE
:1004500053EA020C00F069802DE9F04B4FF00006E2
:10046000002B1FBFB3FA83F503FA05F424FA05F64F
:100470005E4012BF1643B2FA82F502FA05F4C5F1E6
:1004800020051EBF22FA05FC44EA0C04203556EA7A
:10049000044C4FEA144418BF641C4FF000084FF09E
:1004A0000009904271EB030C39D3002919BFB1FA4E
:1004B00081F701FA07F6B0FA80F700FA07F6C7F1FC
:1004C00020071EBF20FA07FC46EA0C062037B6FBC1
:1004D000F4FCA7EB0507103F07F01F0BCBF120063C
:1004E0000CFA0BFB2CFA06F644BFB3460026202F6D
:1004F000A4BF5E464FF0000B5BEA060C08BF4FF04E
:10050000010B19EB0B09ABFB027C48EB0608C01B87
:1005100006FB02CC0BFB03CC71EB0C01C1E70B46D5
:10052000024641464846BDE8F08B13B54FF0000047
:100530004FF00001AFF30080BDE81C4070472DE98B
:10054000F041074615460E46102000F02FF9040032
:100550000AD06760C4E9026500F024F901682160EF
:1005600004600020BDE8F0810120FBE710B5431CCA
:1005700002E010F8011B71B18107FAD14FF001328E
:1005800002C88C1A8C4314EAC211F9D0C01A0A06A8
:1005900003D0C01E10BDC01A10BD0A0401D0801EB9
:1005A00010BD0902FCD0401E10BD032A40F230806D
:1005B00010F0030C00F0158011F8013BBCF1020FA4
:1005C000624498BF11F801CB00F8013B38BF11F825
:1005D000013BA2F1040298BF00F801CB38BF00F83C
:1005E000013B11F0030300F06780083AC0F0088077
:1005F00051F8043B083A51F804CBA0E80810F5E79D
:10060000121D5CBF51F8043B40F8043BAFF300807F
:10061000D20724BF11F8013B11F801CB48BF11F8F4
:10062000012B24BF00F8013B00F801CB48BF00F8C4
:10063000012B7047431A28BF9A427FF6B6AF032AB0
:100640001044114440F2268010F0030F1EBF11F831
:10065000013D521E00F8013D10F0030F7FF4F6AF8C
:1006600011F0030300F0EA81083AC0F00B8051F862
:10067000043D083A51F804CD40F8043D40F804CD5B
:10068000FFF7F3BF121D5CBF51F8043D40F8043D75
:10069000AFF30080D20724BF11F8013D11F801CD5E
:1006A00048BF11F8012C24BF00F8013D00F801CD2E
:1006B00048BF00F8012C704710B5203AC0F00B80FD
:1006C000B1E81850203AA0E81850B1E81850A0E856
:1006D0001850BFF4F5AF5FEA027C24BFB1E81850B0
:1006E000A0E8185044BF18C918C0BDE810405FEA20
:1006F000827C24BF51F8043B40F8043B08BF70479C
:10070000D20728BF31F8023B48BF11F8012B28BFA0
:1007100020F8023B48BF00F8012B704702F0FF03AE
:1007200043EA032242EA024200F0B4B94FF0000269
:1007300000B5134694469646203922BFA0E80C50D7
:10074000A0E80C50B1F12001BFF4F7AF090728BFB2
:10075000A0E80C5048BF0CC05DF804EB890028BF2E
:1007600040F8042B08BF704748BF20F8022B11F057
:10077000804F18BF00F8012B7047704770477047D3
:1007800070B5064C7C44064D7D4403E0206820444F
:100790008047241DAC42F9D170BD000080F30000F9
:1007A0009CF3000000487047CC58002070B5064606
:1007B00000F0AAF9056806F10B0020F00704B44226
:1007C0009CBF002070BD2B466A68BAB11068A04279
:1007D00010D304F1080188423CBF5068586007D329
:1007E0005168101941601168091B0160586014605C
:1007F000101D70BD13465268002AE7D121462846D5
:1008000000F092F90028DED170BD10B500F084F937
:10081000006810BD10B5044600F07EF9046010BDFC
:100820000FB4014610B504AA039800F0CFFA10BC2B
:100830005DF814FB7CB51D4616460C00009001D0F7
:100840002044401E074B7B442A46694601903046AF
:1008500000F09BFA05461CB10020694600F0A8FA9A
:1008600028467CBD710500000FB400B58DB010A9FD
:10087000099000910B904FF0FF300A9000200C90EF
:10088000064878440690064878446A4607900F99CF
:1008900009A800F057FE0DB05DF814FBDF0C000056
:1008A000F70C00000FB4002300B589B00CA900912B
:1008B0000B99CB60214B7B440693214B7B440793E0
:1008C00004236FF00042CDE901321E4A7A446B46A0
:1008D0000892024600200EF0ABFA09B05DF814FB56
:1008E00070B506464FF0FF3015460C46324686B0CE
:1008F0000091CDE9010169460020049004A8FFF7AA
:10090000D1FF02460498211825B108B1084600E03D
:1009100020462860049800280DD0002A02DD0098A7
:10092000884208D03246081B69460094CDE901048C
:1009300004A8FFF7B7FF06B070BD0000AB0C0000C5
:10094000C30C00003B03000010B5002001F034F898
:10095000FFF7E8FCBDE81040012000F0C3B82DE926
:10096000F0410646FFF71EFF8046454613E016B1EC
:10097000E068B0420ED120682860D4E90101D8F8BF
:1009800000708847204600F019F9D8F80000B842F6
:10099000EBD100E025462C68002CE8D1BDE8F081C1
:1009A00040EA0103024630B59B0710D14FF00134F5
:1009B00000E008C208C91D1B9D4315EAC41FF8D0FA
:1009C00013F0FF0102F8011B0DD01B0AF8E711F824
:1009D000013B002B02F8013B05D011F8013B002B35
:1009E00002F8013BF3D130BD0022CBB210F8011B5D
:1009F000994200D1421E0029F8D110467047421E8C
:100A000012F8013F002BFBD111F8013B002B02F83B
:100A1000013BF9D17047431A28BF9A427FF64CAE8A
:100A2000104410F0030F11441EBF11F8013D521E77
:100A300000F8013D10F0030F7FF4F6AF103AC0F05C
:100A40000A8010B531E91850103A20E91850BFF467
:100A5000F9AFBDE81040530724BF31E9081020E981
:100A6000081044BF51F8043D40F8043D12F0030F54
:100A700008BF7047D20728BF31F8023D48BF11F8C0
:100A8000012C28BF20F8023D48BF00F8012C704718
:100A90004FF000020429C0F0128010F0030C3FF464
:100AA00047AECCF1040CBCF1020F18BF00F8012BCB
:100AB000A8BF20F8022BA1EB0C01FFF739BE5FEABB
:100AC000C17C24BF00F8012B00F8012B48BF00F8BF
:100AD000012B704710B509F0CBFFBDE8104009F0BD
:100AE00032BF000001491820ABBEFEE7260002001D
:100AF000004870479458002010B501F03BF8001DE5
:100B000010BD00BF29CD0000004870479C58002050
:100B100000487047C858002000487047945800208B
:100B2000704770477047704738B504460A46002042
:100B30006946AFF30080002808BF38BD024600991F
:100B4000204601F01FF8012038BD012002F0E9BA6B
:100B5000F8B5AFF30080054600200C46102000BF1A
:100B60000646A819A0420DD9324669460020AFF3C7
:100B70000080070008BF02F0D4FA0098A04218BF16
:100B80000546C419FFF7C0FF05600746F01D20F0B9
:100B900007004619284600F00AF8B44208BFF8BD1D
:100BA000A21B31463868BDE8F84000F0EBBF0021D9
:100BB0000160C0E9011070471020704770B504460D
:100BC000051FFFF7A1FF0068002C14BF446870BD2B
:100BD000002C18BFAC423CBF20466468F8D30168C3
:100BE0000A18AA4218BF456003D12A680546114475
:100BF000016028684119A1421CBF6C6070BD61682A
:100C0000696021680844286070BD10B50446FFF78C
:100C100073FF0068005D00F0010010BD70B5044670
:100C200085690068C10601D5302600E02026C0078E
:100C300007D070BDD4E9012130469047206A401C9E
:100C400020626D1EF6D570BD70B5044685690078CA
:100C5000C00707D170BDD4E9012120209047206A48
:100C6000401C20626D1EF6D570BD09684A0501D58D
:100C700040B27047C905FCD500B2704709684A0503
:100C800001D5C0B27047C905FCD580B2704770B5B8
:100C90000C460546012A05D02878800600D5EA6969
:100CA000002302E0012305E05B1C934202D2E05CDA
:100CB0000028F9D1A869E618C01AA861286A184462
:100CC00028622846FFF7AAFF04E0D5E9012114F8BD
:100CD000010B9047B442F8D32846FFF7B5FF70BD2B
:100CE0002DE9F0410646002410687529314616A505
:100CF00010D0FFF7BAFF002802DA404213A507E040
:100D000031688A0701D512A502E0490704D511A56B
:100D1000012401E0FFF7B2FF00210A2206F12407B7
:100D200009E0B0FBF2FCB0FBF2F302FB1C00303038
:100D300078541846491C0028F3D123462A463046E9
:100D4000BDE8F04100F07DBF000000002D00000074
:100D50002B0000002000000011680268006A5305A3
:100D600001D508700AE0D30501D5088006E0130616
:100D700003D5C217C1E9000200E0086001207047F6
:100D800001694A1C02610878704700B58FB0CDE94F
:100D900001310021059105497944CDE9031011463F
:100DA000684600F043F90FB000BD0000E5FFFFFF0B
:100DB0000A6802F8010B0A607047D1E900239A42E1
:100DC00002D2531C0B60107070470000074B70B5C7
:100DD0000D467B44FFF7D9FF0446284601F097FFF4
:100DE00010B14FF0FF3070BD204670BDC5B9000096
:100DF0002DE9FF5F15468A460446DFF8AC80F844CB
:100E00000027D8E900103E46CDE9001010E03AF87E
:100E100016106A4602A802F037F9411C07D0217863
:100E2000890603D5E269391891420DD80744761C2A
:100E30002078800602D5E069B84205DDAE42E6DBE7
:100E40003AF816000028E2D1A069C01BA061204634
:100E5000FFF7E4FED8E90010CDE90010002017E00C
:100E60003AF818106A4602A802F00EF9B0F1FF3FF6
:100E700081460BD000250DF1080B05E0D4E90121D6
:100E80001BF8050090476D1C4D45F7D308F1010094
:100E9000B0428046E4DB206A384420622046FFF7F7
:100EA000D3FEBDE8FF9F0000E6E600002DE9F0411B
:100EB0008046D21D22F007020025D2E90002F52962
:100EC00015A614D0011E72F1000106DA0023D0EB42
:100ED000030063EB020211A608E0D8F800108B07AC
:100EE00001D50FA602E0490701D50EA6012511463E
:100EF000002408F1240704E000F05EFE30323A5589
:100F0000641C50EA0102F7D12B4632462146404686
:100F1000BDE8F04100F095BE000000002D0000008B
:100F20002B0000002000000030B4002100F1240458
:100F300008E002F00705D208303542EA4372DB08C8
:100F40006554491C52EA0305F3D10468002310A23A
:100F5000250707D5A40600D421B1C46901230DA239
:100F6000641EC46130BC00F06CBE10B5044621465E
:100F70001068FFF783FE02462046BDE810400023BC
:100F8000D2E7D21D22F00701D1E90023CCE700000F
:100F90000000000030000000F0B40D460188090593
:100FA00002D5214C7C4402E01F4C7C440E340021CD
:100FB00000F1240608E002F00F071209E75D42EA9B
:100FC00003721B097754491C52EA0307F3D10278D4
:100FD0000023120704D5702D06D009B10223113465
:100FE0002246F0BC00F02DBE01231034F8E770B5A6
:100FF00004460D4621461068FFF740FE024629468A
:101000002046BDE870400023C6E7D21D22F007034A
:10101000D3E90023C0E70368126843F020030360AC
:101020000823C3610023B7E748E500002DE9F05F1E
:10103000894604464FF0000ADFF874B1FB44C0F85B
:1010400020A02046E1688847002874D0252806D0D3
:10105000D4E901219047206A401C2062F1E7002674
:101060005F462046E16888472028054607DB312D8A
:1010700005D2781910F8200C08B10643F1E7B00743
:1010800001D526F00406C4F81CA00027C4F818A057
:101090002A2D09D028460BF065FB38B304EB8708EE
:1010A000303DC8F8185019E059F8041B204604EBED
:1010B00087029161E1688847012F054618D1E069F0
:1010C000002820DA26F020061DE0D8F8180000EBF2
:1010D000800005EB40003038C8F818002046E16871
:1010E000884705460BF03EFB0028EED1012F0AD0C1
:1010F0002E2D08D12046E16888477F1C0546022F27
:1011000046F02006C4DBA069002803DA404246F01E
:101110000106A061F00701D026F010066C2D0BD05F
:10112000682D09D04C2D39D06A2D35D0742D35D08D
:101130007A2D33D016E038E0E1682F462046884704
:10114000B842054609D16C2F26D04FF48060E16883
:10115000064320468847054604E06C2F1AD04FF41A
:10116000807006430DB3A5F14100192802D820353F
:1011700046F400664A462946204626604E46FFF75A
:101180006FF880B101280BD0F61D26F0070000F1A2
:10119000080956E74020E4E78020D8E70020D6E79A
:1011A00006F104094DE7284652E7206ABDE8F09FA2
:1011B000D8E400002DE9FF4F1C4691464FF0FF3563
:1011C00081B000218A468846D4E90167A169029866
:1011D0006D1C8847216A834688470028F6D1BBF1F9
:1011E000FF3F0CD0002F26F4C0661ADD700615D51F
:1011F000BBF12B0F0AD0BBF12D0F0FD104E04FF044
:10120000FF3005B0BDE8F08F46F48066A169029812
:101210006D1C88477F1E8346002F02DDBBF1300F17
:1012200003D0B9F1000F2AD025E0A1696D1C029806
:101230007F1E46F400768847002F834605DDBBF10C
:10124000780F06D0BBF1580F03D0B9F1000F10D0C2
:1012500011E0B9F1000F02D0B9F1100F0BD1A16963
:101260006D1C02987F1E26F4007688478346102066
:1012700000E0082081464FEAE970009017E00A205C
:10128000F8E74346AAFB0928DDF800C07F1E03FBF0
:10129000098046F4007605F101050AFB0C0112EB0A
:1012A0000B0A029841EBEB78A16988478346002F2F
:1012B00006DD4946584601F0D7F85FEA000BE0D555
:1012C000E16902988847B00502D46FF0010098E701
:1012D000F00718D1700610D55146700505D50023CA
:1012E000D1EB030163EB080200E042462068031DD6
:1012F00023600068C0E9001205E02068011D21603C
:101300000068C0E900A828467BE72DE9FF5F1D467D
:101310004FF0FF3B91464FF000085F46D5E901468C
:10132000A96901987F1C8847296A82468847002856
:10133000F6D1BAF1FF3F0CD0002E24F4C06419DDC1
:10134000600614D5BAF12B0F09D0BAF12D0F0ED1CA
:1013500003E0584604B0BDE8F09F44F48064A969F6
:1013600001987F1C8847761E8246002E02DDBAF166
:10137000300F03D0B9F1000F26D032E0A969761EF4
:1013800001987F1C44F400748847002E824605DDD6
:10139000BAF1780F06D0BAF1580F03D0B9F1000FA7
:1013A00010D01EE0B9F1000F02D0B9F1100F18D122
:1013B000A969761E01987F1C24F400748847824630
:1013C000102002E0082000E00A20814609E0A96917
:1013D00008FB0908761E01987F1C44F400748847B6
:1013E0008246002E05DD4946504601F03DF80028B2
:1013F000EDDAE96901988847A00502D46FF0010091
:10140000A8E7E00725D1600613D5600502D5C8F12D
:10141000000000E0404629680A1D2A60096822058C
:1014200001D5087015E0220701D5088011E0086099
:101430000FE02868011D29600068210502D580F8A9
:10144000008006E0210702D5A0F8008001E0C0F886
:10145000008038467EE72DE9FF5F4FF0000899468F
:10146000144646469169D2E901A7DDF838B00198E3
:101470008847054659EA0B0005D009E0A1690198A3
:10148000761C88470546216A284688470028F5D1FA
:10149000681C03D05FEACA7005D015E04FF0FF303A
:1014A00004B0BDE8F09F2068011D2160D0F80080E5
:1014B0000AE05FEACA7001D108F8015BA169761CF5
:1014C00001987F1E88470546002F1ADD681C18D03A
:1014D000B9F1000F0DD0E81705EBD060421120F0F4
:1014E0001F0059F822102A1A012090400142E0D131
:1014F00007E0BBF1000FDCD12846216A88470028AD
:10150000D7D0E16901988847BBF1000F07D1002EC1
:1015100005DD5FEACA7002D1002188F80010A068DA
:10152000B84203DDBBF1000F03D017B16FF001002B
:10153000B6E73046B4E70000026811441378016052
:1015400018467047D160054979445161044979448E
:10155000116200211161114600F094BFEDFFFFFF01
:10156000B9F6FFFF426842B1016811F8013B23B1AF
:10157000521EC0E90012184670470121C160881E42
:10158000704742685AB1C368016843B983688B42A7
:1015900005D0491E521CC0E90012002070474FF0D0
:1015A000FF3070472DE9FF4F4FF000089A46144670
:1015B000C146464683B0D2E901B7CDF80080CDF8E8
:1015C0000480916904988847109905465AEA0100F9
:1015D00005D009E0A1690498761C88470546216A70
:1015E000284688470028F5D1681C03D05FEACB70F5
:1015F00005D02AE04FF0FF3007B0BDE8F08F20683B
:10160000011D2160D0F800801FE002A86A46E9B2FF
:1016100001F01CFD411C07D0801C09D04FF00009CF
:101620005FEACB7007D00AE0E169049888473EE0A2
:101630004FF0010904E0BDF8081028F8021B7F1ED6
:10164000A1690498761C88470546002F1ADD681C9E
:1016500018D0BAF1000F0DD0E81705EBD060421199
:1016600020F01F005AF822102A1A0120904001424F
:10167000CBD107E010980028C7D12846216A8847B7
:101680000028C2D0E16904988847B9F1000F0ED153
:10169000109830B9002E04DD5FEACB7001D1A8F8B4
:1016A0000000A068B84202DD109818B117B16FF0C1
:1016B0000100A1E730469FE72DE9FF4F4FF00008FA
:1016C0009B461446454683B0D2E90196CDF800808A
:1016D000CDF804809169DDF848A004988847074652
:1016E0005BEA0A0005D009E0A16904986D1C8847EF
:1016F0000746216A384688470028F5D1781C03D070
:101700005FEAC97005D01BE04FF0FF3007B0BDE8BD
:10171000F08F2068011D2160D0F8008010E05FEAA2
:10172000C97007D16A464046B9B201F0ADFC411C10
:1017300031D08044A1696D1C0498761E8847074605
:10174000002E14DD781C12D0BBF1000007D03B4600
:10175000DDE9101201F0CCFA0028E0D107E0BAF17F
:10176000000FDCD13846216A88470028D7D0E169CC
:1017700004988847BAF1000F06D1002D04DD5FEA16
:10178000C97001D188F80000A068B04203DDBAF149
:10179000000F03D016B16FF00100B7E72846B5E798
:1017A0002DE9FF5F9B46144600273D469169D2E92B
:1017B0000196DDF840A00198884780465BEA0A0060
:1017C00005D009E0A16901986D1C88478046216A0F
:1017D000404688470028F5D1B8F1FF3F03D05FEAC3
:1017E000C97005D014E04FF0FF3004B0BDE8F09FA1
:1017F0002068011D216007680AE05FEAC97001D115
:1018000027F8028BA1696D1C0198761E88478046D7
:10181000002E15DDB8F1FF3F12D0BBF1000007D05C
:101820004346DDE90E1201F063FA0028E5D107E036
:10183000BAF1000FE1D14046216A88470028DCD088
:10184000E16901988847BAF1000F05D1002D03DD49
:101850005FEAC97000D13880A068B04203DDBAF1F8
:10186000000F03D016B16FF00100BEE72846BCE7B9
:1018700010B542485421FEF759FF41485421FEF764
:1018800055FF40485421FEF751FF3F493B483C4A31
:101890003F4B08603D490A603A491960531C036593
:1018A000481C1065012008653B48344A39A178443A
:1018B00001F054FA20B9384878440A3801F02AFC7B
:1018C00037482F4A35A1784401F048FA20B9344806
:1018D00078440A3801F01EFC32482A4A2FA1784485
:1018E00001F03CFA20B92F4878440A3801F012FC84
:1018F00040232248DC000021224601F00CFA20B1EE
:1019000025487844543801F005FC1D482246402300
:10191000002101F000FA20B121487844543801F048
:10192000F9FB184822461023002101F0F4F90028A1
:1019300006D01C487844BDE81040563801F0EABB98
:1019400010BD104870B5006D20F001040B4801F087
:101950007BFA0B4801F078FA0A4801F075FA09E0C1
:10196000206D20F00105204601F06EFA2046FFF7B9
:1019700025F92C46002CF3D170BD000098570020AB
:10198000EC570020405800208001002084010020F6
:10199000880100207200000077DC00007700000062
:1019A00063DC00004FDC00000A460146014801F0FC
:1019B000BEBA0000F458002010B501F093FBBDE85A
:1019C000104001F08ABB01B5FEF7EFFD01BD00003C
:1019D0004FF0013C50F8042B51F8043B9A4221D1BE
:1019E000A2EB0C03934313EACC1317D150F8042B4A
:1019F00051F8043B9A4215D1A2EB0C03934313EA2E
:101A0000CC130BD150F8042B51F8043B9A4209D166
:101A1000A2EB0C03934313EACC13DBD04FF000008E
:101A2000704700BFD01A01BAB1FA81F101F0180174
:101A300022FA01F0CB40C1F12001DBB2C0B2C01AE2
:101A40002CFA01F3D11A914311EAC311E6D1704780
:101A5000AFF3008010B500F00EF8016919B1002253
:101A60000261884701E080688047FEF76DFF000053
:101A700010B5FEF769FF70B500F080F80468054600
:101A8000A4B92020FEF792FE040011D009490020DD
:101A90002C60C4E900010849A160207320616061E5
:101AA0000649A06109B101F055FBE061204670BD17
:101AB000FEF74AFF00000000711A00080000000055
:101AC0000EB5CDE90001FEF751FD029069460120F7
:101AD000ABBE0EBD08B5694600900220ABBE08BD86
:101AE0001FB58DE8070069460520ABBE04B010BDE8
:101AF0001FB58DE80F0069460620ABBEF6E708B5B6
:101B0000694600900920ABBE08BD1CB5CDE90001B7
:101B100069460A20ABBE1CBD704708B569460090F7
:101B20000C20ABBE08BD70477546FEF7E1FFAE4620
:101B300005006946534620F00700854618B020B5D9
:101B4000FEF774FCBDE820404FF000064FF00007A0
:101B50004FF000084FF0000B21F00701AC46ACE855
:101B6000C009ACE8C009ACE8C009ACE8C0098D46C2
:101B70007047000000487047B45800200048704784
:101B8000D0580020034640688C46002818BF884281
:101B90003CBF03464068F8D318681844884207D011
:101BA0000CF1030020F00700001D411A521A0146F3
:101BB000081D0A60FFF702B830B5B0F10A024FEA1B
:101BC000900E71F100034EEA817EB0EB0E0061EBE6
:101BD00091014FEA101E4EEA017E10EB0E0041EB20
:101BE00011114FEA102E4EEA016E10EB0E0041EB80
:101BF00011214FEA104E4EEA014E10EB0E0041EB60
:101C00001141401841F100014FEAD00040EA417013
:101C10004FEAD10110EB80054FEA810444EA907449
:101C200044EB01046D1944EB0404521BA3414FF033
:101C3000000348BF0A3200D530BD401C41F100010D
:101C400030BD2DE9F0470D4699469246044600F115
:101C500024080168880604D5E06921F0100121609C
:101C600000E00120A84201DD471B00E00027A16938
:101C70007A1902EB0900081AA0612078C00602D484
:101C80002046FEF7CBFF002608E0D4E901211AF830
:101C900006009047206A401C761C20624E45F4DB0B
:101CA0002078C0060AD52046FEF7B8FF06E0D4E942
:101CB000012130209047206A401C2062381EA7F185
:101CC0000107F4DC07E0D4E9012118F8050090478A
:101CD000206A401C2062281EA5F10105F3DC204685
:101CE000FEF7B2FF2078000602D50220BDE8F0879B
:101CF0000120FBE770472DE9FF4F0C461E464FF0D1
:101D0000FF378BB0D2E90001DDF860800A908A4687
:101D1000C1F30A5505B93D46002108464FF00000C1
:101D2000BAF1000F00F4400005DA00EB80004FF438
:101D3000400101EA50004FEA9059B9F1010F00DD6E
:101D4000B9460A9850EA4A000ED044F61050A5F25F
:101D5000FF3545432F14B8F1000F1ED07542291EE0
:101D60001EDDC9F100021CE0B8F1010F4FF00000C8
:101D700001D0302103E0F24305E02154401CB04281
:101D8000FBDB30460022002121540B99C1F808806A
:101D9000C1E900200FB0BDE8F08FBD1B6D1CDEE770
:101DA0004A4600DA694206A801F032FA06AB93E827
:101DB000070003AB83E8070050460A9901F04AFF89
:101DC0008DE80700A0F500501F3800900398002D03
:101DD0000ADD42F21F014A460844002303A903908A
:101DE000684602F0F5F909E0A0F500504A461F38B0
:101DF000002303A90390684602F014FA8DE8070057
:101E00000004000C03D04FF0FF30410800E0104602
:101E1000B8F1000F03D00022009215461EE0751E97
:101E200005D4FFF7C9FE303262556D1EF9D5B346B1
:101E30000122084302D000227F1C04E020783028D1
:101E400001D100227F1E002A099784D01DE0112DA8
:101E500007DAFFF7B1FE303262556D1C50EA01021D
:101E6000F5D1084302D00098C8B10EE00021681EE9
:101E700005E0235C625C63542254401E491C81428D
:101E8000F7DBAB46A81B401E0990002004F80B00AE
:101E90000B98099AC0F80880C0E9002B7AE7112650
:101EA0004FF0000857E72DE9F04F88460446D21D51
:101EB00022F0070191B0D1E90001CDE90A0108F053
:101EC000ACFD02460B98C00F01D02D2007E0206822
:101ED000810701D52B2002E0202101EAC000032A5E
:101EE000099001D0072A05DB03464146204601F050
:101EF0004FF90BE12078800601D5E06900E006206B
:101F0000B8F1650F814606D0B8F1660F18D0B8F168
:101F1000670F70D131E00020B9F1110F009001DBA3
:101F2000112301E009F101030AAA01A90CA8FFF796
:101F3000E2FEDDE90C70002609F10105834647E069
:101F400001204B4600904FF000470AAA01A90CA8B7
:101F5000FFF7D1FEDDE90DB00C995D46002610B902
:101F600009F101000D18B9EB050003D4C0F1FF36EB
:101F700009F10105A5EB09002BE0B9F1010F01DA28
:101F80004FF001090020B9F1110F0090484601DD22
:101F9000112300E003460AAA01A90CA8FFF7ABFE33
:101FA000DDE90C704D4600268346207800070AD4F0
:101FB000AB4500DA5D4601A8012D04DD411911F899
:101FC000011C302907D04F4502DA17F1040F04DA5B
:101FD000012082460FE06D1EEEE7002F02DCED1BB4
:101FE0003E4403E0781CA84200DD7D1CB81B00F1D4
:101FF000010A4FF000472078000703D4AA4501DB0F
:102000004FF0FF3A0021B7F1004F0DF143088DF872
:10201000431024D002202B23002F01DA7F422D23EE
:102020000A21021EA0F1010000DC5FB197FBF1FC68
:1020300097FBF1F201FB1C7C17460CF1300C08F801
:1020400001CDEEE7A8F1010003702188090501D553
:10205000452100E06521A0F1010800F8011C099864
:102060000FA9A1EB0807FF1D00B10120411901EBE9
:10207000EA70A1693844081A401EA0612078C006A1
:1020800002D42046FEF7CAFD099828B1D4E90121FF
:102090009047206A401C20622078C00622D5204646
:1020A000FEF7BCFD1EE0002E04DBB34502DD01A8F7
:1020B000805D00E03020D4E901219047206A401C77
:1020C0002062761CAAF101005FEA000A0AD1FFF73C
:1020D00051FDC0680168405CD4E901219047206A45
:1020E000401C2062281EA5F10105DCDC07E0D4E9D4
:1020F000012118F8010B9047206A401C2062381E0D
:10210000A7F10107F3DC2046FEF79EFD032011B086
:1021100041E600002DE9F04F04460D46D21D22F0A5
:10212000070089B0D0E900974846394608F075FCA9
:102130000246F80F01D02D2307E02068810701D562
:102140002B2302E0202101EAC0038DF820300BB1DF
:10215000012000E00020032A824601D0072A04DB88
:102160002946204601F014F83FE12078800601D48A
:102170000D2500E0E569C7F30A560D2D49DA002167
:102180004FEA175B08464FF00000002F00F44000B4
:1021900007DA00EB80004FF4400100EBD07001EA59
:1021A00060008115012901DD4FF0FF3100224FEA67
:1021B000850CBCF1180F06D31346ACF118004FF094
:1021C0008052C24003E04FF4801323FA0CF30CF169
:1021D0000C0CBCF1200F04D3ACF1200C09FA0CF06C
:1021E00001E007FA0CF000294FF0004801DD18B9B2
:1021F0000FE00ED140450CD319EB02095F4121B924
:10220000404502D19F4329EA0209BBEB175F00D08A
:10221000761C2088000502D57B48784402E07A4885
:102220007844193808AA302302F80A30037C0AF1EE
:102230000101002E0AF1020A53546A4602DC4FF0F3
:10224000300101E04FF031014FF001088DF800102E
:1022500002D0A6F2FF3603E059EA470100D06B4EE8
:10226000002D02DC2178090704D54FF002082E2149
:102270008DF80110C44600210BE0C7F303433F0172
:10228000C35C491C6D1E02F80830052908F10108DD
:1022900001DA002DF1DC00210CE000EB1973491C80
:1022A0001B786D1E082902F808304FEA091908F159
:1022B000010801DA002DF0DC21688B0602D516E05A
:1022C000A8F10108E04505DD02EB080313F8013C25
:1022D000302BF5D0B8F1000F09DD02EB080313F83D
:1022E000013C2E2B03D1090701D4A8F10108002DD0
:1022F00005DD3E2102F808106D1E08F10108407C42
:10230000002E02F8080008F1010804DA2D207642B8
:1023100002F8080002E02B2002F808000A214FF41E
:102320007A70864208F101080BDB96FBF0F330333C
:1023300002F8083096FBF0F308F1010800FB136681
:1023400001E0642E0CDB642096FBF0F3303302F8DE
:10235000083096FBF0F308F1010800FB136601E07A
:102360000A2E06DB96FBF1F0303002F8080008F187
:10237000010896FBF1F001FB1060303002F8080014
:10238000A16908F1010808EB050202EB0A00081A2E
:10239000A0612078C00602D42046FEF73FFC216AE7
:1023A00008AE01EB0A00206204E0D4E9012116F82E
:1023B000010B9047BAF1010AF7D22078C00602D586
:1023C0002046FEF72BFC6E4609E016F8010B3E286E
:1023D0000FD0D4E901219047206A401C2062B8F157
:1023E0000108F2D22046FEF72FFC09B00320BDE819
:1023F000F08F206A2844206203E0D4E901213020D4
:1024000090476D1EEBD3F8E72AD3000002FCFFFFD4
:1024100010B5436913B1AFF3008001E0FEF737FC5C
:10242000012010BD127800F124010A7000224A70C8
:102430000122EDE711684FF0FF32E9E710B543697B
:1024400013B1AFF3008001E0FEF7D2FC012010BD14
:10245000128800F1240182840022C2840122EDE767
:1024600011684FF0FF32E9E73A2800D2303820F007
:102470002002412A01D3A2F13700884201D34FF054
:10248000FF3070472DE9F34F4FF0000A0C465646D7
:102490008DB001200C9001F10C000B9062690B983B
:1024A00001219047051E2DD0252D2CD0216A88476B
:1024B000C0B162690B9801219047216A88470028C2
:1024C000F7D16269411E0B98904700E0761CA16924
:1024D0000D988847216A88470028F7D1E1690D984F
:1024E0008847DBE7A1690D988847A842074601D1D4
:1024F000761CD3E7E1690D9888477F1C02D1BAF1B9
:10250000000F6FD06BE162690B9800273D4639469A
:1025100090472A2804D162690B9801219047012530
:10252000DFF8D08262690B9801219047A0F1300159
:102530000A290AD24745E5DC07EB870100EB410792
:10254000303FDFD445F01005ECE7E90601D46FF029
:1025500000476C280AD04C2814D0682815D06A2867
:102560000DD074281CD07A281AD01DE062690B980F
:10257000012190476C2802D045F0040514E045F095
:1025800002050DE045F020050AE062690B98012183
:102590009047682802D045F0080505E045F400653D
:1025A00062690B9801219047C4E9015765283DD025
:1025B00019DC58287AD00CDC452837D004DC2528D3
:1025C00026D041289ED131E046282FD0472899D1E6
:1025D0002CE05B2877D0612828D063287CD0642841
:1025E00023D15AE0F6E06F2848D008DC66281DD0D9
:1025F00067281BD0692821D06E2816D127E07028C3
:1026000045D0732868D0752847D078280DD14DE083
:10261000A1690D988847252805463FF469AFE1690F
:102620000D9888476D1C3FF46AAFD8E00D9923469A
:102630006A466FF001000CF0FBFBC5E045F040007E
:1026400023464FF000026060A80736D43EE0E8075A
:102650007FF447AF2068011D21600068290501D57E
:1026600006701BE7290701D5068017E7A90703D5E0
:10267000F117C0E9006111E706600FE745F040007F
:1026800023464FF008026060A80716D41EE040F60B
:102690000E0125EA0100606016E045F04000234687
:1026A0004FF00A026060A80707D40FE045F0400031
:1026B0006060A80708D5234610220D996FF001002D
:1026C000FEF778FD80E007E0102223460D996FF0B9
:1026D0000100FEF71AFE77E04FF0000963284F462D
:1026E000C8464B46CB4602D05B2806D038E0E80609
:1026F00001D40120A060012732E06269D4F80CB057
:102700000B98012190475E2807D14FF001094946F7
:102710006269D4F80CB00B989047216939B900214F
:102720000A4603AB43F82120491C0829FADBD8B339
:10273000216949B308F1010862690B9801219047AA
:102740005D28F4D1B9F1000F09D0002003A951F898
:102750002020D24341F82020401C0828F7DB03AB9F
:102760002069002820794FEA40701ED05B4622463F
:10277000CDF80080CDE901970D9900286FF0010098
:1027800020DAFFF70DF81FE0C11703AA00EBD161B3
:102790004B1121F01F0102EB8302411A1368012043
:1027A000884003431360C7E719E00D9922460028CB
:1027B0006FF00100009702DAFEF7F4FE04E0FEF786
:1027C0004AFE01E0FEF778FF00280ADA401C06D135
:1027D0000C9820B14FF0FF300FB0BDE8F08F50469D
:1027E000FAE7E90701D10AF1010A064400200C903A
:1027F00054E60000CCCCCC0C2DE9FF4F06468BB044
:102800000878FF2806D0491C2D2805D000244FF059
:10281000000908E000200CE00124F8E709EB890337
:10282000491C00EB43090878FF28F7D114B1C9F11E
:1028300000008146107800252C46AA4629462D28FE
:1028400001D02B2804D1521C2D2813D00020824601
:102850008B461078FF280FD04FF0000C0A21521C35
:10286000A5FB017804FB018105FB0C11C5194BEB9D
:102870000104EEE70120EAE7002108464FF00000DE
:10288000BAF1000F02D000EB80004008C0F381577E
:10289000012F01DD4FF0FF370E9955EA040009EBD7
:1028A00001080BD04FF0020918F5FA7F16DA4FEA4B
:1028B000CA70002F706008DD012007E04FEACA707F
:1028C000C6E900B00FB0BDE8F08F00203060FEF721
:1028D00023F9C0F800901821084616E0B8F5FA7FF1
:1028E00018DD002F02DAF748784401E0F648784412
:1028F000D0E90010C6E9001040EACA707060FEF727
:102900000BF9C0F80090142108460FB0BDE8F04F55
:102910000CF027BA002108464FF00000B8F1000182
:10292000099002DAC7F1000200E03A4601DAC8F184
:10293000000106A800F06CFC06AB93E8070003ABAF
:1029400083E8070044F23E005BEA04010090584629
:1029500004D144F21E012C465D460091210C09046D
:10296000014306D10099240444EA15442D0410398A
:10297000009104F07F41014306D10099240244EA0A
:1029800015642D020839009104F07041014306D10D
:102990000099240144EA15742D01091F009104F0E7
:1029A0004041014306D10099A40044EA9574AD006A
:1029B000891E009104F00041084304D100986D196C
:1029C0006441401E00904FF001033A466846B8F15A
:1029D000000FCDE9014503A902DD01F038FC01E05B
:1029E00001F00BFCBAF1000F04460D4601D084F053
:1029F0000044002108464FF00000099940F2FF779B
:102A0000484010F00C0F07D124F00040284303D0B9
:102A1000C4F30A50B84212D1FEF77EF8C0F8009015
:102A2000C4F30A50B8420AD1A8487844D0E900104B
:102A3000C6E9001004F000410843706042E7C6E9AF
:102A400000543FE72DE9FF4F1F464FF0000A4FF0BB
:102A5000FF38454691B0D7E90146CDF83CA0FFF7D5
:102A600089F8C0680168405C1090B96912986D1CC3
:102A70008847396A814688470028F6D1B9F1FF3F77
:102A80000AD0002E24F4D06411DDB9F12B0F08D048
:102A9000B9F12D0F0BD102E0404615B013E744F415
:102AA0008064B96912986D1C8847761E814660055E
:102AB00004A901D52D2000E02B20002E01F1010BEF
:102AC0000DF130088DF810003FDDB9F1690F08D025
:102AD000B9F1490F05D0B9F16E0F02D0B9F14E0F1F
:102AE0001CD13B4601A8009580E85002DDE9121296
:102AF0006FF002000CF0A0F9C11CCED10EE0B96954
:102B000012986D1C884781461398761E44F4007411
:102B100005600F98401C002E0F9016DDB9F1300FA4
:102B2000EDD0B9F1780F02D0B9F1580F0DD10F984F
:102B300001280AD13B46CDE90054DDE91212001FFD
:102B400002960CF077F9C11CA7D1109989453ED1A6
:102B500044F0800406E01399681CAAF1010A44F4C9
:102B600000740860B9696D1C1298761E8847302879
:102B70008146F0D02BE01099894505D1200603D479
:102B8000761E44F0800418E0484609F0EBFD08B3D7
:102B9000761E0DF123018B4544F4007408D2A9F18F
:102BA00030000BF8010B200607D5AAF1010003E065
:102BB000200602D40AF101008246A00502D513992D
:102BC000681C0860B96912986D1C88478146002E00
:102BD000D1DC53E0002E51DDB9F1650F02D0B9F11F
:102BE000450F4BD1A00549D5B9696D1C1298761EC9
:102BF00024F440748847002E81460CDD2B2804D035
:102C0000B9F12D0F07D144F48074B96912986D1C85
:102C10008847761E8146E00501D52D2100E02B2155
:102C200008F8011BCDF8008021E0761E0DF1390176
:102C3000884544F400740CD2A9F1300010F0FF0074
:102C400088F8000002D10099884509D908F10108E7
:102C500006E0E00501D51E4801E042F20F70824611
:102C6000B96912986D1C8847814613980560002E3B
:102C700004DD484609F076FD0028D6D1F96912989E
:102C80008847FF2053468BF8000088F8000000209A
:102C90000A900B9004AA0CA90AA8FFF7ADFDA005A5
:102CA00002D46FF00100F8E614F0240F12D0E00710
:102CB0001CD13868DDE90A12031D3B600068C0E9D9
:102CC000001213E0D8D00000CAD000008ECF000060
:102CD000F1D8FFFF0AA9684609F0ECFBE00705D12F
:102CE0003868009A011D3960006802602846D4E601
:102CF00010B508E030F8024B9C4204D10AB1002024
:102D000010BD012010BD491EF4D2104610BD007B3D
:102D100000F08000704770B5C468A50713D0650245
:102D200011D4B2F5807F09D0B2F5007F06D0B2F59C
:102D3000806F08D1012300F1240106E05D1E6FF0D1
:102D40007F46B54201D3012070BD0161C36141607E
:102D500024F470611143C160002070BD2DE9F04181
:102D60000C4607461646104600F06EF82078611CA7
:102D700061280AD0722802D077283CD102E00125D0
:102D8000002405E00225042402E0082448F202059C
:102D900011F8010B2B2806D0622809D011F8010C7C
:102DA00074280AD00BE045F0030544F00204EFE775
:102DB00045F0040544F00104EAE744F01004384605
:102DC0002146FEF77DFE411C15D000213161716066
:102DD0004FF40071F560F1617061200704D5304651
:102DE0000222002100F072FB306D40F001003065DE
:102DF0003046BDE8F0810020FBE72DE9F0410D46AB
:102E00000646104C206DC10704D0410804D020F0C4
:102E10000104F7E722460EE05420FDF7C7FC070047
:102E20000ED0206D47F0010108435421206538463B
:102E3000FDF77CFC3A4629463046BDE8F0418DE777
:102E40000020D6E7985700202DE9F04704464FF0C0
:102E500000094FF0FF37C568D4E90486A80707D0FA
:102E6000204600F0E3FB3046FEF734FE002802DA8D
:102E70003846BDE8F087280502D54046FDF79EFE9E
:102E80004C212046FDF752FC206D20F0010020650A
:102E90004846EEE770B50646484231EA00000FD0DA
:102EA0002A20741C00253070FEF764FE03460022C1
:102EB00053F82500010F000109292BD957312AE0C9
:102EC000042913D004DC012908D0022904D109E027
:102ED00008290FD0102911D0002070BDFEF74AFE3E
:102EE00000680EE0FEF746FE40680AE0FEF742FE8C
:102EF000806806E0FEF73EFEC06802E0FEF73AFE9C
:102F0000006928B120F0030050F8041C084470BD8B
:102F10004CA070BD3031521C082A04F8011BC9D3E3
:102F20006D1C052DC3DB00202070304670BD09B13B
:102F30004B0901D00020704722B113782A2B02D010
:102F400000F034B8A6E7AFF300802DE9F0410F465A
:102F50008046541C00250026314614F8010BA0F1D0
:102F60003002092A03D9A0F16103052B16D83928AC
:102F700001D8104600E05738491C082940EA0616D7
:102F8000EBD30120A840384203D0FEF7F3FD40F810
:102F900025606D1C052DDEDB207810B10020BDE81A
:102FA000F08139464046BDE8F04173E72DE9F04134
:102FB0000C460646154688070AD51146224878442D
:102FC0000AF034FC071EEAD0FEF7D4FD7F1C4760F0
:102FD000E0070AD029461C4878441A38AFF300802D
:102FE000071EDCD0FEF7C6FD076060070AD529463C
:102FF000154878443438AFF30080071ECFD0FEF771
:10300000B9FD876020070AD529460F4878444E3815
:103010000AF0F6FB071EC2D0FEF7ACFDC760E00663
:103020000AD52946084878446838AFF30080051E61
:10303000B5D0FEF79FFD056121463046BDE8F04161
:1030400028E7ACE74300000042CB000070B516460D
:103050000C460546FDF750FD036893F80101012871
:1030600004D0185D68B101202C8070BDD3F8030135
:103070003246214603F2031303442846BDE870405C
:1030800018474FF0FF3070BD70B516460C46054628
:10309000FDF732FD036893F80101012806D0FF2CEB
:1030A0000FD8185D68B101202C7070BDD3F80701EE
:1030B0003246214603F2071303442846BDE8704018
:1030C00018474FF0FF3070BD10B50446AFF30080D5
:1030D0002046BDE81040FDF735B9002801D0FDF7C6
:1030E00001BD704710B5002102A000F0E3FA0120F5
:1030F00010BD0000534947414252543A2041626E8C
:103100006F726D616C207465726D696E6174696F48
:103110006E00000010B500F0E7FABDE81040FFF7C0
:10312000DCBF10B500F0FAFABDE81040FFF7D5BFDC
:1031300000DE2DE9F04117460E46054633B107FB88
:103140000354E41B2046B047A542FAD1A5F108007C
:10315000BDE8F08110B58820FDF728FB002801D0DC
:103160000021017010BD802902D808B1017809B191
:1031700000207047012100F8081B704718B100F1CA
:103180000802914201D00020704700210170704771
:103190002DE9F0411F46044603260168072A01F481
:1031A000006004DB08B116A505E016A503E008B130
:1031B00015A500E015A521F010002060A069C01E33
:1031C000A0610FB1401EA0612046FDF727FD4FB161
:1031D000D4E9012138469047206A401C2062C01C77
:1031E000206206E0206AFAE7D4E9012115F8010B14
:1031F0009047761EF8D22046FDF726FDBDE8F08107
:103200004E414E006E616E00494E4600696E66008A
:103210002DE9F047814616468AB0354878440DC8F6
:103220008DE80D0032487844801C03AC0DC884E85A
:103230000D0041F69B300844372190FBF1F290FBE2
:10324000F1F5A5F1800501FB12041B3C02D5644297
:10325000012000E00020DFF898A080460027FA4413
:10326000AAF1BE0A0EE0E0070AD03246684607EB34
:10327000470101230AEB810100F0D4FF8DE807002C
:1032800064107F1C002CEED1194F7F44AE3F19E033
:10329000E80715D007EB04100DF1180A90E80E00AE
:1032A0008AE80E00C068F04201D1981908903246B1
:1032B000012306A903A800F0B5FF03AB83E80700CC
:1032C0006D10641C002DE3D14FF0010332466946B6
:1032D000B8F1000F03A802D000F07AFF01E000F07F
:1032E000A1FFC9E90001C9F808200AB0BDE8F087CC
:1032F000B8C300002DE9F04705460C46C86820F425
:10330000201040F48000C860800602D5084600F016
:10331000B0F9E06841F282014FF0FF390140022923
:1033200003D0204600F04EF9B5E000F42041B1F59D
:10333000004F0FD1C00306D56168E06A884200D80B
:103340000846606006E02069E06260606069FEF740
:10335000E4FBA061A0680022EEB200280DDAE1686B
:103360008B050AD4C043A06041F490302260E06035
:103370006068411C61600670A5E0E06890462260CC
:1033800040F40050E060206968BB6069FEF7B7FB5D
:10339000012704F12405A0B1A08910F4407F08D0D2
:1033A000E069FDF703FA206118B1E06840F40060BD
:1033B00016E0E7612561E06820F4407040F4806029
:1033C0000EE0E069FDF7F2F900282061F1D0E06835
:1033D00040F4006010F4407FE06002D140F480705F
:1033E000E06020696060E06825696FF0010AC1054E
:1033F0001FD56168E06A884200D80846411B04D0A6
:103400002246284600F0E8F8F0BBE068010203D548
:10341000E562C4E9015854E0691CE1626160E16958
:1034200040F48030491EC4E9021030462E70BDE8D9
:10343000F087010202D500F480320AE06068411C86
:1034400061600670E0680A2E40F48030E06006D0CB
:103450000022E16A6068814203D90B4602E0012242
:10346000F7E70346A7895B1B7F0503D4E7699F4203
:1034700000DDE2B1814200D80146E5620F1AC4E9DD
:103480000158002B09DD00E005E0224619462846D8
:1034900000F0A2F808B14846C9E747B1A069E56263
:1034A0006560C01BA061E06840F01000E060E0686B
:1034B000000208D56168A069E562491B084465609F
:1034C000A0615046B3E73046B1E700002DE9F04176
:1034D000044616460D464769007B80072ED03846C5
:1034E000FEF70DFB50BB3EB3012E02D0022E25D1BC
:1034F00004E0204600F06CFB05441DE03846FEF772
:103500000CFBE168002841F01001E16005DA20467B
:1035100000F058F80120BDE8F081C9030BD56268BE
:10352000E16A914200D81146A26911442269891AC0
:10353000814200DD08460544002D01DA0220EAE759
:10354000E16A6068E268814206D29103E06203D5D5
:1035500022F4003141F01002A6690027AE4213DCCC
:10356000E16A814201D90B4600E0034603EB060CF9
:103570002369ACEB030CAC4506DD814201D98C46D6
:1035800000E084469C4505D1A760276042F02000FA
:10359000A5620DE0AD1BE669AE1B8142A66000D9B5
:1035A0000846C01A281A20605819606022F02000CE
:1035B00003490840E060002084F84870ABE7000051
:1035C000BFCFD7FFC16821F4001141F08001C16075
:1035D00000218160016070472DE9F0478146144663
:1035E0000E464FF0FF383248D5685769054209D07A
:1035F0003846A169FEF789FA002811DB2C48C04340
:103600000540E5602B46324649463846FEF768FAE3
:10361000A16920F00042B21A11440028A16103D030
:103620002046FFF7CFFF4046BDE8F08770B504465F
:103630000569C06A6168884200D80846E16821F4DB
:103640002011E160C90312D5A84208D02246411BCF
:103650002846FFF7C1FF10B14FF0FF3070BD0020CA
:10366000E562C4E90150E06820F48030E0600020A9
:1036700070BD10B50446C06820F02000E060A16A6B
:10368000A06988420DD02046FFF7D0FFE06820F403
:10369000405040F01000E060A06AA0612069E06244
:1036A000606044F24001E0688843E06010BD0000C3
:1036B0001000020070B505460C460A2000E06D1CA3
:1036C00000F054F835B128780028F8D102E0641CE5
:1036D00000F04CF814B120780028F8D1BDE8704013
:1036E0000A2000F043B8000010B5014602A0FFF721
:1036F000E1FF012010BD0000534947525452454498
:103700003A2052656469726563743A2063616E277A
:1037100074206F70656E3A200000000010B501281B
:1037200005D0002103A0FFF7C5FF012010BD09A1AE
:10373000F8E7000053494752544D454D3A204F7524
:1037400074206F662068656170206D656D6F727999
:10375000000000003A2048656170206D656D6F7251
:103760007920636F727275707465640008B569467C
:103770008DF800000320ABBE08BD00002DE9FF4F0F
:103780001F464FF03C0987B04FF00042DDE91410AE
:1037900001F10108DDF858A002EA40500390002032
:1037A00005908346054604460490B969461E08986C
:1037B0008847AAF1010A0290BAF1000F3BDD029896
:1037C0002E2815D01021FEF74FFE00282EDB4FF0DB
:1037D000010B0599014317D0B9F1000F0BDB4A46E5
:1037E000C11700F024FA05430C43A9F1040905E0D0
:1037F000012004900BE008B145F00105012005907F
:10380000049820B9361D02E0049800B1361FB9694A
:10381000089808F101088847BBF1000FAAF1010AD6
:103820000290C9D00999C1F80080C5E702987028B4
:1038300008D0502806D0F96908988847BBF1000FD6
:1038400014D04FE0002002900120BBF1000F049043
:1038500009D0B969089808F101088847AAF1010957
:10386000B9F1000F07DCF969089888476FF001008B
:103870000BB0BDE8F08F2B2804D02D280CD14FF0D1
:10388000FF300490B969089808F101088847A9F148
:103890000109B9F1000FE6DD411CE4D00A21FEF771
:1038A000E3FD0028DFDB029908F1010801EB81014B
:1038B00000EB41000290B969089888470A21FEF799
:1038C000D3FD099AA9F10109B9F1000FC2F80080EE
:1038D00001DD0028E7DAF969089888470499029819
:1038E00000FB016655EA040004D004F040410900E1
:1038F00002D006E0039898E0A40044EA9574AD0075
:10390000B61E04F00041080002D16D196441761E14
:10391000159810F0240F03D04FF00B095C4803E01A
:103920004FF028096FF07D008246564507DAAAEB72
:1039300006018944B9F1410F01DD4FF04109012031
:103940000021A9F1010200F072F9024628400B465D
:103950002140084301D0012100E00021501E0291C6
:1039600043F1FF3128402140084301D0012000E00D
:1039700000200299834651EA0B014FD000210846EE
:103980004FF00000039900F4400039B100EB8000D3
:103990004FF4400100EBD07001EA6000801501286F
:1039A00002DD4FF0FF3000E013D0401C36D002980B
:1039B00060B3BBF1000F0CD14A460120002100F09A
:1039C00036F928402140084301D0012000E00020C2
:1039D000E0B101204A46002100F029F903464019D0
:1039E0000A4661412D1A8C4111D3B9F1400F09DD0E
:1039F000159810F0240F02D0AAF1340603E0AAF1C2
:103A0000170600E0761C00254FF0004406E05B1E20
:103A100042F1FF3220EA030521EA0204CAF1010063
:103A2000B04206DA1B490398084301900020009039
:103A30000EE0039AC4F3D321E80A0A43164940EA88
:103A400044500A433146CDE90002684608F080FE42
:103A5000159810F0240F0BD01598C00715D13868B1
:103A6000DDE90012031D3B600068C0E900120CE0B4
:103A700002A8694608F01EFD1598C00705D13868F0
:103A8000029A011D3960006802604046F0E60000BD
:103A900002FCFFFF0000F07F0000F03F2DE9FF4F28
:103AA00092461D4685B04FF00041DDE9124BDDE93D
:103AB00014727F1E01EA4B50414940F0FF4940EA31
:103AC0000108002122F020004928049102D04E284C
:103AD00028D04CE03BA0012607C88DE80700A96963
:103AE0000698641C88477F1E014606D41DF8060010
:103AF00018B121F0200181420BD0E969069888476E
:103B0000032E34D0082E32D06FF0010009B0BDE88A
:103B1000F08F761C032E01D0082EE0D1601CCAF86D
:103B20000000DCE7A9690698641C88477F1E2AD438
:103B300020F02000412826D1A9690698641C8847F6
:103B40007F1E20D420F020004E281CD1A9690698A1
:103B5000641C88477F1E48F4002849F48009CAF88D
:103B6000004001D4282806D0E969069888475FEA12
:103B7000CB7012D022E0A9690698641C88477F1E8A
:103B800001D4002803DAE96906988847BCE72928A8
:103B9000F1D1641CCAF80040E9E71BF0240F07D0FC
:103BA00028680499031D2B600068C0E9001805E02F
:103BB0002868021D2A600068C0F800902046A5E72A
:103BC0000000F07F494E46494E495459000000001C
:103BD00010B50146C268900703D0900607D5886AE1
:103BE0000AE0FCF799FF01210160881E10BD8B6976
:103BF000486818440B69C01A91F848301BB191F815
:103C00004910401A10BD1103FCD50028FADD401EF2
:103C100010BD2DE9F04116461F460C46851B02E0FB
:103C20002846B847AD1B641EFAD2BDE8F081B2F158
:103C300020030AD5C2F1200301FA02F120FA03F3AE
:103C400000FA02F041EA0301704700FA03F14FF075
:103C5000000070475FEA400C08BF91F0000F4FEA88
:103C60008C234FEAC12243EA51514FEA1C5018BF3E
:103C700000F5F0404FEA300018BF41F000415FEA24
:103C80006C5C00F02980BCF1FF3F08BF40F0804031
:103C90007047130C06BF12044FF0100C4FF0000CCD
:103CA000130E04BF12020CF1080C130F04BF120113
:103CB0000CF1040C930F04BF92000CF1020CD30F13
:103CC00004BF52000CF1010C11464FF00002A0F1AC
:103CD0001F00A0EB0C00704711F0004F08BF7047A9
:103CE00031F000413FF4D5AF0B0C06BF09044FF093
:103CF000100C4FF0000C0B0E04BF09020CF1080C65
:103D00000B0F04BF09010CF1040C8B0F04BF8900D9
:103D10000CF1020CCB0F04BF49000CF1010CCCF1EB
:103D20002003A0EB0C0022FA03F302FA0CF241EAA2
:103D3000030100F10100704720F07F4C80EA03008E
:103D400023F07F47ACEB070303F57C5300F0004002
:103D500003F1FF032DE980494FEA154B09B44FEAFF
:103D6000144325EA0B4E24EA03480FF2042606EB1F
:103D7000132749083E785FEA320203FB0667C7F55E
:103D8000000707FB06F64FEA54374FEAD64606F11E
:103D9000020607FB066CCCF1005C4FEA1C472CEADC
:103DA000074C07FB06F40CFB06F504EB15464FEA3F
:103DB000961634BF00204FF000404FEAD13706FB83
:103DC00007FC4FEA1C4C0CFB0BF7D21B03FB0CF758
:103DD00061EB07010CFB0EF7B0EB074072EB1742EB
:103DE0000CFB08F734BFA2EB0742B2EB074261EBD2
:103DF00017414FEA0C444FEA910706FB07FC4FEAD4
:103E00001C4C0CFB0BF7B0EBC74072EB573203FBBB
:103E10000CF734BFA2EBC742B2EBC74261EB57319C
:103E20000CFB0EF7B0EBC70072EB57720CFB08F7F8
:103E300034BFA2EBC702B2EBC70261EB5771039F1D
:103E40004FEA816141EA921104EBCC044FEAD13789
:103E50004FEA826206FB07FC42EA90124FEA80605A
:103E60004FEA1C4C0CFB0BF7D21B03FB0CF761EB6E
:103E700007010CFB0EF7B0EB074072EB17420CFB8F
:103E800008F734BFA2EB0742B2EB074261EB1741E0
:103E90004FEA8C554FEA910704EB9C2406FB07FC84
:103EA0004FEA1C4C0CFB0BF7B0EBC74072EB5732E0
:103EB00003FB0CF734BFA2EBC742B2EBC74261EB86
:103EC00057310CFB0EF7B0EBC70072EB57720CFBCF
:103ED00008F734BFA2EBC702B2EBC70261EB577120
:103EE00015EB4C254FEA816141EA92114FEA82625B
:103EF0004FEAD13742EA901206FB07FC44F1000476
:103F00004FEA80604FEA1C4C0CFB0BF7D21B03FB03
:103F10000CF761EB07010CFB0EF7B0EB074072EBFF
:103F200017420CFB08F734BFA2EB0742B2EB074283
:103F300061EB174115EB1C154FEA813141EA9241C3
:103F40004FEA823242EA90424FEA80304FEA0C76E2
:103F500044F1000448EA03434EEA0B484FF0000ED8
:103F6000B2EB080C71EB030724BF624639464EEBF7
:103F70000E0E4FF0000B0018524149414BEB0B0B5A
:103F8000B2EB080C71EB03077BF1000B24BF624618
:103F900039464EEB0E0E4FF0000B001852414941CE
:103FA0004BEB0B0BB2EB080C71EB03077BF1000B37
:103FB00024BF624639464EEB0E0E51EA020718BF87
:103FC00046F0010616EB0E7655F1000254F10001A1
:103FD00003D5BDE88901BDE80088BDE88901BDE8D9
:103FE0000048B619524141EB0101A3F101037047AA
:103FF00080807F7E7D7C7B7A797877767675747326
:10400000727171706F6E6E6D6C6C6B6A6A696868E4
:10401000676666656464636362616160605F5F5E7A
:104020005E5D5D5C5C5B5B5A5A59595858575756F0
:104030005655555554545353525252515150505055
:104040004F4F4F4E4E4D4D4D4C4C4C4B4B4B4A4AA7
:104050004A494949484848474747474646464545EB
:104060004544444444434343434242424241414124
:1040700046EA0646A3F570534FEA164646EA42560C
:104080004FEAD22242EA415210B54FEAD121A3F1C0
:10409000010300F02FF820F0004000F1020C00F0C6
:1040A000004701EB00501146BCF5006F40EA0700E5
:1040B00000D210BDBAF1000F0AD01CB503B44FF006
:1040C00004004FF004014FF000000FBCBDE81040A9
:1040D0004FF00001BBF1010FB9BF04484FF0FF31B1
:1040E0000348002140EA070010BD00BFFFFFEF7F3B
:1040F0000000F07F002B9C4630D477002BD01CB5FD
:104100004FEA370703B44FF010004FF01001BAF137
:10411000000F06D0BCF1000FDCBF40F0080040F0FB
:1041200008014FF000000FBCBDE810400BF1010B7F
:10413000BBF1010F08BF5FEA170722BF12F10102AE
:1041400011F101014FF0004143F1000300F0004084
:1041500043EA00007047F9D35708D0E746EA06461D
:1041600013F1400F4FEA16461FDD13F1200FDFBF9A
:1041700016430A46002120335B42BED0C3F120071C
:1041800046EA064602FA07F74FEA164646EA0706E7
:10419000C3F1200722FA03F201FA07F721FA03F12B
:1041A0004FF0000342EA0702A7E746EA020646EAA2
:1041B00006464FEA164646EA0106BCBF46EA0646F0
:1041C000360C4FF000034FF000024FF0000194E76F
:1041D0002DE9804C9A46934670B491E8380007C8A0
:1041E00031EA400C48BF34EA430C03D5FFF7A4FD85
:1041F000FFF780FFF0BCBDE8008C2DE9804C9A46AB
:10420000934670B491E8380007C831EA400C48BFC3
:1042100034EA430C03D5FFF78FFDFFF729FFF0BC0D
:10422000BDE8008C2DE9804C9A46934670B491E825
:10423000380007C810F0804F08BF13F0804F03D13B
:1042400000F01AF8FFF756FFF0BCBDE8008C2DE92E
:10425000804C9A46934670B491E8380007C810F035
:10426000804F08BF13F0804F03D100F005F8FFF72F
:10427000FFFEF0BCBDE8008C20F07F4780EA030021
:1042800023F07F4C07EB0C03A3F57C5300F00040B8
:10429000A3F1FE0392F0000F00F0B38095F0000F41
:1042A00000F077802DE901494FEA11404FEA1446AA
:1042B00021EA004800FB06FC24EA064708FB06F654
:1042C00007FB08F800FB07F718EB06484CEB164C09
:1042D0004FEA124B18EB07484FEA15464CEB1740D4
:1042E00022EA0B4E0BFB06FC25EA06470EFB06F600
:1042F00007FB0EFE0BFB07F71EEB064E4CEB164CB6
:104300004FF000061EEB074E4CEB174B18EB0B085B
:1043100040F1000018EB0E0B58EB000840F10000D4
:104320008F1A4FF000013CBFC943661B14BFB5EBA9
:10433000040C00213CBFC943F61B4FEA17444EEA68
:104340008E0E27EA04454FEA1C4704FB07622CEA5D
:10435000074C05FB07F70CFB05F604FB0CFC16EB02
:10436000074642EB174216EB0C4642EB1C421BEB96
:10437000060658EB0202414146EA9E0601D5BDE819
:104380000189B619524141EB0101A3F10103BDE8D6
:1043900001894FEA14454FEA114724EA054621EA0C
:1043A000074C05FB07F406FB07F70CFB06F105FBC2
:1043B0000CFC11EB074144EB17444FEA124711EB99
:1043C0000C4144EB1C4422EA074C05FB07F206FBB8
:1043D00007F70CFB06F605FB0CFC16EB074642EB59
:1043E000174216EB0C4642EB1C456A1854F10001CB
:1043F00048BF7047B619524141EB0101A3F10103D7
:10440000704795F0000F37D04FEA11424FEA14473A
:1044100021EA024624EA074C02FB07F106FB07F7F4
:104420000CFB06F402FB0CFC14EB074441EB1741B8
:104430004FEA154714EB0C4441EB1C4125EA074CAD
:1044400002FB07F506FB07F70CFB06F602FB0CFC6C
:1044500016EB074645EB174516EB0C4645EB1C42A1
:10446000121951F1000148BF7047B619524141EB92
:104470000101A3F1010370474FEA14454FEA1147C8
:1044800024EA054621EA074C05FB07F106FB07F77E
:104490000CFB06F24FF0000605FB0CFC12EB07428A
:1044A00041EB174112EB0C4251EB1C4148BF7047E6
:1044B000921841EB0101A3F10103704738B504469E
:1044C0006846AFF300800146204609F007FE38BD7C
:1044D00000BFFEE710B5024800F026FA10BD00004C
:1044E0000C02002010B5024800F01EFA10BD0000BA
:1044F0000C02002010B5024800F0F8FC10BD0000CE
:104500008C04002070477047F0B504460D461E46E7
:1045100094F8207020688368A86800B900E000BFA4
:10452000012F01D0022F7CD103F0806030B903F05D
:10453000006018B903F08050002873D0C3F3016104
:10454000022905D9606A40F4000060620120F0BDD4
:10455000012088403060A86860B9B5F800C0E868FC
:1045600040EA4C5C206800F5C07000EB0110C0F818
:1045700000C00FE0D5E901C040EACC00D5F80CC07E
:1045800040EA0C00D4F800C00CF5C07C0CEB011C18
:10459000CCF80000D5F810C0206800F5C07000EB22
:1045A0000110C0F804C0287D01280ED1206800F554
:1045B000C07000EB0110406840F4807C206800F57A
:1045C000C07000EB0110C0F804C0D079000692F86A
:1045D00006C040EA0C4092F805C040EA0C2C107965
:1045E0004CEA000C206800F5C07000EB0110C0F828
:1045F0000CC0D078000692F802C040EA0C4092F855
:1046000001C040EA0C2092F800C040EA0C00D4F847
:1046100000C00CF5C07C0CEB011CCCF80800206835
:1046200001E016E00FE000F5C07000EB011000683B
:1046300040F0010C206800F5C07000EB0110C0F8DC
:1046400000C0002083E7606A40F40010606201202F
:104650007DE7606A40F480206062012077E7000017
:10466000F0B504460A46216894F82050012D01D087
:10467000022D7ED1424901F50071086840F0010029
:104680000860086820F47C5008600868566A40EAB0
:1046900006200860107D00F01F06012000FA06F3D6
:1046A000C8699843C861A1F50071D069C8B9D1F84B
:1046B0000C029843C1F80C02908880B2968940EAB7
:1046C000064601F51070576940F83760108880B2CF
:1046D000168940EA064601F51070576900EBC700DD
:1046E0004660D069012819D1D1F80C021843C1F8ED
:1046F0000C02908880B2168840EA064601F51070D8
:10470000576940F83760908980B2168940EA0646BA
:1047100001F51070576900EBC7004660906928B931
:10472000D1F804029843C1F8040204E0D1F804026D
:104730001843C1F80402106928B9D1F8140298434B
:10474000C1F8140204E0D1F814021843C1F81402AD
:10475000106A012804D1D1F81C021843C1F81C02C8
:10476000D1F8000220F00100C1F800020020F0BDE5
:10477000FFE7606A40F4802060620120F7E70000F4
:1047800000640040704710B50246002092F82030C7
:10479000012B01D0022B09D121B91468E46804F07F
:1047A000030003E01468246904F0030010BD70B531
:1047B000044694F82050012D01D0022D7DD151B92D
:1047C0002068C06800F0030080B9606A40F40010FF
:1047D0006062012070BD2068006900F0030028B904
:1047E000606A40F4001060620120F3E7206800F581
:1047F000D87000EB0110006800F004009060906831
:1048000040B9206800F5D87000EB01100068400D39
:10481000106007E0206800F5D87000EB0110006818
:10482000C0085060206800F5D87000EB01100068E7
:1048300000F00200D060206800F5D87000EB011095
:10484000406800F00F001061206800F5D87000EBA0
:104850000110406800F47F40000A9061206800F574
:10486000D87000EB01104068000C5061206800F522
:10487000D87000EB011080681870206800F5D870BF
:1048800000EB0110806800F47F40000A5870206837
:1048900000F5D87000EB0110806800F47F00000C78
:1048A0009870206800F5D87000EB01108068000E49
:1048B000D870206800F5D87000E02FE000EB011000
:1048C000C0681871206800F5D87000EB0110C0684E
:1048D00000F47F40000A5871206800F5D87000EBA2
:1048E0000110C06800F47F00000C9871206800F58A
:1048F000D87000EB0110C068000ED87131B9206883
:10490000C06840F020002668F06005E0206800697B
:1049100040F020002668306100205BE7606A40F4C8
:1049200080206062012055E72DE9F05F04460025F4
:10493000206846692068D0F804902068876820685D
:10494000D0F80CA02068D0F810B02068D0F81880FB
:1049500006F00100002855D007F00100C0B1012089
:104960002168886007F0020018B1204600F0A3FA21
:104970000EE007F0040010B145F4006508E007F010
:10498000080010B145F4805502E0204600F092FA8C
:1049900007F48070C8B14FF480702168886007F414
:1049A000007018B1204600F088FA0EE007F480602D
:1049B00010B145F4005508E007F4006010B145F46B
:1049C000804502E0204600F077FA07F48030C8B155
:1049D0004FF480302168886007F4003018B1204619
:1049E00000F06DFA0EE007F4802010B145F40045A8
:1049F00008E007F4002010B145F4803502E02046BD
:104A000000F05CFA06F0080038B10AF0100020B19E
:104A100045F4007510202168C86006F0040040B11C
:104A20000AF0080028B108202168C860204600F07C
:104A30000DFA06F0020038B12068C06800F00300EB
:104A400010B1204600F003FA06F0400038B10BF038
:104A5000100020B145F4806510202168086106F03F
:104A6000200040B10BF0080028B10820216808613F
:104A7000204600F0EDF906F0100038B1206800691A
:104A800000F0030010B1204600F0E3F906F4003016
:104A900040B109F0100028B110202168486020467C
:104AA00000F0D8F906F4803040B109F0080028B1D0
:104AB000082021684860204600F002FA06F4004011
:104AC00088B309F0040078B306F4807020B108F0D0
:104AD000010008B145F0010506F4007020B108F0AE
:104AE000020008B145F0020506F4806020B108F02C
:104AF000040008B145F0040506F40060A0B108F018
:104B0000700088B108F07000402817D006DC10282B
:104B10000BD020280CD0302819D10CE0502810D010
:104B2000602814D110E01DE019E045F008050FE001
:104B300045F010050CE045F0200509E045F0400582
:104B400006E045F0800503E045F4807500E000BF15
:104B500000BF2068806920F070002168886104200F
:104B6000216848602DB1606A284360622046FFF7E3
:104B700009FEBDE8F09F70B504460CB9012070BD78
:104B800094F8200010B9204600F0B0F820680068C2
:104B900020F002002168086000F0A4FC05460DE04A
:104BA00000F0A0FC401B0A2808D9606A40F40030DD
:104BB0006062052084F820000120E0E7206840685A
:104BC00000F002000028EBD12068006840F00100EE
:104BD0002168086000F086FC05460DE000F082FCCC
:104BE000401B0A2808D9606A40F400306062052042
:104BF00084F820000120C2E72068406800F001002E
:104C00000028EBD0207E012806D12068006840F003
:104C100080002168086005E02068006820F08000BE
:104C200021680860607E012806D12068006840F095
:104C300040002168086005E02068006820F040001E
:104C400021680860A07E012806D12068006840F035
:104C500020002168086005E02068006820F020003E
:104C600021680860E07E012806D12068006820F0F5
:104C700010002168086005E02068006840F010001E
:104C800021680860207F012806D12068006840F074
:104C900008002168086005E02068006820F008002E
:104CA00021680860607F012806D12068006840F014
:104CB00004002168086005E02068006820F0040016
:104CC00021680860D4E90201084321690843616949
:104CD00008436168491E08432168C861002060627A
:104CE000012084F82000002049E7000010B586B0BC
:104CF0000446142101A8FBF719FD4E49206888429B
:104D000049D14D480068401C4B490860084600687E
:104D100001280FD100BF002000904848006840F0F3
:104D20000070464908600846006800F00070009076
:104D300000BF00BF00BF002000904048103800684E
:104D400040F008003D49103908600846006800F04E
:104D50000800009000BF00BF0320019002200290D5
:104D600000200390032004900920059001A93448F5
:104D700000F09AFA00220521132000F063FC1320B2
:104D800000F050FC00220521142000F05BFC1420F0
:104D900000F048FC4CE02B492068884248D100BF15
:104DA000002000902548006840F08060234908609A
:104DB0000846006800F08060009000BF00BF1E48F9
:104DC0000068401C1C4908600846006801280FD193
:104DD00000BF002000901948006840F0007017499B
:104DE00008600846006800F00070009000BF00BF37
:104DF00000BF0020009011481038006840F0020009
:104E00000E49103908600846006800F00200009062
:104E100000BF00BF6020019002200290002003909C
:104E2000032004900920059001A9074800F03CFAEE
:104E300006B010BD00640040280000204038024049
:104E4000000C0240006800400004024070477047B8
:104E500070477047704770B5044694F820000128E9
:104E600022D1022084F820002068006820F0010090
:104E70002168086000F036FB05460DE000F032FBCB
:104E8000401B0A2808D9606A40F40030606205209F
:104E900084F82000012070BD2068406800F0010007
:104EA0000028EBD16062F6E7606A40F4002060629F
:104EB0000120F0E7704770477047704770477047B0
:104EC0007047014691F83500022803D080204865DC
:104ED00001207047052081F835000868006820F03F
:104EE00001000A6810600020F3E70000F8B50446EE
:104EF000002000908C4800684FF41651B0FBF1F789
:104F0000A56D2E6894F85C1008208840304098B158
:104F10002068006800F0040070B12068006820F08C
:104F200004002168086094F85C1008208840A8609C
:104F3000606D40F00100606594F85C1001208840CD
:104F4000304068B12068406900F0800040B194F8BA
:104F50005C1001208840A860606D40F00200606530
:104F600094F85C1004208840304068B120680068E4
:104F700000F0020040B194F85C1004208840A86062
:104F8000606D40F00400606594F85C10102088406B
:104F9000304078B32068006800F0080050B394F8FF
:104FA0005C1010208840A8602068006800F4802011
:104FB00080B12068006800F4002028B9206CC8B1D6
:104FC0002046216C884715E0A06C98B12046A16C62
:104FD00088470FE02068006800F4807028B92068D6
:104FE000006820F0080021680860206C10B120469D
:104FF000216C884794F85C102020884030400028BD
:1050000065D02068006800F0100000285FD094F898
:105010005C1020208840A86094F83500052828D12D
:105020002068006820F01600216808602068406948
:1050300020F0800021684861206C08B9A06C28B17C
:105040002068006820F008002168086094F85C106F
:105050003F208840A86000BF002084F8340000BFD3
:10506000012084F83500206D10B12046216D88475D
:10507000F8BD2068006800F4802080B120680068D6
:1050800000F4002028B9606C10B12046616C88479C
:105090001DE0E06BD8B12046E16B884717E020683F
:1050A000006800F4807068B92068006820F0100083
:1050B0002168086000BF002084F8340000BF012090
:1050C00084F83500E06B10B12046E16B8847606DD5
:1050D00038B3606D00F00100F0B1052084F83500B0
:1050E0002068006820F001002168086000BF009877
:1050F000401C0090B84200D905E02068006800F02C
:1051000001000028F3D100BF00BF002084F8340064
:1051100000BF012084F83500E06C10B12046E16C3E
:10512000884700BFA4E70000380000202DE9F041C7
:105130000446002500F0D6F9074614B90120BDE861
:10514000F081606A00B100BF00BF002084F8340025
:1051500000BF022084F835002068006820F00100BC
:10516000216808600AE000F0BDF9C01B052805D9D8
:1051700020206065032084F83500E0E7206800689F
:1051800000F001000028EED12068056821480540A4
:10519000D4E901010843E1680843216908436169D2
:1051A0000843A1690843E1690843216A08430543AC
:1051B000606A042803D1D4E90B0108430543206841
:1051C00005602068456925F00705606A0543606A47
:1051D00004280DD1A06A0543E06A48B1204603F0D7
:1051E000E3F828B140206065012084F83500A6E787
:1051F00020684561204603F02DF9064694F85C10BE
:105200003F208840B06000206065012084F83500B0
:10521000002094E73F8010F02DE9F04104460D4650
:1052200016461F464FF0000800BF94F834000128CE
:1052300002D10220BDE8F081012084F8340000BFD3
:1052400094F83500012811D1022084F8350000209F
:1052500060653B4632462946204603F08FF82068B9
:10526000006840F001002168086006E000BF0020EF
:1052700084F8340000BF4FF002084046DAE700002F
:1052800070B5044600F02EF906462546681C10B19C
:1052900004480078054400BF00F024F9801BA842B0
:1052A000FAD370BD34000020F8B502460B46002545
:1052B000002400200021E6E0012606FA01F51E6820
:1052C00006EA0504AC4273D15E68012E08D05E6820
:1052D000022E05D05E68112E02D05E68122E13D108
:1052E00090684F000326BE40B0434F00DE68BE40CA
:1052F00030439060506801268E40B0431E79C6F35B
:1053000000168E4030435060D0684F000326BE40E8
:10531000B0434F009E68BE403043D0605E68022EAE
:1053200002D05E68122E13D1CF0802F1200656F883
:1053300027004E07F70E0F26BE40B0434F07FF0E63
:105340001E69BE403043CF0802F1200646F8270010
:1053500010684F000326BE40B0431E7906F00306D6
:105360004F00BE40304310605E6806F08056B6F1D4
:10537000805FA8D100BF00260096454E366846F4EF
:105380008046434F3E603E46366806F480460096AF
:1053900000BF00BF3F4E8F0856F827008E07370F1B
:1053A0000F26BE40B0433C4EB24202D100262EE052
:1053B00068E03A4EB24201D1012628E0384EB242AE
:1053C00001D1022623E0374EB24201D103261EE06E
:1053D000354EB24201D1042619E0344EB24201D119
:1053E000052614E0324EB24201D106260FE0314EBE
:1053F000B24201D107260AE02F4EB24201D108265F
:1054000005E02E4EB24201D1092600E00A268F07A0
:105410003F0FBE4030431F4E8F0846F82700284EEE
:105420003068A0435E6806F48036B6F5803F00D150
:105430002043234E3060361D3068A0435E6806F47A
:105440000036B6F5003F00D120431D4E361D3060BA
:10545000361D3068A0435E6806F48016B6F5801FDE
:1054600000D12043164E08363060361D3068A04308
:105470005E6806F40016B6F5001F00D12043104EFA
:105480000C363060491C1029FFF416AFF8BD00003F
:105490004438024008380140000002400004024045
:1054A00000080240000C02400010024000140240BC
:1054B00000180240001C024000200240002402406C
:1054C000003C014042690A408A4202D10A048261DA
:1054D00000E0816170470AB1816101E00B048361E2
:1054E0007047000001480068704700002C00002051
:1054F0000348006803490978084401490860704777
:105500002C0000203400002010B50D48006840F445
:1055100000700B4908600846006840F4806008602D
:105520000846006840F480700860032000F0C8F866
:10553000002000F007F800F04BF8002010BD00003C
:10554000003C024070B588B00446002500260022C9
:105550002146372000F076F8372000F063F800BFCE
:10556000002001901648006840F0200014490860AF
:105570000846006800F02000019000BF00BF02A9AB
:1055800003A800F0F5FA00F01BFB45000D48B5FB41
:10559000F0F0461E0C480D49086040F2E7310B4818
:1055A000C160466000210161816000F025FF20B9E3
:1055B000064800F097FF08B070BD0120FBE700002F
:1055C0004038024040420F0000140040EC0400202C
:1055D00008B500BF002000901148006840F48040EA
:1055E0000F4908600846006800F48040009000BF42
:1055F00000BF00BF00200090081F006840F08050EE
:10560000091F08600846006800F08050009000BF45
:1056100000BF00220F21901E00F014F808BD00000A
:105620004438024001460846002809DB00F01F0309
:1056300001229A4043099B0003F1E023C3F80021B3
:1056400000BF70472DE9F05F80460D4616460027E3
:1056500003F0A2FA074639462A46334601F007000E
:10566000C0F1070ABAF1040F02D94FF0040A01E0B1
:10567000C0F1070AD14600F1040ABAF1070F02D2BD
:105680004FF0000A01E0A0F1030AD4464FF0010AEE
:105690000AFA09FAAAF1010A0AEA020A0AFA0CFA53
:1056A0004FF0010B0BFA0CFBABF1010B0BEA030BF8
:1056B0004AEA0B042146404603F05AFABDE8F09F3F
:1056C00000BF00F00702064B19684FF6FF031940B0
:1056D000044B0B4343EA0221014B196000BF7047A2
:1056E0000CED00E00000FA05F8B5044600250026A0
:1056F000207800F0010048B9207800F0020002286C
:1057000004D0207800F04000402862D10020B14948
:105710008866FFF7E7FE054606E0FFF7E3FE401B5D
:10572000022801D90320F8BDAB480068C0F3C0606F
:105730000028F2D1207800F0010038B160688101C2
:10574000207A41EA0070A44984310860207800F092
:105750000200022819D1A04884300068C0F3027604
:1057600060688101207B41EA006040EA06709A4946
:105770008431086098488C30006820F01F00E1698F
:10578000491E084394498C310860207800F040009D
:1057900040280AD160688101207B41EA0061207ABB
:1057A00041EA00708C49843108600120894988668B
:1057B000FFF798FE054606E0FFF794FE401B02281F
:1057C00001D90320AFE784480068C0F3C060002817
:1057D000F2D0207800F00400042804D0207800F0F3
:1057E0000800082863D100207A490867FFF77AFE8D
:1057F000054606E0FFF776FE401B022801D903208C
:1058000091E775480068C0F340700028F2D1207815
:1058100000F00400042819D16F4888300068C0F3F4
:10582000027620698101207D41EA006040EA06702D
:10583000694988310860081D006820F4F851206A21
:10584000401E41EA002064498C310860207800F055
:105850000800082817D1604888300068C0F3036644
:105860002069800140EA0661207E41EA00705A49C1
:1058700088310860081D006820F44030616A0843E0
:1058800055498C310860012052490867FFF72AFE0C
:10589000054606E0FFF726FE401B022801D903203B
:1058A00041E74D480068C0F340700028F2D02078EE
:1058B00000F0200020287DD100BF00200090464845
:1058C0004030006840F0805043494031086008464D
:1058D000006800F08050009000BF00BF3F480068A3
:1058E00040F480703D490860FFF7FCFD054606E086
:1058F000FFF7F8FD401B022801D9032013E73748C2
:10590000006800F480700028F2D0334870300068DE
:1059100000F440764EB3208D00F44070B04224D0A5
:105920002D487030006820F4407601202C49086032
:1059300000200860284870300660006800F0010010
:1059400098B1FFF7CFFD054608E0FFF7CBFD401B00
:1059500041F28831884201D90320E4E61E487030C4
:105960000068C0F340000028EFD000BF208D00F495
:105970004070B0F5407F0CD117480830006820F423
:10598000F810184AA16A1140084313490831086009
:1059900007E011480830006820F4F8100E4908317B
:1059A00008600D4870300068218DC1F30B01084379
:1059B000094900E002E07031086000BF207800F083
:1059C0001000102803D194F82C000749086000202B
:1059D000A9E6000000004742003802400070004085
:1059E000400E4742FFFCFF0FE011474270B50446EE
:1059F0000D460CB9012070BD5848006800F00F003A
:105A0000A84209D255490D700846006800F00F0001
:105A1000A84201D00120EEE7207800F00200022821
:105A20001DD1207800F00400042805D14C480068FE
:105A300040F4E0504A490860207800F00800082847
:105A400005D14748006840F4604045490860444833
:105A5000006820F0F000A168084341490860207800
:105A600000F00100A8B36068012807D13C4808385D
:105A70000068C0F34040B8B90120BCE76068022864
:105A800002D06068032807D1354808380068C0F3A1
:105A9000406048B90120AEE7314808380068C0F3DB
:105AA000400008B90120A6E72D48006820F0030057
:105AB000616808432A490860FFF714FD064609E0BB
:105AC000FFF710FD801B41F28831884202D9032084
:105AD00091E707E02248006800F00C006168B0EB35
