:020000040800F2
:10000000904A002011030008A52F0008512900087C
:10001000A12F00088F050008B13100080000000082
:100020000000000000000000000000005102000875
:10003000B505000800000000AD020008E52F00082B
:100040002B0300082B0300082B0300082B030008D8
:100050002B0300082B0300082B0300082B030008C8
:100060002B0300082B0300082B0300082B030008B8
:100070002B0300082B0300082B0300082B030008A8
:100080002B0300082B0300082B030008A50500081C
:10009000950500082B0300082B0300082B0300081C
:1000A0002B0300082B0300082B0300082B03000878
:1000B0002B0300082B0300082B0300082B03000868
:1000C0002B0300082B0300082B0300082B03000858
:1000D0002B0300082B0300082B0300082B03000848
:1000E0002B0300082B0300082B0300082B03000838
:1000F0002B0300082B0300082B0300082B03000828
:100100002B0300082B0300082B0300082B03000817
:100110002B0300082B0300082B03000835300008D0
:100120002B0300082B0300082B0300082B030008F7
:100130002B0300082B0300082B0300082B030008E7
:100140002B0300082B0300082B0300082B030008D7
:100150002B0300082B0300082B0300082B030008C7
:100160002B0300082B0300082B0300082B030008B7
:100170002B0300082B0300082B03000800000000DD
:100180002B0300082B0300082B0300082B03000897
:100190002B0300082B0300082B0300082B03000887
:1001A00000000000000000002B03000800F002F82F
:1001B00000F03EF80AA090E8000C82448344AAF1C3
:1001C0000107DA4501D100F033F8AFF2090EBAE8C1
:1001D0000F0013F0010F18BFFB1A43F0010318477B
:1001E0001862000038620000103A24BF78C878C155
:1001F000FAD8520724BF30C830C144BF04680C602D
:10020000704700000023002400250026103A28BF74
:1002100078C1FBD8520728BF30C148BF0B60704778
:100220001FB505F0FEFF00F067F91FBD10B510BD4A
:1002300000F074F91146FFF7F3FF04F0ADFA00F097
:1002400092F903B4FFF7F2FF03BC00F095F9000048
:100250002C4B19680868B0E8F04F80F30988BFF3A9
:100260006F8F4FF0000080F311887047000000008E
:1002700008480068006880F308884FF0000080F3A9
:10028000148862B661B6BFF34F8FBFF36F8F00DF84
:1002900000BF00BF08ED00E0DFF80C00016841F48A
:1002A00070010160704700BF88ED00E0EFF3098046
:1002B000BFF36F8F134B1A681EF0100F08BF20EDAD
:1002C000108A20E9F04F106009B44FF0500080F31D
:1002D0001188BFF34F8FBFF36F8F04F083FF4FF090
:1002E000000080F3118809BC19680868B0E8F04F75
:1002F0001EF0100F08BFB0EC108A80F30988BFF31E
:100300006F8F704738000020EFF3058070470000C2
:100310000948804709480047FEE7FEE7FEE7FEE799
:10032000FEE7FEE7FEE7FEE7FEE7FEE704480549D5
:10033000054A064B7047000019300008AD0100085F
:1003400090440020904A00209046002090460020D3
:1003500053EA020C00F069802DE9F04B4FF00006E3
:10036000002B1FBFB3FA83F503FA05F424FA05F650
:100370005E4012BF1643B2FA82F502FA05F4C5F1E7
:1003800020051EBF22FA05FC44EA0C04203556EA7B
:10039000044C4FEA144418BF641C4FF000084FF09F
:1003A0000009904271EB030C39D3002919BFB1FA4F
:1003B00081F701FA07F6B0FA80F700FA07F6C7F1FD
:1003C00020071EBF20FA07FC46EA0C062037B6FBC2
:1003D000F4FCA7EB0507103F07F01F0BCBF120063D
:1003E0000CFA0BFB2CFA06F644BFB3460026202F6E
:1003F000A4BF5E464FF0000B5BEA060C08BF4FF04F
:10040000010B19EB0B09ABFB027C48EB0608C01B88
:1004100006FB02CC0BFB03CC71EB0C01C1E70B46D6
:10042000024641464846BDE8F08B13B54FF0000048
:100430004FF00001AFF30080BDE81C40704710B5DD
:10044000203AC0F00B80B1E81850203AA0E81850CC
:10045000B1E81850A0E81850BFF4F5AF5FEA027C8D
:1004600024BFB1E81850A0E8185044BF18C918C0FC
:10047000BDE810405FEA827C24BF51F8043B40F89D
:10048000043B08BF7047D20728BF31F8023B48BF82
:1004900011F8012B28BF20F8023B48BF00F8012BC0
:1004A00070474FF0000200B5134694469646203937
:1004B00022BFA0E80C50A0E80C50B1F12001BFF41D
:1004C000F7AF090728BFA0E80C5048BF0CC05DF883
:1004D00004EB890028BF40F8042B08BF704748BFD1
:1004E00020F8022B11F0804F18BF00F8012B704745
:1004F000704770477047000070B5064C7C44064D4D
:100500007D4403E0206820448047241DAC42F9D19B
:1005100070BD0000185F0000205F0000754600F00D
:1005200031F8AE4605006946534620F0070085467F
:1005300018B020B5FFF7FAFEBDE820404FF00006E6
:100540004FF000074FF000084FF0000B21F00701BB
:10055000AC46ACE8C009ACE8C009ACE8C009ACE8FE
:10056000C0098D46704710B50446AFF300802046A1
:10057000BDE81040FFF765BE01491820ABBEFEE79D
:1005800026000200004870472C440020704700BF3E
:10059000FEE7000010B5024800F01EFA10BD000092
:1005A0001801002010B5024800F016FA10BD000036
:1005B0001801002070477047F0B504460D461E46EE
:1005C00094F8207020688368A86800B900E000BF34
:1005D000012F01D0022F7CD103F0806030B903F0ED
:1005E000006018B903F08050002873D0C3F3016194
:1005F000022905D9606A40F4000060620120F0BD64
:10060000012088403060A86860B9B5F800C0E8688B
:1006100040EA4C5C206800F5C07000EB0110C0F8A7
:1006200000C00FE0D5E901C040EACC00D5F80CC00D
:1006300040EA0C00D4F800C00CF5C07C0CEB011CA7
:10064000CCF80000D5F810C0206800F5C07000EBB1
:100650000110C0F804C0287D01280ED1206800F5E3
:10066000C07000EB0110406840F4807C206800F509
:10067000C07000EB0110C0F804C0D079000692F8F9
:1006800006C040EA0C4092F805C040EA0C2C1079F4
:100690004CEA000C206800F5C07000EB0110C0F8B7
:1006A0000CC0D078000692F802C040EA0C4092F8E4
:1006B00001C040EA0C2092F800C040EA0C00D4F8D7
:1006C00000C00CF5C07C0CEB011CCCF808002068C5
:1006D00001E016E00FE000F5C07000EB01100068CB
:1006E00040F0010C206800F5C07000EB0110C0F86C
:1006F00000C0002083E7606A40F4001060620120BF
:100700007DE7606A40F480206062012077E70000A6
:10071000F0B504460A46216894F82050012D01D016
:10072000022D7ED1424901F50071086840F00100B8
:100730000860086820F47C5008600868566A40EA3F
:1007400006200860107D00F01F06012000FA06F365
:10075000C8699843C861A1F50071D069C8B9D1F8DA
:100760000C029843C1F80C02908880B2968940EA46
:10077000064601F51070576940F83760108880B25E
:10078000168940EA064601F51070576900EBC7006C
:100790004660D069012819D1D1F80C021843C1F87C
:1007A0000C02908880B2168840EA064601F5107067
:1007B000576940F83760908980B2168940EA06464A
:1007C00001F51070576900EBC7004660906928B9C1
:1007D000D1F804029843C1F8040204E0D1F80402FD
:1007E0001843C1F80402106928B9D1F814029843DB
:1007F000C1F8140204E0D1F814021843C1F814023D
:10080000106A012804D1D1F81C021843C1F81C0257
:10081000D1F8000220F00100C1F800020020F0BD74
:10082000FFE7606A40F4802060620120F7E7000083
:1008300000640040704710B50246002092F8203056
:10084000012B01D0022B09D121B91468E46804F00E
:10085000030003E01468246904F0030010BD70B5C0
:10086000044694F82050012D01D0022D7DD151B9BC
:100870002068C06800F0030080B9606A40F400108E
:100880006062012070BD2068006900F0030028B993
:10089000606A40F4001060620120F3E7206800F510
:1008A000D87000EB0110006800F0040090609068C0
:1008B00040B9206800F5D87000EB01100068400DC9
:1008C000106007E0206800F5D87000EB01100068A8
:1008D000C0085060206800F5D87000EB0110006877
:1008E00000F00200D060206800F5D87000EB011025
:1008F000406800F00F001061206800F5D87000EB30
:100900000110406800F47F40000A9061206800F503
:10091000D87000EB01104068000C5061206800F5B1
:10092000D87000EB011080681870206800F5D8704E
:1009300000EB0110806800F47F40000A58702068C6
:1009400000F5D87000EB0110806800F47F00000C07
:100950009870206800F5D87000EB01108068000ED8
:10096000D870206800F5D87000E02FE000EB01108F
:10097000C0681871206800F5D87000EB0110C068DD
:1009800000F47F40000A5871206800F5D87000EB31
:100990000110C06800F47F00000C9871206800F519
:1009A000D87000EB0110C068000ED87131B9206812
:1009B000C06840F020002668F06005E0206800690B
:1009C00040F020002668306100205BE7606A40F458
:1009D00080206062012055E72DE9F05F0446002584
:1009E000206846692068D0F80490206887682068ED
:1009F000D0F80CA02068D0F810B02068D0F818808B
:100A000006F00100002855D007F00100C0B1012018
:100A10002168886007F0020018B1204600F0A3FAB0
:100A20000EE007F0040010B145F4006508E007F09F
:100A3000080010B145F4805502E0204600F092FA1B
:100A400007F48070C8B14FF480702168886007F4A3
:100A5000007018B1204600F088FA0EE007F48060BC
:100A600010B145F4005508E007F4006010B145F4FA
:100A7000804502E0204600F077FA07F48030C8B1E4
:100A80004FF480302168886007F4003018B12046A8
:100A900000F06DFA0EE007F4802010B145F4004537
:100AA00008E007F4002010B145F4803502E020464C
:100AB00000F05CFA06F0080038B10AF0100020B12E
:100AC00045F4007510202168C86006F0040040B1AC
:100AD0000AF0080028B108202168C860204600F00C
:100AE0000DFA06F0020038B12068C06800F003007B
:100AF00010B1204600F003FA06F0400038B10BF0C8
:100B0000100020B145F4806510202168086106F0CE
:100B1000200040B10BF0080028B1082021680861CE
:100B2000204600F0EDF906F0100038B120680069A9
:100B300000F0030010B1204600F0E3F906F40030A5
:100B400040B109F0100028B110202168486020460B
:100B500000F0D8F906F4803040B109F0080028B15F
:100B6000082021684860204600F002FA06F40040A0
:100B700088B309F0040078B306F4807020B108F05F
:100B8000010008B145F0010506F4007020B108F03D
:100B9000020008B145F0020506F4806020B108F0BB
:100BA000040008B145F0040506F40060A0B108F0A7
:100BB000700088B108F07000402817D006DC1028BB
:100BC0000BD020280CD0302819D10CE0502810D0A0
:100BD000602814D110E01DE019E045F008050FE091
:100BE00045F010050CE045F0200509E045F0400512
:100BF00006E045F0800503E045F4807500E000BFA5
:100C000000BF2068806920F070002168886104209E
:100C1000216848602DB1606A284360622046FFF772
:100C200009FEBDE8F09F70B504460CB9012070BD07
:100C300094F8200010B9204600F0B0F82068006851
:100C400020F002002168086000F0C6FA05460DE0B9
:100C500000F0C2FA401B0A2808D9606A40F400304C
:100C60006062052084F820000120E0E720684068E9
:100C700000F002000028EBD12068006840F001007D
:100C80002168086000F0A8FA05460DE000F0A4FA1B
:100C9000401B0A2808D9606A40F4003060620520D1
:100CA00084F820000120C2E72068406800F00100BD
:100CB0000028EBD0207E012806D12068006840F093
:100CC00080002168086005E02068006820F080004E
:100CD00021680860607E012806D12068006840F025
:100CE00040002168086005E02068006820F04000AE
:100CF00021680860A07E012806D12068006840F0C5
:100D000020002168086005E02068006820F02000CD
:100D100021680860E07E012806D12068006820F084
:100D200010002168086005E02068006840F01000AD
:100D300021680860207F012806D12068006840F003
:100D400008002168086005E02068006820F00800BD
:100D500021680860607F012806D12068006840F0A3
:100D600004002168086005E02068006820F00400A5
:100D700021680860D4E902010843216908436169D8
:100D800008436168491E08432168C8610020606209
:100D9000012084F82000002049E7000010B586B04B
:100DA0000446142101A8FFF77CFB4E4920688842C5
:100DB00049D14D480068401C4B490860084600680E
:100DC00001280FD100BF002000904848006840F083
:100DD0000070464908600846006800F00070009006
:100DE00000BF00BF00BF00200090404810380068DE
:100DF00040F008003D49103908600846006800F0DE
:100E00000800009000BF00BF032001900220029064
:100E100000200390032004900920059001A9344884
:100E200000F0BCF800220521132000F085FA132001
:100E300000F072FA00220521142000F07DFA14203F
:100E400000F06AFA4CE02B492068884248D100BF84
:100E5000002000902548006840F080602349086029
:100E60000846006800F08060009000BF00BF1E4888
:100E70000068401C1C4908600846006801280FD122
:100E800000BF002000901948006840F0007017492A
:100E900008600846006800F00070009000BF00BFC6
:100EA00000BF0020009011481038006840F0020098
:100EB0000E49103908600846006800F002000090F2
:100EC00000BF00BF6020019002200290002003902C
:100ED000032004900920059001A9074800F05EF85E
:100EE00006B010BD006400402400002040380240DD
:100EF000000C024000680040000402407047704748
:100F000070477047704770B5044694F82000012878
:100F100022D1022084F820002068006820F001001F
:100F20002168086000F058F905460DE000F054F91A
:100F3000401B0A2808D9606A40F40030606205202E
:100F400084F82000012070BD2068406800F0010096
:100F50000028EBD16062F6E7606A40F4002060622E
:100F60000120F0E77047704770477047704770473F
:100F70007047000070B5044600F02EF9064625467D
:100F8000681C10B104480078054400BF00F024F943
:100F9000801BA842FAD370BD30000020F8B502468D
:100FA0000B460025002400200021E6E0012606FA79
:100FB00001F51E6806EA0504AC4273D15E68012E95
:100FC00008D05E68022E05D05E68112E02D05E68E1
:100FD000122E13D190684F000326BE40B0434F003D
:100FE000DE68BE4030439060506801268E40B043BA
:100FF0001E79C6F300168E4030435060D0684F0013
:101000000326BE40B0434F009E68BE403043D060D0
:101010005E68022E02D05E68122E13D1CF0802F154
:10102000200656F827004E07F70E0F26BE40B043A5
:101030004F07FF0E1E69BE403043CF0802F1200665
:1010400046F8270010684F000326BE40B0431E79C3
:1010500006F003064F00BE40304310605E6806F0A5
:101060008056B6F1805FA8D100BF00260096454E9D
:10107000366846F48046434F3E603E46366806F486
:101080008046009600BF00BF3F4E8F0856F82700ED
:101090008E07370F0F26BE40B0433C4EB24202D1FE
:1010A00000262EE068E03A4EB24201D1012628E047
:1010B000384EB24201D1022623E0374EB24201D16E
:1010C00003261EE0354EB24201D1042619E0344E0B
:1010D000B24201D1052614E0324EB24201D10626B9
:1010E0000FE0314EB24201D107260AE02F4EB24244
:1010F00001D1082605E02E4EB24201D1092600E0BA
:101100000A268F073F0FBE4030431F4E8F0846F818
:101110002700284E3068A0435E6806F48036B6F596
:10112000803F00D12043234E3060361D3068A043FD
:101130005E6806F40036B6F5003F00D120431D4E30
:10114000361D3060361D3068A0435E6806F4801698
:10115000B6F5801F00D12043164E08363060361D8C
:101160003068A0435E6806F40016B6F5001F00D193
:101170002043104E0C363060491C1029FFF416AF86
:10118000F8BD000044380240083801400000024029
:101190000004024000080240000C0240001002401F
:1011A0000014024000180240001C024000200240CF
:1011B00000240240003C014042690A408A4202D1B8
:1011C0000A04826100E0816170470AB1816101E037
:1011D0000B048361704700000148006870470000FD
:1011E00028000020034800680349097808440149A1
:1011F00008607047280000203000002010B50D481E
:10120000006840F400700B4908600846006840F42C
:10121000806008600846006840F480700860032021
:1012200000F0C8F8002000F007F800F04BF80020AC
:1012300010BD0000003C024070B588B00446002597
:10124000002600222146372000F076F8372000F0F3
:1012500063F800BF002001901648006840F02000AD
:10126000144908600846006800F02000019000BFA3
:1012700000BF02A903A800F0F5FA00F01BFB45002F
:101280000D48B5FBF0F0461E0C480D49086040F2D1
:10129000E7310B48C160466000210161816000F0C8
:1012A00025FF20B9064800F097FF08B070BD012067
:1012B000FBE700004038024040420F0000140040AD
:1012C000D802002008B500BF002000901148006837
:1012D00040F480400F4908600846006800F48040F0
:1012E000009000BF00BF00BF00200090081F0068F2
:1012F00040F08050091F08600846006800F08050E8
:10130000009000BF00BF00220F21901E00F014F8D3
:1013100008BD00004438024001460846002809DBA9
:1013200000F01F0301229A4043099B0003F1E023D0
:10133000C3F8002100BF70472DE9F05F80460D46DD
:101340001646002702F0F2FC074639462A46334685
:1013500001F00700C0F1070ABAF1040F02D94FF0FB
:10136000040A01E0C0F1070AD14600F1040ABAF10B
:10137000070F02D24FF0000A01E0A0F1030AD446A1
:101380004FF0010A0AFA09FAAAF1010A0AEA020A66
:101390000AFA0CFA4FF0010B0BFA0CFBABF1010B44
:1013A0000BEA030B4AEA0B042146404602F0AAFC72
:1013B000BDE8F09F00BF00F00702064B19684FF62A
:1013C000FF031940044B0B4343EA0221014B196010
:1013D00000BF70470CED00E00000FA05F8B50446C8
:1013E00000250026207800F0010048B9207800F0A0
:1013F0000200022804D0207800F04000402862D18A
:101400000020B1498866FFF7E7FE054606E0FFF7D2
:10141000E3FE401B022801D90320F8BDAB48006859
:10142000C0F3C0600028F2D1207800F0010038B18C
:1014300060688101207A41EA0070A4498431086023
:10144000207800F00200022819D1A04884300068FA
:10145000C0F3027660688101207B41EA006040EAC7
:1014600006709A498431086098488C30006820F0F2
:101470001F00E169491E084394498C3108602078B7
:1014800000F0400040280AD160688101207B41EAD9
:101490000061207A41EA00708C49843108600120A3
:1014A00089498866FFF798FE054606E0FFF794FE37
:1014B000401B022801D90320AFE784480068C0F32D
:1014C000C0600028F2D0207800F00400042804D086
:1014D000207800F00800082863D100207A490867C6
:1014E000FFF77AFE054606E0FFF776FE401B02286E
:1014F00001D9032091E775480068C0F340700028C7
:10150000F2D1207800F00400042819D16F48883007
:101510000068C0F3027620698101207D41EA006005
:1015200040EA0670694988310860081D006820F4A7
:10153000F851206A401E41EA002064498C3108605D
:10154000207800F00800082817D16048883000682B
:10155000C0F303662069800140EA0661207E41EA0B
:1015600000705A4988310860081D006820F4403036
:10157000616A084355498C31086001205249086767
:10158000FFF72AFE054606E0FFF726FE401B02286D
:1015900001D9032041E74D480068C0F3407000289E
:1015A000F2D0207800F0200020287DD100BF00205C
:1015B000009046484030006840F080504349403138
:1015C00008600846006800F08050009000BF00BF2F
:1015D0003F48006840F480703D490860FFF7FCFD1B
:1015E000054606E0FFF7F8FD401B022801D903205D
:1015F00013E73748006800F480700028F2D03348C1
:101600007030006800F440764EB3208D00F44070D6
:10161000B04224D02D487030006820F4407601207C
:101620002C49086000200860284870300660006877
:1016300000F0010098B1FFF7CFFD054608E0FFF785
:10164000CBFD401B41F28831884201D90320E4E6FA
:101650001E4870300068C0F340000028EFD000BF83
:10166000208D00F44070B0F5407F0CD11748083051
:10167000006820F4F810184AA16A11400843134981
:101680000831086007E011480830006820F4F810BD
:101690000E49083108600D4870300068218DC1F393
:1016A0000B010843094900E002E07031086000BF07
:1016B000207800F01000102803D194F82C0007497E
:1016C00008600020A9E60000000047420038024000
:1016D00000700040400E4742FFFCFF0FE011474200
:1016E00070B504460D460CB9012070BD584800681D
:1016F00000F00F00A84209D255490D700846006855
:1017000000F00F00A84201D00120EEE7207800F0A1
:10171000020002281DD1207800F00400042805D121
:101720004C48006840F4E0504A490860207800F0D6
:101730000800082805D14748006840F46040454942
:1017400008604448006820F0F000A168084341495F
:101750000860207800F00100A8B36068012807D174
:101760003C4808380068C0F34040B8B90120BCE7E5
:101770006068022802D06068032807D1354808381D
:101780000068C0F3406048B90120AEE7314808382E
:101790000068C0F3400008B90120A6E72D480068A2
:1017A00020F00300616808432A490860FFF714FD30
:1017B000064609E0FFF710FD801B41F288318842A0
:1017C00002D9032091E707E02248006800F00C00EE
:1017D0006168B0EB810FEDD11D48006800F00F008B
:1017E000A84209D91A490D700846006800F00F0098
:1017F000A84201D0012078E7207800F004000428F6
:1018000007D11448006820F4E050E168084311490A
:101810000860207800F00800082808D10D4800680A
:1018200020F46040216940EAC1000A49086000F0E4
:1018300061F808490968C1F30311074A515CC840BF
:101840000649086006480068FFF7F6FC00204CE7F0
:10185000003C024008380240346300083400002095
:101860002C0000200F2202600D4A126802F00302D1
:1018700042600B4A126802F0F0028260084A126865
:1018800002F4E052C260064A126802F46042D208D2
:101890000261044A126802F00F020A6070470000F9
:1018A00008380240003C02400148006870470000D0
:1018B0003400002000B5FFF7F7FF04490968C1F3C1
:1018C0008221034A515CC84000BD00000838024034
:1018D0004463000800B5FFF7E7FF04490968C1F356
:1018E0004231034A515CC84000BD00000838024044
:1018F000446300082DE9F047002400250026A14696
:101900002548006800F00C0020B1042805D0082804
:101910003AD105E0DFF8849039E0DFF8849036E0D2
:101920001D48001F006800F03F041B48001F0068AE
:1019300000F4800078B11A481749091F0968C1F3FB
:101940008811A0FB01700146224600233846FEF7AD
:10195000FFFC05460EE011480F49091F0968C1F355
:101960008811A0FB01700146224600233846FEF78D
:10197000EFFC05460848001F0068C0F30140401C0A
:101980004600B5FBF6F902E0DFF8109000BF00BF9B
:101990004846BDE8F0870000083802400024F40003
:1019A000001BB700F8B504460CB90120F8BD20783B
:1019B00000F00100002874D0F948006800F00C0025
:1019C00004280DD0F648006800F00C00082813D158
:1019D000F348001F006800F48000B0F5800F0BD1C1
:1019E000EF4808380068C0F34040002859D06068CC
:1019F000002856D10120D9E700BF6068B0F5803FCC
:101A000008D1E7480838006840F48030E4490839D4
:101A100008601EE06068B0F5A02F0DD1E0480838DE
:101A2000006840F48020DE490839086008460068F4
:101A300040F4803008600CE0D9480838006820F491
:101A40008030D749083908600846006820F48020B3
:101A5000086000BF606890B1FFF7BEFB054606E076
:101A6000FFF7BAFB401B642801D903209EE7CC484E
:101A700008380068C0F340400028F1D011E0FFF7BB
:101A8000ABFB054606E0FFF7A7FB401B642801D926
:101A900003208BE7C24808380068C0F340400028A4
:101AA000F1D1207800F0020002285FD1BC48006824
:101AB00000F00C0058B1BA48006800F00C0008288B
:101AC0001CD1B748001F006800F48000B0B9B448CA
:101AD00008380068C0F3400020B1E068012801D058
:101AE000012063E7AE480838006820F0F80021695B
:101AF00040EAC100AA490839086037E0E06800B34D
:101B00000120A8490860FFF767FB054606E0FFF7DC
:101B100063FB401B022801D9032047E7A04808388F
:101B20000068C0F340000028F1D09D4808380068E4
:101B300020F0F800216940EAC1009949083908609D
:101B400014E0002097490860FFF746FB054606E0D1
:101B5000FFF742FB401B022801D9032026E79048EB
:101B600008380068C0F340000028F1D1207800F068
:101B7000080008282CD16069A8B101208A490860B2
:101B8000FFF72AFB054606E0FFF726FB401B02286D
:101B900001D903200AE782486C300068C0F3400096
:101BA0000028F1D014E000207F490860FFF714FB03
:101BB000054606E0FFF710FB401B022801D9032071
:101BC000F4E677486C300068C0F340000028F1D19B
:101BD000207800F00400042870D1002770483830C5
:101BE000006800F0805090B900BF002000906C4861
:101BF0003830006840F08050694938310860084644
:101C0000006800F08050009000BF00BF01276748C7
:101C1000006800F48070B0B96448006840F48070D7
:101C200062490860FFF7D8FA054606E0FFF7D4FAE4
:101C3000401B022801D90320B8E65C48006800F484
:101C400080700028F2D000BFA068012808D1544855
:101C50006830006840F001005149683108601DE0BB
:101C6000A06805280DD14E486830006840F0040097
:101C70004B49683108600846006840F00100086080
:101C80000CE047486830006820F0010044496831A2
:101C900008600846006820F00400086000BFA068E3
:101CA000A8B1FFF799FA054609E0FFF795FA401B3E
:101CB00041F28831884202D9032077E626E038488D
:101CC00068300068C0F340000028EED013E0FFF752
:101CD00083FA054608E0FFF77FFA401B41F288319E
:101CE000884201D9032061E62D4868300068C0F3BE
:101CF00040000028EFD1012F07D129483830006873
:101D000020F0805026493831086000BFA0690028C3
:101D100045D02348006800F00C0008285DD0A06979
:101D2000022845D100201F490866FFF755FA0546ED
:101D300006E0FFF751FA401B022801D9032035E6DF
:101D4000174808380068C0F340600028F1D1D4E992
:101D500007010843616A40EA81110122A06AC2EBCF
:101D6000500041EA00412C20005D41EA00600C492E
:101D7000091F086001200B490866FFF72DFA054688
:101D800006E0FFF729FA401B022801D903200DE6DF
:101D9000034808380068C0F340600028F1D03FE0F5
:101DA0000838024000004742800E47420070004061
:101DB00000201C490866FFF70FFA054606E0FFF70A
:101DC0000BFA401B022801D90320EFE516480068F2
:101DD000C0F340600028F2D122E0A069012800D1C0
:101DE000E4E51148001D066806F48001E0698142BF
:101DF00014D106F03F01206A81420FD147F6C0702E
:101E00003040616A884209D106F44031A06A8142BB
:101E100004D106F07061E06A814201D00120C5E57D
:101E20000020C3E5000047420038024010B50446D8
:101E30000CB9012010BD607920B900202071204626
:101E400000F00EF8022060712068006840F0040085
:101E500021680860012060710020A06000BFE9E7F0
:101E600008B50A4A016891420FD100BF00210091D4
:101E70000749096841F04001054A116011460968A7
:101E800001F04001009100BF00BF08BD00080650EE
:101E90003438024010B504460CB9012010BD607FF3
:101EA00020B900202077204600F060F802206077FB
:101EB00000BFCA202168486253202168486200BFE1
:101EC000204601F070F840B100BFFF202168486251
:101ED00000BF042060770120E0E720688068224985
:101EE0000840216888602169606808436169084387
:101EF000216889680843216888602168E068086172
:101F000020680169208941EA004021680861206851
:101F1000C06820F080002168C8602068806800F0F8
:101F2000200060B9204600F02DF840B100BFFF202E
:101F30002168486200BF042060770120AEE7206876
:101F4000006C20F48020216808642068006CA1697E
:101F500008432168086400BFFF202168486200BF71
:101F600001206077002099E7BFFF8FFF034A0168D7
:101F7000914202D10121024A1160704700280040BD
:101F80003C0E474270B5044600252068C06820F02A
:101F9000A0002168C860FFF71FF9054607E0FFF7BA
:101FA0001BF9401BB0F57A7F01D9032070BD206872
:101FB000C06800F020000028F1D00020F6E770474C
:101FC000704710B50346002200BF93F83C0001287B
:101FD00001D1022010BD012083F83C0000BF22F097
:101FE000FF00CC6840EA040222F440708C6840EAAA
:101FF000040222F480604C6840EA040222F400608B
:102000000C6840EA040222F480500C6940EA0402A1
:1020100022F400504C6940EA040222F48040CC696A
:1020200040EA04021868426400BF002083F83C00C4
:1020300000BF00BFCEE7000030B502460B4600BF30
:1020400092F83C00012801D1022030BD012082F825
:102050003C0000BF022082F83D0010684468106810
:10206000816824F070041868044310684460184DB7
:102070001068A8421BD01068B0F1804F17D0154DE2
:102080001068A84213D0144D1068A8420FD0134D09
:102090001068A8420BD0124D1068A84207D0114D0D
:1020A0001068A84203D0104D1068A84205D121F055
:1020B00080015868014310688160012082F83D006A
:1020C00000BF002082F83C0000BF00BFBDE7000059
:1020D000000001400004004000080040000C0040E7
:1020E00000040140004001400018004010B50446C3
:1020F0000CB9012010BD94F83D0028B9002084F8E7
:102100003C00204600F00CF8022084F83D00211D20
:10211000206800F097FF012084F83D000020E9E7E7
:1021200008B50168B1F1804F0FD100BF00210091C7
:102130002549096841F00101234A116011460968E7
:1021400001F00101009100BF3DE0204A0168914289
:102150000FD100BF002100911B49096841F0040123
:10216000194A11601146096801F00401009100BF8D
:1021700029E0174A016891420FD100BF0021009168
:102180001149096841F008010F4A116011460968B8
:1021900001F00801009100BF15E00E4A016891426C
:1021A00011D100BF002100910749091D096841F0C4
:1021B0000201054A121D11601146096801F0020171
:1021C000009100BF00BF08BD403802400008004039
:1021D000000C00400004014001460868C06840F05F
:1021E00001000B68D8600868806800F00702062AC2
:1021F00005D00868006840F001000B6818600020F6
:1022000070472DE9F04104460D4600BF94F83C00AC
:10221000012802D10220BDE8F081012084F83C00B1
:1022200000BF022084F83D002068866826F077060B
:1022300026F47F46206886602868502833D00CDC5E
:10224000202850D004DC00284BD0102851D149E080
:10225000302849D040284CD139E060282DD0702852
:1022600007D0B0F5805F03D0B0F5005F41D10DE03D
:1022700040E0D5E902136A68206800F04FFF20684B
:10228000866846F077062068866033E0D5E9021359
:102290006A68206800F042FF2068806840F480404F
:1022A0002168886026E0EA686968206801F0D9FA48
:1022B0005021206801F0CCFA1CE0EA6869682068C7
:1022C00001F0E2FA6021206801F0C2FA12E0EA6847
:1022D0006968206801F0C5FA4021206801F0B8FA69
:1022E00008E000BF00BF00BF2968206801F0B0FA15
:1022F00000E000BF00BF012084F83D0000BF0020C7
:1023000084F83C0000BF00BF85E7704710B5044665
:1023100020680069C0F34000D8B12068C068C0F3ED
:102320004000B0B16FF00200216808610120207701
:102330002068806900F0030018B12046FFF7E5FF30
:1023400005E0204600F06CF9204600F009FA002074
:10235000207720680069C0F38000D8B12068C06889
:10236000C0F38000B0B16FF0040021680861022062
:1023700020772068806900F4407018B12046FFF78C
:10238000C4FF05E0204600F04BF9204600F0E8F9D4
:102390000020207720680069C0F3C000D8B1206811
:1023A000C068C0F3C000B0B16FF0080021680861D8
:1023B000042020772068C06900F0030018B120468F
:1023C000FFF7A3FF05E0204600F02AF9204600F0C1
:1023D000C7F90020207720680069C0F30010D8B149
:1023E0002068C068C0F30010B0B16FF01000216821
:1023F0000861082020772068C06900F4407018B197
:102400002046FFF782FF05E0204600F009F920464C
:1024100000F0A6F9002020772068006900F0010094
:1024200058B12068C06800F0010030B16FF00100C1
:1024300021680861204600F095F920680069C0F322
:10244000C01058B12068C068C0F3C01030B16FF040
:102450008000216808612046FFF7B1FD206800690F
:10246000C0F3801058B12068C068C0F3801030B14C
:102470006FF0400021680861204600F07FF9206875
:102480000069C0F3401058B12068C068C0F3401024
:1024900030B16FF02000216808612046FFF790FD01
:1024A00010BD000010B586B00446142101A8FDF748
:1024B000F8FF2068B0F1804F1DD100BF00200090D0
:1024C0004F48006840F001004D4908600846006828
:1024D00000F00100009000BF00BF0F20019002201B
:1024E00002900020039004900120059001A9454826
:1024F000FEF754FD82E04449206888421ED100BFA7
:10250000002000903E48006840F008003C49086008
:102510000846006800F00800009000BF00BF4FF4BC
:10252000704001900220029000200390049002204D
:10253000059001A93548FEF731FD5FE03449206878
:1025400088423AD100BF002000902D48006840F436
:1025500080702B4908600846006800F48070009085
:1025600000BF00BF00BF002000900846006840F098
:10257000800008600846006800F08000009000BFFE
:1025800000BF0120019002200290002003900490DF
:102590000220059001A91F48FEF700FD4FF4E0500E
:1025A00001900220029000200390049002200590E8
:1025B00001A91948FEF7F2FC20E01849206888427A
:1025C0001CD100BF002000900D48006840F48070CE
:1025D0000B4908600846006800F48070009000BF56
:1025E00000BFE4200190022002900020039004909C
:1025F0000320059001A90748FEF7D0FC06B010BDE6
:10260000303802400000024000080040000C024048
:10261000000C004000200240001C02400004014069
:10262000704770B504460D46164600BF94F83C004E
:10263000012801D1022070BD012084F83C0000BFB8
:10264000022084F83D0036B1042E1BD0082E31D074
:102650000C2E5ED145E02946206801F05BF8206829
:10266000806940F00800216888612068806920F056
:10267000040021688861206880692969084321680D
:10268000886147E02946206800F054FD2068806991
:1026900040F40060216888612068806920F48060CF
:1026A0002168886120688069296940EA01202168E1
:1026B00088612FE02946206801F064F82068C0692D
:1026C00040F008002168C8612068C06920F004005B
:1026D0002168C8612068C069296908432168C86108
:1026E00018E02946206801F089F82068C06940F4A4
:1026F00000602168C8612068C06920F4806021689A
:10270000C8612068C069296940EA01202168C86160
:1027100000E000BF00BF012084F83D0000BF0020A2
:1027200084F83C0000BF00BF85E710B504460CB933
:10273000012010BD94F83D0028B9002084F83C0029
:10274000204600F00CF8022084F83D00211D20688E
:1027500000F078FC012084F83D000020E9E7704794
:102760007047000010B5044603492068884201D133
:10277000FEF738FD10BD000000140040704710B592
:1027800004460CB9012010BDA06900B100E000BFF3
:1027900094F8390028B9002084F83800204600F069
:1027A00027F8242084F839002068C06820F40050FD
:1027B0002168C860204601F07BF82068006920F499
:1027C0009040216808612068406920F02A00216853
:1027D00048612068C06840F400502168C86000204B
:1027E000E063202084F8390084F83A000020CAE72A
:1027F00010B586B00446142101A8FDF752FE1B490E
:102800002068884230D100BF00200090184800683E
:1028100040F02000164908600846006800F02000DB
:10282000009000BF00BF00BF002000901048143887
:10283000006840F040000E491439086008460068FE
:1028400000F04000009000BF00BF4FF484400190B2
:10285000022002900020039003200490082005909D
:1028600001A90448FEF79AFB06B010BD0014014010
:1028700044380240001802402DE9F84304460D4652
:1028800016461F464FF0000994F8390020285DD104
:1028900005B116B90120BDE8F88300BF94F83800EF
:1028A000012801D10220F6E7012084F8380000BF9A
:1028B0000020E063212084F83900FEF78DFC81467A
:1028C000A684E68400BF002084F8380000BF2BE017
:1028D000E08C401EE084A068B0F5805F16D14B46C6
:1028E000002280212046009701F0D6F908B103208C
:1028F000D1E7A846B8F80000C0F308002168486096
:10290000206908B9AD1C0FE06D1C0DE04B4600229C
:1029100080212046009701F0BFF908B10320BAE7F3
:1029200015F8010B21684860E08C0028D0D14B4697
:10293000002240212046009701F0AEF908B10320A3
:10294000A9E7202084F839000020A4E70220A2E7AC
:1029500000BFFEE710B50F480F490860032048602C
:1029600000210D488160C1604FF4002101614FF4E6
:1029700040114161002101760121417600218176DB
:10298000C17601774177FEF74EF908B1FDF713FEE6
:1029900010BD0000006400401801002010B50E4872
:1029A0000E4908600320486000210C488160C16026
:1029B0004FF4002101614FF4401141610021017683
:1029C00041768176C17601774177FEF72CF908B11F
:1029D000FDF7F1FD10BD000000680040400100203F
:1029E00000B587B0142102A8FDF75BFD00BF0020F1
:1029F00001905F48006840F002005D4908600846A9
:102A0000006800F00200019000BF00BF00BF00207E
:102A100001900846006840F04000086008460068E1
:102A200000F04000019000BF00BF00BF00200190F7
:102A30000846006840F0010008600846006800F0A1
:102A40000100019000BF00BF00BF002001900846B8
:102A5000006840F0080008600846006800F00800C0
:102A6000019000BF00BF00BF002001900846006831
:102A700040F4807008600846006800F4807001909F
:102A800000BF00BF00BF002001900846006840F072
:102A9000800008600846006800F08000019000BFD8
:102AA00000BF00BF002001900846006840F0100001
:102AB00008600846006800F01000019000BF00BFE9
:102AC00000BF002001900846006840F02000086028
:102AD0000846006800F02000019000BF00BF0022FF
:102AE0003C212448FEF771FB00224FF4FF7122487D
:102AF000FEF76BFB00224FF400612048FEF765FBF8
:102B000000224FF480411E48FEF75FFB3C200290FC
:102B10000120039000200490059002A91548FEF7BB
:102B20003DFA4FF4FF7002900120039000200490C2
:102B3000059002A91048FEF731FA4FF400600290A8
:102B40000120039000200490059002A90B48FEF795
:102B500025FA4FF480400290012003900020049059
:102B6000059002A90648FEF719FA07B000BD00005B
:102B700030380240001C02400018024000100240A1
:102B80000014024010B50548054908600846FFF7E3
:102B90004DF908B1FDF70FFD10BD0000000806500B
:102BA0006801002010B50A480A4908600020486002
:102BB0007F2108488160FF21C160002101614161DE
:102BC0008161FFF767F908B1FDF7F5FC10BD000062
:102BD000002800407801002000B58DB00020099049
:102BE0000A900B900C90079008901C216846FDF706
:102BF00058FC4FF080402C490860A7204860002115
:102C00002948816042F20F71C16000210161816138
:102C1000FFF76CFA08B1FDF7CEFC4FF48050099035
:102C200009A92148FFF7EDFA08B1FDF7C4FC1E48D9
:102C3000FFF77BFD08B1FDF7BEFC00200790089070
:102C400007A91948FFF7F8F908B1FDF7B4FC6020AF
:102C5000009041F288300190002002900490002200
:102C600069461148FFF7DDFC08B1FDF7A4FC04221A
:102C700069460D48FFF7D5FC08B1FDF79CFC08221A
:102C800069460948FFF7CDFC08B1FDF794FC0C221A
:102C900069460548FFF7C5FC08B1FDF78CFC024802
:102CA000FFF700FC0DB000BD9801002000B58DB00D
:102CB000002009900A900B900C90079008901C211E
:102CC0006846FDF7EEFB2D482D490860A7204860B7
:102CD00000212B48816042F20F71C1600021016127
:102CE0008161FFF703FA08B1FDF765FC4FF48050EE
:102CF000099009A92248FFF784FA08B1FDF75BFCA7
:102D00001F48FFF712FD08B1FDF755FC00200790A2
:102D1000089007A91A48FFF78FF908B1FDF74BFC97
:102D20006020009041F288300190002002900490D1
:102D3000002269461248FFF774FC08B1FDF73BFC1E
:102D4000042269460E48FFF76CFC08B1FDF733FC1E
:102D5000082269460A48FFF764FC08B1FDF72BFC1E
:102D60000C2269460648FFF75CFC08B1FDF723FC1E
:102D70000348FFF797FB0DB000BD000000080040BE
:102D8000D801002000B58DB0002009900A900B906A
:102D90000C90079008901C216846FDF782FB2D4897
:102DA0002D490860A720486000212B48816042F22D
:102DB0000F71C160002101618161FFF797F908B1CE
:102DC000FDF7F9FB4FF48050099009A92248FFF75D
:102DD00018FA08B1FDF7EFFB1F48FFF7A6FC08B192
:102DE000FDF7E9FB00200790089007A91A48FFF7B4
:102DF00023F908B1FDF7DFFB6020009041F2883035
:102E00000190002002900490002269461248FFF7CA
:102E100008FC08B1FDF7CFFB042269460E48FFF716
:102E200000FC08B1FDF7C7FB082269460A48FFF716
:102E3000F8FB08B1FDF7BFFB0C2269460648FFF717
:102E4000F0FB08B1FDF7B7FB0348FFF72BFB0DB014
:102E500000BD0000000C00401802002000B595B035
:102E6000002011901290139014900F9010901C213C
:102E700008A8FDF716FB20216846FDF712FB38482D
:102E800038490860A720486000213648816042F236
:102E90000F71C1600021016141618161FFF726F975
:102EA00008B1FDF788FB4FF48050119011A92D480F
:102EB000FFF7A7F908B1FDF77EFB2A48FFF735FCBD
:102EC00008B1FDF778FB00200F9010900FA925485E
:102ED000FFF7B2F808B1FDF76EFB6020089041F2F1
:102EE0008830099000200A900B900C900D900E9065
:102EF000002208A91B48FFF794FB08B1FDF75BFB14
:102F0000042208A91748FFF78CFB08B1FDF753FB13
:102F1000082208A91348FFF784FB08B1FDF74BFB13
:102F20000C2208A90F48FFF77CFB08B1FDF743FB13
:102F30000020009001900290039004904FF4005004
:102F400005900020079069460648FFF73AF808B157
:102F5000FDF731FB0348FFF7A5FA15B000BD0000EF
:102F6000000401405802002010B50B480B490860CE
:102F70004FF4E1304860002108488160C160016180
:102F80000C21416100218161C161FFF7F8FB08B1AB
:102F9000FDF711FB10BD0000001401409802002055
:102FA00000BFFEE7704770B5044600252068C06882
:102FB00000F04000A0B9681E2168C860FEF70CF957
:102FC000054607E0FEF708F9401BB0F57A7F01D906
:102FD000032070BD2068C06800F040000028F1D0D8
:102FE0000020F6E710B500BF502080F31188BFF332
:102FF0004F8FBFF36F8F00BF02F07EFA18B14FF012
:1030000080500449086000BF002080F3118800BF91
:1030100010BD000004ED00E00548006840F47000B9
:10302000034908604FF0006001498039086070472B
:1030300088ED00E010B50248FFF768F910BD000008
:10304000D802002010B50268294B98420ED0B0F18A
:10305000804F0BD0274B984208D0274B984205D081
:10306000264B984202D0264B984203D122F07002A0
:103070004B681A431E4B984220D0B0F1804F1DD0B0
:103080001C4B98421AD01C4B984217D01B4B9842AD
:1030900014D01B4B984211D01A4B98420ED01A4BA9
:1030A00098420BD0194B984208D0194B984205D042
:1030B000184B984202D0184B984203D122F4407228
:1030C000CB681A4322F080034C6943EA0402026091
:1030D0008B68C3620B688362054B984202D0084B31
:1030E000984201D10B6903630123436110BD0000C5
:1030F000000001400004004000080040000C0040B7
:1031000000040140004001400044014000480140EB
:1031100000180040001C00400020004030B50C4664
:10312000816821F47F4142EA0325254329438160D8
:1031300030BD000030B5056A25F010050562026A51
:103140004368846924F4E04424F440740D6844EA3C
:10315000052422F020028D6842EA0512124DA84291
:1031600000D103E0114DA84207D100BF22F0800238
:10317000CD6842EA051222F040020B4DA84202D06F
:103180000A4DA84209D123F4806323F400634D69FA
:1031900043EA85038D6943EA8503436084614D6892
:1031A0008563026230BD0000000001400004014060
:1031B00000BFFEE700BF012001F055FBFBE710B5A3
:1031C000044601F0C5F910BD10B5044601F04EFAF1
:1031D00010BD10B5044600F003FE10BD10B5044646
:1031E00000F0AAFE10BD00BF012001F03CFBFBE790
:1031F00010B5044600F092FF10BD000000B5BFB04E
:103200001C22364938A8FDF71AF9002138A801F028
:103210003BFB334908601C2230491C3131A8FDF7C3
:103220000EF9002131A801F02FFB2E4908601C2265
:103230002A4938312AA8FDF702F900212AA801F00D
:1032400023FB294908601C222449543123A8FDF797
:10325000F6F8002123A801F017FB244908601C227E
:103260001E4970311CA8FDF7EAF800211CA801F0E6
:103270000BFB1F4908601C2218498C3115A8FDF76B
:10328000DEF8002115A801F0FFFA1A4908601C2297
:103290001249A8310EA8FDF7D2F800210EA801F0BE
:1032A000F3FA154908601C220C49C43107A8FDF740
:1032B000C6F8002107A801F0E7FA104908601C22AF
:1032C0000649E0316846FDF7BAF80021684601F08A
:1032D000DBFA0B4908603FB000BD0000386200080F
:1032E0000000002004000020080000200C00002046
:1032F0001000002014000020180000201C000020F6
:103300002000002010B5044601F04AF910BD00006D
:103310004FF480715048FDF74FFF00BF4FF48071AC
:103320004D48FDF749FF80214B48FDF745FF7D20C3
:1033300001F099FA80214848FDF73EFF40214648B8
:10334000FDF73AFF7D2001F08EFA40214248FDF75B
:1033500033FF20214048FDF72FFF7D2001F083FA45
:1033600020213D48FDF728FF10213B48FDF724FFB1
:103370007D2001F078FA10213748FDF71DFF082164
:103380003548FDF719FF7D2001F06DFA082132481C
:10339000FDF712FF04213048FDF70EFF7D2001F0FC
:1033A00062FA04212C48FDF707FF02212A48FDF7A5
:1033B00003FF7D2001F057FA02212748FDF7FCFEAC
:1033C00004212548FDF7F8FE7D2001F04CFA042188
:1033D0002148FDF7F1FE08211F48FDF7EDFE7D2095
:1033E00001F041FA08211C48FDF7E6FE10211A48B9
:1033F000FDF7E2FE7D2001F036FA10211648FDF7B8
:10340000DBFE20211448FDF7D7FE7D2001F02BFACA
:1034100020211148FDF7D0FE40210F48FDF7CCFEDA
:103420007D2001F020FA40210B48FDF7C5FE8021E8
:103430000948FDF7C1FE7D2001F015FA80210648FC
:10344000FDF7BAFE4FF480710348FDF7B5FE7D200D
:1034500001F009FA62E700000018024000B59FB0D1
:10346000302113A8FDF71DF814210EA8FDF719F857
:10347000302102A8FDF715F800BF002001902A486E
:10348000006840F08050284908600846006800F055
:103490008050019000BF00BF00BF00200190234872
:1034A000006840F44040214908600846006800F484
:1034B0004040019000BF00BF092013904FF48030BE
:1034C0001490012018900220199041051A910621AC
:1034D0001B91A8211C9102211D9107211E9113A867
:1034E000FEF760FA08B1FDF766F80F200E90022093
:1034F0000F90002010904FF4A05011904FF4805086
:10350000129005210EA8FEF7EBF808B1FDF753F86D
:103510002020029000010C9002A8FDF75FFF08B187
:10352000FDF749F81FB000BD403802400070004070
:1035300030B52DED108B85B00446B0EE40AAF0EE0C
:1035400060AAFDF749FE054602F08DFB41EC1B0B1E
:1035500094ED0E1BB0EE410AF0EE610A53EC1A2B0B
:1035600051EC100B02F002FD41EC180B94ED081B1E
:10357000B0EE410AF0EE610A9FED501B53EC112BA7
:1035800051EC100B02F01CFB02D19FED4C0B0DE037
:1035900094ED081BB0EE410AF0EE610A53EC102BDB
:1035A00051EC1B0B02F0E2FC41EC100BB0EE409A28
:1035B000F0EE609A9FED410B53EC102B51EC190B80
:1035C00002F0FEFA02D19FED3D0B13E094ED0A1BD1
:1035D000B0EE410AF0EE610A53EC182B51EC100BDF
:1035E00002F0C4FC41EC1D0B53EC192B02F090F9D6
:1035F00041EC100B8DED020B53EC192B51EC180B19
:1036000002F080FB41EC1D0B94ED0C1BB0EE410A67
:10361000F0EE610A53EC102B02F0C6F8C4E90C017D
:1036200094ED061BB0EE410AF0EE610A9DED021B1F
:1036300053EC112B51EC100B02F064FB41EC1D0B11
:1036400094ED0C2BB0EE420AF0EE620A94ED042BDE
:10365000B0EE421AF0EE621A53EC102B51EC110B43
:1036600002F050FB41EC1F0B94ED021BB0EE410A3F
:10367000F0EE610A53EC182B51EC100B02F042FBF8
:1036800053EC1F2BCDE900019DED000B51EC100B0D
:1036900002F08AF841EC1E0B53EC1D2B02F084F86B
:1036A00041EC1C0B84ED08BB84ED0A8BB0EE4C0A98
:1036B000F0EE6C0A05B0BDEC108B30BD00000000D0
:1036C0000000000080ED0E0B70470000017080EDDF
:1036D000020B80ED041B80ED062B9FED023B80ED7D
:1036E000083B704700000000000000004A780B789B
:1036F00042EA03220280CA788B7842EA032212B29D
:1037000042804A790B7942EA032212B282808A7996
:103710008271704730B5056A25F001050562026ABD
:103720004368846924F0700424F003040D682C437A
:1037300022F002028D682A43104DA84200D103E016
:103740000F4DA84206D100BF22F00802CD682A43DF
:1037500022F00402094DA84202D0094DA84207D127
:1037600023F4807323F400734D692B438D692B433D
:10377000436084614D684563026230BD00000140D2
:103780000004014030B5056A25F480750562026ABF
:103790004368C46924F0700424F003040D682C43CA
:1037A00022F400728D6842EA0522124DA84200D12F
:1037B00003E0114DA84207D100BF22F40062CD689A
:1037C00042EA052222F480620A4DA84202D00A4D44
:1037D000A84209D123F4805323F400534D6943EAEE
:1037E00005138D6943EA05134360C4614D68C563E1
:1037F000026230BD000001400004014030B5056A9E
:1038000025F480550562036A4468C26922F4E042E7
:1038100022F440720D6842EA052223F400538D68B9
:1038200043EA0533084DA84202D0084DA84204D10E
:1038300024F480444D6944EA85144460C2614D68B3
:103840000564036230BD0000000001400004014037
:103850000A46816821F0700142F007031943816034
:10386000704730B50B461446026A056A25F001051B
:103870000562816921F0F00141EA041122F00A0297
:103880001A438161026230BD30B50B461446056AA9
:1038900025F0100505628169026A21F4704141EA50
:1038A000043122F0A00242EA03128161026230BDBB
:1038B0002DE9F84F04462068006920F44050E16883
:1038C0000843216808612169A068084361690843C9
:1038D000E169084300902068C06849F20C618843A0
:1038E000009908432168C8602068406920F440704E
:1038F000A169084321684861E069B0F5004F75D1BE
:10390000E3492068884203D0E249206888426FD1A9
:10391000FDF7E0FF814602206168A0FB01510B46E4
:103920001920A9FB00712A463846FCF711FD6421D5
:10393000B0FBF1F04FEA001A02206168A0FB0151D0
:103940000B461920A9FB00712A463846FCF700FDFA
:10395000074602206168A0FB01510B461920A9FB14
:1039600000B12A465846FCF7F3FC6421B0FBF1F0A5
:1039700000EBC00101EB0010A7EB8000322101EB4E
:10398000C0006421B0FBF1F000F0F8000AEB400A3F
:1039900002206168A0FB01510B461920A9FB0071B0
:1039A0002A463846FCF7D4FC074602206168A0FB93
:1039B00001510B461920A9FB00B12A465846FCF7D5
:1039C000C7FC6421B0FBF1F000EBC00101EB00107B
:1039D000A7EB8000322101EBC0006421B0FBF1F0C5
:1039E00000F007005044216888604FE16EE0FFE777
:1039F000FDF760FF814602206168A0FB01510B4684
:103A00001920A9FB00712A463846FCF7A1FC642165
:103A1000B0FBF1F04FEA001A02206168A0FB0151EF
:103A20000B461920A9FB00712A463846FCF790FC8A
:103A3000074602206168A0FB01510B461920A9FB33
:103A400000B12A465846FCF783FC6421B0FBF1F034
:103A500000EBC00101EB0010A7EB8000322101EB6D
:103A6000C0006421B0FBF1F000F0F8000AEB400A5E
:103A700002206168A0FB01510B461920A9FB0071CF
:103A80002A463846FCF764FC074602206168A0FB22
:103A9000015003461920A9FB00B12A465846FCF7FD
:103AA00057FC6421B0FBF1F000EBC00101EB00100A
:103AB000A7EB8000322101EBC0006421B0FBF1F0E4
:103AC00000F00700504421688860DFE070492068FA
:103AD000884203D06F49206888426BD1FDF7FAFE17
:103AE000814604206168A0FB01510B461920A9FB07
:103AF00000712A463846FCF72BFC82460420616898
:103B0000A0FB01510B461920A9FB00712A4638463B
:103B1000FCF71EFC6421B0FBF1F000EBC00101EBEF
:103B20000010AAEB8000322101EB00106421B0FBF1
:103B3000F1F000F0F00A04206168A0FB0150034698
:103B40001920A9FB00712A463846FCF701FC6421C4
:103B5000B0FBF1F00AEB001A04206168A0FB0151F0
:103B60000B461920A9FB00712A463846FCF7F0FBEA
:103B7000074604206168A0FB015003461920A9FBF9
:103B800000B12A465846FCF7E3FB6421B0FBF1F094
:103B900000EBC00101EB0010A7EB8000322101EB2C
:103BA00000106421B0FBF1F000F00F0050442168D8
:103BB00088606BE0FDF77EFE814604206168A0FB13
:103BC000015003461920A9FB00712A463846FCF72C
:103BD000BFFB824604206168A0FB01500346192008
:103BE000A9FB00712A463846FCF7B2FB6421B0FB02
:103BF000F1F000EBC00101EB0010AAEB80003221D4
:103C000001EB00106421B0FBF1F000F0F00A042099
:103C10006168A0FB015003461920A9FB00712A46E8
:103C20003846FCF795FB6421B0FBF1F00AEB001A73
:103C300004206168A0FB017003461920A9FB005015
:103C400001463A462846FCF783FB07460420616894
:103C5000A0FB015003461920A9FB00B12A46584693
:103C6000FCF776FB6421B0FBF1F000EBC00101EB47
:103C70000010A7EB8000322101EB00106421B0FBA3
:103C8000F1F000F00F00504421688860BDE8F88F23
:103C900000100140001401402DE9F04104460D469A
:103CA00017469846069E21E0701CF8B12EB1FDF72C
:103CB00093FAA0EB0800B04218D92068C06820F43D
:103CC000D0702168C8602068406920F00100216838
:103CD0004861202084F8390084F83A0000BF0020B1
:103CE00084F8380000BF0320BDE8F0812068006838
:103CF0002840A84201D1012000E00020B842D3D0E2
:103D00000020F1E710B5002804DB0A07130E054A6E
:103D1000135406E00A07140E034A00F00F031B1F9A
:103D2000D45410BD00E400E018ED00E00248006843
:103D3000C0F30220704700000CED00E090ED010A96
:103D4000704710B52DED068B0446B0EE409AF0EEAC
:103D5000609AB0EE498AF0EE698A94ED020A10EE9C
:103D6000101A084602F0ECF941EC1A0B53EC182B30
:103D700002F0C6F801D2A06813E094ED030A10EE39
:103D8000101A084602F0DCF941EC1A0B53EC182B20
:103D900001F07CFF01D2E06803E051EC180B01F068
:103DA000D1FC6060BDEC068B10BD000009480078B6
:103DB000722807D078280BD19FED070A074880EDBD
:103DC000000A05E09FED040A044880ED000A00BFE8
:103DD00000BF70479C00002000000000A0000020F1
:103DE00000BF00F007F8FFF7E1FF0A2000F03BFDFD
:103DF000F7E700000A48C08C0A4908800848B0F973
:103E00002800242190FBF1F000B207490880044803
:103E1000408D0649088072200549087070470000EF
:103E2000D8000020A4000020A6000020A800002048
:103E30009C00002010B52DED048B0446B0EE408AA6
:103E4000F0EE608A9FED0A0B53EC102B51EC180B2F
:103E500001F058FF41EC190B9FED070B53EC102BB1
:103E600001F056FDC4E90801BDEC048B10BD000053
:103E7000182D4454FB21194000000000009BBF4056
:103E8000DFED090A9FED090A094B0360C0ED020A44
:103E900080ED030A00BF074B0360018200BF064BA1
:103EA0000360C261704700000000C8C20000C84241
:103EB00054630008646300087463000810B52DEDB6
:103EC000028B1748007810B1012825D10AE09FED38
:103ED000150B1648FFF735FF9FED120B1448FFF73F
:103EE00030FF19E013480078012814D19FED0D0B25
:103EF000B0EE408AF0EE608AB0EE480AF0EE680A52
:103F00000A48FFF71EFFB0EE480AF0EE680A0848BC
:103F1000FFF717FF00BF00BF00BFBDEC028B10BD55
:103F2000C00000200000000000000000C04300208E
:103F3000E8430020C100002000BF00F007F8FFF7B1
:103F4000BDFF0A2000F08FFCF7E7000010B52DED53
:103F5000028B184800F112010C88204601F083FE04
:103F600041EC180BB0EE480AF0EE680A1148FFF772
:103F700061FF114800F112010C88204601F073FE28
:103F800041EC180BB0EE480AF0EE680A0A48FFF759
:103F900051FF0120094908709FED090B0A48FFF7FE
:103FA00091FB9FED070B0948FFF78CFBBDEC028BE3
:103FB00010BD0000C0430020E8430020C0000020E6
:103FC000000000000000000040430020804300206B
:103FD000DFED090A9FED090A094B0360C0ED020AF3
:103FE00080ED030A00BF074B0360018200BF064B50
:103FF0000360C261704700000000C8C20000C842F0
:1040000054630008646300088463000810B52DED54
:10401000068B3848007820B1012817D0022864D1D7
:1040200029E09FED350B3648FFF78BFE9FED320BF5
:104030003448FFF786FE9FED300B3348FFF781FED3
:104040009FED2D0B3148FFF77CFE4EE09FED2A0BD4
:104050002B48FFF776FE9FED280B2A48FFF771FEED
:104060009FED250B2848FFF76CFE9FED230B27489B
:10407000FFF767FE39E0224800F11201B1F9024072
:10408000204601F0D9FD41EC1A0B9FED210B53ECBA
:10409000102B01F03DFC41EC190BB0EE490AF0EE9B
:1040A000690A1D48FFF744FAB0EE408AF0EE608AD4
:1040B000B0EE480AF0EE680A1148FFF742FEB0EE93
:1040C000480AF0EE680A0F48FFF73BFEB0EE480AD8
:1040D000F0EE680A0C48FFF734FEB0EE480AF0EE46
:1040E000680A0A48FFF72DFE00BF00BFBDEC068B33
:1040F00010BD00009800002000000000000000003B
:10410000A0420020C0420020E042002000430020E6
:1041100000000000000033406042002000BF00F0BB
:1041200007F8FFF773FF022000F09DFBF7E70000A0
:104130000220044908709FED040B054880ED0E0B2A
:1041400000BF704798000020000000000000694098
:104150006042002010B5044614B96FF0010010BD94
:104160000748007810B16FF00200F8E700F07CF823
:10417000044804600120024908700020EFE70000B5
:10418000D4000020C400002070B504462B4B2C4AFC
:1041900000212046FCF763FB29480068A0F20120BB
:1041A0000A283DD2DFE800F0050D151D3C3C253CFA
:1041B0002C34244800F0E4F905462049FFF796FA2C
:1041C0003AE0214800F0DCF905461C49FFF78EFA79
:1041D00032E01E4800F0D4F905461849FFF786FA88
:1041E0002AE01B4800F0CCF905461449FFF77EFA97
:1041F00022E01249174800682630FFF777FA1BE0E3
:10420000154800F0BDF905460C49FFF76FFA13E0B9
:10421000124800F0B5F905460849FFF767FA0BE0C8
:104220000F480068401C0E49086000224FF40061EE
:104230000C48FCF7CAFF00BF00BF70BDCC000020D7
:1042400010440020A0420020C0420020E042002094
:1042500000430020C4000020C0430020E8430020A9
:10426000C80000200010024000B58BB0002006906E
:104270000790012008900020019002900390049084
:1042800005900E200A900120099001A90848FCF72A
:104290003FFA0748FCF737FE0E200A90069001A966
:1042A0000448FCF735FA0348FCF72DFE0BB000BDBF
:1042B00018010020400100200FB42DED040BF0B5D3
:1042C0002DED048B89B0B0EE408AF0EE608AB0EE3E
:1042D000419AF0EE619A9FED300A28EE000ADFED78
:1042E0002F0A80EE201ABDEEC10A10EE100A04B2A9
:1042F0009FED290A28EE800ADFED280A80EE201AB9
:10430000BDEEC10A10EE100A05B29FED230A29EE98
:10431000000ADFED220A80EE201ABDEEC10A10EE7F
:10432000100A06B29FED1C0A29EE800ADFED1B0A77
:1043300080EE201ABDEEC10A10EE100A07B24FF44B
:104340000070039000200590069008200790200A36
:104350008DF80400E0B28DF80500280A8DF80600FB
:10436000E8B28DF80700300A8DF80800F0B28DF839
:104370000900380A8DF80A00F8B28DF80B00012305
:1043800001AA03A916A8FCF717F9002009B0BDEC93
:10439000048BF0BC5DF824FB000080460000C8429E
:1043A0000FB42DED040B70B52DED048B88B0B0EE7D
:1043B000408AF0EE608AB0EE419A9FED270A28EE1F
:1043C000000ADFED260A80EE201ABDEEC10A10EECB
:1043D000100A04B29FED200A28EE800ADFED1F0AC2
:1043E00080EE201ABDEEC10A10EE100A05B29FED54
:1043F0001C0A29EE000ABDEEC00A10EE100A06B231
:1044000040F2FF20029000200490059008200690C2
:10441000200A8DF80000E0B28DF80100280A8DF81E
:104420000200E8B28DF80300300A8DF80400F0B203
:104430008DF8050000208DF806008DF80700012397
:104440006A4602A914A8FCF7B7F8002008B0BDEC32
:10445000048B70BC5DF824FB0060EA460000C84293
:1044600000401C4610B52DED048B90B02F4800780D
:1044700088BB20222E4906A8FBF7E1FF2C4890F8C4
:1044800020008DF838002A48406A0F902948FFF72D
:1044900055FCB0EE408A2848FFF750FCF0EE408A09
:1044A0002648FFF74BFCB0EE409A2548FFF746FC44
:1044B000F0EE409A18220AA96846FBF7C0FFF0EE1A
:1044C000481AB0EE681AF0EE490AB0EE690A06A87A
:1044D0000FC8FFF7F1FE2022154906A8FBF7AFFF32
:1044E000134890F820008DF838001148406A0F906A
:1044F0001448FFF723FCB0EE408A1348FFF71EFC78
:10450000F0EE408A18220AA96846FBF798FF0F4C84
:1045100006A80FC894ED001AF0EE480AB0EE680A3B
:10452000FFF73EFF10B0BDEC048B10BD99000020DA
:104530001801002000430020E0420020C04200207B
:10454000A0420020E8430020C0430020A00000203B
:1045500000F036F800BF00F007F8FFF783FF0120F6
:1045600000F081F9F7E7000010B500210348FCF7DF
:1045700062F910B10148FFF707FE10BD18010020D5
:10458000014601F1120070470448007810B101287B
:1045900002D100E000E000BF00BF7047B000002083
:1045A00000BF00F007F8FFF7EFFF0A2000F05BF90B
:1045B000F7E700000020014908707047B0000020B4
:1045C00010B50248FFF7C6FD10BD0000D80000205E
:1045D0002DE9FE4F80460C462588608800F5004096
:1045E00086B2A08800F500401FFA80FA00BF174885
:1045F00090ED010ABDEEC00A10EE100A00F5004071
:1046000087B294F806904D208DF8000028128DF89E
:104610000100E8B28DF8020030128DF80300F0B20C
:104620008DF8040038128DF80500F8B28DF80600F8
:104630008DF807905A208DF8080032230922694628
:104640004046FEF719F9BDE8FE8F0000C043002088
:1046500010B5044800F112010C460348FFF7B8FFFB
:1046600010BD0000C04300209802002000BF00F0F1
:1046700006F8FFF7EDFF142000F0F5F8F7E77047B4
:1046800010B59FED102B9FED0F1B9FED100B002120
:104690001048FFF71BF89FED0B2B9FED0A1B9FEDBA
:1046A000090B00210C48FFF711F80A4A40F20921D2
:1046B0000A48FFF7E5FB084A40F20A210848FFF7DD
:1046C000DFFB10BD00000000000000000000000043
:1046D000000008404043002080430020C0430020E9
:1046E000E843002010B5164801219FED160B9FED01
:1046F000171B9FED162B017080ED020B80ED041B44
:1047000080ED062B9FED113B80ED083B00BF02467C
:1047100040F201210F48FFF75BFC094A40F20221F9
:104720000D48FFF755FC064A40F203210B48FFF7FE
:104730004FFC034A4FF401710948FFF749FC10BDD3
:1047400060420020666666666666E63F000000001E
:1047500000000000A0420020C0420020E0420020F3
:104760000043002070B5094809490122094B04247F
:1047700040F2152540F23B4641608260C36004610F
:104780004561866100BF00BF00BF70BD20430020AF
:1047900098010020001C0240FCF730FDFEF75EFE91
:1047A000FEF71EF9FEF7D6F8FEF716FAFEF77EFAC8
:1047B000FEF7E8FAFEF752FBFEF7E4F9FEF7F2F92E
:1047C000FEF7D2FBFEF7EAF80122D1021F48FCF700
:1047D000FCFC012291031E48FCF7F7FC01221102A8
:1047E0001C48FCF7F2FC012280211A48FCF7EDFC82
:1047F000012240211748FCF7E8FC0122202115483E
:10480000FCF7E3FC012210211248FCF7DEFC012238
:1048100008211048FCF7D9FC012204210D48FCF7BF
:10482000D4FC012202210B48FCF7CFFCFEF7E6FC8A
:1048300000F025F808E04FF400610448FCF7BCFCE8
:104840004FF4FA70FCF796FBF5E700000010024009
:10485000001402400018024001460020842901D0C3
:10486000CA1C1044704770B5044625460DB1294650
:1048700000E00121084600F027FC002070BD10B5C3
:1048800000F050FC002010BD7FB504460D46606965
:1048900098B1A06988B1B4F90800FFF7DDFF0646BA
:1048A000D4E90510CDE9006102902B462269D4E9D4
:1048B000001000F0C3FD039013E0B4F90800FFF707
:1048C000CBFF064603A8CDE90060238A9AB22B46A7
:1048D000D4E9001000F080FD012802D0002004B0CF
:1048E00070BD0398FBE700002DE9F04105460E4638
:1048F0001C4807681C480068001D00F0E9FA50B920
:104900001948006890F82C10012088401749096860
:10491000814316480160681C38B936B112480168F5
:10492000091D134800F01EFB1AE07C190E480068B0
:104930004460BC4207D20C480168091D0D4800685C
:1049400000F0F6FA0CE008480168091D0A48006802
:1049500000F0EEFA09480068844201D2074804607A
:10496000BDE8F0814C0000203800002050000020FD
:10497000F4030020400000203C00002068000020DC
:1049800010B5044600F0FAFA23480068401C22499A
:1049900008602248006840B9204804600846006862
:1049A00001280DD100F03EF90AE01D48006838B931
:1049B0001A480068C06AE16A884201D81748046052
:1049C00018480068401C1749086094F82C10012012
:1049D000884015490968084313490860E16A01EBFA
:1049E0008101124A02EB8100211D00F0BBFA00F0A8
:1049F000EFFA0B48006868B108480068C06AE16ACD
:104A0000884207D24FF0805009490860BFF34F8FAA
:104A1000BFF36F8F10BD0000480000203800002059
:104A200054000020640000205000002018030020E3
:104A300004ED00E010B516E000F0A0FA0C48C068E4
:104A4000C468201D00F044FA0A480068401E094965
:104A5000086009480068401E0749086000F0B8FA7D
:104A6000204600F00BF8044800680028E4D110BD8F
:104A7000E0030020480000204400002010B5044658
:104A800094F8510030B9206B00F0C0FA204600F0D5
:104A9000BDFA1AE094F85100012803D1204600F035
:104AA000B5FA12E094F85100022801D1012000E08B
:104AB000002050B900BF502080F31188BFF34F8F02
:104AC000BFF36F8F00BF00BFFEE710BD30B54FF4DE
:104AD0007053174800F007042CB1C01D20F00700E8
:104AE000134C041B1B1B0246124C22600024114D68
:104AF0006C60D018083820F007000F4C20600024AC
:104B00000D4D2D686C600C4D2D682C601146441ABB
:104B10004C60094C24680C60084D4C682C60084DB2
:104B20004C682C604FF00044064D2C6030BD0000F6
:104B30005C060020740000207C000020840000201F
:104B4000800000208800002000BFFFF773FF0648A8
:104B500000680128F9D94FF0805004490860BFF37C
:104B60004F8FBFF36F8FF0E71803002004ED00E0D4
:104B70002DE9FF5F81460E469246DDE90E7B109CD3
:104B8000AAF10100216B01EB800828F0070808F06A
:104B9000070008B9012000E0002050B900BF5020F4
:104BA00080F31188BFF34F8FBFF36F8F00BF00BF3B
:104BB000FEE786B1002507E0715D04F13400415540
:104BC000705D00B902E06D1C102DF5D300BF00210F
:104BD0004320015502E0002084F83400072F00D361
:104BE0000627E76267640020A064201D00F09DF99D
:104BF00004F1180000F099F92461C7F10700A061E1
:104C000064620020E06484F8500049464046039AFC
:104C100000F048F92060BBF1000F01D0CBF8004054
:104C2000BDE8FF9F10B5002407E004EB84010F4AA4
:104C300002EB810000F06CF9641C072CF5D30C48E2
:104C400000F066F90B4800F063F90B4800F060F9DA
:104C50000A4800F05DF90A4800F05AF90448094989
:104C6000086004480849086010BD000018030020CF
:104C7000A4030020B8030020CC030020E0030020A0
:104C8000F40300203C0000204000002010B5014645
:104C9000164800E0006803688B42FBD30246436875
:104CA00013448B4204D143684C682344436001465B
:104CB0000A464B6813440468A34211D10C4C0368A4
:104CC0002468A34208D04B680468646823444B609E
:104CD00003681B680B6005E0054B1B680B6001E077
:104CE00003680B60884200D0016010BD7400002092
:104CF0007C0000200A490968096809B9012100E01F
:104D0000002121B14FF0FF31064A116006E004494D
:104D10000968C968C868034A4168116070470000A3
:104D20003C000020680000200E480068401C08B9C4
:104D3000012000E0002050B900BF502080F311880E
:104D4000BFF34F8FBFF36F8F00BF00BFFEE700BF01
:104D5000502080F31188BFF34F8FBFF36F8F00BFD8
:104D600000BFFEE78C0000202DE9F04104464FF023
:104D7000000800F02FFA4648006808B9FFF7A6FEC1
:104D800044480068204000286BD1D4B1083404F0B6
:104D90000700B0B104F00700C0F10800044404F0BB
:104DA000070008B9012000E0002050B900BF5020E2
:104DB00080F31188BFF34F8FBFF36F8F00BF00BF29
:104DC000FEE7002C4DD034480068844249D8334E69
:104DD0003046056801E02E462D686868A04202D280
:104DE00028680028F7D12A480068854239D0306801
:104DF00000F10808286830606868001B102819D97D
:104E00002F1907F0070008B9012000E0002050B971
:104E100000BF502080F31188BFF34F8FBFF36F8F17
:104E200000BF00BFFEE76868001B78606C60384612
:104E3000FFF72CFF184968680968081A16490860C6
:104E40000846006816490968884203D2124800687B
:104E5000134908600F4968680968084368600020C2
:104E6000286000F0EDFB08F0070008B9012000E021
:104E7000002050B900BF502080F31188BFF34F8F3E
:104E8000BFF36F8F00BF00BFFEE74046BDE8F08173
:104E90007C0000208800002080000020740000209A
:104EA00084000020001F4FF080730360001F21F07A
:104EB00001030360001F054B036014380260001FEC
:104EC0006FF002030360203870470000294D00088E
:104ED00001460A69D1E901309860D1E901035860BF
:104EE0005068884201D188685060002008611068CD
:104EF000401E106010687047034B0360034B0B604B
:104F0000802313607047000008060020080400207A
:104F100000F1080141604FF0FF31816000F10801AC
:104F2000C16001610021016070470021016170478B
:104F300010B502460B685C1C0CB9106907E002F161
:104F4000080000E04068446824689C42FAD944683C
:104F50004C604C68A160886041600A611468641C00
:104F6000146010BD42684A6093688B609368596012
:104F70009160086103685B1C0360704700BF5020AC
:104F800080F31188BFF34F8FBFF36F8F00BF0E48C0
:104F90000068401C0C49086008460068012812D1CE
:104FA0000A480068C0B208B9012000E0002050B9EA
:104FB00000BF502080F31188BFF34F8FBFF36F8F76
:104FC00000BF00BFFEE770478C00002004ED00E04A
:104FD0000D48006850B900BF502080F31188BFF31E
:104FE0004F8FBFF36F8F00BF00BFFEE7064800681A
:104FF000401E054908600846006820B9002080F37B
:10500000118800BF00BF70478C00002070B50646B5
:105010003546002E3FD0083D2C461F496068096880
:10502000084008B1012000E0002050B900BF502026
:1050300080F31188BFF34F8FBFF36F8F00BF00BFA6
:10504000FEE7206808B9012000E0002050B900BF49
:10505000502080F31188BFF34F8FBFF36F8F00BFD5
:1050600000BFFEE70C4960680968084098B12068F5
:1050700088B90949606809688843606000F0AAF847
:105080000649606809680844044908602046FFF73B
:10509000FDFD00F0D5FA70BD8800002080000020E2
:1050A00000204FF0E02108618861064800684FF455
:1050B0007A71B0FBF1F0401E4FF0E021486107200B
:1050C000086170473400002070B504460025D4B153
:1050D0001248006808B9012000E0002050B900BF64
:1050E000502080F31188BFF34F8FBFF36F8F00BF45
:1050F00000BFFEE700F06EF800212046FFF7F4FB4A
:1051000000F09EFA05463DB94FF080500449086012
:10511000BFF34F8FBFF36F8F70BD00007000002092
:1051200004ED00E010B586B000200590049003AABD
:1051300004A905A8FFF7E0FE0022DDE904101346EC
:10514000CDE9002102901CA11D48039A00F076F9D8
:105150001C4908600846006808B1012400E00024EA
:10516000012C15D100BF502080F31188BFF34F8F61
:10517000BFF36F8F00BF4FF0FF301349086001206D
:105180001249086000201249086000F071F810E030
:10519000601C08B1012000E0002050B900BF502081
:1051A00080F31188BFF34F8FBFF36F8F00BF00BF35
:1051B000FEE706B010BD000049444C450000000069
:1051C000494B00086C0000206800002054000020BB
:1051D0004C00002002480068401C014908607047EC
:1051E000700000201D48006818B101201C490860AB
:1051F00032E000201A4908601A480068B0FA80F0CE
:10520000C0F11F0101EB8100174A52F8200008B1DC
:10521000012000E0002050B900BF502080F3118829
:10522000BFF34F8FBFF36F8F00BF00BFFEE701EBEF
:1052300081020D4B03EB820042685268426000F12C
:1052400008024368934202D1426852684260426851
:10525000D268064B1A6000BF704700007000002043
:105260005C000020500000201803002038000020BF
:105270001CB5524800685249884201D0012000E024
:10528000002050B900BF502080F31188BFF34F8F2A
:10529000BFF36F8F00BF00BFFEE748480068484972
:1052A000491E884201D0012000E0002050B900BF13
:1052B000502080F31188BFF34F8FBFF36F8F00BF73
:1052C00000BFFEE73F49084600780190FF200A46EC
:1052D00010700846007800909DF8000000F0F00083
:1052E0009DF80020904201D1012000E0002050B93B
:1052F00000BF502080F31188BFF34F8FBFF36F8F33
:1053000000BF00BFFEE79DF8000000F050002E4AED
:10531000107007202D4A106009E02C480068401EDC
:105320002A4A10609DF800004006000E00909DF88B
:10533000000000F080008028EFD024480068C0F111
:105340000700042801D1012000E0002050B900BF6F
:10535000502080F31188BFF34F8FBFF36F8F00BFD2
:1053600000BFFEE7194800680002184A10601046A6
:10537000008800F4E0601060124A019810700F4835
:105380002030006840F470000C4920310860084665
:10539000006840F070400860FFF782FE00200C4972
:1053A0000860FAF779FF0B48006840F0404009496F
:1053B0000860FAF75DFF00201CBD000000ED00E072
:1053C00071C20F4100E400E0900000209400002032
:1053D0008C00002034EF00E02DE9FF4F85B08046BF
:1053E00089461746DDE912ABB800FFF7BDFC06465B
:1053F00056B15420FFF7B8FC04460CB1266304E014
:105400003046FFF703FE00E000248CB1002084F852
:105410005100CDE900ABCDE902403A46494640464D
:10542000089BFFF7A5FB2046FFF7AAFA012501E03C
:105430004FF0FF35284609B0BDE8F08F2DE9F04F59
:1054400085B00746884691469A46DDE90EB6109C1F
:105450000EB1012000E0002050B900BF502080F3C1
:105460001188BFF34F8FBFF36F8F00BF00BFFEE700
:105470000CB1012000E0002050B900BF502080F3A3
:105480001188BFF34F8FBFF36F8F00BF00BFFEE7E0
:10549000542003900398542801D1012000E00020FB
:1054A00050B900BF502080F31188BFF34F8FBFF376
:1054B0006F8F00BF00BFFEE700BFB4B1AEB125469D
:1054C0002C462E63022085F85100002004A9534683
:1054D0004A46CDE900B1CDE9025041463846FFF7D2
:1054E00047FB2846FFF74CFA01E00020049004989F
:1054F00005B0BDE8F08F00002DE9F0414FF0000845
:1055000044480068002877D143480068451C424859
:10551000056015BB41480068006808B9012000E03B
:10552000002050B900BF502080F31188BFF34F8F87
:10553000BFF36F8F00BF00BFFEE7384807683848E9
:105540000068364908603648076036480068401CE5
:1055500034490860FFF7CEFB00BF3348006885423E
:105560003CD300BF2D480068006808B9012000E066
:10557000002020B14FF0FF302B4908602DE0274874
:105580000068C068C4686668B54202D226480660F2
:1055900023E0201DFFF79CFCA06A18B104F118005D
:1055A000FFF796FC94F82C10012088401F490968E9
:1055B00008431E490860E16A01EB81011C4A02EBC5
:1055C0008100211DFFF7CEFC1A49E06A0968C96A0B
:1055D0008842C7D34FF00108C4E700BF15480068F0
:1055E000C06A00EB8000124951F82000012801D95F
:1055F0004FF0010805E0FFE70F480068401C0E4926
:1056000008600E48006808B14FF001084046BDE848
:10561000F0810000700000204C0000203C000020C1
:1056200040000020600000206800002050000020A2
:105630001803002038000020580000205C000020E3
:1056400070B5002400263648006850B900BF5020CD
:1056500080F31188BFF34F8FBFF36F8F00BF00BF80
:10566000FEE7FFF78BFC2E480068401E2C490860BF
:105670000846006800284FD12A48006800284BD00F
:1056800024E02948C068C46804F11800FFF720FC32
:10569000201DFFF71DFC94F82C10012088402349A1
:1056A0000968084321490860E16A01EB8101204A49
:1056B00002EB8100211DFFF755FC1E49E06A0968D5
:1056C000C96A884202D301201B4908601648006855
:1056D00008B9012000E000200028D2D00CB1FFF76B
:1056E00009FB1648056865B100BFFFF705FF10B15B
:1056F0000120114908606D1E002DF6D100200F49D0
:1057000008600D48006838B1012630070C49086070
:10571000BFF34F8FBFF36F8FFFF75AFC304670BD5A
:105720007000002048000020CC0300205000002022
:1057300018030020380000205C00002058000020E2
:1057400004ED00E021F00042A2F16052B2F5801FAA
:1057500001F0004328BFD2F17F6C0BD95FEA001C37
:1057600043EAC20242EB507018BF704728BF20F0D6
:1057700001007047B2F5801FBCBF184670474FEA62
:10578000410C1CF5001F02D2084600F04FBD70B559
:1057900000F062FB00000089FFF7F6BF4FF0004009
:1057A000A0F580007047000010B591EA030F48BFD4
:1057B00083F0004300F1E283841A71EB030C05D2FD
:1057C000121943EB0C03001B61EB0C01DFF824E121
:1057D0004FEA1154A4EB135C1EEA430F18BF9EEA74
:1057E000445F73D023EA0E03DCF1200E21EA04515A
:1057F00043F4801332D322FA0CFE10EB0E0023FA8E
:105800000CFE41EB0E01CCF1200E03FA0EFE10EB64
:105810000E0051F10001B1F5801FCCF1200E32D203
:1058200001EB045112FA0EF2BDE8104058BF704768
:10583000401C38BF5FEA420218BF7047002814BFFF
:1058400020F0010041F100014FEA410313F5001F70
:1058500038BF7047A1F1C04100F04CBB012A43EBB7
:105860000302ACF1200CDCF11F0E32BF4FF0000E32
:1058700023FA0CF310EB030041EB0451B4EB115F7E
:10588000D0D0A1EB045101F5801149085FEA300046
:1058900001EB04510ED350F1000038BF12FA0EFE96
:1058A00008D1BDE81040C9E7401C38BF5FEA42029A
:1058B000CAD1C3E7BDE810404FEA410313F5001F0A
:1058C00038BF7047A1F1C04100F014BB9EEA445FAD
:1058D00008D011EA5E0FBDE8104004BF01F000419E
:1058E00000207047BDE8104070B500F0B5FA00BF69
:1058F00064FBBE3E0000E0FF491058BFC1F14041CB
:105900005B1058BFC3F140438B42EFF300807047F8
:105910002DE9C04130B4DFF8A0C23CEA111418BF31
:105920003CEA131400F0EC8081EA03051CEA111430
:1059300044EAD57418BF1CEA131500F0C780A4EB25
:1059400005044FF0004545EAC12145EAC32341EA79
:10595000505143EA525304F17F74994204F50034E4
:105960004FEAC0204FEAC22208BF904200F09C805C
:105970004FEA13650FF24016765D4FEA134506FBBA
:1059800005F7C7F1807706FB07F74FEAD737A7FB84
:1059900003687642C8F58038A7FB06CE38BFA8F169
:1059A000010807FB08E64FF0000EA6FB028CE6FBA1
:1059B00003CEDCF1000CCEF1004E38BFAEF1010E8B
:1059C000A6FB0C584FF000074FF00005E6FB0E87D2
:1059D000A1FB08C6A0FB07CE16EB0E0645F100059D
:1059E000E1FB076515F1E04E7EBFA4F580345FEA68
:1059F00046066D4116F1800745F100054FEA17276D
:105A00004FEA066647EA0567A6F1DE46B6F1805F13
:105A10004FEA15251FD9384624F0010C05EBC47157
:105A2000BCF1FE6F01EB0C1102D8F0BCBDE80081A7
:105A300024425CBF01F5801E9EEAC47F02D4F0BC04
:105A4000BDE80081244238D4F0BCA1F1C041BDE8DA
:105A5000004100F04FBA4FEAD22242EA43524FEAE5
:105A6000D323A7FB02864FEAD02040EA415007FB30
:105A700003661EEA0E0F4FEAD12105FB026658BFEE
:105A8000A6EB0056B6EB00564FEA520E4EEAC37E26
:105A900018EB0E0E56EB530EBDD518EB02085E4107
:105AA0007F1C55F10005B6E74FF480154FF0000755
:105AB0004FF000064FF00008ADE7F0BC4FF00000DB
:105AC00001F1C04101F00041BDE8008111EA0C1F65
:105AD0000CEA131500D00CE013EA0C1F00F025802F
